{
  "contractName": "mainNftRaffle",
  "abi": [
    {
      "inputs": [],
      "stateMutability": "nonpayable",
      "type": "constructor"
    },
    {
      "inputs": [
        {
          "internalType": "address",
          "name": "have",
          "type": "address"
        },
        {
          "internalType": "address",
          "name": "want",
          "type": "address"
        }
      ],
      "name": "OnlyCoordinatorCanFulfill",
      "type": "error"
    },
    {
      "anonymous": false,
      "inputs": [
        {
          "indexed": true,
          "internalType": "address",
          "name": "from",
          "type": "address"
        },
        {
          "indexed": true,
          "internalType": "address",
          "name": "to",
          "type": "address"
        }
      ],
      "name": "OwnershipTransferRequested",
      "type": "event"
    },
    {
      "anonymous": false,
      "inputs": [
        {
          "indexed": true,
          "internalType": "address",
          "name": "from",
          "type": "address"
        },
        {
          "indexed": true,
          "internalType": "address",
          "name": "to",
          "type": "address"
        }
      ],
      "name": "OwnershipTransferred",
      "type": "event"
    },
    {
      "anonymous": false,
      "inputs": [
        {
          "indexed": false,
          "internalType": "uint256",
          "name": "requestId",
          "type": "uint256"
        },
        {
          "indexed": false,
          "internalType": "uint256[]",
          "name": "randomWords",
          "type": "uint256[]"
        }
      ],
      "name": "RequestFulfilled",
      "type": "event"
    },
    {
      "anonymous": false,
      "inputs": [
        {
          "indexed": false,
          "internalType": "uint256",
          "name": "requestId",
          "type": "uint256"
        },
        {
          "indexed": false,
          "internalType": "uint32",
          "name": "numWords",
          "type": "uint32"
        }
      ],
      "name": "RequestSent",
      "type": "event"
    },
    {
      "anonymous": false,
      "inputs": [
        {
          "indexed": true,
          "internalType": "uint256",
          "name": "raffleId",
          "type": "uint256"
        },
        {
          "indexed": false,
          "internalType": "uint256",
          "name": "winningTicketNumber",
          "type": "uint256"
        },
        {
          "indexed": false,
          "internalType": "address",
          "name": "winningTicketOwner",
          "type": "address"
        }
      ],
      "name": "WinnerSelected",
      "type": "event"
    },
    {
      "anonymous": false,
      "inputs": [
        {
          "indexed": true,
          "internalType": "uint256",
          "name": "raffleId",
          "type": "uint256"
        }
      ],
      "name": "raffleEnded",
      "type": "event"
    },
    {
      "inputs": [],
      "name": "acceptOwnership",
      "outputs": [],
      "stateMutability": "nonpayable",
      "type": "function"
    },
    {
      "inputs": [],
      "name": "lastRequestId",
      "outputs": [
        {
          "internalType": "uint256",
          "name": "",
          "type": "uint256"
        }
      ],
      "stateMutability": "view",
      "type": "function",
      "constant": true
    },
    {
      "inputs": [],
      "name": "owner",
      "outputs": [
        {
          "internalType": "address",
          "name": "",
          "type": "address"
        }
      ],
      "stateMutability": "view",
      "type": "function",
      "constant": true
    },
    {
      "inputs": [
        {
          "internalType": "uint256",
          "name": "",
          "type": "uint256"
        }
      ],
      "name": "raffleIdToRequestId",
      "outputs": [
        {
          "internalType": "uint256",
          "name": "",
          "type": "uint256"
        }
      ],
      "stateMutability": "view",
      "type": "function",
      "constant": true
    },
    {
      "inputs": [
        {
          "internalType": "uint256",
          "name": "requestId",
          "type": "uint256"
        },
        {
          "internalType": "uint256[]",
          "name": "randomWords",
          "type": "uint256[]"
        }
      ],
      "name": "rawFulfillRandomWords",
      "outputs": [],
      "stateMutability": "nonpayable",
      "type": "function"
    },
    {
      "inputs": [
        {
          "internalType": "uint256",
          "name": "",
          "type": "uint256"
        }
      ],
      "name": "requestIds",
      "outputs": [
        {
          "internalType": "uint256",
          "name": "",
          "type": "uint256"
        }
      ],
      "stateMutability": "view",
      "type": "function",
      "constant": true
    },
    {
      "inputs": [
        {
          "internalType": "uint256",
          "name": "",
          "type": "uint256"
        }
      ],
      "name": "s_requests",
      "outputs": [
        {
          "internalType": "bool",
          "name": "fulfilled",
          "type": "bool"
        },
        {
          "internalType": "bool",
          "name": "exists",
          "type": "bool"
        }
      ],
      "stateMutability": "view",
      "type": "function",
      "constant": true
    },
    {
      "inputs": [
        {
          "internalType": "uint256",
          "name": "",
          "type": "uint256"
        },
        {
          "internalType": "uint256",
          "name": "",
          "type": "uint256"
        }
      ],
      "name": "ticketToOwner",
      "outputs": [
        {
          "internalType": "address",
          "name": "",
          "type": "address"
        }
      ],
      "stateMutability": "view",
      "type": "function",
      "constant": true
    },
    {
      "inputs": [
        {
          "internalType": "address",
          "name": "to",
          "type": "address"
        }
      ],
      "name": "transferOwnership",
      "outputs": [],
      "stateMutability": "nonpayable",
      "type": "function"
    },
    {
      "inputs": [],
      "name": "requestRandomWords",
      "outputs": [
        {
          "internalType": "uint256",
          "name": "requestId",
          "type": "uint256"
        }
      ],
      "stateMutability": "nonpayable",
      "type": "function"
    },
    {
      "inputs": [
        {
          "internalType": "uint256",
          "name": "_raffleId",
          "type": "uint256"
        }
      ],
      "name": "requestRandomTicket",
      "outputs": [
        {
          "internalType": "uint256",
          "name": "requestId",
          "type": "uint256"
        }
      ],
      "stateMutability": "nonpayable",
      "type": "function"
    },
    {
      "inputs": [
        {
          "internalType": "uint256",
          "name": "_raffleId",
          "type": "uint256"
        }
      ],
      "name": "getRequestForRaffle",
      "outputs": [
        {
          "internalType": "uint256",
          "name": "requestId",
          "type": "uint256"
        }
      ],
      "stateMutability": "view",
      "type": "function",
      "constant": true
    },
    {
      "inputs": [
        {
          "internalType": "uint256",
          "name": "_requestId",
          "type": "uint256"
        }
      ],
      "name": "getRequestStatus",
      "outputs": [
        {
          "internalType": "bool",
          "name": "fulfilled",
          "type": "bool"
        },
        {
          "internalType": "uint256[]",
          "name": "randomWords",
          "type": "uint256[]"
        }
      ],
      "stateMutability": "view",
      "type": "function",
      "constant": true
    },
    {
      "inputs": [
        {
          "internalType": "string",
          "name": "_raffleName",
          "type": "string"
        },
        {
          "internalType": "string",
          "name": "_description",
          "type": "string"
        },
        {
          "internalType": "uint256",
          "name": "_nftPrice",
          "type": "uint256"
        },
        {
          "internalType": "uint256",
          "name": "_totalVolumeofTickets",
          "type": "uint256"
        },
        {
          "internalType": "uint256",
          "name": "_endTime",
          "type": "uint256"
        },
        {
          "internalType": "string",
          "name": "_nftName",
          "type": "string"
        },
        {
          "internalType": "uint256",
          "name": "_nftId",
          "type": "uint256"
        },
        {
          "internalType": "address",
          "name": "_nftContractAddress",
          "type": "address"
        },
        {
          "internalType": "string[5]",
          "name": "_goals",
          "type": "string[5]"
        },
        {
          "internalType": "string",
          "name": "_nftSourceLink",
          "type": "string"
        },
        {
          "internalType": "address",
          "name": "_charityAddress",
          "type": "address"
        }
      ],
      "name": "createRaffle",
      "outputs": [
        {
          "internalType": "uint256",
          "name": "",
          "type": "uint256"
        }
      ],
      "stateMutability": "nonpayable",
      "type": "function"
    },
    {
      "inputs": [
        {
          "internalType": "uint256",
          "name": "_raffleId",
          "type": "uint256"
        }
      ],
      "name": "getTicketPrice",
      "outputs": [
        {
          "internalType": "uint256",
          "name": "",
          "type": "uint256"
        }
      ],
      "stateMutability": "view",
      "type": "function",
      "constant": true
    },
    {
      "inputs": [
        {
          "internalType": "address",
          "name": "_address",
          "type": "address"
        },
        {
          "internalType": "uint256",
          "name": "raffleId",
          "type": "uint256"
        }
      ],
      "name": "getTicketsOwned",
      "outputs": [
        {
          "internalType": "uint256",
          "name": "",
          "type": "uint256"
        }
      ],
      "stateMutability": "view",
      "type": "function",
      "constant": true
    },
    {
      "inputs": [
        {
          "internalType": "address",
          "name": "owner",
          "type": "address"
        }
      ],
      "name": "getOwnedRaffles",
      "outputs": [
        {
          "internalType": "uint256",
          "name": "totalRaffles",
          "type": "uint256"
        },
        {
          "internalType": "uint256[]",
          "name": "raffleIds",
          "type": "uint256[]"
        }
      ],
      "stateMutability": "view",
      "type": "function",
      "constant": true
    },
    {
      "inputs": [
        {
          "internalType": "uint256",
          "name": "_raffleID",
          "type": "uint256"
        }
      ],
      "name": "getAvailableTickets",
      "outputs": [
        {
          "internalType": "uint256",
          "name": "",
          "type": "uint256"
        }
      ],
      "stateMutability": "view",
      "type": "function",
      "constant": true
    },
    {
      "inputs": [
        {
          "internalType": "uint256",
          "name": "_raffleId",
          "type": "uint256"
        },
        {
          "internalType": "uint256",
          "name": "_totalTicketsWanted",
          "type": "uint256"
        }
      ],
      "name": "buyTicket",
      "outputs": [],
      "stateMutability": "payable",
      "type": "function",
      "payable": true
    },
    {
      "inputs": [
        {
          "internalType": "uint256",
          "name": "_raffleId",
          "type": "uint256"
        },
        {
          "internalType": "uint256",
          "name": "_totalTicketsWanted",
          "type": "uint256"
        }
      ],
      "name": "getTotalTicketPrice",
      "outputs": [
        {
          "internalType": "uint256",
          "name": "",
          "type": "uint256"
        }
      ],
      "stateMutability": "view",
      "type": "function",
      "constant": true
    },
    {
      "inputs": [
        {
          "internalType": "uint256",
          "name": "raffleId",
          "type": "uint256"
        },
        {
          "internalType": "uint256",
          "name": "requestId",
          "type": "uint256"
        }
      ],
      "name": "pickWinner",
      "outputs": [],
      "stateMutability": "nonpayable",
      "type": "function"
    },
    {
      "inputs": [
        {
          "internalType": "uint256",
          "name": "_raffleId",
          "type": "uint256"
        }
      ],
      "name": "cancelRaffle",
      "outputs": [],
      "stateMutability": "nonpayable",
      "type": "function"
    },
    {
      "inputs": [
        {
          "internalType": "uint256",
          "name": "_raffleId",
          "type": "uint256"
        }
      ],
      "name": "getPrizePool",
      "outputs": [
        {
          "internalType": "uint256",
          "name": "",
          "type": "uint256"
        },
        {
          "internalType": "uint256",
          "name": "",
          "type": "uint256"
        },
        {
          "internalType": "uint256",
          "name": "",
          "type": "uint256"
        },
        {
          "internalType": "uint256",
          "name": "",
          "type": "uint256"
        }
      ],
      "stateMutability": "view",
      "type": "function",
      "constant": true
    },
    {
      "inputs": [
        {
          "internalType": "uint256",
          "name": "raffleId",
          "type": "uint256"
        }
      ],
      "name": "getRaffleWinner",
      "outputs": [
        {
          "internalType": "address",
          "name": "winner",
          "type": "address"
        },
        {
          "internalType": "uint256",
          "name": "winningTicket",
          "type": "uint256"
        }
      ],
      "stateMutability": "view",
      "type": "function",
      "constant": true
    },
    {
      "inputs": [
        {
          "internalType": "uint256",
          "name": "_raffleID",
          "type": "uint256"
        }
      ],
      "name": "raffleInfo",
      "outputs": [
        {
          "components": [
            {
              "internalType": "uint256",
              "name": "raffleId",
              "type": "uint256"
            },
            {
              "internalType": "string",
              "name": "raffleName",
              "type": "string"
            },
            {
              "internalType": "string",
              "name": "description",
              "type": "string"
            },
            {
              "internalType": "string[5]",
              "name": "goals",
              "type": "string[5]"
            },
            {
              "internalType": "uint256",
              "name": "nftPrice",
              "type": "uint256"
            },
            {
              "internalType": "uint256",
              "name": "totalVolumeofTickets",
              "type": "uint256"
            },
            {
              "internalType": "uint256",
              "name": "endTime",
              "type": "uint256"
            },
            {
              "internalType": "string",
              "name": "nftName",
              "type": "string"
            },
            {
              "internalType": "uint256",
              "name": "nftId",
              "type": "uint256"
            },
            {
              "internalType": "address",
              "name": "nftContractAddress",
              "type": "address"
            },
            {
              "internalType": "string",
              "name": "nftSourceLink",
              "type": "string"
            },
            {
              "internalType": "address",
              "name": "charityAddress",
              "type": "address"
            },
            {
              "internalType": "address",
              "name": "raffleCreator",
              "type": "address"
            },
            {
              "internalType": "uint256",
              "name": "rafflePool",
              "type": "uint256"
            },
            {
              "internalType": "uint256",
              "name": "ticketPrice",
              "type": "uint256"
            },
            {
              "internalType": "uint256",
              "name": "totalSoldTickets",
              "type": "uint256"
            },
            {
              "internalType": "uint256",
              "name": "winningTicket",
              "type": "uint256"
            },
            {
              "internalType": "address",
              "name": "raffleWinner",
              "type": "address"
            },
            {
              "internalType": "bool",
              "name": "raffleCancelled",
              "type": "bool"
            },
            {
              "internalType": "bool",
              "name": "raffleEnded",
              "type": "bool"
            }
          ],
          "internalType": "struct mainNftRaffle.RaffleInfo",
          "name": "",
          "type": "tuple"
        }
      ],
      "stateMutability": "view",
      "type": "function",
      "constant": true
    },
    {
      "inputs": [
        {
          "internalType": "address",
          "name": "operator",
          "type": "address"
        },
        {
          "internalType": "address",
          "name": "from",
          "type": "address"
        },
        {
          "internalType": "uint256",
          "name": "tokenId",
          "type": "uint256"
        },
        {
          "internalType": "bytes",
          "name": "data",
          "type": "bytes"
        }
      ],
      "name": "onERC721Received",
      "outputs": [
        {
          "internalType": "bytes4",
          "name": "",
          "type": "bytes4"
        }
      ],
      "stateMutability": "nonpayable",
      "type": "function"
    },
    {
      "inputs": [
        {
          "internalType": "uint256",
          "name": "_raffleId",
          "type": "uint256"
        }
      ],
      "name": "getEntityAddresses",
      "outputs": [
        {
          "internalType": "address",
          "name": "",
          "type": "address"
        },
        {
          "internalType": "address",
          "name": "",
          "type": "address"
        },
        {
          "internalType": "address",
          "name": "",
          "type": "address"
        }
      ],
      "stateMutability": "view",
      "type": "function",
      "constant": true
    },
    {
      "inputs": [],
      "name": "getTotalRaffles",
      "outputs": [
        {
          "internalType": "uint256",
          "name": "",
          "type": "uint256"
        }
      ],
      "stateMutability": "view",
      "type": "function",
      "constant": true
    },
    {
      "inputs": [],
      "name": "getContractBalance",
      "outputs": [
        {
          "internalType": "uint256",
          "name": "",
          "type": "uint256"
        }
      ],
      "stateMutability": "view",
      "type": "function",
      "constant": true
    }
  ],
  "bytecode": "0x60a0604052611616600460146101000a81548167ffffffffffffffff021916908367ffffffffffffffff1602179055507f4b09e658ed251bcafeebbc69400383d49f344ace09b9576fe248bb02c003fe9f60001b600755620186a0600860006101000a81548163ffffffff021916908363ffffffff1602179055506003600860046101000a81548161ffff021916908361ffff1602179055506001600860066101000a81548163ffffffff021916908363ffffffff1602179055506000600b55348015620000cc57600080fd5b5033806000737a1bac17ccc5b313516c5e16fb24f7659aa5ebed8073ffffffffffffffffffffffffffffffffffffffff1660808173ffffffffffffffffffffffffffffffffffffffff168152505050600073ffffffffffffffffffffffffffffffffffffffff168273ffffffffffffffffffffffffffffffffffffffff16036200018d576040517f08c379a0000000000000000000000000000000000000000000000000000000008152600401620001849062000410565b60405180910390fd5b816000806101000a81548173ffffffffffffffffffffffffffffffffffffffff021916908373ffffffffffffffffffffffffffffffffffffffff160217905550600073ffffffffffffffffffffffffffffffffffffffff168173ffffffffffffffffffffffffffffffffffffffff1614620002145762000213816200028060201b60201c565b5b505050737a1bac17ccc5b313516c5e16fb24f7659aa5ebed600460006101000a81548173ffffffffffffffffffffffffffffffffffffffff021916908373ffffffffffffffffffffffffffffffffffffffff160217905550600460149054906101000a905050620004a4565b3373ffffffffffffffffffffffffffffffffffffffff168173ffffffffffffffffffffffffffffffffffffffff1603620002f1576040517f08c379a0000000000000000000000000000000000000000000000000000000008152600401620002e89062000482565b60405180910390fd5b80600160006101000a81548173ffffffffffffffffffffffffffffffffffffffff021916908373ffffffffffffffffffffffffffffffffffffffff1602179055508073ffffffffffffffffffffffffffffffffffffffff1660008054906101000a900473ffffffffffffffffffffffffffffffffffffffff1673ffffffffffffffffffffffffffffffffffffffff167fed8889f560326eb138920d842192f0eb3dd22b4f139c87a2c57538e05bae127860405160405180910390a350565b600082825260208201905092915050565b7f43616e6e6f7420736574206f776e657220746f207a65726f0000000000000000600082015250565b6000620003f8601883620003af565b91506200040582620003c0565b602082019050919050565b600060208201905081810360008301526200042b81620003e9565b9050919050565b7f43616e6e6f74207472616e7366657220746f2073656c66000000000000000000600082015250565b60006200046a601783620003af565b9150620004778262000432565b602082019050919050565b600060208201905081810360008301526200049d816200045b565b9050919050565b60805161534b620004c76000396000818161089f01526108f3015261534b6000f3fe6080604052600436106101c25760003560e01c80638a56e3b9116100f7578063d63fed5111610095578063f06fc96111610064578063f06fc961146106fa578063f2fde38b14610737578063f9ea238214610760578063fc2a88c31461079d576101c2565b8063d63fed511461062b578063d8a4676f14610654578063e0c8628914610692578063e4798214146106bd576101c2565b8063a168fa89116100d1578063a168fa8914610535578063a4e74daf14610573578063bb39cb5c146105b1578063bf30d790146105ee576101c2565b80638a56e3b9146104905780638c3fd660146104cd5780638da5cb5b1461050a576101c2565b806351b98f70116101645780636f9fb98a1161013e5780636f9fb98a146103d15780637822be4a146103fc57806379ba50971461043c5780638796ba8c14610453576101c2565b806351b98f701461032d5780635fba31711461036a57806362617c9a14610393576101c2565b80631fe543e3116101a05780631fe543e31461026c5780632973c9b114610295578063298ec208146102d457806338a2efbe146102f0576101c2565b80630cc7b2a9146101c75780630ded5c3614610204578063150b7a021461022f575b600080fd5b3480156101d357600080fd5b506101ee60048036038101906101e99190613777565b6107c8565b6040516101fb91906137b3565b60405180910390f35b34801561021057600080fd5b5061021961087e565b60405161022691906137b3565b60405180910390f35b34801561023b57600080fd5b5061025660048036038101906102519190613891565b610888565b6040516102639190613954565b60405180910390f35b34801561027857600080fd5b50610293600480360381019061028e9190613abe565b61089d565b005b3480156102a157600080fd5b506102bc60048036038101906102b79190613777565b61095d565b6040516102cb93929190613b29565b60405180910390f35b6102ee60048036038101906102e99190613b60565b610a14565b005b3480156102fc57600080fd5b5061031760048036038101906103129190613ba0565b610cc9565b60405161032491906137b3565b60405180910390f35b34801561033957600080fd5b50610354600480360381019061034f9190613777565b610dd2565b60405161036191906137b3565b60405180910390f35b34801561037657600080fd5b50610391600480360381019061038c9190613777565b610e32565b005b34801561039f57600080fd5b506103ba60048036038101906103b59190613777565b61113c565b6040516103c8929190613be0565b60405180910390f35b3480156103dd57600080fd5b506103e66112b7565b6040516103f391906137b3565b60405180910390f35b34801561040857600080fd5b50610423600480360381019061041e9190613777565b6112bf565b6040516104339493929190613c09565b60405180910390f35b34801561044857600080fd5b50610451611389565b005b34801561045f57600080fd5b5061047a60048036038101906104759190613777565b61151e565b60405161048791906137b3565b60405180910390f35b34801561049c57600080fd5b506104b760048036038101906104b29190613b60565b611542565b6040516104c49190613c4e565b60405180910390f35b3480156104d957600080fd5b506104f460048036038101906104ef9190613ded565b611584565b60405161050191906137b3565b60405180910390f35b34801561051657600080fd5b5061051f611c67565b60405161052c9190613c4e565b60405180910390f35b34801561054157600080fd5b5061055c60048036038101906105579190613777565b611c90565b60405161056a929190613f88565b60405180910390f35b34801561057f57600080fd5b5061059a60048036038101906105959190613fb1565b611cce565b6040516105a892919061409c565b60405180910390f35b3480156105bd57600080fd5b506105d860048036038101906105d39190613777565b611e8e565b6040516105e591906137b3565b60405180910390f35b3480156105fa57600080fd5b5061061560048036038101906106109190613777565b6121de565b60405161062291906143f0565b60405180910390f35b34801561063757600080fd5b50610652600480360381019061064d9190613b60565b6126ac565b005b34801561066057600080fd5b5061067b60048036038101906106769190613777565b612c7f565b604051610689929190614412565b60405180910390f35b34801561069e57600080fd5b506106a7612daa565b6040516106b491906137b3565b60405180910390f35b3480156106c957600080fd5b506106e460048036038101906106df9190613777565b613003565b6040516106f191906137b3565b60405180910390f35b34801561070657600080fd5b50610721600480360381019061071c9190613777565b61301b565b60405161072e91906137b3565b60405180910390f35b34801561074357600080fd5b5061075e60048036038101906107599190613fb1565b61303b565b005b34801561076c57600080fd5b5061078760048036038101906107829190613b60565b61304f565b60405161079491906137b3565b60405180910390f35b3480156107a957600080fd5b506107b2613086565b6040516107bf91906137b3565b60405180910390f35b6000806009600084815260200190815260200160002090506000816000015403610827576040517f08c379a000000000000000000000000000000000000000000000000000000000815260040161081e9061449f565b60405180910390fd5b8060140160019054906101000a900460ff168061085257508060140160009054906101000a900460ff165b15610861576000915050610879565b8060130154816004015461087591906144ee565b9150505b919050565b6000600b54905090565b600063150b7a0260e01b905095945050505050565b7f000000000000000000000000000000000000000000000000000000000000000073ffffffffffffffffffffffffffffffffffffffff163373ffffffffffffffffffffffffffffffffffffffff161461094f57337f00000000000000000000000000000000000000000000000000000000000000006040517f1cf993f4000000000000000000000000000000000000000000000000000000008152600401610946929190614522565b60405180910390fd5b610959828261308c565b5050565b60008060006009600085815260200190815260200160002060100160009054906101000a900473ffffffffffffffffffffffffffffffffffffffff166009600086815260200190815260200160002060190160009054906101000a900473ffffffffffffffffffffffffffffffffffffffff1660096000878152602001908152602001600020600f0160009054906101000a900473ffffffffffffffffffffffffffffffffffffffff169250925092509193909250565b60006009600084815260200190815260200160002090508060140160009054906101000a900460ff1615610a7d576040517f08c379a0000000000000000000000000000000000000000000000000000000008152600401610a7490614597565b60405180910390fd5b8060140160019054906101000a900460ff1615610acf576040517f08c379a0000000000000000000000000000000000000000000000000000000008152600401610ac690614603565b60405180910390fd5b60008211610b12576040517f08c379a0000000000000000000000000000000000000000000000000000000008152600401610b099061466f565b60405180910390fd5b80601301548160040154610b2691906144ee565b821115610b68576040517f08c379a0000000000000000000000000000000000000000000000000000000008152600401610b5f906146db565b60405180910390fd5b6000816012015483610b7a91906146fb565b905080341015610bbf576040517f08c379a0000000000000000000000000000000000000000000000000000000008152600401610bb6906147a1565b60405180910390fd5b60005b83811015610c8c5760008160018560130154610bde91906147c1565b610be891906147c1565b90508360160181908060018154018082558091505060019003906000526020600020016000909190919091505533600a6000888152602001908152602001600020600083815260200190815260200160002060006101000a81548173ffffffffffffffffffffffffffffffffffffffff021916908373ffffffffffffffffffffffffffffffffffffffff160217905550508080610c8490614817565b915050610bc2565b5082826013016000828254610ca191906147c1565b9250508190555034826015016000828254610cbc91906147c1565b9250508190555050505050565b6000806000905060005b6009600085815260200190815260200160002060160180549050811015610dc7578473ffffffffffffffffffffffffffffffffffffffff16600a60008681526020019081526020016000206000600960008881526020019081526020016000206016018481548110610d4857610d4761485f565b5b9060005260206000200154815260200190815260200160002060009054906101000a900473ffffffffffffffffffffffffffffffffffffffff1673ffffffffffffffffffffffffffffffffffffffff1603610db457610db160018361318690919063ffffffff16565b91505b8080610dbf90614817565b915050610cd3565b508091505092915050565b60006002600083815260200190815260200160002054905060008103610e2d576040517f08c379a0000000000000000000000000000000000000000000000000000000008152600401610e24906148da565b60405180910390fd5b919050565b60006009600083815260200190815260200160002090508060100160009054906101000a900473ffffffffffffffffffffffffffffffffffffffff1673ffffffffffffffffffffffffffffffffffffffff163373ffffffffffffffffffffffffffffffffffffffff1614610edb576040517f08c379a0000000000000000000000000000000000000000000000000000000008152600401610ed29061496c565b60405180910390fd5b8060140160019054906101000a900460ff1615610f2d576040517f08c379a0000000000000000000000000000000000000000000000000000000008152600401610f24906149d8565b60405180910390fd5b60005b8160160180549050811015611042576000826016018281548110610f5757610f5661485f565b5b906000526020600020015490506000600a6000868152602001908152602001600020600083815260200190815260200160002060009054906101000a900473ffffffffffffffffffffffffffffffffffffffff169050600073ffffffffffffffffffffffffffffffffffffffff168173ffffffffffffffffffffffffffffffffffffffff161461102d578073ffffffffffffffffffffffffffffffffffffffff166108fc85601201549081150290604051600060405180830381858888f1935050505015801561102b573d6000803e3d6000fd5b505b5050808061103a90614817565b915050610f30565b5080600d0160009054906101000a900473ffffffffffffffffffffffffffffffffffffffff1673ffffffffffffffffffffffffffffffffffffffff166342842e0e308360100160009054906101000a900473ffffffffffffffffffffffffffffffffffffffff1684600701546040518463ffffffff1660e01b81526004016110cc939291906149f8565b600060405180830381600087803b1580156110e657600080fd5b505af11580156110fa573d6000803e3d6000fd5b5050505060018160140160006101000a81548160ff02191690831515021790555060018160140160016101000a81548160ff0219169083151502179055505050565b6000806009600084815260200190815260200160002060140160009054906101000a900460ff16156111a3576040517f08c379a000000000000000000000000000000000000000000000000000000000815260040161119a90614a7b565b60405180910390fd5b6009600084815260200190815260200160002060140160019054906101000a900460ff1615611207576040517f08c379a00000000000000000000000000000000000000000000000000000000081526004016111fe906149d8565b60405180910390fd5b6000600960008581526020019081526020016000206017015403611260576040517f08c379a000000000000000000000000000000000000000000000000000000000815260040161125790614ae7565b60405180910390fd5b6009600084815260200190815260200160002060180160009054906101000a900473ffffffffffffffffffffffffffffffffffffffff16600960008581526020019081526020016000206017015491509150915091565b600047905090565b600080600080600060096000878152602001908152602001600020601101549050600061130960646112fb60058561319c90919063ffffffff16565b6131b290919063ffffffff16565b600960008981526020019081526020016000206003015461132a91906147c1565b90506000611355606461134760058661319c90919063ffffffff16565b6131b290919063ffffffff16565b9050600081838561136691906144ee565b61137091906144ee565b9050838383839750975097509750505050509193509193565b600160009054906101000a900473ffffffffffffffffffffffffffffffffffffffff1673ffffffffffffffffffffffffffffffffffffffff163373ffffffffffffffffffffffffffffffffffffffff1614611419576040517f08c379a000000000000000000000000000000000000000000000000000000000815260040161141090614b53565b60405180910390fd5b60008060009054906101000a900473ffffffffffffffffffffffffffffffffffffffff169050336000806101000a81548173ffffffffffffffffffffffffffffffffffffffff021916908373ffffffffffffffffffffffffffffffffffffffff1602179055506000600160006101000a81548173ffffffffffffffffffffffffffffffffffffffff021916908373ffffffffffffffffffffffffffffffffffffffff1602179055503373ffffffffffffffffffffffffffffffffffffffff168173ffffffffffffffffffffffffffffffffffffffff167f8be0079c531659141344cd1fd0a4f28419497f9722a3daafe3b4186f6b6457e060405160405180910390a350565b6005818154811061152e57600080fd5b906000526020600020016000915090505481565b600a6020528160005260406000206020528060005260406000206000915091509054906101000a900473ffffffffffffffffffffffffffffffffffffffff1681565b60008073ffffffffffffffffffffffffffffffffffffffff168573ffffffffffffffffffffffffffffffffffffffff16036115f4576040517f08c379a00000000000000000000000000000000000000000000000000000000081526004016115eb90614bbf565b60405180910390fd5b428811611636576040517f08c379a000000000000000000000000000000000000000000000000000000000815260040161162d90614c2b565b60405180910390fd5b60008590508073ffffffffffffffffffffffffffffffffffffffff16636352211e886040518263ffffffff1660e01b815260040161167491906137b3565b602060405180830381865afa158015611691573d6000803e3d6000fd5b505050506040513d601f19601f820116820180604052508101906116b59190614c60565b73ffffffffffffffffffffffffffffffffffffffff163373ffffffffffffffffffffffffffffffffffffffff1614611722576040517f08c379a000000000000000000000000000000000000000000000000000000000815260040161171990614cd9565b60405180910390fd5b8073ffffffffffffffffffffffffffffffffffffffff166342842e0e33308a6040518463ffffffff1660e01b815260040161175f939291906149f8565b600060405180830381600087803b15801561177957600080fd5b505af115801561178d573d6000803e3d6000fd5b50505050600b60008154809291906117a490614817565b9190505550604051806102e00160405280600b5481526020018e81526020018d81526020018c81526020018b81526020018a81526020018981526020018881526020018681526020018773ffffffffffffffffffffffffffffffffffffffff1681526020018581526020018473ffffffffffffffffffffffffffffffffffffffff1681526020013373ffffffffffffffffffffffffffffffffffffffff168152602001611867606460968f61185991906146fb565b6131b290919063ffffffff16565b8152602001600081526020016000815260200160001515815260200160001515815260200160008152602001600067ffffffffffffffff8111156118ae576118ad613980565b5b6040519080825280602002602001820160405280156118dc5781602001602082028036833780820191505090505b50815260200160008152602001600073ffffffffffffffffffffffffffffffffffffffff168152602001731eb43ebde750c57aacee85777e7c063218b0e1b473ffffffffffffffffffffffffffffffffffffffff1681525060096000600b54815260200190815260200160002060008201518160000155602082015181600101908051906020019061196f929190613464565b50604082015181600201908051906020019061198c929190613464565b50606082015181600301556080820151816004015560a0820151816005015560c08201518160060190805190602001906119c7929190613464565b5060e08201518160070155610100820151816008019060056119ea9291906134ea565b5061012082015181600d0160006101000a81548173ffffffffffffffffffffffffffffffffffffffff021916908373ffffffffffffffffffffffffffffffffffffffff16021790555061014082015181600e019080519060200190611a50929190613464565b5061016082015181600f0160006101000a81548173ffffffffffffffffffffffffffffffffffffffff021916908373ffffffffffffffffffffffffffffffffffffffff1602179055506101808201518160100160006101000a81548173ffffffffffffffffffffffffffffffffffffffff021916908373ffffffffffffffffffffffffffffffffffffffff1602179055506101a082015181601101556101c082015181601201556101e082015181601301556102008201518160140160006101000a81548160ff0219169083151502179055506102208201518160140160016101000a81548160ff0219169083151502179055506102408201518160150155610260820151816016019080519060200190611b6c92919061353d565b5061028082015181601701556102a08201518160180160006101000a81548173ffffffffffffffffffffffffffffffffffffffff021916908373ffffffffffffffffffffffffffffffffffffffff1602179055506102c08201518160190160006101000a81548173ffffffffffffffffffffffffffffffffffffffff021916908373ffffffffffffffffffffffffffffffffffffffff160217905550905050611c368a60096000600b548152602001908152602001600020601101546131b290919063ffffffff16565b60096000600b54815260200190815260200160002060120181905550600b549150509b9a5050505050505050505050565b60008060009054906101000a900473ffffffffffffffffffffffffffffffffffffffff16905090565b60036020528060005260406000206000915090508060000160009054906101000a900460ff16908060000160019054906101000a900460ff16905082565b600060606000600b5467ffffffffffffffff811115611cf057611cef613980565b5b604051908082528060200260200182016040528015611d1e5781602001602082028036833780820191505090505b5090506000805b600b548111611dd9578573ffffffffffffffffffffffffffffffffffffffff166009600083815260200190815260200160002060100160009054906101000a900473ffffffffffffffffffffffffffffffffffffffff1673ffffffffffffffffffffffffffffffffffffffff1603611dc65780838381518110611dab57611daa61485f565b5b6020026020010181815250508180611dc290614817565b9250505b8080611dd190614817565b915050611d25565b5060008167ffffffffffffffff811115611df657611df5613980565b5b604051908082528060200260200182016040528015611e245781602001602082028036833780820191505090505b50905060005b82811015611e7f57838181518110611e4557611e4461485f565b5b6020026020010151828281518110611e6057611e5f61485f565b5b6020026020010181815250508080611e7790614817565b915050611e2a565b50818194509450505050915091565b6000806009600084815260200190815260200160002060130154905060008111611eed576040517f08c379a0000000000000000000000000000000000000000000000000000000008152600401611ee490614d45565b60405180910390fd5b606460506009600086815260200190815260200160002060040154611f1291906146fb565b611f1c9190614d94565b60096000858152602001908152602001600020601301541015611f74576040517f08c379a0000000000000000000000000000000000000000000000000000000008152600401611f6b90614e11565b60405180910390fd5b600460009054906101000a900473ffffffffffffffffffffffffffffffffffffffff1673ffffffffffffffffffffffffffffffffffffffff16635d3b1d30600754600460149054906101000a900467ffffffffffffffff16600860049054906101000a900461ffff16600860009054906101000a900463ffffffff16600860069054906101000a900463ffffffff166040518663ffffffff1660e01b8152600401612023959493929190614ea9565b6020604051808303816000875af1158015612042573d6000803e3d6000fd5b505050506040513d601f19601f820116820180604052508101906120669190614f11565b91506040518060600160405280600015158152602001600115158152602001600067ffffffffffffffff8111156120a05761209f613980565b5b6040519080825280602002602001820160405280156120ce5781602001602082028036833780820191505090505b508152506003600084815260200190815260200160002060008201518160000160006101000a81548160ff02191690831515021790555060208201518160000160016101000a81548160ff021916908315150217905550604082015181600101908051906020019061214192919061353d565b509050508160026000858152602001908152602001600020819055506005829080600181540180825580915050600190039060005260206000200160009091909190915055816006819055507fcc58b13ad3eab50626c6a6300b1d139cd6ebb1688a7cced9461c2f7e762665ee82600860069054906101000a900463ffffffff166040516121d0929190614f3e565b60405180910390a150919050565b6121e661358a565b6000600960008481526020019081526020016000209050600060405180610280016040528085815260200183600101805461222090614f96565b80601f016020809104026020016040519081016040528092919081815260200182805461224c90614f96565b80156122995780601f1061226e57610100808354040283529160200191612299565b820191906000526020600020905b81548152906001019060200180831161227c57829003601f168201915b505050505081526020018360020180546122b290614f96565b80601f01602080910402602001604051908101604052809291908181526020018280546122de90614f96565b801561232b5780601f106123005761010080835404028352916020019161232b565b820191906000526020600020905b81548152906001019060200180831161230e57829003601f168201915b5050505050815260200183600801600580602002604051908101604052809291906000905b828210156123f357838201805461236690614f96565b80601f016020809104026020016040519081016040528092919081815260200182805461239290614f96565b80156123df5780601f106123b4576101008083540402835291602001916123df565b820191906000526020600020905b8154815290600101906020018083116123c257829003601f168201915b505050505081526020019060010190612350565b50505050815260200183600301548152602001836004015481526020018360050154815260200183600601805461242990614f96565b80601f016020809104026020016040519081016040528092919081815260200182805461245590614f96565b80156124a25780601f10612477576101008083540402835291602001916124a2565b820191906000526020600020905b81548152906001019060200180831161248557829003601f168201915b505050505081526020018360070154815260200183600d0160009054906101000a900473ffffffffffffffffffffffffffffffffffffffff1673ffffffffffffffffffffffffffffffffffffffff16815260200183600e01805461250590614f96565b80601f016020809104026020016040519081016040528092919081815260200182805461253190614f96565b801561257e5780601f106125535761010080835404028352916020019161257e565b820191906000526020600020905b81548152906001019060200180831161256157829003601f168201915b5050505050815260200183600f0160009054906101000a900473ffffffffffffffffffffffffffffffffffffffff1673ffffffffffffffffffffffffffffffffffffffff1681526020018360100160009054906101000a900473ffffffffffffffffffffffffffffffffffffffff1673ffffffffffffffffffffffffffffffffffffffff168152602001836011015481526020018360120154815260200183601301548152602001836017015481526020018360180160009054906101000a900473ffffffffffffffffffffffffffffffffffffffff1673ffffffffffffffffffffffffffffffffffffffff1681526020018360140160009054906101000a900460ff16151581526020018360140160019054906101000a900460ff16151581525090508092505050919050565b60006009600084815260200190815260200160002090508060140160009054906101000a900460ff1615612715576040517f08c379a000000000000000000000000000000000000000000000000000000000815260040161270c90614a7b565b60405180910390fd5b8060140160019054906101000a900460ff1615612767576040517f08c379a000000000000000000000000000000000000000000000000000000000815260040161275e906149d8565b60405180910390fd5b60646050826004015461277a91906146fb565b6127849190614d94565b816013015410156127ca576040517f08c379a00000000000000000000000000000000000000000000000000000000081526004016127c190615013565b60405180910390fd5b3373ffffffffffffffffffffffffffffffffffffffff168160100160009054906101000a900473ffffffffffffffffffffffffffffffffffffffff1673ffffffffffffffffffffffffffffffffffffffff161461285c576040517f08c379a00000000000000000000000000000000000000000000000000000000081526004016128539061507f565b60405180910390fd5b600061286884846131c8565b905060008190506000600a6000878152602001908152602001600020600083815260200190815260200160002060009054906101000a900473ffffffffffffffffffffffffffffffffffffffff169050600073ffffffffffffffffffffffffffffffffffffffff168173ffffffffffffffffffffffffffffffffffffffff1603612927576040517f08c379a000000000000000000000000000000000000000000000000000000000815260040161291e906150eb565b60405180910390fd5b808460180160006101000a81548173ffffffffffffffffffffffffffffffffffffffff021916908373ffffffffffffffffffffffffffffffffffffffff160217905550857f37a30a31c187f323329351db43159a5b3c2dde95e0f21f061360aa03aa5415b7838360405161299c92919061510b565b60405180910390a260006009600088815260200190815260200160002060110154905060006129e860646129da60058561319c90919063ffffffff16565b6131b290919063ffffffff16565b600960008a815260200190815260200160002060030154612a0991906147c1565b90506000612a346064612a2660058661319c90919063ffffffff16565b6131b290919063ffffffff16565b90506000818385612a4591906144ee565b612a4f91906144ee565b90508760100160009054906101000a900473ffffffffffffffffffffffffffffffffffffffff1673ffffffffffffffffffffffffffffffffffffffff166108fc849081150290604051600060405180830381858888f19350505050158015612abb573d6000803e3d6000fd5b508760190160009054906101000a900473ffffffffffffffffffffffffffffffffffffffff1673ffffffffffffffffffffffffffffffffffffffff166108fc839081150290604051600060405180830381858888f19350505050158015612b26573d6000803e3d6000fd5b5087600f0160009054906101000a900473ffffffffffffffffffffffffffffffffffffffff1673ffffffffffffffffffffffffffffffffffffffff166108fc829081150290604051600060405180830381858888f19350505050158015612b91573d6000803e3d6000fd5b5087600d0160009054906101000a900473ffffffffffffffffffffffffffffffffffffffff1673ffffffffffffffffffffffffffffffffffffffff166342842e0e30878b600701546040518463ffffffff1660e01b8152600401612bf7939291906149f8565b600060405180830381600087803b158015612c1157600080fd5b505af1158015612c25573d6000803e3d6000fd5b5050505060018860140160016101000a81548160ff021916908315150217905550897f1de299c7214202a224cf78dcd7adac60eac743ba8a2cc84012e96c5a048edfd660405160405180910390a250505050505050505050565b600060606003600084815260200190815260200160002060000160019054906101000a900460ff16612ce6576040517f08c379a0000000000000000000000000000000000000000000000000000000008152600401612cdd90615180565b60405180910390fd5b6000600360008581526020019081526020016000206040518060600160405290816000820160009054906101000a900460ff161515151581526020016000820160019054906101000a900460ff1615151515815260200160018201805480602002602001604051908101604052809291908181526020018280548015612d8b57602002820191906000526020600020905b815481526020019060010190808311612d77575b5050505050815250509050806000015181604001519250925050915091565b6000612db46132a8565b600460009054906101000a900473ffffffffffffffffffffffffffffffffffffffff1673ffffffffffffffffffffffffffffffffffffffff16635d3b1d30600754600460149054906101000a900467ffffffffffffffff16600860049054906101000a900461ffff16600860009054906101000a900463ffffffff16600860069054906101000a900463ffffffff166040518663ffffffff1660e01b8152600401612e63959493929190614ea9565b6020604051808303816000875af1158015612e82573d6000803e3d6000fd5b505050506040513d601f19601f82011682018060405250810190612ea69190614f11565b90506040518060600160405280600015158152602001600115158152602001600067ffffffffffffffff811115612ee057612edf613980565b5b604051908082528060200260200182016040528015612f0e5781602001602082028036833780820191505090505b508152506003600083815260200190815260200160002060008201518160000160006101000a81548160ff02191690831515021790555060208201518160000160016101000a81548160ff0219169083151502179055506040820151816001019080519060200190612f8192919061353d565b509050506005819080600181540180825580915050600190039060005260206000200160009091909190915055806006819055507fcc58b13ad3eab50626c6a6300b1d139cd6ebb1688a7cced9461c2f7e762665ee81600860069054906101000a900463ffffffff16604051612ff8929190614f3e565b60405180910390a190565b60026020528060005260406000206000915090505481565b600060096000838152602001908152602001600020601201549050919050565b6130436132a8565b61304c81613338565b50565b600080600960008581526020019081526020016000209050600081601201548461307991906146fb565b9050809250505092915050565b60065481565b6003600083815260200190815260200160002060000160019054906101000a900460ff166130ef576040517f08c379a00000000000000000000000000000000000000000000000000000000081526004016130e690615180565b60405180910390fd5b60016003600084815260200190815260200160002060000160006101000a81548160ff0219169083151502179055508060036000848152602001908152602001600020600101908051906020019061314892919061353d565b507ffe2e2d779dba245964d4e3ef9b994be63856fd568bf7d3ca9e224755cb1bd54d828260405161317a92919061409c565b60405180910390a15050565b6000818361319491906147c1565b905092915050565b600081836131aa91906146fb565b905092915050565b600081836131c09190614d94565b905092915050565b60006003600083815260200190815260200160002060000160009054906101000a900460ff1661322d576040517f08c379a0000000000000000000000000000000000000000000000000000000008152600401613224906151ec565b60405180910390fd5b6000600360008481526020019081526020016000206001016000815481106132585761325761485f565b5b906000526020600020015490506000600960008681526020019081526020016000206013015482613289919061520c565b9050600060018261329a91906147c1565b905080935050505092915050565b60008054906101000a900473ffffffffffffffffffffffffffffffffffffffff1673ffffffffffffffffffffffffffffffffffffffff163373ffffffffffffffffffffffffffffffffffffffff1614613336576040517f08c379a000000000000000000000000000000000000000000000000000000000815260040161332d90615289565b60405180910390fd5b565b3373ffffffffffffffffffffffffffffffffffffffff168173ffffffffffffffffffffffffffffffffffffffff16036133a6576040517f08c379a000000000000000000000000000000000000000000000000000000000815260040161339d906152f5565b60405180910390fd5b80600160006101000a81548173ffffffffffffffffffffffffffffffffffffffff021916908373ffffffffffffffffffffffffffffffffffffffff1602179055508073ffffffffffffffffffffffffffffffffffffffff1660008054906101000a900473ffffffffffffffffffffffffffffffffffffffff1673ffffffffffffffffffffffffffffffffffffffff167fed8889f560326eb138920d842192f0eb3dd22b4f139c87a2c57538e05bae127860405160405180910390a350565b82805461347090614f96565b90600052602060002090601f01602090048101928261349257600085556134d9565b82601f106134ab57805160ff19168380011785556134d9565b828001600101855582156134d9579182015b828111156134d85782518255916020019190600101906134bd565b5b5090506134e69190613685565b5090565b826005810192821561352c579160200282015b8281111561352b57825182908051906020019061351b929190613464565b50916020019190600101906134fd565b5b50905061353991906136a2565b5090565b828054828255906000526020600020908101928215613579579160200282015b8281111561357857825182559160200191906001019061355d565b5b5090506135869190613685565b5090565b6040518061028001604052806000815260200160608152602001606081526020016135b36136c6565b81526020016000815260200160008152602001600081526020016060815260200160008152602001600073ffffffffffffffffffffffffffffffffffffffff16815260200160608152602001600073ffffffffffffffffffffffffffffffffffffffff168152602001600073ffffffffffffffffffffffffffffffffffffffff16815260200160008152602001600081526020016000815260200160008152602001600073ffffffffffffffffffffffffffffffffffffffff1681526020016000151581526020016000151581525090565b5b8082111561369e576000816000905550600101613686565b5090565b5b808211156136c257600081816136b991906136ed565b506001016136a3565b5090565b6040518060a001604052806005905b60608152602001906001900390816136d55790505090565b5080546136f990614f96565b6000825580601f1061370b575061372a565b601f0160209004906000526020600020908101906137299190613685565b5b50565b6000604051905090565b600080fd5b600080fd5b6000819050919050565b61375481613741565b811461375f57600080fd5b50565b6000813590506137718161374b565b92915050565b60006020828403121561378d5761378c613737565b5b600061379b84828501613762565b91505092915050565b6137ad81613741565b82525050565b60006020820190506137c860008301846137a4565b92915050565b600073ffffffffffffffffffffffffffffffffffffffff82169050919050565b60006137f9826137ce565b9050919050565b613809816137ee565b811461381457600080fd5b50565b60008135905061382681613800565b92915050565b600080fd5b600080fd5b600080fd5b60008083601f8401126138515761385061382c565b5b8235905067ffffffffffffffff81111561386e5761386d613831565b5b60208301915083600182028301111561388a57613889613836565b5b9250929050565b6000806000806000608086880312156138ad576138ac613737565b5b60006138bb88828901613817565b95505060206138cc88828901613817565b94505060406138dd88828901613762565b935050606086013567ffffffffffffffff8111156138fe576138fd61373c565b5b61390a8882890161383b565b92509250509295509295909350565b60007fffffffff0000000000000000000000000000000000000000000000000000000082169050919050565b61394e81613919565b82525050565b60006020820190506139696000830184613945565b92915050565b6000601f19601f8301169050919050565b7f4e487b7100000000000000000000000000000000000000000000000000000000600052604160045260246000fd5b6139b88261396f565b810181811067ffffffffffffffff821117156139d7576139d6613980565b5b80604052505050565b60006139ea61372d565b90506139f682826139af565b919050565b600067ffffffffffffffff821115613a1657613a15613980565b5b602082029050602081019050919050565b6000613a3a613a35846139fb565b6139e0565b90508083825260208201905060208402830185811115613a5d57613a5c613836565b5b835b81811015613a865780613a728882613762565b845260208401935050602081019050613a5f565b5050509392505050565b600082601f830112613aa557613aa461382c565b5b8135613ab5848260208601613a27565b91505092915050565b60008060408385031215613ad557613ad4613737565b5b6000613ae385828601613762565b925050602083013567ffffffffffffffff811115613b0457613b0361373c565b5b613b1085828601613a90565b9150509250929050565b613b23816137ee565b82525050565b6000606082019050613b3e6000830186613b1a565b613b4b6020830185613b1a565b613b586040830184613b1a565b949350505050565b60008060408385031215613b7757613b76613737565b5b6000613b8585828601613762565b9250506020613b9685828601613762565b9150509250929050565b60008060408385031215613bb757613bb6613737565b5b6000613bc585828601613817565b9250506020613bd685828601613762565b9150509250929050565b6000604082019050613bf56000830185613b1a565b613c0260208301846137a4565b9392505050565b6000608082019050613c1e60008301876137a4565b613c2b60208301866137a4565b613c3860408301856137a4565b613c4560608301846137a4565b95945050505050565b6000602082019050613c636000830184613b1a565b92915050565b600080fd5b600067ffffffffffffffff821115613c8957613c88613980565b5b613c928261396f565b9050602081019050919050565b82818337600083830152505050565b6000613cc1613cbc84613c6e565b6139e0565b905082815260208101848484011115613cdd57613cdc613c69565b5b613ce8848285613c9f565b509392505050565b600082601f830112613d0557613d0461382c565b5b8135613d15848260208601613cae565b91505092915050565b600067ffffffffffffffff821115613d3957613d38613980565b5b602082029050919050565b6000613d57613d5284613d1e565b6139e0565b90508060208402830185811115613d7157613d70613836565b5b835b81811015613db857803567ffffffffffffffff811115613d9657613d9561382c565b5b808601613da38982613cf0565b85526020850194505050602081019050613d73565b5050509392505050565b600082601f830112613dd757613dd661382c565b5b6005613de4848285613d44565b91505092915050565b60008060008060008060008060008060006101608c8e031215613e1357613e12613737565b5b60008c013567ffffffffffffffff811115613e3157613e3061373c565b5b613e3d8e828f01613cf0565b9b505060208c013567ffffffffffffffff811115613e5e57613e5d61373c565b5b613e6a8e828f01613cf0565b9a50506040613e7b8e828f01613762565b9950506060613e8c8e828f01613762565b9850506080613e9d8e828f01613762565b97505060a08c013567ffffffffffffffff811115613ebe57613ebd61373c565b5b613eca8e828f01613cf0565b96505060c0613edb8e828f01613762565b95505060e0613eec8e828f01613817565b9450506101008c013567ffffffffffffffff811115613f0e57613f0d61373c565b5b613f1a8e828f01613dc2565b9350506101208c013567ffffffffffffffff811115613f3c57613f3b61373c565b5b613f488e828f01613cf0565b925050610140613f5a8e828f01613817565b9150509295989b509295989b9093969950565b60008115159050919050565b613f8281613f6d565b82525050565b6000604082019050613f9d6000830185613f79565b613faa6020830184613f79565b9392505050565b600060208284031215613fc757613fc6613737565b5b6000613fd584828501613817565b91505092915050565b600081519050919050565b600082825260208201905092915050565b6000819050602082019050919050565b61401381613741565b82525050565b6000614025838361400a565b60208301905092915050565b6000602082019050919050565b600061404982613fde565b6140538185613fe9565b935061405e83613ffa565b8060005b8381101561408f5781516140768882614019565b975061408183614031565b925050600181019050614062565b5085935050505092915050565b60006040820190506140b160008301856137a4565b81810360208301526140c3818461403e565b90509392505050565b600081519050919050565b600082825260208201905092915050565b60005b838110156141065780820151818401526020810190506140eb565b83811115614115576000848401525b50505050565b6000614126826140cc565b61413081856140d7565b93506141408185602086016140e8565b6141498161396f565b840191505092915050565b600060059050919050565b600081905092915050565b6000819050919050565b6000614180838361411b565b905092915050565b6000602082019050919050565b60006141a082614154565b6141aa818561415f565b9350836020820285016141bc8561416a565b8060005b858110156141f857848403895281516141d98582614174565b94506141e483614188565b925060208a019950506001810190506141c0565b50829750879550505050505092915050565b614213816137ee565b82525050565b61422281613f6d565b82525050565b600061028083016000830151614241600086018261400a565b5060208301518482036020860152614259828261411b565b91505060408301518482036040860152614273828261411b565b9150506060830151848203606086015261428d8282614195565b91505060808301516142a2608086018261400a565b5060a08301516142b560a086018261400a565b5060c08301516142c860c086018261400a565b5060e083015184820360e08601526142e0828261411b565b9150506101008301516142f761010086018261400a565b5061012083015161430c61012086018261420a565b50610140830151848203610140860152614326828261411b565b91505061016083015161433d61016086018261420a565b5061018083015161435261018086018261420a565b506101a08301516143676101a086018261400a565b506101c083015161437c6101c086018261400a565b506101e08301516143916101e086018261400a565b506102008301516143a661020086018261400a565b506102208301516143bb61022086018261420a565b506102408301516143d0610240860182614219565b506102608301516143e5610260860182614219565b508091505092915050565b6000602082019050818103600083015261440a8184614228565b905092915050565b60006040820190506144276000830185613f79565b8181036020830152614439818461403e565b90509392505050565b600082825260208201905092915050565b7f526166666c65206e6f7420666f756e6400000000000000000000000000000000600082015250565b6000614489601083614442565b915061449482614453565b602082019050919050565b600060208201905081810360008301526144b88161447c565b9050919050565b7f4e487b7100000000000000000000000000000000000000000000000000000000600052601160045260246000fd5b60006144f982613741565b915061450483613741565b925082821015614517576145166144bf565b5b828203905092915050565b60006040820190506145376000830185613b1a565b6145446020830184613b1a565b9392505050565b7f526166666c652069732063616e63656c6c656400000000000000000000000000600082015250565b6000614581601383614442565b915061458c8261454b565b602082019050919050565b600060208201905081810360008301526145b081614574565b9050919050565b7f526166666c6520697320656e6465640000000000000000000000000000000000600082015250565b60006145ed600f83614442565b91506145f8826145b7565b602082019050919050565b6000602082019050818103600083015261461c816145e0565b9050919050565b7f496e76616c6964206e756d626572206f66207469636b65747300000000000000600082015250565b6000614659601983614442565b915061466482614623565b602082019050919050565b600060208201905081810360008301526146888161464c565b9050919050565b7f4e6f7420656e6f756768207469636b65747320617661696c61626c6500000000600082015250565b60006146c5601c83614442565b91506146d08261468f565b602082019050919050565b600060208201905081810360008301526146f4816146b8565b9050919050565b600061470682613741565b915061471183613741565b9250817fffffffffffffffffffffffffffffffffffffffffffffffffffffffffffffffff048311821515161561474a576147496144bf565b5b828202905092915050565b7f496e636f7272656374207061796d656e7420616d6f756e740000000000000000600082015250565b600061478b601883614442565b915061479682614755565b602082019050919050565b600060208201905081810360008301526147ba8161477e565b9050919050565b60006147cc82613741565b91506147d783613741565b9250827fffffffffffffffffffffffffffffffffffffffffffffffffffffffffffffffff0382111561480c5761480b6144bf565b5b828201905092915050565b600061482282613741565b91507fffffffffffffffffffffffffffffffffffffffffffffffffffffffffffffffff8203614854576148536144bf565b5b600182019050919050565b7f4e487b7100000000000000000000000000000000000000000000000000000000600052603260045260246000fd5b7f4e6f207265717565737420666f72207468697320696400000000000000000000600082015250565b60006148c4601683614442565b91506148cf8261488e565b602082019050919050565b600060208201905081810360008301526148f3816148b7565b9050919050565b7f4f6e6c7920726166666c652063726561746f722063616e2063616e63656c207460008201527f6865206c6f747465727900000000000000000000000000000000000000000000602082015250565b6000614956602a83614442565b9150614961826148fa565b604082019050919050565b6000602082019050818103600083015261498581614949565b9050919050565b7f526166666c652068617320616c726561647920656e6465640000000000000000600082015250565b60006149c2601883614442565b91506149cd8261498c565b602082019050919050565b600060208201905081810360008301526149f1816149b5565b9050919050565b6000606082019050614a0d6000830186613b1a565b614a1a6020830185613b1a565b614a2760408301846137a4565b949350505050565b7f526166666c6520686173206265656e2063616e63656c6c656400000000000000600082015250565b6000614a65601983614442565b9150614a7082614a2f565b602082019050919050565b60006020820190508181036000830152614a9481614a58565b9050919050565b7f57696e6e657220686173206e6f74206265656e207069636b6564207965740000600082015250565b6000614ad1601e83614442565b9150614adc82614a9b565b602082019050919050565b60006020820190508181036000830152614b0081614ac4565b9050919050565b7f4d7573742062652070726f706f736564206f776e657200000000000000000000600082015250565b6000614b3d601683614442565b9150614b4882614b07565b602082019050919050565b60006020820190508181036000830152614b6c81614b30565b9050919050565b7f496e76616c6964204e465420636f6e7472616374206164647265737300000000600082015250565b6000614ba9601c83614442565b9150614bb482614b73565b602082019050919050565b60006020820190508181036000830152614bd881614b9c565b9050919050565b7f456e642074696d65206d75737420626520696e20667574757265000000000000600082015250565b6000614c15601a83614442565b9150614c2082614bdf565b602082019050919050565b60006020820190508181036000830152614c4481614c08565b9050919050565b600081519050614c5a81613800565b92915050565b600060208284031215614c7657614c75613737565b5b6000614c8484828501614c4b565b91505092915050565b7f4f6e6c79204e4654206f776e65722063616e2063726561746520726166666c65600082015250565b6000614cc3602083614442565b9150614cce82614c8d565b602082019050919050565b60006020820190508181036000830152614cf281614cb6565b9050919050565b7f4e6f207469636b65747320736f6c642079657400000000000000000000000000600082015250565b6000614d2f601383614442565b9150614d3a82614cf9565b602082019050919050565b60006020820190508181036000830152614d5e81614d22565b9050919050565b7f4e487b7100000000000000000000000000000000000000000000000000000000600052601260045260246000fd5b6000614d9f82613741565b9150614daa83613741565b925082614dba57614db9614d65565b5b828204905092915050565b7f4e6f7420656e6f756768207469636b657420736f6c6400000000000000000000600082015250565b6000614dfb601683614442565b9150614e0682614dc5565b602082019050919050565b60006020820190508181036000830152614e2a81614dee565b9050919050565b6000819050919050565b614e4481614e31565b82525050565b600067ffffffffffffffff82169050919050565b614e6781614e4a565b82525050565b600061ffff82169050919050565b614e8481614e6d565b82525050565b600063ffffffff82169050919050565b614ea381614e8a565b82525050565b600060a082019050614ebe6000830188614e3b565b614ecb6020830187614e5e565b614ed86040830186614e7b565b614ee56060830185614e9a565b614ef26080830184614e9a565b9695505050505050565b600081519050614f0b8161374b565b92915050565b600060208284031215614f2757614f26613737565b5b6000614f3584828501614efc565b91505092915050565b6000604082019050614f5360008301856137a4565b614f606020830184614e9a565b9392505050565b7f4e487b7100000000000000000000000000000000000000000000000000000000600052602260045260246000fd5b60006002820490506001821680614fae57607f821691505b602082108103614fc157614fc0614f67565b5b50919050565b7f526166666c652063616e277420626520636f6d706c6574656420796574000000600082015250565b6000614ffd601d83614442565b915061500882614fc7565b602082019050919050565b6000602082019050818103600083015261502c81614ff0565b9050919050565b7f796f7520617265206e6f742074686520726166666c65206f776e657200000000600082015250565b6000615069601c83614442565b915061507482615033565b602082019050919050565b600060208201905081810360008301526150988161505c565b9050919050565b7f57696e6e657220686173206e6f74206265656e2073656c656374656420796574600082015250565b60006150d5602083614442565b91506150e08261509f565b602082019050919050565b60006020820190508181036000830152615104816150c8565b9050919050565b600060408201905061512060008301856137a4565b61512d6020830184613b1a565b9392505050565b7f72657175657374206e6f7420666f756e64000000000000000000000000000000600082015250565b600061516a601183614442565b915061517582615134565b602082019050919050565b600060208201905081810360008301526151998161515d565b9050919050565b7f52657175657374206e6f742066756c66696c6c65642079657400000000000000600082015250565b60006151d6601983614442565b91506151e1826151a0565b602082019050919050565b60006020820190508181036000830152615205816151c9565b9050919050565b600061521782613741565b915061522283613741565b92508261523257615231614d65565b5b828206905092915050565b7f4f6e6c792063616c6c61626c65206279206f776e657200000000000000000000600082015250565b6000615273601683614442565b915061527e8261523d565b602082019050919050565b600060208201905081810360008301526152a281615266565b9050919050565b7f43616e6e6f74207472616e7366657220746f2073656c66000000000000000000600082015250565b60006152df601783614442565b91506152ea826152a9565b602082019050919050565b6000602082019050818103600083015261530e816152d2565b905091905056fea264697066735822122071b93e86fb083ea2cce95959c88400e1e523052c9326de237f3c2ae0c273d07964736f6c634300080e0033",
  "immutableReferences": {
    "192": [
      {
        "length": 32,
        "start": 2207
      },
      {
        "length": 32,
        "start": 2291
      }
    ]
  },
  "source": "// SPDX-License-Identifier: MIT\r\n// sepolia - deployment\r\npragma solidity ^0.8.0;\r\n\r\nimport \"@openzeppelin/contracts/token/ERC721/IERC721.sol\";\r\nimport \"@openzeppelin/contracts/utils/math/SafeMath.sol\";\r\nimport \"@openzeppelin/contracts/token/ERC721/IERC721Receiver.sol\";\r\nimport \"@chainlink/contracts/src/v0.8/interfaces/VRFCoordinatorV2Interface.sol\";\r\nimport \"@chainlink/contracts/src/v0.8/VRFConsumerBaseV2.sol\";\r\nimport \"@chainlink/contracts/src/v0.8/ConfirmedOwner.sol\";\r\n\r\ncontract mainNftRaffle is IERC721Receiver, VRFConsumerBaseV2, ConfirmedOwner {\r\n    using SafeMath for uint256;\r\n\r\n    mapping(uint256 => uint256) public raffleIdToRequestId;\r\n    event RequestSent(uint256 requestId, uint32 numWords);\r\n    event RequestFulfilled(uint256 requestId, uint256[] randomWords);\r\n\r\n    struct RequestStatus {\r\n        bool fulfilled; // whether the request has been successfully fulfilled\r\n        bool exists; // whether a requestId exists\r\n        uint256[] randomWords;\r\n    }\r\n    mapping(uint256 => RequestStatus)\r\n        public s_requests; /* requestId --> requestStatus */\r\n    VRFCoordinatorV2Interface COORDINATOR;\r\n\r\n    event WinnerSelected(\r\n        uint256 indexed raffleId,\r\n        uint256 winningTicketNumber,\r\n        address winningTicketOwner\r\n    );\r\n\r\n    // Your subscription ID.\r\n    uint64 s_subscriptionId = 5654;\r\n\r\n    // past requests Id.\r\n    uint256[] public requestIds;\r\n    uint256 public lastRequestId;\r\n\r\n    bytes32 keyHash =\r\n        0x4b09e658ed251bcafeebbc69400383d49f344ace09b9576fe248bb02c003fe9f;\r\n\r\n    uint32 callbackGasLimit = 100000;\r\n\r\n    // The default is 3, but you can set this higher.\r\n    uint16 requestConfirmations = 3;\r\n\r\n    // For this example, retrieve 2 random values in one request.\r\n    // Cannot exceed VRFCoordinatorV2.MAX_NUM_WORDS.\r\n    uint32 numWords = 1;\r\n\r\n    constructor()\r\n        VRFConsumerBaseV2(0x7a1BaC17Ccc5b313516C5E16fb24f7659aA5ebed)\r\n        ConfirmedOwner(msg.sender)\r\n    {\r\n        COORDINATOR = VRFCoordinatorV2Interface(\r\n            0x7a1BaC17Ccc5b313516C5E16fb24f7659aA5ebed\r\n        );\r\n        s_subscriptionId;\r\n    }\r\n\r\n    function requestRandomWords()\r\n        external\r\n        onlyOwner\r\n        returns (uint256 requestId)\r\n    {\r\n        // Will revert if subscription is not set and funded.\r\n        requestId = COORDINATOR.requestRandomWords(\r\n            keyHash,\r\n            s_subscriptionId,\r\n            requestConfirmations,\r\n            callbackGasLimit,\r\n            numWords\r\n        );\r\n        s_requests[requestId] = RequestStatus({\r\n            randomWords: new uint256[](0),\r\n            exists: true,\r\n            fulfilled: false\r\n        });\r\n        requestIds.push(requestId);\r\n        lastRequestId = requestId;\r\n        emit RequestSent(requestId, numWords);\r\n        return requestId;\r\n    }\r\n\r\n    struct Raffle {\r\n        uint raffleId;\r\n        string raffleName;\r\n        string description;\r\n        uint256 nftPrice;\r\n        uint256 totalVolumeofTickets;\r\n        uint256 endTime;\r\n        string nftName;\r\n        uint256 nftId;\r\n        string[5] goals;\r\n        address nftContractAddress;\r\n        string nftSourceLink;\r\n        address charityAddress;\r\n        address raffleCreator;\r\n        uint256 rafflePool;\r\n        uint256 ticketPrice;\r\n        uint256 totalSoldTickets;\r\n        bool raffleCancelled;\r\n        bool raffleEnded;\r\n        uint256 fundsInContract;\r\n        uint256[] tickets;\r\n        uint winningTicket;\r\n        address raffleWinner;\r\n        address payable developmentTeam;\r\n    }\r\n\r\n    struct RaffleInfo {\r\n        uint raffleId;\r\n        string raffleName;\r\n        string description;\r\n        string[5] goals;\r\n        uint256 nftPrice;\r\n        uint256 totalVolumeofTickets;\r\n        uint256 endTime;\r\n        string nftName;\r\n        uint256 nftId;\r\n        address nftContractAddress;\r\n        string nftSourceLink;\r\n        address charityAddress;\r\n        address raffleCreator;\r\n        uint256 rafflePool;\r\n        uint256 ticketPrice;\r\n        uint256 totalSoldTickets;\r\n        uint winningTicket;\r\n        address raffleWinner;\r\n        bool raffleCancelled;\r\n        bool raffleEnded;\r\n    }\r\n\r\n    mapping(uint256 => Raffle) private raffles;\r\n    mapping(uint256 => mapping(uint256 => address)) public ticketToOwner;\r\n    uint256 private raffleCount = 0;\r\n\r\n    event raffleEnded(uint256 indexed raffleId);\r\n\r\n    function requestRandomTicket(\r\n        uint256 _raffleId\r\n    ) public returns (uint256 requestId) {\r\n        uint256 totalTicketsSold = raffles[_raffleId].totalSoldTickets;\r\n        require(totalTicketsSold > 0, \"No tickets sold yet\");\r\n        require(\r\n            raffles[_raffleId].totalSoldTickets >=\r\n                (raffles[_raffleId].totalVolumeofTickets * 80) / 100,\r\n            \"Not enough ticket sold\"\r\n        );\r\n\r\n        requestId = COORDINATOR.requestRandomWords(\r\n            keyHash,\r\n            s_subscriptionId,\r\n            requestConfirmations,\r\n            callbackGasLimit,\r\n            numWords\r\n        );\r\n\r\n        // Create a new RequestStatus for this requestId and associate it with the raffleId\r\n        s_requests[requestId] = RequestStatus({\r\n            randomWords: new uint256[](0),\r\n            exists: true,\r\n            fulfilled: false\r\n        });\r\n\r\n        // Map the raffleId to the requestId\r\n        raffleIdToRequestId[_raffleId] = requestId;\r\n\r\n        requestIds.push(requestId);\r\n        lastRequestId = requestId;\r\n        emit RequestSent(requestId, numWords);\r\n        return requestId;\r\n    }\r\n\r\n    function getRequestForRaffle(\r\n        uint256 _raffleId\r\n    ) public view returns (uint256 requestId) {\r\n        requestId = raffleIdToRequestId[_raffleId];\r\n        require(requestId != 0, \"No request for this id\");\r\n        return requestId;\r\n    }\r\n\r\n    function fulfillRandomWords(\r\n        uint256 _requestId,\r\n        uint256[] memory _randomWords\r\n    ) internal override {\r\n        require(s_requests[_requestId].exists, \"request not found\");\r\n        s_requests[_requestId].fulfilled = true;\r\n        s_requests[_requestId].randomWords = _randomWords;\r\n        emit RequestFulfilled(_requestId, _randomWords);\r\n    }\r\n\r\n    function pickRandomTicket(\r\n        uint256 _raffleId,\r\n        uint256 requestId\r\n    ) private view returns (uint256) {\r\n        require(s_requests[requestId].fulfilled, \"Request not fulfilled yet\");\r\n        uint256 randomValue = s_requests[requestId].randomWords[0];\r\n        uint256 randomNumber = randomValue %\r\n            raffles[_raffleId].totalSoldTickets;\r\n        uint256 winningTicket = randomNumber + 1; // Adding 1 to convert 0-based index to 1-based ticket numbers\r\n        return winningTicket;\r\n    }\r\n\r\n    function getRequestStatus(\r\n        uint256 _requestId\r\n    ) external view returns (bool fulfilled, uint256[] memory randomWords) {\r\n        require(s_requests[_requestId].exists, \"request not found\");\r\n        RequestStatus memory request = s_requests[_requestId];\r\n        return (request.fulfilled, request.randomWords);\r\n    }\r\n\r\n    function createRaffle(\r\n        string memory _raffleName,\r\n        string memory _description,\r\n        uint256 _nftPrice,\r\n        uint256 _totalVolumeofTickets,\r\n        uint256 _endTime,\r\n        string memory _nftName,\r\n        uint256 _nftId,\r\n        address _nftContractAddress,\r\n        string[5] memory _goals,\r\n        string memory _nftSourceLink,\r\n        address _charityAddress\r\n    ) public returns (uint256) {\r\n        require(\r\n            _nftContractAddress != address(0),\r\n            \"Invalid NFT contract address\"\r\n        );\r\n        require(_endTime > block.timestamp, \"End time must be in future\");\r\n        IERC721 nftContract = IERC721(_nftContractAddress);\r\n        require(\r\n            msg.sender == nftContract.ownerOf(_nftId),\r\n            \"Only NFT owner can create raffle\"\r\n        );\r\n\r\n        nftContract.safeTransferFrom(msg.sender, address(this), _nftId);\r\n        raffleCount++;\r\n\r\n        raffles[raffleCount] = Raffle({\r\n            raffleId: raffleCount,\r\n            raffleName: _raffleName,\r\n            description: _description,\r\n            goals: _goals,\r\n            nftPrice: _nftPrice,\r\n            totalVolumeofTickets: _totalVolumeofTickets,\r\n            endTime: _endTime,\r\n            nftName: _nftName,\r\n            nftId: _nftId,\r\n            nftContractAddress: _nftContractAddress,\r\n            nftSourceLink: _nftSourceLink,\r\n            raffleCreator: msg.sender,\r\n            rafflePool: (_nftPrice * 150).div(100),\r\n            ticketPrice: 0,\r\n            charityAddress: _charityAddress,\r\n            totalSoldTickets: 0,\r\n            raffleCancelled: false,\r\n            raffleEnded: false,\r\n            fundsInContract: 0,\r\n            tickets: new uint256[](0),\r\n            winningTicket: 0,\r\n            raffleWinner: address(0),\r\n            developmentTeam: payable(\r\n                address(0x1Eb43EBde750C57AaCEE85777e7c063218B0e1B4)\r\n            )\r\n        });\r\n\r\n        raffles[raffleCount].ticketPrice = raffles[raffleCount].rafflePool.div(\r\n            _totalVolumeofTickets\r\n        );\r\n\r\n        return raffleCount;\r\n    }\r\n\r\n    function getTicketPrice(uint256 _raffleId) public view returns (uint256) {\r\n        return raffles[_raffleId].ticketPrice;\r\n    }\r\n\r\n    function getTicketsOwned(\r\n        address _address,\r\n        uint256 raffleId\r\n    ) public view returns (uint256) {\r\n        uint256 totalTicketsOwned = 0;\r\n        for (uint256 i = 0; i < raffles[raffleId].tickets.length; i++) {\r\n            if (\r\n                ticketToOwner[raffleId][raffles[raffleId].tickets[i]] ==\r\n                _address\r\n            ) {\r\n                totalTicketsOwned = totalTicketsOwned.add(1);\r\n            }\r\n        }\r\n        return totalTicketsOwned;\r\n    }\r\n\r\n    function getOwnedRaffles(\r\n        address owner\r\n    ) public view returns (uint256 totalRaffles, uint256[] memory raffleIds) {\r\n        uint256[] memory ownedRaffleIds = new uint256[](raffleCount);\r\n        uint256 count = 0;\r\n        for (uint256 i = 0; i <= raffleCount; i++) {\r\n            if (raffles[i].raffleCreator == owner) {\r\n                ownedRaffleIds[count] = i;\r\n                count++;\r\n            }\r\n        }\r\n        uint256[] memory result = new uint256[](count);\r\n        for (uint256 j = 0; j < count; j++) {\r\n            result[j] = ownedRaffleIds[j];\r\n        }\r\n        return (count, result);\r\n    }\r\n\r\n    function getAvailableTickets(\r\n        uint256 _raffleID\r\n    ) public view returns (uint256) {\r\n        Raffle storage raffle = raffles[_raffleID];\r\n        require(raffle.raffleId != 0, \"Raffle not found\");\r\n\r\n        if (raffle.raffleEnded || raffle.raffleCancelled) {\r\n            return 0;\r\n        } else {\r\n            return raffle.totalVolumeofTickets - raffle.totalSoldTickets;\r\n        }\r\n    }\r\n\r\n    function buyTicket(\r\n        uint256 _raffleId,\r\n        uint256 _totalTicketsWanted\r\n    ) public payable {\r\n        Raffle storage raffle = raffles[_raffleId];\r\n\r\n        require(!raffle.raffleCancelled, \"Raffle is cancelled\");\r\n        require(!raffle.raffleEnded, \"Raffle is ended\");\r\n        require(_totalTicketsWanted > 0, \"Invalid number of tickets\");\r\n        require(\r\n            _totalTicketsWanted <=\r\n                raffle.totalVolumeofTickets - raffle.totalSoldTickets,\r\n            \"Not enough tickets available\"\r\n        );\r\n        uint256 totalTicketPrice = _totalTicketsWanted * raffle.ticketPrice;\r\n        require(msg.value >= totalTicketPrice, \"Incorrect payment amount\");\r\n\r\n        // Update ticket ownership\r\n        for (uint256 i = 0; i < _totalTicketsWanted; i++) {\r\n            uint256 ticket = raffle.totalSoldTickets + 1 + i;\r\n            raffle.tickets.push(ticket);\r\n            ticketToOwner[_raffleId][ticket] = msg.sender;\r\n        }\r\n\r\n        // Update raffle info\r\n        raffle.totalSoldTickets += _totalTicketsWanted;\r\n        raffle.fundsInContract += msg.value;\r\n    }\r\n\r\n    function getTotalTicketPrice(\r\n        uint _raffleId,\r\n        uint256 _totalTicketsWanted\r\n    ) public view returns (uint256) {\r\n        Raffle storage raffle = raffles[_raffleId];\r\n\r\n        uint256 totalTicketPrice = _totalTicketsWanted * raffle.ticketPrice;\r\n        return totalTicketPrice;\r\n    }\r\n\r\n    function pickWinner(uint256 raffleId, uint256 requestId) public {\r\n        Raffle storage raffle = raffles[raffleId];\r\n\r\n        require(!raffle.raffleCancelled, \"Raffle has been cancelled\");\r\n        require(!raffle.raffleEnded, \"Raffle has already ended\");\r\n        require(\r\n            raffle.totalSoldTickets >= (raffle.totalVolumeofTickets * 80) / 100,\r\n            \"Raffle can't be completed yet\"\r\n        );\r\n        require(\r\n            raffle.raffleCreator == msg.sender,\r\n            \"you are not the raffle owner\"\r\n        );\r\n\r\n        uint256 winningTicket = pickRandomTicket(raffleId, requestId);\r\n\r\n        uint winningTicketNumber = winningTicket;\r\n        address winningTicketOwner = ticketToOwner[raffleId][winningTicketNumber];\r\n        require(\r\n            winningTicketOwner != address(0), \"Winner has not been selected yet\"\r\n        );\r\n\r\n        // Store the winning ticket information in the raffle struct\r\n        raffle.raffleWinner = winningTicketOwner;\r\n\r\n        // Emit an event to indicate that a winner has been selected.\r\n        emit WinnerSelected(raffleId, winningTicketNumber, winningTicketOwner);\r\n\r\n        // Send the prize pool to each entity\r\n        uint256 rafflePrizePool = raffles[raffleId].rafflePool;\r\n        uint256 raffleCreatorPrize = raffles[raffleId].nftPrice +\r\n            (rafflePrizePool.mul(5)).div(100);\r\n        uint256 developmentTeamPrize = (rafflePrizePool.mul(5)).div(100);\r\n        uint256 charityPrize = rafflePrizePool -\r\n            raffleCreatorPrize -\r\n            developmentTeamPrize;\r\n\r\n        // Transfer the prize amounts to each entity.\r\n        payable(raffle.raffleCreator).transfer(raffleCreatorPrize);\r\n        payable(raffle.developmentTeam).transfer(developmentTeamPrize);\r\n        payable(raffle.charityAddress).transfer(charityPrize);\r\n\r\n        // Call safeTransferFrom function on ERC721 token contract to transfer the NFT to the winner.\r\n        IERC721(raffle.nftContractAddress).safeTransferFrom(\r\n            address(this),\r\n            winningTicketOwner,\r\n            raffle.nftId\r\n        );\r\n\r\n        // Mark the raffle as ended\r\n        raffle.raffleEnded = true;\r\n\r\n        // Emit raffleEnded event\r\n        emit raffleEnded(raffleId);\r\n    }\r\n\r\n    function cancelRaffle(uint256 _raffleId) public {\r\n        Raffle storage raffle = raffles[_raffleId];\r\n        require(\r\n            msg.sender == raffle.raffleCreator,\r\n            \"Only raffle creator can cancel the lottery\"\r\n        );\r\n        require(!raffle.raffleEnded, \"Raffle has already ended\");\r\n\r\n        // Refund funds to ticket owners\r\n        for (uint256 i = 0; i < raffle.tickets.length; i++) {\r\n            uint256 ticket = raffle.tickets[i];\r\n            address ticketOwner = ticketToOwner[_raffleId][ticket];\r\n            if (ticketOwner != address(0)) {\r\n                payable(ticketOwner).transfer(raffle.ticketPrice);\r\n            }\r\n        }\r\n\r\n        // Transfer NFT back to raffle creator\r\n        IERC721(raffle.nftContractAddress).safeTransferFrom(\r\n            address(this),\r\n            raffle.raffleCreator,\r\n            raffle.nftId\r\n        );\r\n\r\n        // Update raffle status\r\n        raffle.raffleCancelled = true;\r\n        raffle.raffleEnded = true;\r\n    }\r\n\r\n    function getPrizePool(\r\n        uint256 _raffleId\r\n    ) public view returns (uint256, uint256, uint256, uint256) {\r\n        uint256 rafflePrizePool = raffles[_raffleId].rafflePool;\r\n        uint256 raffleCreatorPrize = raffles[_raffleId].nftPrice +\r\n            (rafflePrizePool.mul(5)).div(100);\r\n        uint256 developmentTeamPrize = (rafflePrizePool.mul(5)).div(100);\r\n        uint256 charityPrize = rafflePrizePool -\r\n            raffleCreatorPrize -\r\n            developmentTeamPrize;\r\n\r\n        return (\r\n            rafflePrizePool,\r\n            raffleCreatorPrize,\r\n            developmentTeamPrize,\r\n            charityPrize\r\n        );\r\n    }\r\n\r\n    function getRaffleWinner(\r\n        uint256 raffleId\r\n    ) public view returns (address winner, uint256 winningTicket) {\r\n        require(\r\n            !raffles[raffleId].raffleCancelled,\r\n            \"Raffle has been cancelled\"\r\n        );\r\n        require(!raffles[raffleId].raffleEnded, \"Raffle has already ended\");\r\n        require(\r\n            raffles[raffleId].winningTicket != 0,\r\n            \"Winner has not been picked yet\"\r\n        );\r\n\r\n        return (\r\n            raffles[raffleId].raffleWinner,\r\n            raffles[raffleId].winningTicket\r\n        );\r\n    }\r\n\r\n    function raffleInfo(\r\n        uint256 _raffleID\r\n    ) public view returns (RaffleInfo memory) {\r\n        Raffle storage raffle = raffles[_raffleID];\r\n\r\n        RaffleInfo memory raffleInfo = RaffleInfo({\r\n            raffleId: _raffleID,\r\n            raffleName: raffle.raffleName,\r\n            description: raffle.description,\r\n            goals: raffle.goals,\r\n            nftPrice: raffle.nftPrice,\r\n            totalVolumeofTickets: raffle.totalVolumeofTickets,\r\n            endTime: raffle.endTime,\r\n            nftName: raffle.nftName,\r\n            nftId: raffle.nftId,\r\n            nftContractAddress: raffle.nftContractAddress,\r\n            nftSourceLink: raffle.nftSourceLink,\r\n            charityAddress: raffle.charityAddress,\r\n            raffleCreator: raffle.raffleCreator,\r\n            rafflePool: raffle.rafflePool,\r\n            ticketPrice: raffle.ticketPrice,\r\n            totalSoldTickets: raffle.totalSoldTickets,\r\n            winningTicket: raffle.winningTicket,\r\n            raffleWinner: raffle.raffleWinner,\r\n            raffleCancelled: raffle.raffleCancelled,\r\n            raffleEnded: raffle.raffleEnded\r\n        });\r\n\r\n        return raffleInfo;\r\n    }\r\n\r\n    function onERC721Received(\r\n        address operator,\r\n        address from,\r\n        uint256 tokenId,\r\n        bytes calldata data\r\n    ) external returns (bytes4) {\r\n        return this.onERC721Received.selector;\r\n    }\r\n\r\n    function getEntityAddresses(\r\n        uint256 _raffleId\r\n    ) public view returns (address, address, address) {\r\n        return (\r\n            raffles[_raffleId].raffleCreator,\r\n            raffles[_raffleId].developmentTeam,\r\n            raffles[_raffleId].charityAddress\r\n        );\r\n    }\r\n\r\n    function getTotalRaffles() public view returns (uint256) {\r\n        return raffleCount;\r\n    }\r\n\r\n    function getContractBalance() public view returns (uint256) {\r\n        return address(this).balance;\r\n    }\r\n}",
  "sourcePath": "C:\\Users\\user\\Desktop\\GIT_REPOS\\originx-dapp\\backend\\contracts\\mainNftRaffle.sol",
  "compiler": {
    "name": "solc",
    "version": "0.8.14+commit.80d49f37.Emscripten.clang"
  },
  "schemaVersion": "3.4.13",
  "updatedAt": "2023-08-22T03:59:49.415Z",
  "networkType": "ethereum",
  "devdoc": {
    "kind": "dev",
    "methods": {
      "onERC721Received(address,address,uint256,bytes)": {
        "details": "Whenever an {IERC721} `tokenId` token is transferred to this contract via {IERC721-safeTransferFrom} by `operator` from `from`, this function is called. It must return its Solidity selector to confirm the token transfer. If any other value is returned or the interface is not implemented by the recipient, the transfer will be reverted. The selector can be obtained in Solidity with `IERC721Receiver.onERC721Received.selector`."
      }
    },
    "version": 1
  },
  "userdoc": {
    "kind": "user",
    "methods": {
      "acceptOwnership()": {
        "notice": "Allows an ownership transfer to be completed by the recipient."
      },
      "owner()": {
        "notice": "Get the current owner"
      },
      "transferOwnership(address)": {
        "notice": "Allows an owner to begin transferring ownership to a new address, pending."
      }
    },
    "version": 1
  }
}