{
  "contractName": "InvisibleFriends",
  "abi": [
    {
      "inputs": [],
      "stateMutability": "nonpayable",
      "type": "constructor"
    },
    {
      "anonymous": false,
      "inputs": [
        {
          "indexed": true,
          "internalType": "address",
          "name": "owner",
          "type": "address"
        },
        {
          "indexed": true,
          "internalType": "address",
          "name": "approved",
          "type": "address"
        },
        {
          "indexed": true,
          "internalType": "uint256",
          "name": "tokenId",
          "type": "uint256"
        }
      ],
      "name": "Approval",
      "type": "event"
    },
    {
      "anonymous": false,
      "inputs": [
        {
          "indexed": true,
          "internalType": "address",
          "name": "owner",
          "type": "address"
        },
        {
          "indexed": true,
          "internalType": "address",
          "name": "operator",
          "type": "address"
        },
        {
          "indexed": false,
          "internalType": "bool",
          "name": "approved",
          "type": "bool"
        }
      ],
      "name": "ApprovalForAll",
      "type": "event"
    },
    {
      "anonymous": false,
      "inputs": [
        {
          "indexed": true,
          "internalType": "address",
          "name": "previousOwner",
          "type": "address"
        },
        {
          "indexed": true,
          "internalType": "address",
          "name": "newOwner",
          "type": "address"
        }
      ],
      "name": "OwnershipTransferred",
      "type": "event"
    },
    {
      "anonymous": false,
      "inputs": [
        {
          "indexed": true,
          "internalType": "address",
          "name": "from",
          "type": "address"
        },
        {
          "indexed": true,
          "internalType": "address",
          "name": "to",
          "type": "address"
        },
        {
          "indexed": true,
          "internalType": "uint256",
          "name": "tokenId",
          "type": "uint256"
        }
      ],
      "name": "Transfer",
      "type": "event"
    },
    {
      "inputs": [
        {
          "internalType": "address",
          "name": "to",
          "type": "address"
        },
        {
          "internalType": "uint256",
          "name": "tokenId",
          "type": "uint256"
        }
      ],
      "name": "approve",
      "outputs": [],
      "stateMutability": "nonpayable",
      "type": "function"
    },
    {
      "inputs": [
        {
          "internalType": "address",
          "name": "owner",
          "type": "address"
        }
      ],
      "name": "balanceOf",
      "outputs": [
        {
          "internalType": "uint256",
          "name": "",
          "type": "uint256"
        }
      ],
      "stateMutability": "view",
      "type": "function",
      "constant": true
    },
    {
      "inputs": [
        {
          "internalType": "uint256",
          "name": "tokenId",
          "type": "uint256"
        }
      ],
      "name": "getApproved",
      "outputs": [
        {
          "internalType": "address",
          "name": "",
          "type": "address"
        }
      ],
      "stateMutability": "view",
      "type": "function",
      "constant": true
    },
    {
      "inputs": [
        {
          "internalType": "address",
          "name": "owner",
          "type": "address"
        },
        {
          "internalType": "address",
          "name": "operator",
          "type": "address"
        }
      ],
      "name": "isApprovedForAll",
      "outputs": [
        {
          "internalType": "bool",
          "name": "",
          "type": "bool"
        }
      ],
      "stateMutability": "view",
      "type": "function",
      "constant": true
    },
    {
      "inputs": [],
      "name": "maxMintAmountPerTx",
      "outputs": [
        {
          "internalType": "uint256",
          "name": "",
          "type": "uint256"
        }
      ],
      "stateMutability": "view",
      "type": "function",
      "constant": true
    },
    {
      "inputs": [],
      "name": "maxSupply",
      "outputs": [
        {
          "internalType": "uint256",
          "name": "",
          "type": "uint256"
        }
      ],
      "stateMutability": "view",
      "type": "function",
      "constant": true
    },
    {
      "inputs": [],
      "name": "mintCost",
      "outputs": [
        {
          "internalType": "uint256",
          "name": "",
          "type": "uint256"
        }
      ],
      "stateMutability": "view",
      "type": "function",
      "constant": true
    },
    {
      "inputs": [
        {
          "internalType": "address",
          "name": "",
          "type": "address"
        }
      ],
      "name": "mintCount",
      "outputs": [
        {
          "internalType": "uint256",
          "name": "",
          "type": "uint256"
        }
      ],
      "stateMutability": "view",
      "type": "function",
      "constant": true
    },
    {
      "inputs": [],
      "name": "name",
      "outputs": [
        {
          "internalType": "string",
          "name": "",
          "type": "string"
        }
      ],
      "stateMutability": "view",
      "type": "function",
      "constant": true
    },
    {
      "inputs": [],
      "name": "owner",
      "outputs": [
        {
          "internalType": "address",
          "name": "",
          "type": "address"
        }
      ],
      "stateMutability": "view",
      "type": "function",
      "constant": true
    },
    {
      "inputs": [
        {
          "internalType": "uint256",
          "name": "tokenId",
          "type": "uint256"
        }
      ],
      "name": "ownerOf",
      "outputs": [
        {
          "internalType": "address",
          "name": "",
          "type": "address"
        }
      ],
      "stateMutability": "view",
      "type": "function",
      "constant": true
    },
    {
      "inputs": [],
      "name": "renounceOwnership",
      "outputs": [],
      "stateMutability": "nonpayable",
      "type": "function"
    },
    {
      "inputs": [
        {
          "internalType": "address",
          "name": "from",
          "type": "address"
        },
        {
          "internalType": "address",
          "name": "to",
          "type": "address"
        },
        {
          "internalType": "uint256",
          "name": "tokenId",
          "type": "uint256"
        }
      ],
      "name": "safeTransferFrom",
      "outputs": [],
      "stateMutability": "nonpayable",
      "type": "function"
    },
    {
      "inputs": [
        {
          "internalType": "address",
          "name": "from",
          "type": "address"
        },
        {
          "internalType": "address",
          "name": "to",
          "type": "address"
        },
        {
          "internalType": "uint256",
          "name": "tokenId",
          "type": "uint256"
        },
        {
          "internalType": "bytes",
          "name": "data",
          "type": "bytes"
        }
      ],
      "name": "safeTransferFrom",
      "outputs": [],
      "stateMutability": "nonpayable",
      "type": "function"
    },
    {
      "inputs": [
        {
          "internalType": "address",
          "name": "operator",
          "type": "address"
        },
        {
          "internalType": "bool",
          "name": "approved",
          "type": "bool"
        }
      ],
      "name": "setApprovalForAll",
      "outputs": [],
      "stateMutability": "nonpayable",
      "type": "function"
    },
    {
      "inputs": [
        {
          "internalType": "bytes4",
          "name": "interfaceId",
          "type": "bytes4"
        }
      ],
      "name": "supportsInterface",
      "outputs": [
        {
          "internalType": "bool",
          "name": "",
          "type": "bool"
        }
      ],
      "stateMutability": "view",
      "type": "function",
      "constant": true
    },
    {
      "inputs": [],
      "name": "symbol",
      "outputs": [
        {
          "internalType": "string",
          "name": "",
          "type": "string"
        }
      ],
      "stateMutability": "view",
      "type": "function",
      "constant": true
    },
    {
      "inputs": [
        {
          "internalType": "address",
          "name": "from",
          "type": "address"
        },
        {
          "internalType": "address",
          "name": "to",
          "type": "address"
        },
        {
          "internalType": "uint256",
          "name": "tokenId",
          "type": "uint256"
        }
      ],
      "name": "transferFrom",
      "outputs": [],
      "stateMutability": "nonpayable",
      "type": "function"
    },
    {
      "inputs": [
        {
          "internalType": "address",
          "name": "newOwner",
          "type": "address"
        }
      ],
      "name": "transferOwnership",
      "outputs": [],
      "stateMutability": "nonpayable",
      "type": "function"
    },
    {
      "inputs": [],
      "name": "uriPrefix",
      "outputs": [
        {
          "internalType": "string",
          "name": "",
          "type": "string"
        }
      ],
      "stateMutability": "view",
      "type": "function",
      "constant": true
    },
    {
      "inputs": [],
      "name": "uriSuffix",
      "outputs": [
        {
          "internalType": "string",
          "name": "",
          "type": "string"
        }
      ],
      "stateMutability": "view",
      "type": "function",
      "constant": true
    },
    {
      "inputs": [],
      "name": "totalSupply",
      "outputs": [
        {
          "internalType": "uint256",
          "name": "",
          "type": "uint256"
        }
      ],
      "stateMutability": "view",
      "type": "function",
      "constant": true
    },
    {
      "inputs": [
        {
          "internalType": "uint256",
          "name": "_mintAmount",
          "type": "uint256"
        }
      ],
      "name": "mint",
      "outputs": [],
      "stateMutability": "payable",
      "type": "function",
      "payable": true
    },
    {
      "inputs": [],
      "name": "getmintCount",
      "outputs": [
        {
          "internalType": "uint256",
          "name": "",
          "type": "uint256"
        }
      ],
      "stateMutability": "view",
      "type": "function",
      "constant": true
    },
    {
      "inputs": [
        {
          "internalType": "address",
          "name": "_owner",
          "type": "address"
        }
      ],
      "name": "walletOfOwner",
      "outputs": [
        {
          "internalType": "uint256[]",
          "name": "",
          "type": "uint256[]"
        }
      ],
      "stateMutability": "view",
      "type": "function",
      "constant": true
    },
    {
      "inputs": [
        {
          "internalType": "uint256",
          "name": "_tokenId",
          "type": "uint256"
        }
      ],
      "name": "tokenURI",
      "outputs": [
        {
          "internalType": "string",
          "name": "",
          "type": "string"
        }
      ],
      "stateMutability": "view",
      "type": "function",
      "constant": true
    },
    {
      "inputs": [],
      "name": "withdraw",
      "outputs": [],
      "stateMutability": "nonpayable",
      "type": "function"
    }
  ],
  "bytecode": "0x608060405260405180606001604052806036815260200162003a336036913960089080519060200190620000359291906200021c565b5060405180602001604052806000815250600990805190602001906200005d9291906200021c565b5067016345785d8a0000600a55611388600b556002600c55600a600d553480156200008757600080fd5b506040518060400160405280601181526020017f496e76697369626c6520467269656e64730000000000000000000000000000008152506040518060400160405280600781526020017f494e5653424c450000000000000000000000000000000000000000000000000081525081600090805190602001906200010c9291906200021c565b508060019080519060200190620001259291906200021c565b505050620001486200013c6200014e60201b60201c565b6200015660201b60201c565b62000330565b600033905090565b6000600660009054906101000a900473ffffffffffffffffffffffffffffffffffffffff16905081600660006101000a81548173ffffffffffffffffffffffffffffffffffffffff021916908373ffffffffffffffffffffffffffffffffffffffff1602179055508173ffffffffffffffffffffffffffffffffffffffff168173ffffffffffffffffffffffffffffffffffffffff167f8be0079c531659141344cd1fd0a4f28419497f9722a3daafe3b4186f6b6457e060405160405180910390a35050565b8280546200022a90620002fb565b90600052602060002090601f0160209004810192826200024e57600085556200029a565b82601f106200026957805160ff19168380011785556200029a565b828001600101855582156200029a579182015b82811115620002995782518255916020019190600101906200027c565b5b509050620002a99190620002ad565b5090565b5b80821115620002c8576000816000905550600101620002ae565b5090565b7f4e487b7100000000000000000000000000000000000000000000000000000000600052602260045260246000fd5b600060028204905060018216806200031457607f821691505b6020821081036200032a5762000329620002cc565b5b50919050565b6136f380620003406000396000f3fe60806040526004361061019c5760003560e01c806370a08231116100ec578063b88d4fde1161008a578063d5abeb0111610064578063d5abeb01146105a9578063e985e9c5146105d4578063ed9ec88814610611578063f2fde38b1461064e5761019c565b8063b88d4fde14610518578063bdb4b84814610541578063c87b56dd1461056c5761019c565b806394354fd0116100c657806394354fd01461047d57806395d89b41146104a8578063a0712d68146104d3578063a22cb465146104ef5761019c565b806370a08231146103fe578063715018a61461043b5780638da5cb5b146104525761019c565b80633ccfd60b116101595780635503a0e8116101335780635503a0e8146103405780635619f4431461036b57806362b99ad4146103965780636352211e146103c15761019c565b80633ccfd60b146102c357806342842e0e146102da578063438b6300146103035761019c565b806301ffc9a7146101a157806306fdde03146101de578063081812fc14610209578063095ea7b31461024657806318160ddd1461026f57806323b872dd1461029a575b600080fd5b3480156101ad57600080fd5b506101c860048036038101906101c39190612389565b610677565b6040516101d591906123d1565b60405180910390f35b3480156101ea57600080fd5b506101f3610759565b6040516102009190612485565b60405180910390f35b34801561021557600080fd5b50610230600480360381019061022b91906124dd565b6107eb565b60405161023d919061254b565b60405180910390f35b34801561025257600080fd5b5061026d60048036038101906102689190612592565b610831565b005b34801561027b57600080fd5b50610284610948565b60405161029191906125e1565b60405180910390f35b3480156102a657600080fd5b506102c160048036038101906102bc91906125fc565b610959565b005b3480156102cf57600080fd5b506102d86109b9565b005b3480156102e657600080fd5b5061030160048036038101906102fc91906125fc565b610a41565b005b34801561030f57600080fd5b5061032a6004803603810190610325919061264f565b610a61565b604051610337919061273a565b60405180910390f35b34801561034c57600080fd5b50610355610b6b565b6040516103629190612485565b60405180910390f35b34801561037757600080fd5b50610380610bf9565b60405161038d91906125e1565b60405180910390f35b3480156103a257600080fd5b506103ab610c40565b6040516103b89190612485565b60405180910390f35b3480156103cd57600080fd5b506103e860048036038101906103e391906124dd565b610cce565b6040516103f5919061254b565b60405180910390f35b34801561040a57600080fd5b506104256004803603810190610420919061264f565b610d54565b60405161043291906125e1565b60405180910390f35b34801561044757600080fd5b50610450610e0b565b005b34801561045e57600080fd5b50610467610e1f565b604051610474919061254b565b60405180910390f35b34801561048957600080fd5b50610492610e49565b60405161049f91906125e1565b60405180910390f35b3480156104b457600080fd5b506104bd610e4f565b6040516104ca9190612485565b60405180910390f35b6104ed60048036038101906104e891906124dd565b610ee1565b005b3480156104fb57600080fd5b5061051660048036038101906105119190612788565b6110cf565b005b34801561052457600080fd5b5061053f600480360381019061053a91906128fd565b6110e5565b005b34801561054d57600080fd5b50610556611147565b60405161056391906125e1565b60405180910390f35b34801561057857600080fd5b50610593600480360381019061058e91906124dd565b61114d565b6040516105a09190612485565b60405180910390f35b3480156105b557600080fd5b506105be6111f7565b6040516105cb91906125e1565b60405180910390f35b3480156105e057600080fd5b506105fb60048036038101906105f69190612980565b6111fd565b60405161060891906123d1565b60405180910390f35b34801561061d57600080fd5b506106386004803603810190610633919061264f565b611291565b60405161064591906125e1565b60405180910390f35b34801561065a57600080fd5b506106756004803603810190610670919061264f565b6112a9565b005b60007f80ac58cd000000000000000000000000000000000000000000000000000000007bffffffffffffffffffffffffffffffffffffffffffffffffffffffff1916827bffffffffffffffffffffffffffffffffffffffffffffffffffffffff1916148061074257507f5b5e139f000000000000000000000000000000000000000000000000000000007bffffffffffffffffffffffffffffffffffffffffffffffffffffffff1916827bffffffffffffffffffffffffffffffffffffffffffffffffffffffff1916145b8061075257506107518261132c565b5b9050919050565b606060008054610768906129ef565b80601f0160208091040260200160405190810160405280929190818152602001828054610794906129ef565b80156107e15780601f106107b6576101008083540402835291602001916107e1565b820191906000526020600020905b8154815290600101906020018083116107c457829003601f168201915b5050505050905090565b60006107f682611396565b6004600083815260200190815260200160002060009054906101000a900473ffffffffffffffffffffffffffffffffffffffff169050919050565b600061083c82610cce565b90508073ffffffffffffffffffffffffffffffffffffffff168373ffffffffffffffffffffffffffffffffffffffff16036108ac576040517f08c379a00000000000000000000000000000000000000000000000000000000081526004016108a390612a92565b60405180910390fd5b8073ffffffffffffffffffffffffffffffffffffffff166108cb6113e1565b73ffffffffffffffffffffffffffffffffffffffff1614806108fa57506108f9816108f46113e1565b6111fd565b5b610939576040517f08c379a000000000000000000000000000000000000000000000000000000000815260040161093090612b24565b60405180910390fd5b61094383836113e9565b505050565b600061095460076114a2565b905090565b61096a6109646113e1565b826114b0565b6109a9576040517f08c379a00000000000000000000000000000000000000000000000000000000081526004016109a090612bb6565b60405180910390fd5b6109b4838383611545565b505050565b6109c161183e565b60006109cb610e1f565b73ffffffffffffffffffffffffffffffffffffffff16476040516109ee90612c07565b60006040518083038185875af1925050503d8060008114610a2b576040519150601f19603f3d011682016040523d82523d6000602084013e610a30565b606091505b5050905080610a3e57600080fd5b50565b610a5c838383604051806020016040528060008152506110e5565b505050565b60606000610a6e83610d54565b905060008167ffffffffffffffff811115610a8c57610a8b6127d2565b5b604051908082528060200260200182016040528015610aba5781602001602082028036833780820191505090505b50905060006001905060005b8381108015610ad75750600b548211155b15610b5f576000610ae783610cce565b90508673ffffffffffffffffffffffffffffffffffffffff168173ffffffffffffffffffffffffffffffffffffffff1603610b4b5782848381518110610b3057610b2f612c1c565b5b6020026020010181815250508180610b4790612c7a565b9250505b8280610b5690612c7a565b93505050610ac6565b82945050505050919050565b60098054610b78906129ef565b80601f0160208091040260200160405190810160405280929190818152602001828054610ba4906129ef565b8015610bf15780601f10610bc657610100808354040283529160200191610bf1565b820191906000526020600020905b815481529060010190602001808311610bd457829003601f168201915b505050505081565b6000600e60003373ffffffffffffffffffffffffffffffffffffffff1673ffffffffffffffffffffffffffffffffffffffff16815260200190815260200160002054905090565b60088054610c4d906129ef565b80601f0160208091040260200160405190810160405280929190818152602001828054610c79906129ef565b8015610cc65780601f10610c9b57610100808354040283529160200191610cc6565b820191906000526020600020905b815481529060010190602001808311610ca957829003601f168201915b505050505081565b600080610cda836118bc565b9050600073ffffffffffffffffffffffffffffffffffffffff168173ffffffffffffffffffffffffffffffffffffffff1603610d4b576040517f08c379a0000000000000000000000000000000000000000000000000000000008152600401610d4290612d0e565b60405180910390fd5b80915050919050565b60008073ffffffffffffffffffffffffffffffffffffffff168273ffffffffffffffffffffffffffffffffffffffff1603610dc4576040517f08c379a0000000000000000000000000000000000000000000000000000000008152600401610dbb90612da0565b60405180910390fd5b600360008373ffffffffffffffffffffffffffffffffffffffff1673ffffffffffffffffffffffffffffffffffffffff168152602001908152602001600020549050919050565b610e1361183e565b610e1d60006118f9565b565b6000600660009054906101000a900473ffffffffffffffffffffffffffffffffffffffff16905090565b600c5481565b606060018054610e5e906129ef565b80601f0160208091040260200160405190810160405280929190818152602001828054610e8a906129ef565b8015610ed75780601f10610eac57610100808354040283529160200191610ed7565b820191906000526020600020905b815481529060010190602001808311610eba57829003601f168201915b5050505050905090565b80600081118015610ef45750600c548111155b610f33576040517f08c379a0000000000000000000000000000000000000000000000000000000008152600401610f2a90612e0c565b60405180910390fd5b600b5481610f4160076114a2565b610f4b9190612e2c565b1115610f8c576040517f08c379a0000000000000000000000000000000000000000000000000000000008152600401610f8390612ece565b60405180910390fd5b81600a54610f9a9190612eee565b341015610fdc576040517f08c379a0000000000000000000000000000000000000000000000000000000008152600401610fd390612f94565b60405180910390fd5b600d5482600e60003373ffffffffffffffffffffffffffffffffffffffff1673ffffffffffffffffffffffffffffffffffffffff1681526020019081526020016000205461102a9190612e2c565b111561106b576040517f08c379a000000000000000000000000000000000000000000000000000000000815260040161106290613000565b60405180910390fd5b61107533836119bf565b81600e60003373ffffffffffffffffffffffffffffffffffffffff1673ffffffffffffffffffffffffffffffffffffffff16815260200190815260200160002060008282546110c49190612e2c565b925050819055505050565b6110e16110da6113e1565b83836119ff565b5050565b6110f66110f06113e1565b836114b0565b611135576040517f08c379a000000000000000000000000000000000000000000000000000000000815260040161112c90612bb6565b60405180910390fd5b61114184848484611b6b565b50505050565b600a5481565b606061115882611bc7565b611197576040517f08c379a000000000000000000000000000000000000000000000000000000000815260040161118e90613092565b60405180910390fd5b60006111a1611c08565b905060008151116111c157604051806020016040528060008152506111ef565b806111cb84611c9a565b60096040516020016111df93929190613182565b6040516020818303038152906040525b915050919050565b600b5481565b6000600560008473ffffffffffffffffffffffffffffffffffffffff1673ffffffffffffffffffffffffffffffffffffffff16815260200190815260200160002060008373ffffffffffffffffffffffffffffffffffffffff1673ffffffffffffffffffffffffffffffffffffffff16815260200190815260200160002060009054906101000a900460ff16905092915050565b600e6020528060005260406000206000915090505481565b6112b161183e565b600073ffffffffffffffffffffffffffffffffffffffff168173ffffffffffffffffffffffffffffffffffffffff1603611320576040517f08c379a000000000000000000000000000000000000000000000000000000000815260040161131790613225565b60405180910390fd5b611329816118f9565b50565b60007f01ffc9a7000000000000000000000000000000000000000000000000000000007bffffffffffffffffffffffffffffffffffffffffffffffffffffffff1916827bffffffffffffffffffffffffffffffffffffffffffffffffffffffff1916149050919050565b61139f81611bc7565b6113de576040517f08c379a00000000000000000000000000000000000000000000000000000000081526004016113d590612d0e565b60405180910390fd5b50565b600033905090565b816004600083815260200190815260200160002060006101000a81548173ffffffffffffffffffffffffffffffffffffffff021916908373ffffffffffffffffffffffffffffffffffffffff160217905550808273ffffffffffffffffffffffffffffffffffffffff1661145c83610cce565b73ffffffffffffffffffffffffffffffffffffffff167f8c5be1e5ebec7d5bd14f71427d1e84f3dd0314c0f7b2291e5b200ac8c7c3b92560405160405180910390a45050565b600081600001549050919050565b6000806114bc83610cce565b90508073ffffffffffffffffffffffffffffffffffffffff168473ffffffffffffffffffffffffffffffffffffffff1614806114fe57506114fd81856111fd565b5b8061153c57508373ffffffffffffffffffffffffffffffffffffffff16611524846107eb565b73ffffffffffffffffffffffffffffffffffffffff16145b91505092915050565b8273ffffffffffffffffffffffffffffffffffffffff1661156582610cce565b73ffffffffffffffffffffffffffffffffffffffff16146115bb576040517f08c379a00000000000000000000000000000000000000000000000000000000081526004016115b2906132b7565b60405180910390fd5b600073ffffffffffffffffffffffffffffffffffffffff168273ffffffffffffffffffffffffffffffffffffffff160361162a576040517f08c379a000000000000000000000000000000000000000000000000000000000815260040161162190613349565b60405180910390fd5b6116378383836001611d68565b8273ffffffffffffffffffffffffffffffffffffffff1661165782610cce565b73ffffffffffffffffffffffffffffffffffffffff16146116ad576040517f08c379a00000000000000000000000000000000000000000000000000000000081526004016116a4906132b7565b60405180910390fd5b6004600082815260200190815260200160002060006101000a81549073ffffffffffffffffffffffffffffffffffffffff02191690556001600360008573ffffffffffffffffffffffffffffffffffffffff1673ffffffffffffffffffffffffffffffffffffffff168152602001908152602001600020600082825403925050819055506001600360008473ffffffffffffffffffffffffffffffffffffffff1673ffffffffffffffffffffffffffffffffffffffff16815260200190815260200160002060008282540192505081905550816002600083815260200190815260200160002060006101000a81548173ffffffffffffffffffffffffffffffffffffffff021916908373ffffffffffffffffffffffffffffffffffffffff160217905550808273ffffffffffffffffffffffffffffffffffffffff168473ffffffffffffffffffffffffffffffffffffffff167fddf252ad1be2c89b69c2b068fc378daa952ba7f163c4a11628f55a4df523b3ef60405160405180910390a46118398383836001611d6e565b505050565b6118466113e1565b73ffffffffffffffffffffffffffffffffffffffff16611864610e1f565b73ffffffffffffffffffffffffffffffffffffffff16146118ba576040517f08c379a00000000000000000000000000000000000000000000000000000000081526004016118b1906133b5565b60405180910390fd5b565b60006002600083815260200190815260200160002060009054906101000a900473ffffffffffffffffffffffffffffffffffffffff169050919050565b6000600660009054906101000a900473ffffffffffffffffffffffffffffffffffffffff16905081600660006101000a81548173ffffffffffffffffffffffffffffffffffffffff021916908373ffffffffffffffffffffffffffffffffffffffff1602179055508173ffffffffffffffffffffffffffffffffffffffff168173ffffffffffffffffffffffffffffffffffffffff167f8be0079c531659141344cd1fd0a4f28419497f9722a3daafe3b4186f6b6457e060405160405180910390a35050565b60005b818110156119fa576119d46007611d74565b6119e7836119e260076114a2565b611d8a565b80806119f290612c7a565b9150506119c2565b505050565b8173ffffffffffffffffffffffffffffffffffffffff168373ffffffffffffffffffffffffffffffffffffffff1603611a6d576040517f08c379a0000000000000000000000000000000000000000000000000000000008152600401611a6490613421565b60405180910390fd5b80600560008573ffffffffffffffffffffffffffffffffffffffff1673ffffffffffffffffffffffffffffffffffffffff16815260200190815260200160002060008473ffffffffffffffffffffffffffffffffffffffff1673ffffffffffffffffffffffffffffffffffffffff16815260200190815260200160002060006101000a81548160ff0219169083151502179055508173ffffffffffffffffffffffffffffffffffffffff168373ffffffffffffffffffffffffffffffffffffffff167f17307eab39ab6107e8899845ad3d59bd9653f200f220920489ca2b5937696c3183604051611b5e91906123d1565b60405180910390a3505050565b611b76848484611545565b611b8284848484611da8565b611bc1576040517f08c379a0000000000000000000000000000000000000000000000000000000008152600401611bb8906134b3565b60405180910390fd5b50505050565b60008073ffffffffffffffffffffffffffffffffffffffff16611be9836118bc565b73ffffffffffffffffffffffffffffffffffffffff1614159050919050565b606060088054611c17906129ef565b80601f0160208091040260200160405190810160405280929190818152602001828054611c43906129ef565b8015611c905780601f10611c6557610100808354040283529160200191611c90565b820191906000526020600020905b815481529060010190602001808311611c7357829003601f168201915b5050505050905090565b606060006001611ca984611f2f565b01905060008167ffffffffffffffff811115611cc857611cc76127d2565b5b6040519080825280601f01601f191660200182016040528015611cfa5781602001600182028036833780820191505090505b509050600082602001820190505b600115611d5d578080600190039150507f3031323334353637383961626364656600000000000000000000000000000000600a86061a8153600a8581611d5157611d506134d3565b5b04945060008503611d08575b819350505050919050565b50505050565b50505050565b6001816000016000828254019250508190555050565b611da4828260405180602001604052806000815250612082565b5050565b6000611dc98473ffffffffffffffffffffffffffffffffffffffff166120dd565b15611f22578373ffffffffffffffffffffffffffffffffffffffff1663150b7a02611df26113e1565b8786866040518563ffffffff1660e01b8152600401611e149493929190613557565b6020604051808303816000875af1925050508015611e5057506040513d601f19601f82011682018060405250810190611e4d91906135b8565b60015b611ed2573d8060008114611e80576040519150601f19603f3d011682016040523d82523d6000602084013e611e85565b606091505b506000815103611eca576040517f08c379a0000000000000000000000000000000000000000000000000000000008152600401611ec1906134b3565b60405180910390fd5b805181602001fd5b63150b7a0260e01b7bffffffffffffffffffffffffffffffffffffffffffffffffffffffff1916817bffffffffffffffffffffffffffffffffffffffffffffffffffffffff191614915050611f27565b600190505b949350505050565b600080600090507a184f03e93ff9f4daa797ed6e38ed64bf6a1f0100000000000000008310611f8d577a184f03e93ff9f4daa797ed6e38ed64bf6a1f0100000000000000008381611f8357611f826134d3565b5b0492506040810190505b6d04ee2d6d415b85acef81000000008310611fca576d04ee2d6d415b85acef81000000008381611fc057611fbf6134d3565b5b0492506020810190505b662386f26fc100008310611ff957662386f26fc100008381611fef57611fee6134d3565b5b0492506010810190505b6305f5e1008310612022576305f5e1008381612018576120176134d3565b5b0492506008810190505b612710831061204757612710838161203d5761203c6134d3565b5b0492506004810190505b6064831061206a57606483816120605761205f6134d3565b5b0492506002810190505b600a8310612079576001810190505b80915050919050565b61208c8383612100565b6120996000848484611da8565b6120d8576040517f08c379a00000000000000000000000000000000000000000000000000000000081526004016120cf906134b3565b60405180910390fd5b505050565b6000808273ffffffffffffffffffffffffffffffffffffffff163b119050919050565b600073ffffffffffffffffffffffffffffffffffffffff168273ffffffffffffffffffffffffffffffffffffffff160361216f576040517f08c379a000000000000000000000000000000000000000000000000000000000815260040161216690613631565b60405180910390fd5b61217881611bc7565b156121b8576040517f08c379a00000000000000000000000000000000000000000000000000000000081526004016121af9061369d565b60405180910390fd5b6121c6600083836001611d68565b6121cf81611bc7565b1561220f576040517f08c379a00000000000000000000000000000000000000000000000000000000081526004016122069061369d565b60405180910390fd5b6001600360008473ffffffffffffffffffffffffffffffffffffffff1673ffffffffffffffffffffffffffffffffffffffff16815260200190815260200160002060008282540192505081905550816002600083815260200190815260200160002060006101000a81548173ffffffffffffffffffffffffffffffffffffffff021916908373ffffffffffffffffffffffffffffffffffffffff160217905550808273ffffffffffffffffffffffffffffffffffffffff16600073ffffffffffffffffffffffffffffffffffffffff167fddf252ad1be2c89b69c2b068fc378daa952ba7f163c4a11628f55a4df523b3ef60405160405180910390a4612319600083836001611d6e565b5050565b6000604051905090565b600080fd5b600080fd5b60007fffffffff0000000000000000000000000000000000000000000000000000000082169050919050565b61236681612331565b811461237157600080fd5b50565b6000813590506123838161235d565b92915050565b60006020828403121561239f5761239e612327565b5b60006123ad84828501612374565b91505092915050565b60008115159050919050565b6123cb816123b6565b82525050565b60006020820190506123e660008301846123c2565b92915050565b600081519050919050565b600082825260208201905092915050565b60005b8381101561242657808201518184015260208101905061240b565b83811115612435576000848401525b50505050565b6000601f19601f8301169050919050565b6000612457826123ec565b61246181856123f7565b9350612471818560208601612408565b61247a8161243b565b840191505092915050565b6000602082019050818103600083015261249f818461244c565b905092915050565b6000819050919050565b6124ba816124a7565b81146124c557600080fd5b50565b6000813590506124d7816124b1565b92915050565b6000602082840312156124f3576124f2612327565b5b6000612501848285016124c8565b91505092915050565b600073ffffffffffffffffffffffffffffffffffffffff82169050919050565b60006125358261250a565b9050919050565b6125458161252a565b82525050565b6000602082019050612560600083018461253c565b92915050565b61256f8161252a565b811461257a57600080fd5b50565b60008135905061258c81612566565b92915050565b600080604083850312156125a9576125a8612327565b5b60006125b78582860161257d565b92505060206125c8858286016124c8565b9150509250929050565b6125db816124a7565b82525050565b60006020820190506125f660008301846125d2565b92915050565b60008060006060848603121561261557612614612327565b5b60006126238682870161257d565b93505060206126348682870161257d565b9250506040612645868287016124c8565b9150509250925092565b60006020828403121561266557612664612327565b5b60006126738482850161257d565b91505092915050565b600081519050919050565b600082825260208201905092915050565b6000819050602082019050919050565b6126b1816124a7565b82525050565b60006126c383836126a8565b60208301905092915050565b6000602082019050919050565b60006126e78261267c565b6126f18185612687565b93506126fc83612698565b8060005b8381101561272d57815161271488826126b7565b975061271f836126cf565b925050600181019050612700565b5085935050505092915050565b6000602082019050818103600083015261275481846126dc565b905092915050565b612765816123b6565b811461277057600080fd5b50565b6000813590506127828161275c565b92915050565b6000806040838503121561279f5761279e612327565b5b60006127ad8582860161257d565b92505060206127be85828601612773565b9150509250929050565b600080fd5b600080fd5b7f4e487b7100000000000000000000000000000000000000000000000000000000600052604160045260246000fd5b61280a8261243b565b810181811067ffffffffffffffff82111715612829576128286127d2565b5b80604052505050565b600061283c61231d565b90506128488282612801565b919050565b600067ffffffffffffffff821115612868576128676127d2565b5b6128718261243b565b9050602081019050919050565b82818337600083830152505050565b60006128a061289b8461284d565b612832565b9050828152602081018484840111156128bc576128bb6127cd565b5b6128c784828561287e565b509392505050565b600082601f8301126128e4576128e36127c8565b5b81356128f484826020860161288d565b91505092915050565b6000806000806080858703121561291757612916612327565b5b60006129258782880161257d565b94505060206129368782880161257d565b9350506040612947878288016124c8565b925050606085013567ffffffffffffffff8111156129685761296761232c565b5b612974878288016128cf565b91505092959194509250565b6000806040838503121561299757612996612327565b5b60006129a58582860161257d565b92505060206129b68582860161257d565b9150509250929050565b7f4e487b7100000000000000000000000000000000000000000000000000000000600052602260045260246000fd5b60006002820490506001821680612a0757607f821691505b602082108103612a1a57612a196129c0565b5b50919050565b7f4552433732313a20617070726f76616c20746f2063757272656e74206f776e6560008201527f7200000000000000000000000000000000000000000000000000000000000000602082015250565b6000612a7c6021836123f7565b9150612a8782612a20565b604082019050919050565b60006020820190508181036000830152612aab81612a6f565b9050919050565b7f4552433732313a20617070726f76652063616c6c6572206973206e6f7420746f60008201527f6b656e206f776e6572206f7220617070726f76656420666f7220616c6c000000602082015250565b6000612b0e603d836123f7565b9150612b1982612ab2565b604082019050919050565b60006020820190508181036000830152612b3d81612b01565b9050919050565b7f4552433732313a2063616c6c6572206973206e6f7420746f6b656e206f776e6560008201527f72206f7220617070726f76656400000000000000000000000000000000000000602082015250565b6000612ba0602d836123f7565b9150612bab82612b44565b604082019050919050565b60006020820190508181036000830152612bcf81612b93565b9050919050565b600081905092915050565b50565b6000612bf1600083612bd6565b9150612bfc82612be1565b600082019050919050565b6000612c1282612be4565b9150819050919050565b7f4e487b7100000000000000000000000000000000000000000000000000000000600052603260045260246000fd5b7f4e487b7100000000000000000000000000000000000000000000000000000000600052601160045260246000fd5b6000612c85826124a7565b91507fffffffffffffffffffffffffffffffffffffffffffffffffffffffffffffffff8203612cb757612cb6612c4b565b5b600182019050919050565b7f4552433732313a20696e76616c696420746f6b656e2049440000000000000000600082015250565b6000612cf86018836123f7565b9150612d0382612cc2565b602082019050919050565b60006020820190508181036000830152612d2781612ceb565b9050919050565b7f4552433732313a2061646472657373207a65726f206973206e6f74206120766160008201527f6c6964206f776e65720000000000000000000000000000000000000000000000602082015250565b6000612d8a6029836123f7565b9150612d9582612d2e565b604082019050919050565b60006020820190508181036000830152612db981612d7d565b9050919050565b7f496e76616c6964206d696e7420616d6f756e7421000000000000000000000000600082015250565b6000612df66014836123f7565b9150612e0182612dc0565b602082019050919050565b60006020820190508181036000830152612e2581612de9565b9050919050565b6000612e37826124a7565b9150612e42836124a7565b9250827fffffffffffffffffffffffffffffffffffffffffffffffffffffffffffffffff03821115612e7757612e76612c4b565b5b828201905092915050565b7f4d617820737570706c7920657863656564656421000000000000000000000000600082015250565b6000612eb86014836123f7565b9150612ec382612e82565b602082019050919050565b60006020820190508181036000830152612ee781612eab565b9050919050565b6000612ef9826124a7565b9150612f04836124a7565b9250817fffffffffffffffffffffffffffffffffffffffffffffffffffffffffffffffff0483118215151615612f3d57612f3c612c4b565b5b828202905092915050565b7f496e73756666696369656e742066756e64732100000000000000000000000000600082015250565b6000612f7e6013836123f7565b9150612f8982612f48565b602082019050919050565b60006020820190508181036000830152612fad81612f71565b9050919050565b7f7075626c6963206d696e74206c696d6974206578636565646564000000000000600082015250565b6000612fea601a836123f7565b9150612ff582612fb4565b602082019050919050565b6000602082019050818103600083015261301981612fdd565b9050919050565b7f4552433732314d657461646174613a2055524920717565727920666f72206e6f60008201527f6e6578697374656e7420746f6b656e0000000000000000000000000000000000602082015250565b600061307c602f836123f7565b915061308782613020565b604082019050919050565b600060208201905081810360008301526130ab8161306f565b9050919050565b600081905092915050565b60006130c8826123ec565b6130d281856130b2565b93506130e2818560208601612408565b80840191505092915050565b60008190508160005260206000209050919050565b60008154613110816129ef565b61311a81866130b2565b94506001821660008114613135576001811461314657613179565b60ff19831686528186019350613179565b61314f856130ee565b60005b8381101561317157815481890152600182019150602081019050613152565b838801955050505b50505092915050565b600061318e82866130bd565b915061319a82856130bd565b91506131a68284613103565b9150819050949350505050565b7f4f776e61626c653a206e6577206f776e657220697320746865207a65726f206160008201527f6464726573730000000000000000000000000000000000000000000000000000602082015250565b600061320f6026836123f7565b915061321a826131b3565b604082019050919050565b6000602082019050818103600083015261323e81613202565b9050919050565b7f4552433732313a207472616e736665722066726f6d20696e636f72726563742060008201527f6f776e6572000000000000000000000000000000000000000000000000000000602082015250565b60006132a16025836123f7565b91506132ac82613245565b604082019050919050565b600060208201905081810360008301526132d081613294565b9050919050565b7f4552433732313a207472616e7366657220746f20746865207a65726f2061646460008201527f7265737300000000000000000000000000000000000000000000000000000000602082015250565b60006133336024836123f7565b915061333e826132d7565b604082019050919050565b6000602082019050818103600083015261336281613326565b9050919050565b7f4f776e61626c653a2063616c6c6572206973206e6f7420746865206f776e6572600082015250565b600061339f6020836123f7565b91506133aa82613369565b602082019050919050565b600060208201905081810360008301526133ce81613392565b9050919050565b7f4552433732313a20617070726f766520746f2063616c6c657200000000000000600082015250565b600061340b6019836123f7565b9150613416826133d5565b602082019050919050565b6000602082019050818103600083015261343a816133fe565b9050919050565b7f4552433732313a207472616e7366657220746f206e6f6e20455243373231526560008201527f63656976657220696d706c656d656e7465720000000000000000000000000000602082015250565b600061349d6032836123f7565b91506134a882613441565b604082019050919050565b600060208201905081810360008301526134cc81613490565b9050919050565b7f4e487b7100000000000000000000000000000000000000000000000000000000600052601260045260246000fd5b600081519050919050565b600082825260208201905092915050565b600061352982613502565b613533818561350d565b9350613543818560208601612408565b61354c8161243b565b840191505092915050565b600060808201905061356c600083018761253c565b613579602083018661253c565b61358660408301856125d2565b8181036060830152613598818461351e565b905095945050505050565b6000815190506135b28161235d565b92915050565b6000602082840312156135ce576135cd612327565b5b60006135dc848285016135a3565b91505092915050565b7f4552433732313a206d696e7420746f20746865207a65726f2061646472657373600082015250565b600061361b6020836123f7565b9150613626826135e5565b602082019050919050565b6000602082019050818103600083015261364a8161360e565b9050919050565b7f4552433732313a20746f6b656e20616c7265616479206d696e74656400000000600082015250565b6000613687601c836123f7565b915061369282613651565b602082019050919050565b600060208201905081810360008301526136b68161367a565b905091905056fea264697066735822122054b95c75df063aaf7dffbf503f8a9d27403b5bf2a182cade55a894a8f59e3a7e64736f6c634300080e0033697066733a2f2f516d53426e73454c6a4e5162684c566266367737554d47465654333555684b344466655070444a7751567478444e2f",
  "immutableReferences": {},
  "source": "// SPDX-License-Identifier: MIT\r\n// This is just a test NFT collections that helps decentralized Finance, NFT Finance, Social Finance and others kind Dapps building on testnet.\r\n//GitHub: https://github.com/Astr0-G/Test-NFT-Collection/tree/main\r\n\r\npragma solidity ^0.8.14;\r\n\r\nimport \"@openzeppelin/contracts/utils/Counters.sol\";\r\nimport \"@openzeppelin/contracts/utils/Strings.sol\";\r\nimport \"@openzeppelin/contracts/utils/Context.sol\";\r\nimport \"@openzeppelin/contracts/access/Ownable.sol\";\r\nimport \"@openzeppelin/contracts/utils/Address.sol\";\r\nimport \"@openzeppelin/contracts/token/ERC721/IERC721Receiver.sol\";\r\nimport \"@openzeppelin/contracts/utils/introspection/IERC165.sol\";\r\nimport \"@openzeppelin/contracts/utils/introspection/ERC165.sol\";\r\nimport \"@openzeppelin/contracts/token/ERC721/IERC721.sol\";\r\nimport \"@openzeppelin/contracts/token/ERC721/extensions/IERC721Metadata.sol\";\r\nimport \"@openzeppelin/contracts/token/ERC721/ERC721.sol\";\r\n\r\n// This is just a test NFT collections that helps decentralized Finance, NFT Finance, Social Finance and others kind Dapps building on testnet.\r\ncontract InvisibleFriends is ERC721, Ownable {\r\n    using Strings for uint256;\r\n    using Counters for Counters.Counter;\r\n\r\n    Counters.Counter private supply;\r\n\r\n    string public uriPrefix =\r\n        \"ipfs://QmSBnsELjNQbhLVbf6w7UMGFVT35UhK4DfePpDJwQVtxDN/\";\r\n    string public uriSuffix = \"\";\r\n\r\n    uint256 public mintCost = 0.1 ether;\r\n    uint256 public maxSupply = 5000;\r\n    uint256 public maxMintAmountPerTx = 2;\r\n    uint256 mintLimit = 10;\r\n    mapping(address => uint256) public mintCount;\r\n\r\n    constructor() ERC721(\"Invisible Friends\", \"INVSBLE\") {}\r\n\r\n    modifier mintRequire(uint256 _mintAmount) {\r\n        require(\r\n            _mintAmount > 0 && _mintAmount <= maxMintAmountPerTx,\r\n            \"Invalid mint amount!\"\r\n        );\r\n        require(\r\n            supply.current() + _mintAmount <= maxSupply,\r\n            \"Max supply exceeded!\"\r\n        );\r\n        _;\r\n    }\r\n\r\n    function totalSupply() public view returns (uint256) {\r\n        return supply.current();\r\n    }\r\n\r\n    function mint(uint256 _mintAmount) public payable mintRequire(_mintAmount) {\r\n        require(msg.value >= mintCost * _mintAmount, \"Insufficient funds!\");\r\n        require(\r\n            mintCount[msg.sender] + _mintAmount <= mintLimit,\r\n            \"public mint limit exceeded\"\r\n        );\r\n\r\n        _mintLoop(msg.sender, _mintAmount);\r\n        mintCount[msg.sender] += _mintAmount;\r\n    }\r\n\r\n    function getmintCount() public view returns (uint256) {\r\n        return mintCount[msg.sender];\r\n    }\r\n\r\n    function walletOfOwner(\r\n        address _owner\r\n    ) public view returns (uint256[] memory) {\r\n        uint256 ownerTokenCount = balanceOf(_owner);\r\n        uint256[] memory ownedTokenIds = new uint256[](ownerTokenCount);\r\n        uint256 currentTokenId = 1;\r\n        uint256 ownedTokenIndex = 0;\r\n\r\n        while (\r\n            ownedTokenIndex < ownerTokenCount && currentTokenId <= maxSupply\r\n        ) {\r\n            address currentTokenOwner = ownerOf(currentTokenId);\r\n\r\n            if (currentTokenOwner == _owner) {\r\n                ownedTokenIds[ownedTokenIndex] = currentTokenId;\r\n                ownedTokenIndex++;\r\n            }\r\n\r\n            currentTokenId++;\r\n        }\r\n\r\n        return ownedTokenIds;\r\n    }\r\n\r\n    function tokenURI(\r\n        uint256 _tokenId\r\n    ) public view virtual override returns (string memory) {\r\n        require(\r\n            _exists(_tokenId),\r\n            \"ERC721Metadata: URI query for nonexistent token\"\r\n        );\r\n        string memory currentBaseURI = _baseURI();\r\n        return\r\n            bytes(currentBaseURI).length > 0\r\n                ? string(\r\n                    abi.encodePacked(\r\n                        currentBaseURI,\r\n                        _tokenId.toString(),\r\n                        uriSuffix\r\n                    )\r\n                )\r\n                : \"\";\r\n    }\r\n\r\n    function withdraw() public onlyOwner {\r\n        (bool os, ) = payable(owner()).call{value: address(this).balance}(\"\");\r\n        require(os);\r\n    }\r\n\r\n    function _mintLoop(address _receiver, uint256 _mintAmount) internal {\r\n        for (uint256 i = 0; i < _mintAmount; i++) {\r\n            supply.increment();\r\n            _safeMint(_receiver, supply.current());\r\n        }\r\n    }\r\n\r\n    function _baseURI() internal view virtual override returns (string memory) {\r\n        return uriPrefix;\r\n    }\r\n}\r\n// This is just a test NFT collections that helps decentralized Finance, NFT Finance, Social Finance and others kind Dapps building on testnet.\r\n",
  "sourcePath": "C:\\Users\\user\\Desktop\\GIT_REPOS\\originx-dapp\\backend\\contracts\\InvisibleFriends.sol",
  "compiler": {
    "name": "solc",
    "version": "0.8.14+commit.80d49f37.Emscripten.clang"
  },
  "schemaVersion": "3.4.13",
  "updatedAt": "2023-07-30T18:52:59.454Z",
  "networkType": "ethereum",
  "devdoc": {
    "kind": "dev",
    "methods": {
      "approve(address,uint256)": {
        "details": "See {IERC721-approve}."
      },
      "balanceOf(address)": {
        "details": "See {IERC721-balanceOf}."
      },
      "getApproved(uint256)": {
        "details": "See {IERC721-getApproved}."
      },
      "isApprovedForAll(address,address)": {
        "details": "See {IERC721-isApprovedForAll}."
      },
      "name()": {
        "details": "See {IERC721Metadata-name}."
      },
      "owner()": {
        "details": "Returns the address of the current owner."
      },
      "ownerOf(uint256)": {
        "details": "See {IERC721-ownerOf}."
      },
      "renounceOwnership()": {
        "details": "Leaves the contract without owner. It will not be possible to call `onlyOwner` functions anymore. Can only be called by the current owner. NOTE: Renouncing ownership will leave the contract without an owner, thereby removing any functionality that is only available to the owner."
      },
      "safeTransferFrom(address,address,uint256)": {
        "details": "See {IERC721-safeTransferFrom}."
      },
      "safeTransferFrom(address,address,uint256,bytes)": {
        "details": "See {IERC721-safeTransferFrom}."
      },
      "setApprovalForAll(address,bool)": {
        "details": "See {IERC721-setApprovalForAll}."
      },
      "supportsInterface(bytes4)": {
        "details": "See {IERC165-supportsInterface}."
      },
      "symbol()": {
        "details": "See {IERC721Metadata-symbol}."
      },
      "transferFrom(address,address,uint256)": {
        "details": "See {IERC721-transferFrom}."
      },
      "transferOwnership(address)": {
        "details": "Transfers ownership of the contract to a new account (`newOwner`). Can only be called by the current owner."
      }
    },
    "version": 1
  },
  "userdoc": {
    "kind": "user",
    "methods": {},
    "version": 1
  }
}