{
  "contractName": "mainNftRaffle",
  "abi": [
    {
      "anonymous": false,
      "inputs": [
        {
          "indexed": true,
          "internalType": "uint256",
          "name": "raffleId",
          "type": "uint256"
        },
        {
          "indexed": false,
          "internalType": "uint256",
          "name": "winningTicketNumber",
          "type": "uint256"
        },
        {
          "indexed": false,
          "internalType": "address",
          "name": "winningTicketOwner",
          "type": "address"
        }
      ],
      "name": "WinnerSelected",
      "type": "event"
    },
    {
      "anonymous": false,
      "inputs": [
        {
          "indexed": true,
          "internalType": "uint256",
          "name": "raffleId",
          "type": "uint256"
        }
      ],
      "name": "raffleEnded",
      "type": "event"
    },
    {
      "inputs": [
        {
          "internalType": "uint256",
          "name": "",
          "type": "uint256"
        },
        {
          "internalType": "uint256",
          "name": "",
          "type": "uint256"
        }
      ],
      "name": "ticketToOwner",
      "outputs": [
        {
          "internalType": "address",
          "name": "",
          "type": "address"
        }
      ],
      "stateMutability": "view",
      "type": "function",
      "constant": true
    },
    {
      "inputs": [
        {
          "internalType": "string",
          "name": "_raffleName",
          "type": "string"
        },
        {
          "internalType": "string",
          "name": "_description",
          "type": "string"
        },
        {
          "internalType": "uint256",
          "name": "_nftPrice",
          "type": "uint256"
        },
        {
          "internalType": "uint256",
          "name": "_totalVolumeofTickets",
          "type": "uint256"
        },
        {
          "internalType": "uint256",
          "name": "_endTime",
          "type": "uint256"
        },
        {
          "internalType": "uint256",
          "name": "_nftId",
          "type": "uint256"
        },
        {
          "internalType": "address",
          "name": "_nftContractAddress",
          "type": "address"
        },
        {
          "internalType": "string",
          "name": "_nftSourceLink",
          "type": "string"
        },
        {
          "internalType": "address",
          "name": "_charityAddress",
          "type": "address"
        }
      ],
      "name": "createRaffle",
      "outputs": [
        {
          "internalType": "uint256",
          "name": "",
          "type": "uint256"
        }
      ],
      "stateMutability": "nonpayable",
      "type": "function"
    },
    {
      "inputs": [
        {
          "internalType": "uint256",
          "name": "_raffleId",
          "type": "uint256"
        }
      ],
      "name": "getTicketPrice",
      "outputs": [
        {
          "internalType": "uint256",
          "name": "",
          "type": "uint256"
        }
      ],
      "stateMutability": "view",
      "type": "function",
      "constant": true
    },
    {
      "inputs": [
        {
          "internalType": "address",
          "name": "_address",
          "type": "address"
        },
        {
          "internalType": "uint256",
          "name": "raffleId",
          "type": "uint256"
        }
      ],
      "name": "getTicketsOwned",
      "outputs": [
        {
          "internalType": "uint256",
          "name": "",
          "type": "uint256"
        }
      ],
      "stateMutability": "view",
      "type": "function",
      "constant": true
    },
    {
      "inputs": [
        {
          "internalType": "address",
          "name": "owner",
          "type": "address"
        }
      ],
      "name": "getOwnedRaffles",
      "outputs": [
        {
          "internalType": "uint256",
          "name": "totalRaffles",
          "type": "uint256"
        },
        {
          "internalType": "uint256[]",
          "name": "raffleIds",
          "type": "uint256[]"
        }
      ],
      "stateMutability": "view",
      "type": "function",
      "constant": true
    },
    {
      "inputs": [
        {
          "internalType": "uint256",
          "name": "_raffleID",
          "type": "uint256"
        }
      ],
      "name": "getAvailableTickets",
      "outputs": [
        {
          "internalType": "uint256",
          "name": "",
          "type": "uint256"
        }
      ],
      "stateMutability": "view",
      "type": "function",
      "constant": true
    },
    {
      "inputs": [
        {
          "internalType": "uint256",
          "name": "_raffleId",
          "type": "uint256"
        },
        {
          "internalType": "uint256",
          "name": "_totalTicketsWanted",
          "type": "uint256"
        }
      ],
      "name": "buyTicket",
      "outputs": [],
      "stateMutability": "payable",
      "type": "function",
      "payable": true
    },
    {
      "inputs": [
        {
          "internalType": "uint256",
          "name": "_raffleId",
          "type": "uint256"
        },
        {
          "internalType": "uint256",
          "name": "_totalTicketsWanted",
          "type": "uint256"
        }
      ],
      "name": "getTotalTicketPrice",
      "outputs": [
        {
          "internalType": "uint256",
          "name": "",
          "type": "uint256"
        }
      ],
      "stateMutability": "view",
      "type": "function",
      "constant": true
    },
    {
      "inputs": [
        {
          "internalType": "uint256",
          "name": "raffleId",
          "type": "uint256"
        }
      ],
      "name": "pickWinner",
      "outputs": [],
      "stateMutability": "nonpayable",
      "type": "function"
    },
    {
      "inputs": [
        {
          "internalType": "uint256",
          "name": "_raffleId",
          "type": "uint256"
        }
      ],
      "name": "cancelRaffle",
      "outputs": [],
      "stateMutability": "nonpayable",
      "type": "function"
    },
    {
      "inputs": [
        {
          "internalType": "uint256",
          "name": "_raffleId",
          "type": "uint256"
        }
      ],
      "name": "getPrizePool",
      "outputs": [
        {
          "internalType": "uint256",
          "name": "",
          "type": "uint256"
        },
        {
          "internalType": "uint256",
          "name": "",
          "type": "uint256"
        },
        {
          "internalType": "uint256",
          "name": "",
          "type": "uint256"
        },
        {
          "internalType": "uint256",
          "name": "",
          "type": "uint256"
        }
      ],
      "stateMutability": "view",
      "type": "function",
      "constant": true
    },
    {
      "inputs": [
        {
          "internalType": "uint256",
          "name": "raffleId",
          "type": "uint256"
        }
      ],
      "name": "getRaffleWinner",
      "outputs": [
        {
          "internalType": "address",
          "name": "winner",
          "type": "address"
        },
        {
          "internalType": "uint256",
          "name": "winningTicket",
          "type": "uint256"
        }
      ],
      "stateMutability": "view",
      "type": "function",
      "constant": true
    },
    {
      "inputs": [
        {
          "internalType": "uint256",
          "name": "_raffleID",
          "type": "uint256"
        }
      ],
      "name": "raffleInfo",
      "outputs": [
        {
          "components": [
            {
              "internalType": "uint256",
              "name": "raffleId",
              "type": "uint256"
            },
            {
              "internalType": "string",
              "name": "raffleName",
              "type": "string"
            },
            {
              "internalType": "string",
              "name": "description",
              "type": "string"
            },
            {
              "internalType": "uint256",
              "name": "nftPrice",
              "type": "uint256"
            },
            {
              "internalType": "uint256",
              "name": "totalVolumeofTickets",
              "type": "uint256"
            },
            {
              "internalType": "uint256",
              "name": "endTime",
              "type": "uint256"
            },
            {
              "internalType": "uint256",
              "name": "nftId",
              "type": "uint256"
            },
            {
              "internalType": "address",
              "name": "nftContractAddress",
              "type": "address"
            },
            {
              "internalType": "string",
              "name": "nftSourceLink",
              "type": "string"
            },
            {
              "internalType": "address",
              "name": "charityAddress",
              "type": "address"
            },
            {
              "internalType": "address",
              "name": "raffleCreator",
              "type": "address"
            },
            {
              "internalType": "uint256",
              "name": "rafflePool",
              "type": "uint256"
            },
            {
              "internalType": "uint256",
              "name": "ticketPrice",
              "type": "uint256"
            },
            {
              "internalType": "uint256",
              "name": "totalSoldTickets",
              "type": "uint256"
            },
            {
              "internalType": "uint256",
              "name": "winningTicket",
              "type": "uint256"
            },
            {
              "internalType": "address",
              "name": "raffleWinner",
              "type": "address"
            },
            {
              "internalType": "bool",
              "name": "raffleCancelled",
              "type": "bool"
            },
            {
              "internalType": "bool",
              "name": "raffleEnded",
              "type": "bool"
            }
          ],
          "internalType": "struct mainNftRaffle.RaffleInfo",
          "name": "",
          "type": "tuple"
        }
      ],
      "stateMutability": "view",
      "type": "function",
      "constant": true
    },
    {
      "inputs": [
        {
          "internalType": "address",
          "name": "operator",
          "type": "address"
        },
        {
          "internalType": "address",
          "name": "from",
          "type": "address"
        },
        {
          "internalType": "uint256",
          "name": "tokenId",
          "type": "uint256"
        },
        {
          "internalType": "bytes",
          "name": "data",
          "type": "bytes"
        }
      ],
      "name": "onERC721Received",
      "outputs": [
        {
          "internalType": "bytes4",
          "name": "",
          "type": "bytes4"
        }
      ],
      "stateMutability": "nonpayable",
      "type": "function"
    },
    {
      "inputs": [
        {
          "internalType": "uint256",
          "name": "_raffleId",
          "type": "uint256"
        }
      ],
      "name": "getEntityAddresses",
      "outputs": [
        {
          "internalType": "address",
          "name": "",
          "type": "address"
        },
        {
          "internalType": "address",
          "name": "",
          "type": "address"
        },
        {
          "internalType": "address",
          "name": "",
          "type": "address"
        }
      ],
      "stateMutability": "view",
      "type": "function",
      "constant": true
    },
    {
      "inputs": [],
      "name": "getTotalRaffles",
      "outputs": [
        {
          "internalType": "uint256",
          "name": "",
          "type": "uint256"
        }
      ],
      "stateMutability": "view",
      "type": "function",
      "constant": true
    },
    {
      "inputs": [],
      "name": "getContractBalance",
      "outputs": [
        {
          "internalType": "uint256",
          "name": "",
          "type": "uint256"
        }
      ],
      "stateMutability": "view",
      "type": "function",
      "constant": true
    }
  ],
  "bytecode": "0x6080604052600060025534801561001557600080fd5b506136eb806100256000396000f3fe6080604052600436106100fe5760003560e01c806362617c9a11610095578063a4e74daf11610064578063a4e74daf1461038c578063bf30d790146103ca578063f06fc96114610407578063f737d21d14610444578063f9ea23821461046d576100fe565b806362617c9a146102a65780636f9fb98a146102e45780637822be4a1461030f5780638a56e3b91461034f576100fe565b8063298ec208116100d1578063298ec208146101e7578063370b2e4a1461020357806338a2efbe146102405780635fba31711461027d576100fe565b80630cc7b2a9146101035780630ded5c3614610140578063150b7a021461016b5780632973c9b1146101a8575b600080fd5b34801561010f57600080fd5b5061012a6004803603810190610125919061239b565b6104aa565b60405161013791906123d7565b60405180910390f35b34801561014c57600080fd5b5061015561055f565b60405161016291906123d7565b60405180910390f35b34801561017757600080fd5b50610192600480360381019061018d91906124b5565b610569565b60405161019f9190612578565b60405180910390f35b3480156101b457600080fd5b506101cf60048036038101906101ca919061239b565b61057e565b6040516101de939291906125a2565b60405180910390f35b61020160048036038101906101fc91906125d9565b610632565b005b34801561020f57600080fd5b5061022a6004803603810190610225919061275a565b6108e6565b60405161023791906123d7565b60405180910390f35b34801561024c57600080fd5b5061026760048036038101906102629190612878565b610f88565b60405161027491906123d7565b60405180910390f35b34801561028957600080fd5b506102a4600480360381019061029f919061239b565b61108f565b005b3480156102b257600080fd5b506102cd60048036038101906102c8919061239b565b611398565b6040516102db9291906128b8565b60405180910390f35b3480156102f057600080fd5b506102f961150e565b60405161030691906123d7565b60405180910390f35b34801561031b57600080fd5b506103366004803603810190610331919061239b565b611516565b60405161034694939291906128e1565b60405180910390f35b34801561035b57600080fd5b50610376600480360381019061037191906125d9565b6115de565b6040516103839190612926565b60405180910390f35b34801561039857600080fd5b506103b360048036038101906103ae9190612941565b611620565b6040516103c1929190612a2c565b60405180910390f35b3480156103d657600080fd5b506103f160048036038101906103ec919061239b565b6117df565b6040516103fe9190612c9e565b60405180910390f35b34801561041357600080fd5b5061042e6004803603810190610429919061239b565b611b53565b60405161043b91906123d7565b60405180910390f35b34801561045057600080fd5b5061046b6004803603810190610466919061239b565b611b72565b005b34801561047957600080fd5b50610494600480360381019061048f91906125d9565b6120a8565b6040516104a191906123d7565b60405180910390f35b60008060008084815260200190815260200160002090506000816000015403610508576040517f08c379a00000000000000000000000000000000000000000000000000000000081526004016104ff90612d1d565b60405180910390fd5b80600e0160019054906101000a900460ff1680610533575080600e0160009054906101000a900460ff165b1561054257600091505061055a565b80600d015481600401546105569190612d6c565b9150505b919050565b6000600254905090565b600063150b7a0260e01b905095945050505050565b6000806000806000858152602001908152602001600020600a0160009054906101000a900473ffffffffffffffffffffffffffffffffffffffff1660008086815260200190815260200160002060130160009054906101000a900473ffffffffffffffffffffffffffffffffffffffff1660008087815260200190815260200160002060090160009054906101000a900473ffffffffffffffffffffffffffffffffffffffff169250925092509193909250565b6000806000848152602001908152602001600020905080600e0160009054906101000a900460ff161561069a576040517f08c379a000000000000000000000000000000000000000000000000000000000815260040161069190612dec565b60405180910390fd5b80600e0160019054906101000a900460ff16156106ec576040517f08c379a00000000000000000000000000000000000000000000000000000000081526004016106e390612e58565b60405180910390fd5b6000821161072f576040517f08c379a000000000000000000000000000000000000000000000000000000000815260040161072690612ec4565b60405180910390fd5b80600d015481600401546107439190612d6c565b821115610785576040517f08c379a000000000000000000000000000000000000000000000000000000000815260040161077c90612f30565b60405180910390fd5b600081600c0154836107979190612f50565b9050803410156107dc576040517f08c379a00000000000000000000000000000000000000000000000000000000081526004016107d390612ff6565b60405180910390fd5b60005b838110156108a957600081600185600d01546107fb9190613016565b6108059190613016565b9050836010018190806001815401808255809150506001900390600052602060002001600090919091909150553360016000888152602001908152602001600020600083815260200190815260200160002060006101000a81548173ffffffffffffffffffffffffffffffffffffffff021916908373ffffffffffffffffffffffffffffffffffffffff1602179055505080806108a19061306c565b9150506107df565b508282600d0160008282546108be9190613016565b925050819055503482600f0160008282546108d99190613016565b9250508190555050505050565b60008073ffffffffffffffffffffffffffffffffffffffff168473ffffffffffffffffffffffffffffffffffffffff1603610956576040517f08c379a000000000000000000000000000000000000000000000000000000000815260040161094d90613100565b60405180910390fd5b428611610998576040517f08c379a000000000000000000000000000000000000000000000000000000000815260040161098f9061316c565b60405180910390fd5b60008490508073ffffffffffffffffffffffffffffffffffffffff16636352211e876040518263ffffffff1660e01b81526004016109d691906123d7565b602060405180830381865afa1580156109f3573d6000803e3d6000fd5b505050506040513d601f19601f82011682018060405250810190610a1791906131a1565b73ffffffffffffffffffffffffffffffffffffffff163373ffffffffffffffffffffffffffffffffffffffff1614610a84576040517f08c379a0000000000000000000000000000000000000000000000000000000008152600401610a7b9061321a565b60405180910390fd5b8073ffffffffffffffffffffffffffffffffffffffff166342842e0e3330896040518463ffffffff1660e01b8152600401610ac19392919061323a565b600060405180830381600087803b158015610adb57600080fd5b505af1158015610aef573d6000803e3d6000fd5b5050505060026000815480929190610b069061306c565b9190505550604051806102a0016040528060025481526020018c81526020018b81526020018a81526020018981526020018881526020018781526020018673ffffffffffffffffffffffffffffffffffffffff1681526020018581526020018473ffffffffffffffffffffffffffffffffffffffff1681526020013373ffffffffffffffffffffffffffffffffffffffff168152602001610bc46064610bb660968e6120de90919063ffffffff16565b6120f490919063ffffffff16565b8152602001600081526020016000815260200160001515815260200160001515815260200160008152602001600067ffffffffffffffff811115610c0b57610c0a61262f565b5b604051908082528060200260200182016040528015610c395781602001602082028036833780820191505090505b50815260200160008152602001600073ffffffffffffffffffffffffffffffffffffffff16815260200173e46cb9ca18520d3f0394f570c35259c188b33b9873ffffffffffffffffffffffffffffffffffffffff168152506000806002548152602001908152602001600020600082015181600001556020820151816001019080519060200190610ccb92919061217a565b506040820151816002019080519060200190610ce892919061217a565b50606082015181600301556080820151816004015560a0820151816005015560c0820151816006015560e08201518160070160006101000a81548173ffffffffffffffffffffffffffffffffffffffff021916908373ffffffffffffffffffffffffffffffffffffffff160217905550610100820151816008019080519060200190610d7592919061217a565b506101208201518160090160006101000a81548173ffffffffffffffffffffffffffffffffffffffff021916908373ffffffffffffffffffffffffffffffffffffffff16021790555061014082015181600a0160006101000a81548173ffffffffffffffffffffffffffffffffffffffff021916908373ffffffffffffffffffffffffffffffffffffffff16021790555061016082015181600b015561018082015181600c01556101a082015181600d01556101c082015181600e0160006101000a81548160ff0219169083151502179055506101e082015181600e0160016101000a81548160ff02191690831515021790555061020082015181600f0155610220820151816010019080519060200190610e91929190612200565b5061024082015181601101556102608201518160120160006101000a81548173ffffffffffffffffffffffffffffffffffffffff021916908373ffffffffffffffffffffffffffffffffffffffff1602179055506102808201518160130160006101000a81548173ffffffffffffffffffffffffffffffffffffffff021916908373ffffffffffffffffffffffffffffffffffffffff160217905550905050610f5a886000806002548152602001908152602001600020600b01546120f490919063ffffffff16565b6000806002548152602001908152602001600020600c01819055506002549150509998505050505050505050565b6000806000905060005b60008085815260200190815260200160002060100180549050811015611084578473ffffffffffffffffffffffffffffffffffffffff16600160008681526020019081526020016000206000806000888152602001908152602001600020601001848154811061100557611004613271565b5b9060005260206000200154815260200190815260200160002060009054906101000a900473ffffffffffffffffffffffffffffffffffffffff1673ffffffffffffffffffffffffffffffffffffffff16036110715761106e60018361210a90919063ffffffff16565b91505b808061107c9061306c565b915050610f92565b508091505092915050565b6000806000838152602001908152602001600020905080600a0160009054906101000a900473ffffffffffffffffffffffffffffffffffffffff1673ffffffffffffffffffffffffffffffffffffffff163373ffffffffffffffffffffffffffffffffffffffff1614611137576040517f08c379a000000000000000000000000000000000000000000000000000000000815260040161112e90613312565b60405180910390fd5b80600e0160019054906101000a900460ff1615611189576040517f08c379a00000000000000000000000000000000000000000000000000000000081526004016111809061337e565b60405180910390fd5b60005b816010018054905081101561129e5760008260100182815481106111b3576111b2613271565b5b90600052602060002001549050600060016000868152602001908152602001600020600083815260200190815260200160002060009054906101000a900473ffffffffffffffffffffffffffffffffffffffff169050600073ffffffffffffffffffffffffffffffffffffffff168173ffffffffffffffffffffffffffffffffffffffff1614611289578073ffffffffffffffffffffffffffffffffffffffff166108fc85600c01549081150290604051600060405180830381858888f19350505050158015611287573d6000803e3d6000fd5b505b505080806112969061306c565b91505061118c565b508060070160009054906101000a900473ffffffffffffffffffffffffffffffffffffffff1673ffffffffffffffffffffffffffffffffffffffff166342842e0e3083600a0160009054906101000a900473ffffffffffffffffffffffffffffffffffffffff1684600601546040518463ffffffff1660e01b81526004016113289392919061323a565b600060405180830381600087803b15801561134257600080fd5b505af1158015611356573d6000803e3d6000fd5b50505050600181600e0160006101000a81548160ff021916908315150217905550600181600e0160016101000a81548160ff0219169083151502179055505050565b600080600080848152602001908152602001600020600e0160009054906101000a900460ff16156113fe576040517f08c379a00000000000000000000000000000000000000000000000000000000081526004016113f5906133ea565b60405180910390fd5b600080848152602001908152602001600020600e0160019054906101000a900460ff1615611461576040517f08c379a00000000000000000000000000000000000000000000000000000000081526004016114589061337e565b60405180910390fd5b600080600085815260200190815260200160002060110154036114b9576040517f08c379a00000000000000000000000000000000000000000000000000000000081526004016114b090613456565b60405180910390fd5b60008084815260200190815260200160002060120160009054906101000a900473ffffffffffffffffffffffffffffffffffffffff166000808581526020019081526020016000206011015491509150915091565b600047905090565b6000806000806000806000878152602001908152602001600020600b01549050600061155f60646115516005856120de90919063ffffffff16565b6120f490919063ffffffff16565b6000808981526020019081526020016000206003015461157f9190613016565b905060006115aa606461159c6005866120de90919063ffffffff16565b6120f490919063ffffffff16565b905060008183856115bb9190612d6c565b6115c59190612d6c565b9050838383839750975097509750505050509193509193565b60016020528160005260406000206020528060005260406000206000915091509054906101000a900473ffffffffffffffffffffffffffffffffffffffff1681565b60006060600060025467ffffffffffffffff8111156116425761164161262f565b5b6040519080825280602002602001820160405280156116705781602001602082028036833780820191505090505b5090506000805b600254811161172a578573ffffffffffffffffffffffffffffffffffffffff16600080838152602001908152602001600020600a0160009054906101000a900473ffffffffffffffffffffffffffffffffffffffff1673ffffffffffffffffffffffffffffffffffffffff160361171757808383815181106116fc576116fb613271565b5b60200260200101818152505081806117139061306c565b9250505b80806117229061306c565b915050611677565b5060008167ffffffffffffffff8111156117475761174661262f565b5b6040519080825280602002602001820160405280156117755781602001602082028036833780820191505090505b50905060005b828110156117d05783818151811061179657611795613271565b5b60200260200101518282815181106117b1576117b0613271565b5b60200260200101818152505080806117c89061306c565b91505061177b565b50818194509450505050915091565b6117e761224d565b600080600084815260200190815260200160002090506000604051806102400160405280858152602001836001018054611820906134a5565b80601f016020809104026020016040519081016040528092919081815260200182805461184c906134a5565b80156118995780601f1061186e57610100808354040283529160200191611899565b820191906000526020600020905b81548152906001019060200180831161187c57829003601f168201915b505050505081526020018360020180546118b2906134a5565b80601f01602080910402602001604051908101604052809291908181526020018280546118de906134a5565b801561192b5780601f106119005761010080835404028352916020019161192b565b820191906000526020600020905b81548152906001019060200180831161190e57829003601f168201915b50505050508152602001836003015481526020018360040154815260200183600501548152602001836006015481526020018360070160009054906101000a900473ffffffffffffffffffffffffffffffffffffffff1673ffffffffffffffffffffffffffffffffffffffff1681526020018360080180546119ac906134a5565b80601f01602080910402602001604051908101604052809291908181526020018280546119d8906134a5565b8015611a255780601f106119fa57610100808354040283529160200191611a25565b820191906000526020600020905b815481529060010190602001808311611a0857829003601f168201915b505050505081526020018360090160009054906101000a900473ffffffffffffffffffffffffffffffffffffffff1673ffffffffffffffffffffffffffffffffffffffff16815260200183600a0160009054906101000a900473ffffffffffffffffffffffffffffffffffffffff1673ffffffffffffffffffffffffffffffffffffffff16815260200183600b0154815260200183600c0154815260200183600d01548152602001836011015481526020018360120160009054906101000a900473ffffffffffffffffffffffffffffffffffffffff1673ffffffffffffffffffffffffffffffffffffffff16815260200183600e0160009054906101000a900460ff161515815260200183600e0160019054906101000a900460ff16151581525090508092505050919050565b6000806000838152602001908152602001600020600c01549050919050565b6000806000838152602001908152602001600020905080600e0160009054906101000a900460ff1615611bda576040517f08c379a0000000000000000000000000000000000000000000000000000000008152600401611bd1906133ea565b60405180910390fd5b80600e0160019054906101000a900460ff1615611c2c576040517f08c379a0000000000000000000000000000000000000000000000000000000008152600401611c239061337e565b60405180910390fd5b606460508260040154611c3f9190612f50565b611c499190613505565b81600d01541015611c8f576040517f08c379a0000000000000000000000000000000000000000000000000000000008152600401611c8690613582565b60405180910390fd5b6000611c9a83612120565b9050600060016000858152602001908152602001600020600083815260200190815260200160002060009054906101000a900473ffffffffffffffffffffffffffffffffffffffff169050600073ffffffffffffffffffffffffffffffffffffffff168173ffffffffffffffffffffffffffffffffffffffff1603611d54576040517f08c379a0000000000000000000000000000000000000000000000000000000008152600401611d4b906135ee565b60405180910390fd5b808360120160006101000a81548173ffffffffffffffffffffffffffffffffffffffff021916908373ffffffffffffffffffffffffffffffffffffffff160217905550837f37a30a31c187f323329351db43159a5b3c2dde95e0f21f061360aa03aa5415b78383604051611dc992919061360e565b60405180910390a26000806000868152602001908152602001600020600b015490506000611e146064611e066005856120de90919063ffffffff16565b6120f490919063ffffffff16565b60008088815260200190815260200160002060030154611e349190613016565b90506000611e5f6064611e516005866120de90919063ffffffff16565b6120f490919063ffffffff16565b90506000818385611e709190612d6c565b611e7a9190612d6c565b905086600a0160009054906101000a900473ffffffffffffffffffffffffffffffffffffffff1673ffffffffffffffffffffffffffffffffffffffff166108fc849081150290604051600060405180830381858888f19350505050158015611ee6573d6000803e3d6000fd5b508660130160009054906101000a900473ffffffffffffffffffffffffffffffffffffffff1673ffffffffffffffffffffffffffffffffffffffff166108fc839081150290604051600060405180830381858888f19350505050158015611f51573d6000803e3d6000fd5b508660090160009054906101000a900473ffffffffffffffffffffffffffffffffffffffff1673ffffffffffffffffffffffffffffffffffffffff166108fc829081150290604051600060405180830381858888f19350505050158015611fbc573d6000803e3d6000fd5b508660070160009054906101000a900473ffffffffffffffffffffffffffffffffffffffff1673ffffffffffffffffffffffffffffffffffffffff166342842e0e30878a600601546040518463ffffffff1660e01b81526004016120229392919061323a565b600060405180830381600087803b15801561203c57600080fd5b505af1158015612050573d6000803e3d6000fd5b50505050600187600e0160016101000a81548160ff021916908315150217905550877f1de299c7214202a224cf78dcd7adac60eac743ba8a2cc84012e96c5a048edfd660405160405180910390a25050505050505050565b6000806000808581526020019081526020016000209050600081600c0154846120d19190612f50565b9050809250505092915050565b600081836120ec9190612f50565b905092915050565b600081836121029190613505565b905092915050565b600081836121189190613016565b905092915050565b600080600080848152602001908152602001600020600d0154424460405160200161214c929190613658565b6040516020818303038152906040528051906020012060001c61216f9190613684565b905080915050919050565b828054612186906134a5565b90600052602060002090601f0160209004810192826121a857600085556121ef565b82601f106121c157805160ff19168380011785556121ef565b828001600101855582156121ef579182015b828111156121ee5782518255916020019190600101906121d3565b5b5090506121fc9190612334565b5090565b82805482825590600052602060002090810192821561223c579160200282015b8281111561223b578251825591602001919060010190612220565b5b5090506122499190612334565b5090565b60405180610240016040528060008152602001606081526020016060815260200160008152602001600081526020016000815260200160008152602001600073ffffffffffffffffffffffffffffffffffffffff16815260200160608152602001600073ffffffffffffffffffffffffffffffffffffffff168152602001600073ffffffffffffffffffffffffffffffffffffffff16815260200160008152602001600081526020016000815260200160008152602001600073ffffffffffffffffffffffffffffffffffffffff1681526020016000151581526020016000151581525090565b5b8082111561234d576000816000905550600101612335565b5090565b6000604051905090565b600080fd5b600080fd5b6000819050919050565b61237881612365565b811461238357600080fd5b50565b6000813590506123958161236f565b92915050565b6000602082840312156123b1576123b061235b565b5b60006123bf84828501612386565b91505092915050565b6123d181612365565b82525050565b60006020820190506123ec60008301846123c8565b92915050565b600073ffffffffffffffffffffffffffffffffffffffff82169050919050565b600061241d826123f2565b9050919050565b61242d81612412565b811461243857600080fd5b50565b60008135905061244a81612424565b92915050565b600080fd5b600080fd5b600080fd5b60008083601f84011261247557612474612450565b5b8235905067ffffffffffffffff81111561249257612491612455565b5b6020830191508360018202830111156124ae576124ad61245a565b5b9250929050565b6000806000806000608086880312156124d1576124d061235b565b5b60006124df8882890161243b565b95505060206124f08882890161243b565b945050604061250188828901612386565b935050606086013567ffffffffffffffff81111561252257612521612360565b5b61252e8882890161245f565b92509250509295509295909350565b60007fffffffff0000000000000000000000000000000000000000000000000000000082169050919050565b6125728161253d565b82525050565b600060208201905061258d6000830184612569565b92915050565b61259c81612412565b82525050565b60006060820190506125b76000830186612593565b6125c46020830185612593565b6125d16040830184612593565b949350505050565b600080604083850312156125f0576125ef61235b565b5b60006125fe85828601612386565b925050602061260f85828601612386565b9150509250929050565b600080fd5b6000601f19601f8301169050919050565b7f4e487b7100000000000000000000000000000000000000000000000000000000600052604160045260246000fd5b6126678261261e565b810181811067ffffffffffffffff821117156126865761268561262f565b5b80604052505050565b6000612699612351565b90506126a5828261265e565b919050565b600067ffffffffffffffff8211156126c5576126c461262f565b5b6126ce8261261e565b9050602081019050919050565b82818337600083830152505050565b60006126fd6126f8846126aa565b61268f565b90508281526020810184848401111561271957612718612619565b5b6127248482856126db565b509392505050565b600082601f83011261274157612740612450565b5b81356127518482602086016126ea565b91505092915050565b60008060008060008060008060006101208a8c03121561277d5761277c61235b565b5b60008a013567ffffffffffffffff81111561279b5761279a612360565b5b6127a78c828d0161272c565b99505060208a013567ffffffffffffffff8111156127c8576127c7612360565b5b6127d48c828d0161272c565b98505060406127e58c828d01612386565b97505060606127f68c828d01612386565b96505060806128078c828d01612386565b95505060a06128188c828d01612386565b94505060c06128298c828d0161243b565b93505060e08a013567ffffffffffffffff81111561284a57612849612360565b5b6128568c828d0161272c565b9250506101006128688c828d0161243b565b9150509295985092959850929598565b6000806040838503121561288f5761288e61235b565b5b600061289d8582860161243b565b92505060206128ae85828601612386565b9150509250929050565b60006040820190506128cd6000830185612593565b6128da60208301846123c8565b9392505050565b60006080820190506128f660008301876123c8565b61290360208301866123c8565b61291060408301856123c8565b61291d60608301846123c8565b95945050505050565b600060208201905061293b6000830184612593565b92915050565b6000602082840312156129575761295661235b565b5b60006129658482850161243b565b91505092915050565b600081519050919050565b600082825260208201905092915050565b6000819050602082019050919050565b6129a381612365565b82525050565b60006129b5838361299a565b60208301905092915050565b6000602082019050919050565b60006129d98261296e565b6129e38185612979565b93506129ee8361298a565b8060005b83811015612a1f578151612a0688826129a9565b9750612a11836129c1565b9250506001810190506129f2565b5085935050505092915050565b6000604082019050612a4160008301856123c8565b8181036020830152612a5381846129ce565b90509392505050565b600081519050919050565b600082825260208201905092915050565b60005b83811015612a96578082015181840152602081019050612a7b565b83811115612aa5576000848401525b50505050565b6000612ab682612a5c565b612ac08185612a67565b9350612ad0818560208601612a78565b612ad98161261e565b840191505092915050565b612aed81612412565b82525050565b60008115159050919050565b612b0881612af3565b82525050565b600061024083016000830151612b27600086018261299a565b5060208301518482036020860152612b3f8282612aab565b91505060408301518482036040860152612b598282612aab565b9150506060830151612b6e606086018261299a565b506080830151612b81608086018261299a565b5060a0830151612b9460a086018261299a565b5060c0830151612ba760c086018261299a565b5060e0830151612bba60e0860182612ae4565b50610100830151848203610100860152612bd48282612aab565b915050610120830151612beb610120860182612ae4565b50610140830151612c00610140860182612ae4565b50610160830151612c1561016086018261299a565b50610180830151612c2a61018086018261299a565b506101a0830151612c3f6101a086018261299a565b506101c0830151612c546101c086018261299a565b506101e0830151612c696101e0860182612ae4565b50610200830151612c7e610200860182612aff565b50610220830151612c93610220860182612aff565b508091505092915050565b60006020820190508181036000830152612cb88184612b0e565b905092915050565b600082825260208201905092915050565b7f526166666c65206e6f7420666f756e6400000000000000000000000000000000600082015250565b6000612d07601083612cc0565b9150612d1282612cd1565b602082019050919050565b60006020820190508181036000830152612d3681612cfa565b9050919050565b7f4e487b7100000000000000000000000000000000000000000000000000000000600052601160045260246000fd5b6000612d7782612365565b9150612d8283612365565b925082821015612d9557612d94612d3d565b5b828203905092915050565b7f526166666c652069732063616e63656c6c656400000000000000000000000000600082015250565b6000612dd6601383612cc0565b9150612de182612da0565b602082019050919050565b60006020820190508181036000830152612e0581612dc9565b9050919050565b7f526166666c6520697320656e6465640000000000000000000000000000000000600082015250565b6000612e42600f83612cc0565b9150612e4d82612e0c565b602082019050919050565b60006020820190508181036000830152612e7181612e35565b9050919050565b7f496e76616c6964206e756d626572206f66207469636b65747300000000000000600082015250565b6000612eae601983612cc0565b9150612eb982612e78565b602082019050919050565b60006020820190508181036000830152612edd81612ea1565b9050919050565b7f4e6f7420656e6f756768207469636b65747320617661696c61626c6500000000600082015250565b6000612f1a601c83612cc0565b9150612f2582612ee4565b602082019050919050565b60006020820190508181036000830152612f4981612f0d565b9050919050565b6000612f5b82612365565b9150612f6683612365565b9250817fffffffffffffffffffffffffffffffffffffffffffffffffffffffffffffffff0483118215151615612f9f57612f9e612d3d565b5b828202905092915050565b7f496e636f7272656374207061796d656e7420616d6f756e740000000000000000600082015250565b6000612fe0601883612cc0565b9150612feb82612faa565b602082019050919050565b6000602082019050818103600083015261300f81612fd3565b9050919050565b600061302182612365565b915061302c83612365565b9250827fffffffffffffffffffffffffffffffffffffffffffffffffffffffffffffffff0382111561306157613060612d3d565b5b828201905092915050565b600061307782612365565b91507fffffffffffffffffffffffffffffffffffffffffffffffffffffffffffffffff82036130a9576130a8612d3d565b5b600182019050919050565b7f496e76616c6964204e465420636f6e7472616374206164647265737300000000600082015250565b60006130ea601c83612cc0565b91506130f5826130b4565b602082019050919050565b60006020820190508181036000830152613119816130dd565b9050919050565b7f456e642074696d65206d75737420626520696e20667574757265000000000000600082015250565b6000613156601a83612cc0565b915061316182613120565b602082019050919050565b6000602082019050818103600083015261318581613149565b9050919050565b60008151905061319b81612424565b92915050565b6000602082840312156131b7576131b661235b565b5b60006131c58482850161318c565b91505092915050565b7f4f6e6c79204e4654206f776e65722063616e2063726561746520726166666c65600082015250565b6000613204602083612cc0565b915061320f826131ce565b602082019050919050565b60006020820190508181036000830152613233816131f7565b9050919050565b600060608201905061324f6000830186612593565b61325c6020830185612593565b61326960408301846123c8565b949350505050565b7f4e487b7100000000000000000000000000000000000000000000000000000000600052603260045260246000fd5b7f4f6e6c7920726166666c652063726561746f722063616e2063616e63656c207460008201527f6865206c6f747465727900000000000000000000000000000000000000000000602082015250565b60006132fc602a83612cc0565b9150613307826132a0565b604082019050919050565b6000602082019050818103600083015261332b816132ef565b9050919050565b7f526166666c652068617320616c726561647920656e6465640000000000000000600082015250565b6000613368601883612cc0565b915061337382613332565b602082019050919050565b600060208201905081810360008301526133978161335b565b9050919050565b7f526166666c6520686173206265656e2063616e63656c6c656400000000000000600082015250565b60006133d4601983612cc0565b91506133df8261339e565b602082019050919050565b60006020820190508181036000830152613403816133c7565b9050919050565b7f57696e6e657220686173206e6f74206265656e207069636b6564207965740000600082015250565b6000613440601e83612cc0565b915061344b8261340a565b602082019050919050565b6000602082019050818103600083015261346f81613433565b9050919050565b7f4e487b7100000000000000000000000000000000000000000000000000000000600052602260045260246000fd5b600060028204905060018216806134bd57607f821691505b6020821081036134d0576134cf613476565b5b50919050565b7f4e487b7100000000000000000000000000000000000000000000000000000000600052601260045260246000fd5b600061351082612365565b915061351b83612365565b92508261352b5761352a6134d6565b5b828204905092915050565b7f526166666c652063616e277420626520636f6d706c6574656420796574000000600082015250565b600061356c601d83612cc0565b915061357782613536565b602082019050919050565b6000602082019050818103600083015261359b8161355f565b9050919050565b7f57696e6e657220686173206e6f74206265656e2073656c656374656420796574600082015250565b60006135d8602083612cc0565b91506135e3826135a2565b602082019050919050565b60006020820190508181036000830152613607816135cb565b9050919050565b600060408201905061362360008301856123c8565b6136306020830184612593565b9392505050565b6000819050919050565b61365261364d82612365565b613637565b82525050565b60006136648285613641565b6020820191506136748284613641565b6020820191508190509392505050565b600061368f82612365565b915061369a83612365565b9250826136aa576136a96134d6565b5b82820690509291505056fea26469706673582212204770e2e02a8ea9f1dfa59a28a3346e4330d53adbc2999017642c8ad8586d613164736f6c634300080e0033",
  "immutableReferences": {},
  "source": "// SPDX-License-Identifier: MIT\r\npragma solidity ^0.8.0;\r\n\r\nimport \"@openzeppelin/contracts/token/ERC721/IERC721.sol\";\r\nimport \"@openzeppelin/contracts/utils/math/SafeMath.sol\";\r\nimport \"@openzeppelin/contracts/token/ERC721/IERC721Receiver.sol\";\r\n\r\ncontract mainNftRaffle is IERC721Receiver {\r\n    using SafeMath for uint256;\r\n\r\n    struct Raffle {\r\n        uint raffleId;\r\n        string raffleName;\r\n        string description;\r\n        uint256 nftPrice;\r\n        uint256 totalVolumeofTickets;\r\n        uint256 endTime;\r\n        uint256 nftId;\r\n        address nftContractAddress;\r\n        string nftSourceLink;\r\n        address charityAddress;\r\n        address raffleCreator;\r\n        uint256 rafflePool;\r\n        uint256 ticketPrice;\r\n        uint256 totalSoldTickets;\r\n        bool raffleCancelled;\r\n        bool raffleEnded;\r\n        uint256 fundsInContract;\r\n        uint256[] tickets;\r\n        uint winningTicket;\r\n        address raffleWinner;\r\n        address payable developmentTeam;\r\n    }\r\n\r\n    struct RaffleInfo {\r\n        uint raffleId;\r\n        string raffleName;\r\n        string description;\r\n        uint256 nftPrice;\r\n        uint256 totalVolumeofTickets;\r\n        uint256 endTime;\r\n        uint256 nftId;\r\n        address nftContractAddress;\r\n        string nftSourceLink;\r\n        address charityAddress;\r\n        address raffleCreator;\r\n        uint256 rafflePool;\r\n        uint256 ticketPrice;\r\n        uint256 totalSoldTickets;\r\n        uint winningTicket;\r\n        address raffleWinner;\r\n        bool raffleCancelled;\r\n        bool raffleEnded;\r\n    }\r\n\r\n    mapping(uint256 => Raffle) private raffles;\r\n    mapping(uint256 => mapping(uint256 => address)) public ticketToOwner;\r\n    uint256 private raffleCount = 0;\r\n\r\n    event WinnerSelected(\r\n        uint256 indexed raffleId,\r\n        uint256 winningTicketNumber,\r\n        address winningTicketOwner\r\n    );\r\n    event raffleEnded(uint256 indexed raffleId);\r\n\r\n    function createRaffle(\r\n        string memory _raffleName,\r\n        string memory _description,\r\n        uint256 _nftPrice,\r\n        uint256 _totalVolumeofTickets,\r\n        uint256 _endTime,\r\n        uint256 _nftId,\r\n        address _nftContractAddress,\r\n        string memory _nftSourceLink,\r\n        address _charityAddress\r\n    ) public returns (uint256) {\r\n        require(\r\n            _nftContractAddress != address(0),\r\n            \"Invalid NFT contract address\"\r\n        );\r\n        require(_endTime > block.timestamp, \"End time must be in future\");\r\n        IERC721 nftContract = IERC721(_nftContractAddress);\r\n        require(\r\n            msg.sender == nftContract.ownerOf(_nftId),\r\n            \"Only NFT owner can create raffle\"\r\n        );\r\n\r\n        nftContract.safeTransferFrom(msg.sender, address(this), _nftId);\r\n        raffleCount++;\r\n\r\n        raffles[raffleCount] = Raffle({\r\n            raffleId: raffleCount,\r\n            raffleName: _raffleName,\r\n            description: _description,\r\n            nftPrice: _nftPrice,\r\n            totalVolumeofTickets: _totalVolumeofTickets,\r\n            endTime: _endTime,\r\n            nftId: _nftId,\r\n            nftContractAddress: _nftContractAddress,\r\n            nftSourceLink: _nftSourceLink,\r\n            raffleCreator: msg.sender,\r\n            rafflePool: (_nftPrice.mul(150)).div(100),\r\n            ticketPrice: 0,\r\n            charityAddress: _charityAddress,\r\n            totalSoldTickets: 0,\r\n            raffleCancelled: false,\r\n            raffleEnded: false,\r\n            fundsInContract: 0,\r\n            tickets: new uint256[](0),\r\n            winningTicket: 0,\r\n            raffleWinner: address(0),\r\n            developmentTeam: payable(\r\n                address(0xE46Cb9CA18520D3F0394F570C35259c188B33B98)\r\n            )\r\n        });\r\n\r\n        raffles[raffleCount].ticketPrice = raffles[raffleCount].rafflePool.div(\r\n            _totalVolumeofTickets\r\n        );\r\n\r\n        return raffleCount;\r\n    }\r\n\r\n    function getTicketPrice(uint256 _raffleId) public view returns (uint256) {\r\n        return raffles[_raffleId].ticketPrice;\r\n    }\r\n\r\n    function getTicketsOwned(\r\n        address _address,\r\n        uint256 raffleId\r\n    ) public view returns (uint256) {\r\n        uint256 totalTicketsOwned = 0;\r\n        for (uint256 i = 0; i < raffles[raffleId].tickets.length; i++) {\r\n            if (\r\n                ticketToOwner[raffleId][raffles[raffleId].tickets[i]] ==\r\n                _address\r\n            ) {\r\n                totalTicketsOwned = totalTicketsOwned.add(1);\r\n            }\r\n        }\r\n        return totalTicketsOwned;\r\n    }\r\n\r\n    function getOwnedRaffles(\r\n        address owner\r\n    ) public view returns (uint256 totalRaffles, uint256[] memory raffleIds) {\r\n        uint256[] memory ownedRaffleIds = new uint256[](raffleCount);\r\n        uint256 count = 0;\r\n        for (uint256 i = 0; i <= raffleCount; i++) {\r\n            if (raffles[i].raffleCreator == owner) {\r\n                ownedRaffleIds[count] = i;\r\n                count++;\r\n            }\r\n        }\r\n        uint256[] memory result = new uint256[](count);\r\n        for (uint256 j = 0; j < count; j++) {\r\n            result[j] = ownedRaffleIds[j];\r\n        }\r\n        return (count, result);\r\n    }\r\n\r\n    function getAvailableTickets(\r\n        uint256 _raffleID\r\n    ) public view returns (uint256) {\r\n        Raffle storage raffle = raffles[_raffleID];\r\n        require(raffle.raffleId != 0, \"Raffle not found\");\r\n\r\n        if (raffle.raffleEnded || raffle.raffleCancelled) {\r\n            return 0;\r\n        } else {\r\n            return raffle.totalVolumeofTickets - raffle.totalSoldTickets;\r\n        }\r\n    }\r\n\r\n    function buyTicket(\r\n        uint256 _raffleId,\r\n        uint256 _totalTicketsWanted\r\n    ) public payable {\r\n        Raffle storage raffle = raffles[_raffleId];\r\n\r\n        require(!raffle.raffleCancelled, \"Raffle is cancelled\");\r\n        require(!raffle.raffleEnded, \"Raffle is ended\");\r\n        require(_totalTicketsWanted > 0, \"Invalid number of tickets\");\r\n        require(\r\n            _totalTicketsWanted <=\r\n                raffle.totalVolumeofTickets - raffle.totalSoldTickets,\r\n            \"Not enough tickets available\"\r\n        );\r\n        uint256 totalTicketPrice = _totalTicketsWanted * raffle.ticketPrice;\r\n        require(msg.value >= totalTicketPrice, \"Incorrect payment amount\");\r\n\r\n        // Update ticket ownership\r\n        for (uint256 i = 0; i < _totalTicketsWanted; i++) {\r\n            uint256 ticket = raffle.totalSoldTickets + 1 + i;\r\n            raffle.tickets.push(ticket);\r\n            ticketToOwner[_raffleId][ticket] = msg.sender;\r\n        }\r\n\r\n        // Update raffle info\r\n        raffle.totalSoldTickets += _totalTicketsWanted;\r\n        raffle.fundsInContract += msg.value;\r\n    }\r\n\r\n    function getTotalTicketPrice(\r\n        uint _raffleId,\r\n        uint256 _totalTicketsWanted\r\n    ) public view returns (uint256) {\r\n        Raffle storage raffle = raffles[_raffleId];\r\n\r\n        uint256 totalTicketPrice = _totalTicketsWanted * raffle.ticketPrice;\r\n        return totalTicketPrice;\r\n    }\r\n\r\n    // This function picks a random ticket from totalSoldTickets for a raffleId.\r\n    function pickRandomTicket(uint256 raffleId) private view returns (uint256) {\r\n        uint256 randomNumber = uint256(\r\n            keccak256(abi.encodePacked(block.timestamp, block.difficulty))\r\n        ) % raffles[raffleId].totalSoldTickets;\r\n        return randomNumber;\r\n    }\r\n\r\n    function pickWinner(uint256 raffleId) public {\r\n        Raffle storage raffle = raffles[raffleId];\r\n\r\n        require(!raffle.raffleCancelled, \"Raffle has been cancelled\");\r\n        require(!raffle.raffleEnded, \"Raffle has already ended\");\r\n        require(\r\n            raffle.totalSoldTickets >= (raffle.totalVolumeofTickets * 80) / 100,\r\n            \"Raffle can't be completed yet\"\r\n        );\r\n\r\n        // Pick a random ticket as the winning ticket.\r\n        uint256 winningTicketNumber = pickRandomTicket(raffleId);\r\n        address winningTicketOwner = ticketToOwner[raffleId][\r\n            winningTicketNumber\r\n        ];\r\n        require(\r\n            winningTicketOwner != address(0),\r\n            \"Winner has not been selected yet\"\r\n        );\r\n\r\n        // Store the winning ticket information in the raffle struct\r\n        raffle.raffleWinner = winningTicketOwner;\r\n\r\n        // Emit an event to indicate that a winner has been selected.\r\n        emit WinnerSelected(raffleId, winningTicketNumber, winningTicketOwner);\r\n\r\n        // Send the prize pool to each entity\r\n        uint256 rafflePrizePool = raffles[raffleId].rafflePool;\r\n        uint256 raffleCreatorPrize = raffles[raffleId].nftPrice +\r\n            (rafflePrizePool.mul(5)).div(100);\r\n        uint256 developmentTeamPrize = (rafflePrizePool.mul(5)).div(100);\r\n        uint256 charityPrize = rafflePrizePool -\r\n            raffleCreatorPrize -\r\n            developmentTeamPrize;\r\n\r\n        // Transfer the prize amounts to each entity.\r\n        payable(raffle.raffleCreator).transfer(raffleCreatorPrize);\r\n        payable(raffle.developmentTeam).transfer(developmentTeamPrize);\r\n        payable(raffle.charityAddress).transfer(charityPrize);\r\n\r\n        // Call safeTransferFrom function on ERC721 token contract to transfer the NFT to the winner.\r\n        IERC721(raffle.nftContractAddress).safeTransferFrom(\r\n            address(this),\r\n            winningTicketOwner,\r\n            raffle.nftId\r\n        );\r\n\r\n        // Mark the raffle as ended\r\n        raffle.raffleEnded = true;\r\n\r\n        // Emit raffleEnded event\r\n        emit raffleEnded(raffleId);\r\n    }\r\n\r\n    function cancelRaffle(uint256 _raffleId) public {\r\n        Raffle storage raffle = raffles[_raffleId];\r\n        require(\r\n            msg.sender == raffle.raffleCreator,\r\n            \"Only raffle creator can cancel the lottery\"\r\n        );\r\n        require(!raffle.raffleEnded, \"Raffle has already ended\");\r\n\r\n        // Refund funds to ticket owners\r\n        for (uint256 i = 0; i < raffle.tickets.length; i++) {\r\n            uint256 ticket = raffle.tickets[i];\r\n            address ticketOwner = ticketToOwner[_raffleId][ticket];\r\n            if (ticketOwner != address(0)) {\r\n                payable(ticketOwner).transfer(raffle.ticketPrice);\r\n            }\r\n        }\r\n\r\n        // Transfer NFT back to raffle creator\r\n        IERC721(raffle.nftContractAddress).safeTransferFrom(\r\n            address(this),\r\n            raffle.raffleCreator,\r\n            raffle.nftId\r\n        );\r\n\r\n        // Update raffle status\r\n        raffle.raffleCancelled = true;\r\n        raffle.raffleEnded = true;\r\n    }\r\n\r\n    function getPrizePool(\r\n        uint256 _raffleId\r\n    ) public view returns (uint256, uint256, uint256, uint256) {\r\n        uint256 rafflePrizePool = raffles[_raffleId].rafflePool;\r\n        uint256 raffleCreatorPrize = raffles[_raffleId].nftPrice +\r\n            (rafflePrizePool.mul(5)).div(100);\r\n        uint256 developmentTeamPrize = (rafflePrizePool.mul(5)).div(100);\r\n        uint256 charityPrize = rafflePrizePool -\r\n            raffleCreatorPrize -\r\n            developmentTeamPrize;\r\n\r\n        return (\r\n            rafflePrizePool,\r\n            raffleCreatorPrize,\r\n            developmentTeamPrize,\r\n            charityPrize\r\n        );\r\n    }\r\n\r\n    function getRaffleWinner(\r\n        uint256 raffleId\r\n    ) public view returns (address winner, uint256 winningTicket) {\r\n        require(\r\n            !raffles[raffleId].raffleCancelled,\r\n            \"Raffle has been cancelled\"\r\n        );\r\n        require(!raffles[raffleId].raffleEnded, \"Raffle has already ended\");\r\n        require(\r\n            raffles[raffleId].winningTicket != 0,\r\n            \"Winner has not been picked yet\"\r\n        );\r\n\r\n        return (\r\n            raffles[raffleId].raffleWinner,\r\n            raffles[raffleId].winningTicket\r\n        );\r\n    }\r\n\r\n    function raffleInfo(\r\n        uint256 _raffleID\r\n    ) public view returns (RaffleInfo memory) {\r\n        Raffle storage raffle = raffles[_raffleID];\r\n\r\n        RaffleInfo memory raffleInfo = RaffleInfo({\r\n            raffleId: _raffleID,\r\n            raffleName: raffle.raffleName,\r\n            description: raffle.description,\r\n            nftPrice: raffle.nftPrice,\r\n            totalVolumeofTickets: raffle.totalVolumeofTickets,\r\n            endTime: raffle.endTime,\r\n            nftId: raffle.nftId,\r\n            nftContractAddress: raffle.nftContractAddress,\r\n            nftSourceLink: raffle.nftSourceLink,\r\n            charityAddress: raffle.charityAddress,\r\n            raffleCreator: raffle.raffleCreator,\r\n            rafflePool: raffle.rafflePool,\r\n            ticketPrice: raffle.ticketPrice,\r\n            totalSoldTickets: raffle.totalSoldTickets,\r\n            winningTicket: raffle.winningTicket,\r\n            raffleWinner: raffle.raffleWinner,\r\n            raffleCancelled: raffle.raffleCancelled,\r\n            raffleEnded: raffle.raffleEnded\r\n        });\r\n\r\n        return raffleInfo;\r\n    }\r\n\r\n    function onERC721Received(\r\n        address operator,\r\n        address from,\r\n        uint256 tokenId,\r\n        bytes calldata data\r\n    ) external returns (bytes4) {\r\n        return this.onERC721Received.selector;\r\n    }\r\n\r\n    function getEntityAddresses(\r\n        uint256 _raffleId\r\n    ) public view returns (address, address, address) {\r\n        return (\r\n            raffles[_raffleId].raffleCreator,\r\n            raffles[_raffleId].developmentTeam,\r\n            raffles[_raffleId].charityAddress\r\n        );\r\n    }\r\n\r\n    function getTotalRaffles() public view returns (uint256) {\r\n        return raffleCount;\r\n    }\r\n\r\n    function getContractBalance() public view returns (uint256) {\r\n        return address(this).balance;\r\n    }\r\n}",
  "sourcePath": "C:\\Users\\user\\Desktop\\GIT_REPOS\\originx-dapp\\backend\\contracts\\mainNftRaffle.sol",
  "compiler": {
    "name": "solc",
    "version": "0.8.14+commit.80d49f37.Emscripten.clang"
  },
  "schemaVersion": "3.4.13",
  "updatedAt": "2023-07-30T07:27:27.327Z",
  "networkType": "ethereum",
  "devdoc": {
    "kind": "dev",
    "methods": {
      "onERC721Received(address,address,uint256,bytes)": {
        "details": "Whenever an {IERC721} `tokenId` token is transferred to this contract via {IERC721-safeTransferFrom} by `operator` from `from`, this function is called. It must return its Solidity selector to confirm the token transfer. If any other value is returned or the interface is not implemented by the recipient, the transfer will be reverted. The selector can be obtained in Solidity with `IERC721Receiver.onERC721Received.selector`."
      }
    },
    "version": 1
  },
  "userdoc": {
    "kind": "user",
    "methods": {},
    "version": 1
  }
}