{
  "contractName": "mainNftRaffle",
  "abi": [
    {
      "anonymous": false,
      "inputs": [
        {
          "indexed": true,
          "internalType": "uint256",
          "name": "raffleId",
          "type": "uint256"
        },
        {
          "indexed": false,
          "internalType": "uint256",
          "name": "winningTicketNumber",
          "type": "uint256"
        },
        {
          "indexed": false,
          "internalType": "address",
          "name": "winningTicketOwner",
          "type": "address"
        }
      ],
      "name": "WinnerSelected",
      "type": "event"
    },
    {
      "anonymous": false,
      "inputs": [
        {
          "indexed": true,
          "internalType": "uint256",
          "name": "raffleId",
          "type": "uint256"
        }
      ],
      "name": "raffleEnded",
      "type": "event"
    },
    {
      "inputs": [
        {
          "internalType": "uint256",
          "name": "",
          "type": "uint256"
        },
        {
          "internalType": "uint256",
          "name": "",
          "type": "uint256"
        }
      ],
      "name": "ticketToOwner",
      "outputs": [
        {
          "internalType": "address",
          "name": "",
          "type": "address"
        }
      ],
      "stateMutability": "view",
      "type": "function"
    },
    {
      "inputs": [
        {
          "internalType": "string",
          "name": "_raffleName",
          "type": "string"
        },
        {
          "internalType": "uint256",
          "name": "_nftPrice",
          "type": "uint256"
        },
        {
          "internalType": "uint256",
          "name": "_totalVolumeofTickets",
          "type": "uint256"
        },
        {
          "internalType": "uint256",
          "name": "_endTime",
          "type": "uint256"
        },
        {
          "internalType": "uint256",
          "name": "_nftId",
          "type": "uint256"
        },
        {
          "internalType": "address",
          "name": "_nftContractAddress",
          "type": "address"
        },
        {
          "internalType": "string",
          "name": "_nftSourceLink",
          "type": "string"
        },
        {
          "internalType": "address",
          "name": "_charityAddress",
          "type": "address"
        }
      ],
      "name": "createRaffle",
      "outputs": [
        {
          "internalType": "uint256",
          "name": "",
          "type": "uint256"
        }
      ],
      "stateMutability": "nonpayable",
      "type": "function"
    },
    {
      "inputs": [
        {
          "internalType": "uint256",
          "name": "_raffleId",
          "type": "uint256"
        }
      ],
      "name": "getTicketPrice",
      "outputs": [
        {
          "internalType": "uint256",
          "name": "",
          "type": "uint256"
        }
      ],
      "stateMutability": "view",
      "type": "function"
    },
    {
      "inputs": [
        {
          "internalType": "address",
          "name": "_address",
          "type": "address"
        },
        {
          "internalType": "uint256",
          "name": "raffleId",
          "type": "uint256"
        }
      ],
      "name": "getTicketsOwned",
      "outputs": [
        {
          "internalType": "uint256",
          "name": "",
          "type": "uint256"
        }
      ],
      "stateMutability": "view",
      "type": "function"
    },
    {
      "inputs": [
        {
          "internalType": "address",
          "name": "owner",
          "type": "address"
        }
      ],
      "name": "getOwnedRaffles",
      "outputs": [
        {
          "internalType": "uint256",
          "name": "totalRaffles",
          "type": "uint256"
        },
        {
          "internalType": "uint256[]",
          "name": "raffleIds",
          "type": "uint256[]"
        }
      ],
      "stateMutability": "view",
      "type": "function"
    },
    {
      "inputs": [
        {
          "internalType": "uint256",
          "name": "_raffleID",
          "type": "uint256"
        }
      ],
      "name": "getAvailableTickets",
      "outputs": [
        {
          "internalType": "uint256",
          "name": "",
          "type": "uint256"
        }
      ],
      "stateMutability": "view",
      "type": "function"
    },
    {
      "inputs": [
        {
          "internalType": "uint256",
          "name": "_raffleId",
          "type": "uint256"
        },
        {
          "internalType": "uint256",
          "name": "_totalTicketsWanted",
          "type": "uint256"
        }
      ],
      "name": "buyTicket",
      "outputs": [],
      "stateMutability": "payable",
      "type": "function"
    },
    {
      "inputs": [
        {
          "internalType": "uint256",
          "name": "_raffleId",
          "type": "uint256"
        },
        {
          "internalType": "uint256",
          "name": "_totalTicketsWanted",
          "type": "uint256"
        }
      ],
      "name": "getTotalTicketPrice",
      "outputs": [
        {
          "internalType": "uint256",
          "name": "",
          "type": "uint256"
        }
      ],
      "stateMutability": "view",
      "type": "function"
    },
    {
      "inputs": [
        {
          "internalType": "uint256",
          "name": "raffleId",
          "type": "uint256"
        }
      ],
      "name": "pickWinner",
      "outputs": [],
      "stateMutability": "nonpayable",
      "type": "function"
    },
    {
      "inputs": [
        {
          "internalType": "uint256",
          "name": "_raffleId",
          "type": "uint256"
        }
      ],
      "name": "cancelRaffle",
      "outputs": [],
      "stateMutability": "nonpayable",
      "type": "function"
    },
    {
      "inputs": [
        {
          "internalType": "uint256",
          "name": "_raffleId",
          "type": "uint256"
        }
      ],
      "name": "getPrizePool",
      "outputs": [
        {
          "internalType": "uint256",
          "name": "",
          "type": "uint256"
        },
        {
          "internalType": "uint256",
          "name": "",
          "type": "uint256"
        },
        {
          "internalType": "uint256",
          "name": "",
          "type": "uint256"
        },
        {
          "internalType": "uint256",
          "name": "",
          "type": "uint256"
        }
      ],
      "stateMutability": "view",
      "type": "function"
    },
    {
      "inputs": [
        {
          "internalType": "uint256",
          "name": "raffleId",
          "type": "uint256"
        }
      ],
      "name": "getRaffleWinner",
      "outputs": [
        {
          "internalType": "address",
          "name": "winner",
          "type": "address"
        },
        {
          "internalType": "uint256",
          "name": "winningTicket",
          "type": "uint256"
        }
      ],
      "stateMutability": "view",
      "type": "function"
    },
    {
      "inputs": [
        {
          "internalType": "uint256",
          "name": "_raffleID",
          "type": "uint256"
        }
      ],
      "name": "raffleInfo",
      "outputs": [
        {
          "components": [
            {
              "internalType": "uint256",
              "name": "raffleId",
              "type": "uint256"
            },
            {
              "internalType": "string",
              "name": "raffleName",
              "type": "string"
            },
            {
              "internalType": "uint256",
              "name": "nftPrice",
              "type": "uint256"
            },
            {
              "internalType": "uint256",
              "name": "totalVolumeofTickets",
              "type": "uint256"
            },
            {
              "internalType": "uint256",
              "name": "endTime",
              "type": "uint256"
            },
            {
              "internalType": "uint256",
              "name": "nftId",
              "type": "uint256"
            },
            {
              "internalType": "address",
              "name": "nftContractAddress",
              "type": "address"
            },
            {
              "internalType": "string",
              "name": "nftSourceLink",
              "type": "string"
            },
            {
              "internalType": "address",
              "name": "charityAddress",
              "type": "address"
            },
            {
              "internalType": "address",
              "name": "raffleCreator",
              "type": "address"
            },
            {
              "internalType": "uint256",
              "name": "rafflePool",
              "type": "uint256"
            },
            {
              "internalType": "uint256",
              "name": "ticketPrice",
              "type": "uint256"
            },
            {
              "internalType": "uint256",
              "name": "totalSoldTickets",
              "type": "uint256"
            },
            {
              "internalType": "uint256",
              "name": "winningTicket",
              "type": "uint256"
            },
            {
              "internalType": "address",
              "name": "raffleWinner",
              "type": "address"
            },
            {
              "internalType": "bool",
              "name": "raffleCancelled",
              "type": "bool"
            },
            {
              "internalType": "bool",
              "name": "raffleEnded",
              "type": "bool"
            }
          ],
          "internalType": "struct mainNftRaffle.RaffleInfo",
          "name": "",
          "type": "tuple"
        }
      ],
      "stateMutability": "view",
      "type": "function"
    },
    {
      "inputs": [
        {
          "internalType": "address",
          "name": "operator",
          "type": "address"
        },
        {
          "internalType": "address",
          "name": "from",
          "type": "address"
        },
        {
          "internalType": "uint256",
          "name": "tokenId",
          "type": "uint256"
        },
        {
          "internalType": "bytes",
          "name": "data",
          "type": "bytes"
        }
      ],
      "name": "onERC721Received",
      "outputs": [
        {
          "internalType": "bytes4",
          "name": "",
          "type": "bytes4"
        }
      ],
      "stateMutability": "nonpayable",
      "type": "function"
    },
    {
      "inputs": [
        {
          "internalType": "uint256",
          "name": "_raffleId",
          "type": "uint256"
        }
      ],
      "name": "getEntityAddresses",
      "outputs": [
        {
          "internalType": "address",
          "name": "",
          "type": "address"
        },
        {
          "internalType": "address",
          "name": "",
          "type": "address"
        },
        {
          "internalType": "address",
          "name": "",
          "type": "address"
        }
      ],
      "stateMutability": "view",
      "type": "function"
    },
    {
      "inputs": [],
      "name": "getTotalRaffles",
      "outputs": [
        {
          "internalType": "uint256",
          "name": "",
          "type": "uint256"
        }
      ],
      "stateMutability": "view",
      "type": "function"
    },
    {
      "inputs": [],
      "name": "getContractBalance",
      "outputs": [
        {
          "internalType": "uint256",
          "name": "",
          "type": "uint256"
        }
      ],
      "stateMutability": "view",
      "type": "function"
    }
  ],
  "bytecode": "0x6080604052600060025534801561001557600080fd5b506135e1806100256000396000f3fe6080604052600436106100fe5760003560e01c806362617c9a11610095578063a4e74daf11610064578063a4e74daf1461038c578063bf30d790146103ca578063f06fc96114610407578063f737d21d14610444578063f9ea23821461046d576100fe565b806362617c9a146102a65780636f9fb98a146102e45780637822be4a1461030f5780638a56e3b91461034f576100fe565b80632973c9b1116100d15780632973c9b1146101e5578063298ec2081461022457806338a2efbe146102405780635fba31711461027d576100fe565b80630cc7b2a9146101035780630ded5c3614610140578063150b7a021461016b5780631e8c48e4146101a8575b600080fd5b34801561010f57600080fd5b5061012a600480360381019061012591906122dd565b6104aa565b6040516101379190612319565b60405180910390f35b34801561014c57600080fd5b5061015561055f565b6040516101629190612319565b60405180910390f35b34801561017757600080fd5b50610192600480360381019061018d91906123f7565b610569565b60405161019f91906124ba565b60405180910390f35b3480156101b457600080fd5b506101cf60048036038101906101ca9190612616565b61057e565b6040516101dc9190612319565b60405180910390f35b3480156101f157600080fd5b5061020c600480360381019061020791906122dd565b610bfb565b60405161021b93929190612713565b60405180910390f35b61023e6004803603810190610239919061274a565b610caf565b005b34801561024c57600080fd5b506102676004803603810190610262919061278a565b610f63565b6040516102749190612319565b60405180910390f35b34801561028957600080fd5b506102a4600480360381019061029f91906122dd565b61106a565b005b3480156102b257600080fd5b506102cd60048036038101906102c891906122dd565b611373565b6040516102db9291906127ca565b60405180910390f35b3480156102f057600080fd5b506102f96114e9565b6040516103069190612319565b60405180910390f35b34801561031b57600080fd5b50610336600480360381019061033191906122dd565b6114f1565b60405161034694939291906127f3565b60405180910390f35b34801561035b57600080fd5b506103766004803603810190610371919061274a565b6115b9565b6040516103839190612838565b60405180910390f35b34801561039857600080fd5b506103b360048036038101906103ae9190612853565b6115fb565b6040516103c192919061293e565b60405180910390f35b3480156103d657600080fd5b506103f160048036038101906103ec91906122dd565b6117ba565b6040516103fe9190612b94565b60405180910390f35b34801561041357600080fd5b5061042e600480360381019061042991906122dd565b611a9c565b60405161043b9190612319565b60405180910390f35b34801561045057600080fd5b5061046b600480360381019061046691906122dd565b611abb565b005b34801561047957600080fd5b50610494600480360381019061048f919061274a565b611ff1565b6040516104a19190612319565b60405180910390f35b60008060008084815260200190815260200160002090506000816000015403610508576040517f08c379a00000000000000000000000000000000000000000000000000000000081526004016104ff90612c13565b60405180910390fd5b80600d0160019054906101000a900460ff1680610533575080600d0160009054906101000a900460ff165b1561054257600091505061055a565b80600c015481600301546105569190612c62565b9150505b919050565b6000600254905090565b600063150b7a0260e01b905095945050505050565b60008073ffffffffffffffffffffffffffffffffffffffff168473ffffffffffffffffffffffffffffffffffffffff16036105ee576040517f08c379a00000000000000000000000000000000000000000000000000000000081526004016105e590612ce2565b60405180910390fd5b428611610630576040517f08c379a000000000000000000000000000000000000000000000000000000000815260040161062790612d4e565b60405180910390fd5b60008490508073ffffffffffffffffffffffffffffffffffffffff16636352211e876040518263ffffffff1660e01b815260040161066e9190612319565b602060405180830381865afa15801561068b573d6000803e3d6000fd5b505050506040513d601f19601f820116820180604052508101906106af9190612d83565b73ffffffffffffffffffffffffffffffffffffffff163373ffffffffffffffffffffffffffffffffffffffff161461071c576040517f08c379a000000000000000000000000000000000000000000000000000000000815260040161071390612dfc565b60405180910390fd5b8073ffffffffffffffffffffffffffffffffffffffff166342842e0e3330896040518463ffffffff1660e01b815260040161075993929190612e1c565b600060405180830381600087803b15801561077357600080fd5b505af1158015610787573d6000803e3d6000fd5b505050506002600081548092919061079e90612e53565b919050555060405180610280016040528060025481526020018b81526020018a81526020018981526020018881526020018781526020018673ffffffffffffffffffffffffffffffffffffffff1681526020018581526020018473ffffffffffffffffffffffffffffffffffffffff1681526020013373ffffffffffffffffffffffffffffffffffffffff168152602001610856606461084860968e61202790919063ffffffff16565b61203d90919063ffffffff16565b8152602001600081526020016000815260200160001515815260200160001515815260200160008152602001600067ffffffffffffffff81111561089d5761089c6124eb565b5b6040519080825280602002602001820160405280156108cb5781602001602082028036833780820191505090505b50815260200160008152602001600073ffffffffffffffffffffffffffffffffffffffff16815260200173e46cb9ca18520d3f0394f570c35259c188b33b9873ffffffffffffffffffffffffffffffffffffffff16815250600080600254815260200190815260200160002060008201518160000155602082015181600101908051906020019061095d9291906120c3565b5060408201518160020155606082015181600301556080820151816004015560a0820151816005015560c08201518160060160006101000a81548173ffffffffffffffffffffffffffffffffffffffff021916908373ffffffffffffffffffffffffffffffffffffffff16021790555060e08201518160070190805190602001906109e99291906120c3565b506101008201518160080160006101000a81548173ffffffffffffffffffffffffffffffffffffffff021916908373ffffffffffffffffffffffffffffffffffffffff1602179055506101208201518160090160006101000a81548173ffffffffffffffffffffffffffffffffffffffff021916908373ffffffffffffffffffffffffffffffffffffffff16021790555061014082015181600a015561016082015181600b015561018082015181600c01556101a082015181600d0160006101000a81548160ff0219169083151502179055506101c082015181600d0160016101000a81548160ff0219169083151502179055506101e082015181600e015561020082015181600f019080519060200190610b05929190612149565b5061022082015181601001556102408201518160110160006101000a81548173ffffffffffffffffffffffffffffffffffffffff021916908373ffffffffffffffffffffffffffffffffffffffff1602179055506102608201518160120160006101000a81548173ffffffffffffffffffffffffffffffffffffffff021916908373ffffffffffffffffffffffffffffffffffffffff160217905550905050610bce886000806002548152602001908152602001600020600a015461203d90919063ffffffff16565b6000806002548152602001908152602001600020600b018190555060025491505098975050505050505050565b600080600080600085815260200190815260200160002060090160009054906101000a900473ffffffffffffffffffffffffffffffffffffffff1660008086815260200190815260200160002060120160009054906101000a900473ffffffffffffffffffffffffffffffffffffffff1660008087815260200190815260200160002060080160009054906101000a900473ffffffffffffffffffffffffffffffffffffffff169250925092509193909250565b6000806000848152602001908152602001600020905080600d0160009054906101000a900460ff1615610d17576040517f08c379a0000000000000000000000000000000000000000000000000000000008152600401610d0e90612ee7565b60405180910390fd5b80600d0160019054906101000a900460ff1615610d69576040517f08c379a0000000000000000000000000000000000000000000000000000000008152600401610d6090612f53565b60405180910390fd5b60008211610dac576040517f08c379a0000000000000000000000000000000000000000000000000000000008152600401610da390612fbf565b60405180910390fd5b80600c01548160030154610dc09190612c62565b821115610e02576040517f08c379a0000000000000000000000000000000000000000000000000000000008152600401610df99061302b565b60405180910390fd5b600081600b015483610e14919061304b565b905080341015610e59576040517f08c379a0000000000000000000000000000000000000000000000000000000008152600401610e50906130f1565b60405180910390fd5b60005b83811015610f2657600081600185600c0154610e789190613111565b610e829190613111565b905083600f018190806001815401808255809150506001900390600052602060002001600090919091909150553360016000888152602001908152602001600020600083815260200190815260200160002060006101000a81548173ffffffffffffffffffffffffffffffffffffffff021916908373ffffffffffffffffffffffffffffffffffffffff160217905550508080610f1e90612e53565b915050610e5c565b508282600c016000828254610f3b9190613111565b925050819055503482600e016000828254610f569190613111565b9250508190555050505050565b6000806000905060005b600080858152602001908152602001600020600f018054905081101561105f578473ffffffffffffffffffffffffffffffffffffffff16600160008681526020019081526020016000206000806000888152602001908152602001600020600f018481548110610fe057610fdf613167565b5b9060005260206000200154815260200190815260200160002060009054906101000a900473ffffffffffffffffffffffffffffffffffffffff1673ffffffffffffffffffffffffffffffffffffffff160361104c5761104960018361205390919063ffffffff16565b91505b808061105790612e53565b915050610f6d565b508091505092915050565b600080600083815260200190815260200160002090508060090160009054906101000a900473ffffffffffffffffffffffffffffffffffffffff1673ffffffffffffffffffffffffffffffffffffffff163373ffffffffffffffffffffffffffffffffffffffff1614611112576040517f08c379a000000000000000000000000000000000000000000000000000000000815260040161110990613208565b60405180910390fd5b80600d0160019054906101000a900460ff1615611164576040517f08c379a000000000000000000000000000000000000000000000000000000000815260040161115b90613274565b60405180910390fd5b60005b81600f018054905081101561127957600082600f01828154811061118e5761118d613167565b5b90600052602060002001549050600060016000868152602001908152602001600020600083815260200190815260200160002060009054906101000a900473ffffffffffffffffffffffffffffffffffffffff169050600073ffffffffffffffffffffffffffffffffffffffff168173ffffffffffffffffffffffffffffffffffffffff1614611264578073ffffffffffffffffffffffffffffffffffffffff166108fc85600b01549081150290604051600060405180830381858888f19350505050158015611262573d6000803e3d6000fd5b505b5050808061127190612e53565b915050611167565b508060060160009054906101000a900473ffffffffffffffffffffffffffffffffffffffff1673ffffffffffffffffffffffffffffffffffffffff166342842e0e308360090160009054906101000a900473ffffffffffffffffffffffffffffffffffffffff1684600501546040518463ffffffff1660e01b815260040161130393929190612e1c565b600060405180830381600087803b15801561131d57600080fd5b505af1158015611331573d6000803e3d6000fd5b50505050600181600d0160006101000a81548160ff021916908315150217905550600181600d0160016101000a81548160ff0219169083151502179055505050565b600080600080848152602001908152602001600020600d0160009054906101000a900460ff16156113d9576040517f08c379a00000000000000000000000000000000000000000000000000000000081526004016113d0906132e0565b60405180910390fd5b600080848152602001908152602001600020600d0160019054906101000a900460ff161561143c576040517f08c379a000000000000000000000000000000000000000000000000000000000815260040161143390613274565b60405180910390fd5b60008060008581526020019081526020016000206010015403611494576040517f08c379a000000000000000000000000000000000000000000000000000000000815260040161148b9061334c565b60405180910390fd5b60008084815260200190815260200160002060110160009054906101000a900473ffffffffffffffffffffffffffffffffffffffff166000808581526020019081526020016000206010015491509150915091565b600047905090565b6000806000806000806000878152602001908152602001600020600a01549050600061153a606461152c60058561202790919063ffffffff16565b61203d90919063ffffffff16565b6000808981526020019081526020016000206002015461155a9190613111565b90506000611585606461157760058661202790919063ffffffff16565b61203d90919063ffffffff16565b905060008183856115969190612c62565b6115a09190612c62565b9050838383839750975097509750505050509193509193565b60016020528160005260406000206020528060005260406000206000915091509054906101000a900473ffffffffffffffffffffffffffffffffffffffff1681565b60006060600060025467ffffffffffffffff81111561161d5761161c6124eb565b5b60405190808252806020026020018201604052801561164b5781602001602082028036833780820191505090505b5090506000805b6002548111611705578573ffffffffffffffffffffffffffffffffffffffff1660008083815260200190815260200160002060090160009054906101000a900473ffffffffffffffffffffffffffffffffffffffff1673ffffffffffffffffffffffffffffffffffffffff16036116f257808383815181106116d7576116d6613167565b5b60200260200101818152505081806116ee90612e53565b9250505b80806116fd90612e53565b915050611652565b5060008167ffffffffffffffff811115611722576117216124eb565b5b6040519080825280602002602001820160405280156117505781602001602082028036833780820191505090505b50905060005b828110156117ab5783818151811061177157611770613167565b5b602002602001015182828151811061178c5761178b613167565b5b60200260200101818152505080806117a390612e53565b915050611756565b50818194509450505050915091565b6117c2612196565b6000806000848152602001908152602001600020905060006040518061022001604052808581526020018360010180546117fb9061339b565b80601f01602080910402602001604051908101604052809291908181526020018280546118279061339b565b80156118745780601f1061184957610100808354040283529160200191611874565b820191906000526020600020905b81548152906001019060200180831161185757829003601f168201915b50505050508152602001836002015481526020018360030154815260200183600401548152602001836005015481526020018360060160009054906101000a900473ffffffffffffffffffffffffffffffffffffffff1673ffffffffffffffffffffffffffffffffffffffff1681526020018360070180546118f59061339b565b80601f01602080910402602001604051908101604052809291908181526020018280546119219061339b565b801561196e5780601f106119435761010080835404028352916020019161196e565b820191906000526020600020905b81548152906001019060200180831161195157829003601f168201915b505050505081526020018360080160009054906101000a900473ffffffffffffffffffffffffffffffffffffffff1673ffffffffffffffffffffffffffffffffffffffff1681526020018360090160009054906101000a900473ffffffffffffffffffffffffffffffffffffffff1673ffffffffffffffffffffffffffffffffffffffff16815260200183600a0154815260200183600b0154815260200183600c01548152602001836010015481526020018360110160009054906101000a900473ffffffffffffffffffffffffffffffffffffffff1673ffffffffffffffffffffffffffffffffffffffff16815260200183600d0160009054906101000a900460ff161515815260200183600d0160019054906101000a900460ff16151581525090508092505050919050565b6000806000838152602001908152602001600020600b01549050919050565b6000806000838152602001908152602001600020905080600d0160009054906101000a900460ff1615611b23576040517f08c379a0000000000000000000000000000000000000000000000000000000008152600401611b1a906132e0565b60405180910390fd5b80600d0160019054906101000a900460ff1615611b75576040517f08c379a0000000000000000000000000000000000000000000000000000000008152600401611b6c90613274565b60405180910390fd5b606460508260030154611b88919061304b565b611b9291906133fb565b81600c01541015611bd8576040517f08c379a0000000000000000000000000000000000000000000000000000000008152600401611bcf90613478565b60405180910390fd5b6000611be383612069565b9050600060016000858152602001908152602001600020600083815260200190815260200160002060009054906101000a900473ffffffffffffffffffffffffffffffffffffffff169050600073ffffffffffffffffffffffffffffffffffffffff168173ffffffffffffffffffffffffffffffffffffffff1603611c9d576040517f08c379a0000000000000000000000000000000000000000000000000000000008152600401611c94906134e4565b60405180910390fd5b808360110160006101000a81548173ffffffffffffffffffffffffffffffffffffffff021916908373ffffffffffffffffffffffffffffffffffffffff160217905550837f37a30a31c187f323329351db43159a5b3c2dde95e0f21f061360aa03aa5415b78383604051611d12929190613504565b60405180910390a26000806000868152602001908152602001600020600a015490506000611d5d6064611d4f60058561202790919063ffffffff16565b61203d90919063ffffffff16565b60008088815260200190815260200160002060020154611d7d9190613111565b90506000611da86064611d9a60058661202790919063ffffffff16565b61203d90919063ffffffff16565b90506000818385611db99190612c62565b611dc39190612c62565b90508660090160009054906101000a900473ffffffffffffffffffffffffffffffffffffffff1673ffffffffffffffffffffffffffffffffffffffff166108fc849081150290604051600060405180830381858888f19350505050158015611e2f573d6000803e3d6000fd5b508660120160009054906101000a900473ffffffffffffffffffffffffffffffffffffffff1673ffffffffffffffffffffffffffffffffffffffff166108fc839081150290604051600060405180830381858888f19350505050158015611e9a573d6000803e3d6000fd5b508660080160009054906101000a900473ffffffffffffffffffffffffffffffffffffffff1673ffffffffffffffffffffffffffffffffffffffff166108fc829081150290604051600060405180830381858888f19350505050158015611f05573d6000803e3d6000fd5b508660060160009054906101000a900473ffffffffffffffffffffffffffffffffffffffff1673ffffffffffffffffffffffffffffffffffffffff166342842e0e30878a600501546040518463ffffffff1660e01b8152600401611f6b93929190612e1c565b600060405180830381600087803b158015611f8557600080fd5b505af1158015611f99573d6000803e3d6000fd5b50505050600187600d0160016101000a81548160ff021916908315150217905550877f1de299c7214202a224cf78dcd7adac60eac743ba8a2cc84012e96c5a048edfd660405160405180910390a25050505050505050565b6000806000808581526020019081526020016000209050600081600b01548461201a919061304b565b9050809250505092915050565b60008183612035919061304b565b905092915050565b6000818361204b91906133fb565b905092915050565b600081836120619190613111565b905092915050565b600080600080848152602001908152602001600020600c0154424460405160200161209592919061354e565b6040516020818303038152906040528051906020012060001c6120b8919061357a565b905080915050919050565b8280546120cf9061339b565b90600052602060002090601f0160209004810192826120f15760008555612138565b82601f1061210a57805160ff1916838001178555612138565b82800160010185558215612138579182015b8281111561213757825182559160200191906001019061211c565b5b5090506121459190612276565b5090565b828054828255906000526020600020908101928215612185579160200282015b82811115612184578251825591602001919060010190612169565b5b5090506121929190612276565b5090565b604051806102200160405280600081526020016060815260200160008152602001600081526020016000815260200160008152602001600073ffffffffffffffffffffffffffffffffffffffff16815260200160608152602001600073ffffffffffffffffffffffffffffffffffffffff168152602001600073ffffffffffffffffffffffffffffffffffffffff16815260200160008152602001600081526020016000815260200160008152602001600073ffffffffffffffffffffffffffffffffffffffff1681526020016000151581526020016000151581525090565b5b8082111561228f576000816000905550600101612277565b5090565b6000604051905090565b600080fd5b600080fd5b6000819050919050565b6122ba816122a7565b81146122c557600080fd5b50565b6000813590506122d7816122b1565b92915050565b6000602082840312156122f3576122f261229d565b5b6000612301848285016122c8565b91505092915050565b612313816122a7565b82525050565b600060208201905061232e600083018461230a565b92915050565b600073ffffffffffffffffffffffffffffffffffffffff82169050919050565b600061235f82612334565b9050919050565b61236f81612354565b811461237a57600080fd5b50565b60008135905061238c81612366565b92915050565b600080fd5b600080fd5b600080fd5b60008083601f8401126123b7576123b6612392565b5b8235905067ffffffffffffffff8111156123d4576123d3612397565b5b6020830191508360018202830111156123f0576123ef61239c565b5b9250929050565b6000806000806000608086880312156124135761241261229d565b5b60006124218882890161237d565b95505060206124328882890161237d565b9450506040612443888289016122c8565b935050606086013567ffffffffffffffff811115612464576124636122a2565b5b612470888289016123a1565b92509250509295509295909350565b60007fffffffff0000000000000000000000000000000000000000000000000000000082169050919050565b6124b48161247f565b82525050565b60006020820190506124cf60008301846124ab565b92915050565b600080fd5b6000601f19601f8301169050919050565b7f4e487b7100000000000000000000000000000000000000000000000000000000600052604160045260246000fd5b612523826124da565b810181811067ffffffffffffffff82111715612542576125416124eb565b5b80604052505050565b6000612555612293565b9050612561828261251a565b919050565b600067ffffffffffffffff821115612581576125806124eb565b5b61258a826124da565b9050602081019050919050565b82818337600083830152505050565b60006125b96125b484612566565b61254b565b9050828152602081018484840111156125d5576125d46124d5565b5b6125e0848285612597565b509392505050565b600082601f8301126125fd576125fc612392565b5b813561260d8482602086016125a6565b91505092915050565b600080600080600080600080610100898b0312156126375761263661229d565b5b600089013567ffffffffffffffff811115612655576126546122a2565b5b6126618b828c016125e8565b98505060206126728b828c016122c8565b97505060406126838b828c016122c8565b96505060606126948b828c016122c8565b95505060806126a58b828c016122c8565b94505060a06126b68b828c0161237d565b93505060c089013567ffffffffffffffff8111156126d7576126d66122a2565b5b6126e38b828c016125e8565b92505060e06126f48b828c0161237d565b9150509295985092959890939650565b61270d81612354565b82525050565b60006060820190506127286000830186612704565b6127356020830185612704565b6127426040830184612704565b949350505050565b600080604083850312156127615761276061229d565b5b600061276f858286016122c8565b9250506020612780858286016122c8565b9150509250929050565b600080604083850312156127a1576127a061229d565b5b60006127af8582860161237d565b92505060206127c0858286016122c8565b9150509250929050565b60006040820190506127df6000830185612704565b6127ec602083018461230a565b9392505050565b6000608082019050612808600083018761230a565b612815602083018661230a565b612822604083018561230a565b61282f606083018461230a565b95945050505050565b600060208201905061284d6000830184612704565b92915050565b6000602082840312156128695761286861229d565b5b60006128778482850161237d565b91505092915050565b600081519050919050565b600082825260208201905092915050565b6000819050602082019050919050565b6128b5816122a7565b82525050565b60006128c783836128ac565b60208301905092915050565b6000602082019050919050565b60006128eb82612880565b6128f5818561288b565b93506129008361289c565b8060005b8381101561293157815161291888826128bb565b9750612923836128d3565b925050600181019050612904565b5085935050505092915050565b6000604082019050612953600083018561230a565b818103602083015261296581846128e0565b90509392505050565b600081519050919050565b600082825260208201905092915050565b60005b838110156129a857808201518184015260208101905061298d565b838111156129b7576000848401525b50505050565b60006129c88261296e565b6129d28185612979565b93506129e281856020860161298a565b6129eb816124da565b840191505092915050565b6129ff81612354565b82525050565b60008115159050919050565b612a1a81612a05565b82525050565b600061022083016000830151612a3960008601826128ac565b5060208301518482036020860152612a5182826129bd565b9150506040830151612a6660408601826128ac565b506060830151612a7960608601826128ac565b506080830151612a8c60808601826128ac565b5060a0830151612a9f60a08601826128ac565b5060c0830151612ab260c08601826129f6565b5060e083015184820360e0860152612aca82826129bd565b915050610100830151612ae16101008601826129f6565b50610120830151612af66101208601826129f6565b50610140830151612b0b6101408601826128ac565b50610160830151612b206101608601826128ac565b50610180830151612b356101808601826128ac565b506101a0830151612b4a6101a08601826128ac565b506101c0830151612b5f6101c08601826129f6565b506101e0830151612b746101e0860182612a11565b50610200830151612b89610200860182612a11565b508091505092915050565b60006020820190508181036000830152612bae8184612a20565b905092915050565b600082825260208201905092915050565b7f526166666c65206e6f7420666f756e6400000000000000000000000000000000600082015250565b6000612bfd601083612bb6565b9150612c0882612bc7565b602082019050919050565b60006020820190508181036000830152612c2c81612bf0565b9050919050565b7f4e487b7100000000000000000000000000000000000000000000000000000000600052601160045260246000fd5b6000612c6d826122a7565b9150612c78836122a7565b925082821015612c8b57612c8a612c33565b5b828203905092915050565b7f496e76616c6964204e465420636f6e7472616374206164647265737300000000600082015250565b6000612ccc601c83612bb6565b9150612cd782612c96565b602082019050919050565b60006020820190508181036000830152612cfb81612cbf565b9050919050565b7f456e642074696d65206d75737420626520696e20667574757265000000000000600082015250565b6000612d38601a83612bb6565b9150612d4382612d02565b602082019050919050565b60006020820190508181036000830152612d6781612d2b565b9050919050565b600081519050612d7d81612366565b92915050565b600060208284031215612d9957612d9861229d565b5b6000612da784828501612d6e565b91505092915050565b7f4f6e6c79204e4654206f776e65722063616e2063726561746520726166666c65600082015250565b6000612de6602083612bb6565b9150612df182612db0565b602082019050919050565b60006020820190508181036000830152612e1581612dd9565b9050919050565b6000606082019050612e316000830186612704565b612e3e6020830185612704565b612e4b604083018461230a565b949350505050565b6000612e5e826122a7565b91507fffffffffffffffffffffffffffffffffffffffffffffffffffffffffffffffff8203612e9057612e8f612c33565b5b600182019050919050565b7f526166666c652069732063616e63656c6c656400000000000000000000000000600082015250565b6000612ed1601383612bb6565b9150612edc82612e9b565b602082019050919050565b60006020820190508181036000830152612f0081612ec4565b9050919050565b7f526166666c6520697320656e6465640000000000000000000000000000000000600082015250565b6000612f3d600f83612bb6565b9150612f4882612f07565b602082019050919050565b60006020820190508181036000830152612f6c81612f30565b9050919050565b7f496e76616c6964206e756d626572206f66207469636b65747300000000000000600082015250565b6000612fa9601983612bb6565b9150612fb482612f73565b602082019050919050565b60006020820190508181036000830152612fd881612f9c565b9050919050565b7f4e6f7420656e6f756768207469636b65747320617661696c61626c6500000000600082015250565b6000613015601c83612bb6565b915061302082612fdf565b602082019050919050565b6000602082019050818103600083015261304481613008565b9050919050565b6000613056826122a7565b9150613061836122a7565b9250817fffffffffffffffffffffffffffffffffffffffffffffffffffffffffffffffff048311821515161561309a57613099612c33565b5b828202905092915050565b7f496e636f7272656374207061796d656e7420616d6f756e740000000000000000600082015250565b60006130db601883612bb6565b91506130e6826130a5565b602082019050919050565b6000602082019050818103600083015261310a816130ce565b9050919050565b600061311c826122a7565b9150613127836122a7565b9250827fffffffffffffffffffffffffffffffffffffffffffffffffffffffffffffffff0382111561315c5761315b612c33565b5b828201905092915050565b7f4e487b7100000000000000000000000000000000000000000000000000000000600052603260045260246000fd5b7f4f6e6c7920726166666c652063726561746f722063616e2063616e63656c207460008201527f6865206c6f747465727900000000000000000000000000000000000000000000602082015250565b60006131f2602a83612bb6565b91506131fd82613196565b604082019050919050565b60006020820190508181036000830152613221816131e5565b9050919050565b7f526166666c652068617320616c726561647920656e6465640000000000000000600082015250565b600061325e601883612bb6565b915061326982613228565b602082019050919050565b6000602082019050818103600083015261328d81613251565b9050919050565b7f526166666c6520686173206265656e2063616e63656c6c656400000000000000600082015250565b60006132ca601983612bb6565b91506132d582613294565b602082019050919050565b600060208201905081810360008301526132f9816132bd565b9050919050565b7f57696e6e657220686173206e6f74206265656e207069636b6564207965740000600082015250565b6000613336601e83612bb6565b915061334182613300565b602082019050919050565b6000602082019050818103600083015261336581613329565b9050919050565b7f4e487b7100000000000000000000000000000000000000000000000000000000600052602260045260246000fd5b600060028204905060018216806133b357607f821691505b6020821081036133c6576133c561336c565b5b50919050565b7f4e487b7100000000000000000000000000000000000000000000000000000000600052601260045260246000fd5b6000613406826122a7565b9150613411836122a7565b925082613421576134206133cc565b5b828204905092915050565b7f526166666c652063616e277420626520636f6d706c6574656420796574000000600082015250565b6000613462601d83612bb6565b915061346d8261342c565b602082019050919050565b6000602082019050818103600083015261349181613455565b9050919050565b7f57696e6e657220686173206e6f74206265656e2073656c656374656420796574600082015250565b60006134ce602083612bb6565b91506134d982613498565b602082019050919050565b600060208201905081810360008301526134fd816134c1565b9050919050565b6000604082019050613519600083018561230a565b6135266020830184612704565b9392505050565b6000819050919050565b613548613543826122a7565b61352d565b82525050565b600061355a8285613537565b60208201915061356a8284613537565b6020820191508190509392505050565b6000613585826122a7565b9150613590836122a7565b9250826135a05761359f6133cc565b5b82820690509291505056fea26469706673582212206a9a276ce27fe3791ae5662066ef4122d51b728f7fa0ed3b8503216001e4ec4e64736f6c634300080e0033",
  "immutableReferences": {},
  "source": "// SPDX-License-Identifier: MIT\r\npragma solidity ^0.8.0;\r\n\r\n// 0x46025aFCEa9627943aa1aa009BA827eC95D201b6\r\n// https://cdn.pixabay.com/photo/2022/01/17/17/20/bored-6945309_1280.png\r\n\r\nimport \"@openzeppelin/contracts/token/ERC721/IERC721.sol\";\r\nimport \"@openzeppelin/contracts/utils/math/SafeMath.sol\";\r\nimport \"@openzeppelin/contracts/token/ERC721/IERC721Receiver.sol\";\r\n\r\ncontract mainNftRaffle is IERC721Receiver {\r\n    using SafeMath for uint256;\r\n\r\n    struct Raffle {\r\n        uint raffleId;\r\n        string raffleName;\r\n        uint256 nftPrice;\r\n        uint256 totalVolumeofTickets;\r\n        uint256 endTime;\r\n        uint256 nftId;\r\n        address nftContractAddress;\r\n        string nftSourceLink;\r\n        address charityAddress;\r\n        address raffleCreator;\r\n        uint256 rafflePool;\r\n        uint256 ticketPrice;\r\n        uint256 totalSoldTickets;\r\n        bool raffleCancelled;\r\n        bool raffleEnded;\r\n        uint256 fundsInContract;\r\n        uint256[] tickets;\r\n        uint winningTicket;\r\n        address raffleWinner;\r\n        address payable developmentTeam;\r\n    }\r\n\r\n    struct RaffleInfo {\r\n        uint raffleId;\r\n        string raffleName;\r\n        uint256 nftPrice;\r\n        uint256 totalVolumeofTickets;\r\n        uint256 endTime;\r\n        uint256 nftId;\r\n        address nftContractAddress;\r\n        string nftSourceLink;\r\n        address charityAddress;\r\n        address raffleCreator;\r\n        uint256 rafflePool;\r\n        uint256 ticketPrice;\r\n        uint256 totalSoldTickets;\r\n        uint winningTicket;\r\n        address raffleWinner;\r\n        bool raffleCancelled;\r\n        bool raffleEnded;\r\n    }\r\n\r\n    mapping(uint256 => Raffle) private raffles;\r\n    mapping(uint256 => mapping(uint256 => address)) public ticketToOwner;\r\n    uint256 private raffleCount = 0;\r\n\r\n    event WinnerSelected(\r\n        uint256 indexed raffleId,\r\n        uint256 winningTicketNumber,\r\n        address winningTicketOwner\r\n    );\r\n    event raffleEnded(uint256 indexed raffleId);\r\n\r\n    function createRaffle(\r\n        string memory _raffleName,\r\n        uint256 _nftPrice,\r\n        uint256 _totalVolumeofTickets,\r\n        uint256 _endTime,\r\n        uint256 _nftId,\r\n        address _nftContractAddress,\r\n        string memory _nftSourceLink,\r\n        address _charityAddress\r\n    ) public returns (uint256) {\r\n        require(\r\n            _nftContractAddress != address(0),\r\n            \"Invalid NFT contract address\"\r\n        );\r\n        require(_endTime > block.timestamp, \"End time must be in future\");\r\n        IERC721 nftContract = IERC721(_nftContractAddress);\r\n        require(\r\n            msg.sender == nftContract.ownerOf(_nftId),\r\n            \"Only NFT owner can create raffle\"\r\n        );\r\n\r\n        nftContract.safeTransferFrom(msg.sender, address(this), _nftId);\r\n        raffleCount++;\r\n\r\n        raffles[raffleCount] = Raffle({\r\n            raffleId: raffleCount,\r\n            raffleName: _raffleName,\r\n            nftPrice: _nftPrice,\r\n            totalVolumeofTickets: _totalVolumeofTickets,\r\n            endTime: _endTime,\r\n            nftId: _nftId,\r\n            nftContractAddress: _nftContractAddress,\r\n            nftSourceLink: _nftSourceLink,\r\n            raffleCreator: msg.sender,\r\n            rafflePool: (_nftPrice.mul(150)).div(100),\r\n            ticketPrice: 0,\r\n            charityAddress: _charityAddress,\r\n            totalSoldTickets: 0,\r\n            raffleCancelled: false,\r\n            raffleEnded: false,\r\n            fundsInContract: 0,\r\n            tickets: new uint256[](0),\r\n            winningTicket: 0,\r\n            raffleWinner: address(0),\r\n            developmentTeam: payable(\r\n                address(0xE46Cb9CA18520D3F0394F570C35259c188B33B98)\r\n            )\r\n        });\r\n\r\n        raffles[raffleCount].ticketPrice = raffles[raffleCount].rafflePool.div(\r\n            _totalVolumeofTickets\r\n        );\r\n\r\n        return raffleCount;\r\n    }\r\n\r\n    function getTicketPrice(uint256 _raffleId) public view returns (uint256) {\r\n        return raffles[_raffleId].ticketPrice;\r\n    }\r\n\r\n    function getTicketsOwned(\r\n        address _address,\r\n        uint256 raffleId\r\n    ) public view returns (uint256) {\r\n        uint256 totalTicketsOwned = 0;\r\n        for (uint256 i = 0; i < raffles[raffleId].tickets.length; i++) {\r\n            if (\r\n                ticketToOwner[raffleId][raffles[raffleId].tickets[i]] ==\r\n                _address\r\n            ) {\r\n                totalTicketsOwned = totalTicketsOwned.add(1);\r\n            }\r\n        }\r\n        return totalTicketsOwned;\r\n    }\r\n\r\n    function getOwnedRaffles(\r\n        address owner\r\n    ) public view returns (uint256 totalRaffles, uint256[] memory raffleIds) {\r\n        uint256[] memory ownedRaffleIds = new uint256[](raffleCount);\r\n        uint256 count = 0;\r\n        for (uint256 i = 0; i <= raffleCount; i++) {\r\n            if (raffles[i].raffleCreator == owner) {\r\n                ownedRaffleIds[count] = i;\r\n                count++;\r\n            }\r\n        }\r\n        uint256[] memory result = new uint256[](count);\r\n        for (uint256 j = 0; j < count; j++) {\r\n            result[j] = ownedRaffleIds[j];\r\n        }\r\n        return (count, result);\r\n    }\r\n\r\n    function getAvailableTickets(\r\n        uint256 _raffleID\r\n    ) public view returns (uint256) {\r\n        Raffle storage raffle = raffles[_raffleID];\r\n        require(raffle.raffleId != 0, \"Raffle not found\");\r\n\r\n        if (raffle.raffleEnded || raffle.raffleCancelled) {\r\n            return 0;\r\n        } else {\r\n            return raffle.totalVolumeofTickets - raffle.totalSoldTickets;\r\n        }\r\n    }\r\n\r\n    function buyTicket(\r\n        uint256 _raffleId,\r\n        uint256 _totalTicketsWanted\r\n    ) public payable {\r\n        Raffle storage raffle = raffles[_raffleId];\r\n\r\n        require(!raffle.raffleCancelled, \"Raffle is cancelled\");\r\n        require(!raffle.raffleEnded, \"Raffle is ended\");\r\n        require(_totalTicketsWanted > 0, \"Invalid number of tickets\");\r\n        require(\r\n            _totalTicketsWanted <=\r\n                raffle.totalVolumeofTickets - raffle.totalSoldTickets,\r\n            \"Not enough tickets available\"\r\n        );\r\n        uint256 totalTicketPrice = _totalTicketsWanted * raffle.ticketPrice;\r\n        require(msg.value >= totalTicketPrice, \"Incorrect payment amount\");\r\n\r\n        // Update ticket ownership\r\n        for (uint256 i = 0; i < _totalTicketsWanted; i++) {\r\n            uint256 ticket = raffle.totalSoldTickets + 1 + i;\r\n            raffle.tickets.push(ticket);\r\n            ticketToOwner[_raffleId][ticket] = msg.sender;\r\n        }\r\n\r\n        // Update raffle info\r\n        raffle.totalSoldTickets += _totalTicketsWanted;\r\n        raffle.fundsInContract += msg.value;\r\n    }\r\n\r\n    function getTotalTicketPrice(\r\n        uint _raffleId,\r\n        uint256 _totalTicketsWanted\r\n    ) public view returns (uint256) {\r\n        Raffle storage raffle = raffles[_raffleId];\r\n\r\n        uint256 totalTicketPrice = _totalTicketsWanted * raffle.ticketPrice;\r\n        return totalTicketPrice;\r\n    }\r\n\r\n    // This function picks a random ticket from totalSoldTickets for a raffleId.\r\n    function pickRandomTicket(uint256 raffleId) private view returns (uint256) {\r\n        uint256 randomNumber = uint256(\r\n            keccak256(abi.encodePacked(block.timestamp, block.difficulty))\r\n        ) % raffles[raffleId].totalSoldTickets;\r\n        return randomNumber;\r\n    }\r\n\r\n    function pickWinner(uint256 raffleId) public {\r\n        Raffle storage raffle = raffles[raffleId];\r\n\r\n        require(!raffle.raffleCancelled, \"Raffle has been cancelled\");\r\n        require(!raffle.raffleEnded, \"Raffle has already ended\");\r\n        require(\r\n            raffle.totalSoldTickets >= (raffle.totalVolumeofTickets * 80) / 100,\r\n            \"Raffle can't be completed yet\"\r\n        );\r\n\r\n        // Pick a random ticket as the winning ticket.\r\n        uint256 winningTicketNumber = pickRandomTicket(raffleId);\r\n        address winningTicketOwner = ticketToOwner[raffleId][\r\n            winningTicketNumber\r\n        ];\r\n        require(\r\n            winningTicketOwner != address(0),\r\n            \"Winner has not been selected yet\"\r\n        );\r\n\r\n        // Store the winning ticket information in the raffle struct\r\n        raffle.raffleWinner = winningTicketOwner;\r\n\r\n        // Emit an event to indicate that a winner has been selected.\r\n        emit WinnerSelected(raffleId, winningTicketNumber, winningTicketOwner);\r\n\r\n        // Send the prize pool to each entity\r\n        uint256 rafflePrizePool = raffles[raffleId].rafflePool;\r\n        uint256 raffleCreatorPrize = raffles[raffleId].nftPrice +\r\n            (rafflePrizePool.mul(5)).div(100);\r\n        uint256 developmentTeamPrize = (rafflePrizePool.mul(5)).div(100);\r\n        uint256 charityPrize = rafflePrizePool -\r\n            raffleCreatorPrize -\r\n            developmentTeamPrize;\r\n\r\n        // Transfer the prize amounts to each entity.\r\n        payable(raffle.raffleCreator).transfer(raffleCreatorPrize);\r\n        payable(raffle.developmentTeam).transfer(developmentTeamPrize);\r\n        payable(raffle.charityAddress).transfer(charityPrize);\r\n\r\n        // Call safeTransferFrom function on ERC721 token contract to transfer the NFT to the winner.\r\n        IERC721(raffle.nftContractAddress).safeTransferFrom(\r\n            address(this),\r\n            winningTicketOwner,\r\n            raffle.nftId\r\n        );\r\n\r\n        // Mark the raffle as ended\r\n        raffle.raffleEnded = true;\r\n\r\n        // Emit raffleEnded event\r\n        emit raffleEnded(raffleId);\r\n    }\r\n\r\n    function cancelRaffle(uint256 _raffleId) public {\r\n        Raffle storage raffle = raffles[_raffleId];\r\n        require(\r\n            msg.sender == raffle.raffleCreator,\r\n            \"Only raffle creator can cancel the lottery\"\r\n        );\r\n        require(!raffle.raffleEnded, \"Raffle has already ended\");\r\n\r\n        // Refund funds to ticket owners\r\n        for (uint256 i = 0; i < raffle.tickets.length; i++) {\r\n            uint256 ticket = raffle.tickets[i];\r\n            address ticketOwner = ticketToOwner[_raffleId][ticket];\r\n            if (ticketOwner != address(0)) {\r\n                payable(ticketOwner).transfer(raffle.ticketPrice);\r\n            }\r\n        }\r\n\r\n        // Transfer NFT back to raffle creator\r\n        IERC721(raffle.nftContractAddress).safeTransferFrom(\r\n            address(this),\r\n            raffle.raffleCreator,\r\n            raffle.nftId\r\n        );\r\n\r\n        // Update raffle status\r\n        raffle.raffleCancelled = true;\r\n        raffle.raffleEnded = true;\r\n    }\r\n\r\n    function getPrizePool(\r\n        uint256 _raffleId\r\n    ) public view returns (uint256, uint256, uint256, uint256) {\r\n        uint256 rafflePrizePool = raffles[_raffleId].rafflePool;\r\n        uint256 raffleCreatorPrize = raffles[_raffleId].nftPrice +\r\n            (rafflePrizePool.mul(5)).div(100);\r\n        uint256 developmentTeamPrize = (rafflePrizePool.mul(5)).div(100);\r\n        uint256 charityPrize = rafflePrizePool -\r\n            raffleCreatorPrize -\r\n            developmentTeamPrize;\r\n\r\n        return (\r\n            rafflePrizePool,\r\n            raffleCreatorPrize,\r\n            developmentTeamPrize,\r\n            charityPrize\r\n        );\r\n    }\r\n\r\n    function getRaffleWinner(\r\n        uint256 raffleId\r\n    ) public view returns (address winner, uint256 winningTicket) {\r\n        require(\r\n            !raffles[raffleId].raffleCancelled,\r\n            \"Raffle has been cancelled\"\r\n        );\r\n        require(!raffles[raffleId].raffleEnded, \"Raffle has already ended\");\r\n        require(\r\n            raffles[raffleId].winningTicket != 0,\r\n            \"Winner has not been picked yet\"\r\n        );\r\n\r\n        return (\r\n            raffles[raffleId].raffleWinner,\r\n            raffles[raffleId].winningTicket\r\n        );\r\n    }\r\n\r\n    function raffleInfo(\r\n        uint256 _raffleID\r\n    ) public view returns (RaffleInfo memory) {\r\n        Raffle storage raffle = raffles[_raffleID];\r\n\r\n        RaffleInfo memory raffleInfo = RaffleInfo({\r\n            raffleId: _raffleID,\r\n            raffleName: raffle.raffleName,\r\n            nftPrice: raffle.nftPrice,\r\n            totalVolumeofTickets: raffle.totalVolumeofTickets,\r\n            endTime: raffle.endTime,\r\n            nftId: raffle.nftId,\r\n            nftContractAddress: raffle.nftContractAddress,\r\n            nftSourceLink: raffle.nftSourceLink,\r\n            charityAddress: raffle.charityAddress,\r\n            raffleCreator: raffle.raffleCreator,\r\n            rafflePool: raffle.rafflePool,\r\n            ticketPrice: raffle.ticketPrice,\r\n            totalSoldTickets: raffle.totalSoldTickets,\r\n            winningTicket: raffle.winningTicket,\r\n            raffleWinner: raffle.raffleWinner,\r\n            raffleCancelled: raffle.raffleCancelled,\r\n            raffleEnded: raffle.raffleEnded\r\n        });\r\n\r\n        return raffleInfo;\r\n    }\r\n\r\n    function onERC721Received(\r\n        address operator,\r\n        address from,\r\n        uint256 tokenId,\r\n        bytes calldata data\r\n    ) external returns (bytes4) {\r\n        return this.onERC721Received.selector;\r\n    }\r\n\r\n    function getEntityAddresses(\r\n        uint256 _raffleId\r\n    ) public view returns (address, address, address) {\r\n        return (\r\n            raffles[_raffleId].raffleCreator,\r\n            raffles[_raffleId].developmentTeam,\r\n            raffles[_raffleId].charityAddress\r\n        );\r\n    }\r\n\r\n    function getTotalRaffles() public view returns (uint256) {\r\n        return raffleCount;\r\n    }\r\n\r\n    function getContractBalance() public view returns (uint256) {\r\n        return address(this).balance;\r\n    }\r\n}\r\n",
  "sourcePath": "C:\\Users\\user\\Desktop\\GIT_REPOS\\originx-dapp\\backend\\contracts\\mainNftRaffle.sol",
  "compiler": {
    "name": "solc",
    "version": "0.8.14+commit.80d49f37.Emscripten.clang"
  },
  "schemaVersion": "3.4.13",
  "updatedAt": "2023-06-29T08:02:56.104Z",
  "devdoc": {
    "kind": "dev",
    "methods": {
      "onERC721Received(address,address,uint256,bytes)": {
        "details": "Whenever an {IERC721} `tokenId` token is transferred to this contract via {IERC721-safeTransferFrom} by `operator` from `from`, this function is called. It must return its Solidity selector to confirm the token transfer. If any other value is returned or the interface is not implemented by the recipient, the transfer will be reverted. The selector can be obtained in Solidity with `IERC721Receiver.onERC721Received.selector`."
      }
    },
    "version": 1
  },
  "userdoc": {
    "kind": "user",
    "methods": {},
    "version": 1
  }
}