{
  "contractName": "mainNftRaffle",
  "abi": [
    {
      "inputs": [],
      "stateMutability": "nonpayable",
      "type": "constructor"
    },
    {
      "inputs": [
        {
          "internalType": "address",
          "name": "have",
          "type": "address"
        },
        {
          "internalType": "address",
          "name": "want",
          "type": "address"
        }
      ],
      "name": "OnlyCoordinatorCanFulfill",
      "type": "error"
    },
    {
      "anonymous": false,
      "inputs": [
        {
          "indexed": true,
          "internalType": "address",
          "name": "from",
          "type": "address"
        },
        {
          "indexed": true,
          "internalType": "address",
          "name": "to",
          "type": "address"
        }
      ],
      "name": "OwnershipTransferRequested",
      "type": "event"
    },
    {
      "anonymous": false,
      "inputs": [
        {
          "indexed": true,
          "internalType": "address",
          "name": "from",
          "type": "address"
        },
        {
          "indexed": true,
          "internalType": "address",
          "name": "to",
          "type": "address"
        }
      ],
      "name": "OwnershipTransferred",
      "type": "event"
    },
    {
      "anonymous": false,
      "inputs": [
        {
          "indexed": false,
          "internalType": "uint256",
          "name": "requestId",
          "type": "uint256"
        },
        {
          "indexed": false,
          "internalType": "uint256[]",
          "name": "randomWords",
          "type": "uint256[]"
        }
      ],
      "name": "RequestFulfilled",
      "type": "event"
    },
    {
      "anonymous": false,
      "inputs": [
        {
          "indexed": false,
          "internalType": "uint256",
          "name": "requestId",
          "type": "uint256"
        },
        {
          "indexed": false,
          "internalType": "uint32",
          "name": "numWords",
          "type": "uint32"
        }
      ],
      "name": "RequestSent",
      "type": "event"
    },
    {
      "anonymous": false,
      "inputs": [
        {
          "indexed": true,
          "internalType": "uint256",
          "name": "raffleId",
          "type": "uint256"
        },
        {
          "indexed": false,
          "internalType": "uint256",
          "name": "winningTicketNumber",
          "type": "uint256"
        },
        {
          "indexed": false,
          "internalType": "address",
          "name": "winningTicketOwner",
          "type": "address"
        }
      ],
      "name": "WinnerSelected",
      "type": "event"
    },
    {
      "anonymous": false,
      "inputs": [
        {
          "indexed": true,
          "internalType": "uint256",
          "name": "raffleId",
          "type": "uint256"
        }
      ],
      "name": "raffleEnded",
      "type": "event"
    },
    {
      "inputs": [],
      "name": "acceptOwnership",
      "outputs": [],
      "stateMutability": "nonpayable",
      "type": "function"
    },
    {
      "inputs": [],
      "name": "lastRequestId",
      "outputs": [
        {
          "internalType": "uint256",
          "name": "",
          "type": "uint256"
        }
      ],
      "stateMutability": "view",
      "type": "function",
      "constant": true
    },
    {
      "inputs": [],
      "name": "owner",
      "outputs": [
        {
          "internalType": "address",
          "name": "",
          "type": "address"
        }
      ],
      "stateMutability": "view",
      "type": "function",
      "constant": true
    },
    {
      "inputs": [
        {
          "internalType": "uint256",
          "name": "",
          "type": "uint256"
        }
      ],
      "name": "raffleIdToRequestId",
      "outputs": [
        {
          "internalType": "uint256",
          "name": "",
          "type": "uint256"
        }
      ],
      "stateMutability": "view",
      "type": "function",
      "constant": true
    },
    {
      "inputs": [
        {
          "internalType": "uint256",
          "name": "requestId",
          "type": "uint256"
        },
        {
          "internalType": "uint256[]",
          "name": "randomWords",
          "type": "uint256[]"
        }
      ],
      "name": "rawFulfillRandomWords",
      "outputs": [],
      "stateMutability": "nonpayable",
      "type": "function"
    },
    {
      "inputs": [
        {
          "internalType": "uint256",
          "name": "",
          "type": "uint256"
        }
      ],
      "name": "requestIds",
      "outputs": [
        {
          "internalType": "uint256",
          "name": "",
          "type": "uint256"
        }
      ],
      "stateMutability": "view",
      "type": "function",
      "constant": true
    },
    {
      "inputs": [
        {
          "internalType": "uint256",
          "name": "",
          "type": "uint256"
        }
      ],
      "name": "s_requests",
      "outputs": [
        {
          "internalType": "bool",
          "name": "fulfilled",
          "type": "bool"
        },
        {
          "internalType": "bool",
          "name": "exists",
          "type": "bool"
        }
      ],
      "stateMutability": "view",
      "type": "function",
      "constant": true
    },
    {
      "inputs": [
        {
          "internalType": "uint256",
          "name": "",
          "type": "uint256"
        },
        {
          "internalType": "uint256",
          "name": "",
          "type": "uint256"
        }
      ],
      "name": "ticketToOwner",
      "outputs": [
        {
          "internalType": "address",
          "name": "",
          "type": "address"
        }
      ],
      "stateMutability": "view",
      "type": "function",
      "constant": true
    },
    {
      "inputs": [
        {
          "internalType": "address",
          "name": "to",
          "type": "address"
        }
      ],
      "name": "transferOwnership",
      "outputs": [],
      "stateMutability": "nonpayable",
      "type": "function"
    },
    {
      "inputs": [
        {
          "internalType": "uint256",
          "name": "_raffleId",
          "type": "uint256"
        }
      ],
      "name": "requestRandomTicket",
      "outputs": [
        {
          "internalType": "uint256",
          "name": "requestId",
          "type": "uint256"
        }
      ],
      "stateMutability": "nonpayable",
      "type": "function"
    },
    {
      "inputs": [
        {
          "internalType": "uint256",
          "name": "_requestId",
          "type": "uint256"
        }
      ],
      "name": "getRequestStatus",
      "outputs": [
        {
          "internalType": "bool",
          "name": "fulfilled",
          "type": "bool"
        },
        {
          "internalType": "uint256[]",
          "name": "randomWords",
          "type": "uint256[]"
        }
      ],
      "stateMutability": "view",
      "type": "function",
      "constant": true
    },
    {
      "inputs": [
        {
          "internalType": "string",
          "name": "_raffleName",
          "type": "string"
        },
        {
          "internalType": "string",
          "name": "_description",
          "type": "string"
        },
        {
          "internalType": "uint256",
          "name": "_nftPrice",
          "type": "uint256"
        },
        {
          "internalType": "uint256",
          "name": "_totalVolumeofTickets",
          "type": "uint256"
        },
        {
          "internalType": "uint256",
          "name": "_endTime",
          "type": "uint256"
        },
        {
          "internalType": "uint256",
          "name": "_nftId",
          "type": "uint256"
        },
        {
          "internalType": "address",
          "name": "_nftContractAddress",
          "type": "address"
        },
        {
          "internalType": "string[5]",
          "name": "_goals",
          "type": "string[5]"
        },
        {
          "internalType": "string",
          "name": "_nftSourceLink",
          "type": "string"
        },
        {
          "internalType": "address",
          "name": "_charityAddress",
          "type": "address"
        }
      ],
      "name": "createRaffle",
      "outputs": [
        {
          "internalType": "uint256",
          "name": "",
          "type": "uint256"
        }
      ],
      "stateMutability": "nonpayable",
      "type": "function"
    },
    {
      "inputs": [
        {
          "internalType": "uint256",
          "name": "_raffleId",
          "type": "uint256"
        }
      ],
      "name": "getTicketPrice",
      "outputs": [
        {
          "internalType": "uint256",
          "name": "",
          "type": "uint256"
        }
      ],
      "stateMutability": "view",
      "type": "function",
      "constant": true
    },
    {
      "inputs": [
        {
          "internalType": "address",
          "name": "_address",
          "type": "address"
        },
        {
          "internalType": "uint256",
          "name": "raffleId",
          "type": "uint256"
        }
      ],
      "name": "getTicketsOwned",
      "outputs": [
        {
          "internalType": "uint256",
          "name": "",
          "type": "uint256"
        }
      ],
      "stateMutability": "view",
      "type": "function",
      "constant": true
    },
    {
      "inputs": [
        {
          "internalType": "address",
          "name": "owner",
          "type": "address"
        }
      ],
      "name": "getOwnedRaffles",
      "outputs": [
        {
          "internalType": "uint256",
          "name": "totalRaffles",
          "type": "uint256"
        },
        {
          "internalType": "uint256[]",
          "name": "raffleIds",
          "type": "uint256[]"
        }
      ],
      "stateMutability": "view",
      "type": "function",
      "constant": true
    },
    {
      "inputs": [
        {
          "internalType": "uint256",
          "name": "_raffleID",
          "type": "uint256"
        }
      ],
      "name": "getAvailableTickets",
      "outputs": [
        {
          "internalType": "uint256",
          "name": "",
          "type": "uint256"
        }
      ],
      "stateMutability": "view",
      "type": "function",
      "constant": true
    },
    {
      "inputs": [
        {
          "internalType": "uint256",
          "name": "_raffleId",
          "type": "uint256"
        },
        {
          "internalType": "uint256",
          "name": "_totalTicketsWanted",
          "type": "uint256"
        }
      ],
      "name": "buyTicket",
      "outputs": [],
      "stateMutability": "payable",
      "type": "function",
      "payable": true
    },
    {
      "inputs": [
        {
          "internalType": "uint256",
          "name": "_raffleId",
          "type": "uint256"
        },
        {
          "internalType": "uint256",
          "name": "_totalTicketsWanted",
          "type": "uint256"
        }
      ],
      "name": "getTotalTicketPrice",
      "outputs": [
        {
          "internalType": "uint256",
          "name": "",
          "type": "uint256"
        }
      ],
      "stateMutability": "view",
      "type": "function",
      "constant": true
    },
    {
      "inputs": [
        {
          "internalType": "uint256",
          "name": "raffleId",
          "type": "uint256"
        },
        {
          "internalType": "uint256",
          "name": "requestId",
          "type": "uint256"
        }
      ],
      "name": "pickWinner",
      "outputs": [],
      "stateMutability": "nonpayable",
      "type": "function"
    },
    {
      "inputs": [
        {
          "internalType": "uint256",
          "name": "_raffleId",
          "type": "uint256"
        }
      ],
      "name": "cancelRaffle",
      "outputs": [],
      "stateMutability": "nonpayable",
      "type": "function"
    },
    {
      "inputs": [
        {
          "internalType": "uint256",
          "name": "_raffleId",
          "type": "uint256"
        }
      ],
      "name": "getPrizePool",
      "outputs": [
        {
          "internalType": "uint256",
          "name": "",
          "type": "uint256"
        },
        {
          "internalType": "uint256",
          "name": "",
          "type": "uint256"
        },
        {
          "internalType": "uint256",
          "name": "",
          "type": "uint256"
        },
        {
          "internalType": "uint256",
          "name": "",
          "type": "uint256"
        }
      ],
      "stateMutability": "view",
      "type": "function",
      "constant": true
    },
    {
      "inputs": [
        {
          "internalType": "uint256",
          "name": "raffleId",
          "type": "uint256"
        }
      ],
      "name": "getRaffleWinner",
      "outputs": [
        {
          "internalType": "address",
          "name": "winner",
          "type": "address"
        },
        {
          "internalType": "uint256",
          "name": "winningTicket",
          "type": "uint256"
        }
      ],
      "stateMutability": "view",
      "type": "function",
      "constant": true
    },
    {
      "inputs": [
        {
          "internalType": "uint256",
          "name": "_raffleID",
          "type": "uint256"
        }
      ],
      "name": "raffleInfo",
      "outputs": [
        {
          "components": [
            {
              "internalType": "uint256",
              "name": "raffleId",
              "type": "uint256"
            },
            {
              "internalType": "string",
              "name": "raffleName",
              "type": "string"
            },
            {
              "internalType": "string",
              "name": "description",
              "type": "string"
            },
            {
              "internalType": "string[5]",
              "name": "goals",
              "type": "string[5]"
            },
            {
              "internalType": "uint256",
              "name": "nftPrice",
              "type": "uint256"
            },
            {
              "internalType": "uint256",
              "name": "totalVolumeofTickets",
              "type": "uint256"
            },
            {
              "internalType": "uint256",
              "name": "endTime",
              "type": "uint256"
            },
            {
              "internalType": "uint256",
              "name": "nftId",
              "type": "uint256"
            },
            {
              "internalType": "address",
              "name": "nftContractAddress",
              "type": "address"
            },
            {
              "internalType": "string",
              "name": "nftSourceLink",
              "type": "string"
            },
            {
              "internalType": "address",
              "name": "charityAddress",
              "type": "address"
            },
            {
              "internalType": "address",
              "name": "raffleCreator",
              "type": "address"
            },
            {
              "internalType": "uint256",
              "name": "rafflePool",
              "type": "uint256"
            },
            {
              "internalType": "uint256",
              "name": "ticketPrice",
              "type": "uint256"
            },
            {
              "internalType": "uint256",
              "name": "totalSoldTickets",
              "type": "uint256"
            },
            {
              "internalType": "uint256",
              "name": "winningTicket",
              "type": "uint256"
            },
            {
              "internalType": "address",
              "name": "raffleWinner",
              "type": "address"
            },
            {
              "internalType": "bool",
              "name": "raffleCancelled",
              "type": "bool"
            },
            {
              "internalType": "bool",
              "name": "raffleEnded",
              "type": "bool"
            }
          ],
          "internalType": "struct mainNftRaffle.RaffleInfo",
          "name": "",
          "type": "tuple"
        }
      ],
      "stateMutability": "view",
      "type": "function",
      "constant": true
    },
    {
      "inputs": [
        {
          "internalType": "address",
          "name": "operator",
          "type": "address"
        },
        {
          "internalType": "address",
          "name": "from",
          "type": "address"
        },
        {
          "internalType": "uint256",
          "name": "tokenId",
          "type": "uint256"
        },
        {
          "internalType": "bytes",
          "name": "data",
          "type": "bytes"
        }
      ],
      "name": "onERC721Received",
      "outputs": [
        {
          "internalType": "bytes4",
          "name": "",
          "type": "bytes4"
        }
      ],
      "stateMutability": "nonpayable",
      "type": "function"
    },
    {
      "inputs": [
        {
          "internalType": "uint256",
          "name": "_raffleId",
          "type": "uint256"
        }
      ],
      "name": "getEntityAddresses",
      "outputs": [
        {
          "internalType": "address",
          "name": "",
          "type": "address"
        },
        {
          "internalType": "address",
          "name": "",
          "type": "address"
        },
        {
          "internalType": "address",
          "name": "",
          "type": "address"
        }
      ],
      "stateMutability": "view",
      "type": "function",
      "constant": true
    },
    {
      "inputs": [],
      "name": "getTotalRaffles",
      "outputs": [
        {
          "internalType": "uint256",
          "name": "",
          "type": "uint256"
        }
      ],
      "stateMutability": "view",
      "type": "function",
      "constant": true
    },
    {
      "inputs": [],
      "name": "getContractBalance",
      "outputs": [
        {
          "internalType": "uint256",
          "name": "",
          "type": "uint256"
        }
      ],
      "stateMutability": "view",
      "type": "function",
      "constant": true
    }
  ],
  "bytecode": "0x60a0604052611616600460146101000a81548167ffffffffffffffff021916908367ffffffffffffffff1602179055507f4b09e658ed251bcafeebbc69400383d49f344ace09b9576fe248bb02c003fe9f60001b600755620186a0600860006101000a81548163ffffffff021916908363ffffffff1602179055506003600860046101000a81548161ffff021916908361ffff1602179055506001600860066101000a81548163ffffffff021916908363ffffffff1602179055506000600b55348015620000cc57600080fd5b5033806000737a1bac17ccc5b313516c5e16fb24f7659aa5ebed8073ffffffffffffffffffffffffffffffffffffffff1660808173ffffffffffffffffffffffffffffffffffffffff168152505050600073ffffffffffffffffffffffffffffffffffffffff168273ffffffffffffffffffffffffffffffffffffffff16036200018d576040517f08c379a0000000000000000000000000000000000000000000000000000000008152600401620001849062000410565b60405180910390fd5b816000806101000a81548173ffffffffffffffffffffffffffffffffffffffff021916908373ffffffffffffffffffffffffffffffffffffffff160217905550600073ffffffffffffffffffffffffffffffffffffffff168173ffffffffffffffffffffffffffffffffffffffff1614620002145762000213816200028060201b60201c565b5b505050737a1bac17ccc5b313516c5e16fb24f7659aa5ebed600460006101000a81548173ffffffffffffffffffffffffffffffffffffffff021916908373ffffffffffffffffffffffffffffffffffffffff160217905550600460149054906101000a905050620004a4565b3373ffffffffffffffffffffffffffffffffffffffff168173ffffffffffffffffffffffffffffffffffffffff1603620002f1576040517f08c379a0000000000000000000000000000000000000000000000000000000008152600401620002e89062000482565b60405180910390fd5b80600160006101000a81548173ffffffffffffffffffffffffffffffffffffffff021916908373ffffffffffffffffffffffffffffffffffffffff1602179055508073ffffffffffffffffffffffffffffffffffffffff1660008054906101000a900473ffffffffffffffffffffffffffffffffffffffff1673ffffffffffffffffffffffffffffffffffffffff167fed8889f560326eb138920d842192f0eb3dd22b4f139c87a2c57538e05bae127860405160405180910390a350565b600082825260208201905092915050565b7f43616e6e6f7420736574206f776e657220746f207a65726f0000000000000000600082015250565b6000620003f8601883620003af565b91506200040582620003c0565b602082019050919050565b600060208201905081810360008301526200042b81620003e9565b9050919050565b7f43616e6e6f74207472616e7366657220746f2073656c66000000000000000000600082015250565b60006200046a601783620003af565b9150620004778262000432565b602082019050919050565b600060208201905081810360008301526200049d816200045b565b9050919050565b608051614e94620004c76000396000818161081101526108650152614e946000f3fe60806040526004361061019c5760003560e01c80638796ba8c116100ec578063d63fed511161008a578063f06fc96111610064578063f06fc9611461066c578063f2fde38b146106a9578063f9ea2382146106d2578063fc2a88c31461070f5761019c565b8063d63fed51146105c8578063d8a4676f146105f1578063e47982141461062f5761019c565b8063a168fa89116100c6578063a168fa89146104d2578063a4e74daf14610510578063bb39cb5c1461054e578063bf30d7901461058b5761019c565b80638796ba8c1461042d5780638a56e3b91461046a5780638da5cb5b146104a75761019c565b806338a2efbe1161015957806362617c9a1161013357806362617c9a1461036d5780636f9fb98a146103ab5780637822be4a146103d657806379ba5097146104165761019c565b806338a2efbe146102ca5780634c8871fa146103075780635fba3171146103445761019c565b80630cc7b2a9146101a15780630ded5c36146101de578063150b7a02146102095780631fe543e3146102465780632973c9b11461026f578063298ec208146102ae575b600080fd5b3480156101ad57600080fd5b506101c860048036038101906101c39190613379565b61073a565b6040516101d591906133b5565b60405180910390f35b3480156101ea57600080fd5b506101f36107f0565b60405161020091906133b5565b60405180910390f35b34801561021557600080fd5b50610230600480360381019061022b9190613493565b6107fa565b60405161023d9190613556565b60405180910390f35b34801561025257600080fd5b5061026d600480360381019061026891906136c0565b61080f565b005b34801561027b57600080fd5b5061029660048036038101906102919190613379565b6108cf565b6040516102a59392919061372b565b60405180910390f35b6102c860048036038101906102c39190613762565b610986565b005b3480156102d657600080fd5b506102f160048036038101906102ec91906137a2565b610c3b565b6040516102fe91906133b5565b60405180910390f35b34801561031357600080fd5b5061032e60048036038101906103299190613966565b610d44565b60405161033b91906133b5565b60405180910390f35b34801561035057600080fd5b5061036b60048036038101906103669190613379565b611409565b005b34801561037957600080fd5b50610394600480360381019061038f9190613379565b611713565b6040516103a2929190613ab5565b60405180910390f35b3480156103b757600080fd5b506103c061188e565b6040516103cd91906133b5565b60405180910390f35b3480156103e257600080fd5b506103fd60048036038101906103f89190613379565b611896565b60405161040d9493929190613ade565b60405180910390f35b34801561042257600080fd5b5061042b611960565b005b34801561043957600080fd5b50610454600480360381019061044f9190613379565b611af5565b60405161046191906133b5565b60405180910390f35b34801561047657600080fd5b50610491600480360381019061048c9190613762565b611b19565b60405161049e9190613b23565b60405180910390f35b3480156104b357600080fd5b506104bc611b5b565b6040516104c99190613b23565b60405180910390f35b3480156104de57600080fd5b506104f960048036038101906104f49190613379565b611b84565b604051610507929190613b59565b60405180910390f35b34801561051c57600080fd5b5061053760048036038101906105329190613b82565b611bc2565b604051610545929190613c6d565b60405180910390f35b34801561055a57600080fd5b5061057560048036038101906105709190613379565b611d82565b60405161058291906133b5565b60405180910390f35b34801561059757600080fd5b506105b260048036038101906105ad9190613379565b6120d2565b6040516105bf9190613fa5565b60405180910390f35b3480156105d457600080fd5b506105ef60048036038101906105ea9190613762565b61250e565b005b3480156105fd57600080fd5b5061061860048036038101906106139190613379565b612ae1565b604051610626929190613fc7565b60405180910390f35b34801561063b57600080fd5b5061065660048036038101906106519190613379565b612c0c565b60405161066391906133b5565b60405180910390f35b34801561067857600080fd5b50610693600480360381019061068e9190613379565b612c24565b6040516106a091906133b5565b60405180910390f35b3480156106b557600080fd5b506106d060048036038101906106cb9190613b82565b612c44565b005b3480156106de57600080fd5b506106f960048036038101906106f49190613762565b612c58565b60405161070691906133b5565b60405180910390f35b34801561071b57600080fd5b50610724612c8f565b60405161073191906133b5565b60405180910390f35b6000806009600084815260200190815260200160002090506000816000015403610799576040517f08c379a000000000000000000000000000000000000000000000000000000000815260040161079090614054565b60405180910390fd5b8060130160019054906101000a900460ff16806107c457508060130160009054906101000a900460ff165b156107d35760009150506107eb565b806012015481600401546107e791906140a3565b9150505b919050565b6000600b54905090565b600063150b7a0260e01b905095945050505050565b7f000000000000000000000000000000000000000000000000000000000000000073ffffffffffffffffffffffffffffffffffffffff163373ffffffffffffffffffffffffffffffffffffffff16146108c157337f00000000000000000000000000000000000000000000000000000000000000006040517f1cf993f40000000000000000000000000000000000000000000000000000000081526004016108b89291906140d7565b60405180910390fd5b6108cb8282612c95565b5050565b600080600060096000858152602001908152602001600020600f0160009054906101000a900473ffffffffffffffffffffffffffffffffffffffff166009600086815260200190815260200160002060180160009054906101000a900473ffffffffffffffffffffffffffffffffffffffff1660096000878152602001908152602001600020600e0160009054906101000a900473ffffffffffffffffffffffffffffffffffffffff169250925092509193909250565b60006009600084815260200190815260200160002090508060130160009054906101000a900460ff16156109ef576040517f08c379a00000000000000000000000000000000000000000000000000000000081526004016109e69061414c565b60405180910390fd5b8060130160019054906101000a900460ff1615610a41576040517f08c379a0000000000000000000000000000000000000000000000000000000008152600401610a38906141b8565b60405180910390fd5b60008211610a84576040517f08c379a0000000000000000000000000000000000000000000000000000000008152600401610a7b90614224565b60405180910390fd5b80601201548160040154610a9891906140a3565b821115610ada576040517f08c379a0000000000000000000000000000000000000000000000000000000008152600401610ad190614290565b60405180910390fd5b6000816011015483610aec91906142b0565b905080341015610b31576040517f08c379a0000000000000000000000000000000000000000000000000000000008152600401610b2890614356565b60405180910390fd5b60005b83811015610bfe5760008160018560120154610b509190614376565b610b5a9190614376565b90508360150181908060018154018082558091505060019003906000526020600020016000909190919091505533600a6000888152602001908152602001600020600083815260200190815260200160002060006101000a81548173ffffffffffffffffffffffffffffffffffffffff021916908373ffffffffffffffffffffffffffffffffffffffff160217905550508080610bf6906143cc565b915050610b34565b5082826012016000828254610c139190614376565b9250508190555034826014016000828254610c2e9190614376565b9250508190555050505050565b6000806000905060005b6009600085815260200190815260200160002060150180549050811015610d39578473ffffffffffffffffffffffffffffffffffffffff16600a60008681526020019081526020016000206000600960008881526020019081526020016000206015018481548110610cba57610cb9614414565b5b9060005260206000200154815260200190815260200160002060009054906101000a900473ffffffffffffffffffffffffffffffffffffffff1673ffffffffffffffffffffffffffffffffffffffff1603610d2657610d23600183612d8f90919063ffffffff16565b91505b8080610d31906143cc565b915050610c45565b508091505092915050565b60008073ffffffffffffffffffffffffffffffffffffffff168573ffffffffffffffffffffffffffffffffffffffff1603610db4576040517f08c379a0000000000000000000000000000000000000000000000000000000008152600401610dab9061448f565b60405180910390fd5b428711610df6576040517f08c379a0000000000000000000000000000000000000000000000000000000008152600401610ded906144fb565b60405180910390fd5b60008590508073ffffffffffffffffffffffffffffffffffffffff16636352211e886040518263ffffffff1660e01b8152600401610e3491906133b5565b602060405180830381865afa158015610e51573d6000803e3d6000fd5b505050506040513d601f19601f82011682018060405250810190610e759190614530565b73ffffffffffffffffffffffffffffffffffffffff163373ffffffffffffffffffffffffffffffffffffffff1614610ee2576040517f08c379a0000000000000000000000000000000000000000000000000000000008152600401610ed9906145a9565b60405180910390fd5b8073ffffffffffffffffffffffffffffffffffffffff166342842e0e33308a6040518463ffffffff1660e01b8152600401610f1f939291906145c9565b600060405180830381600087803b158015610f3957600080fd5b505af1158015610f4d573d6000803e3d6000fd5b50505050600b6000815480929190610f64906143cc565b9190505550604051806102c00160405280600b5481526020018d81526020018c81526020018b81526020018a81526020018981526020018881526020018681526020018773ffffffffffffffffffffffffffffffffffffffff1681526020018581526020018473ffffffffffffffffffffffffffffffffffffffff1681526020013373ffffffffffffffffffffffffffffffffffffffff168152602001611028606461101a60968f612da590919063ffffffff16565b612dbb90919063ffffffff16565b8152602001600081526020016000815260200160001515815260200160001515815260200160008152602001600067ffffffffffffffff81111561106f5761106e613582565b5b60405190808252806020026020018201604052801561109d5781602001602082028036833780820191505090505b50815260200160008152602001600073ffffffffffffffffffffffffffffffffffffffff168152602001731eb43ebde750c57aacee85777e7c063218b0e1b473ffffffffffffffffffffffffffffffffffffffff1681525060096000600b54815260200190815260200160002060008201518160000155602082015181600101908051906020019061113092919061306d565b50604082015181600201908051906020019061114d92919061306d565b50606082015181600301556080820151816004015560a0820151816005015560c0820151816006015560e08201518160070190600561118d9291906130f3565b5061010082015181600c0160006101000a81548173ffffffffffffffffffffffffffffffffffffffff021916908373ffffffffffffffffffffffffffffffffffffffff16021790555061012082015181600d0190805190602001906111f392919061306d565b5061014082015181600e0160006101000a81548173ffffffffffffffffffffffffffffffffffffffff021916908373ffffffffffffffffffffffffffffffffffffffff16021790555061016082015181600f0160006101000a81548173ffffffffffffffffffffffffffffffffffffffff021916908373ffffffffffffffffffffffffffffffffffffffff16021790555061018082015181601001556101a082015181601101556101c082015181601201556101e08201518160130160006101000a81548160ff0219169083151502179055506102008201518160130160016101000a81548160ff021916908315150217905550610220820151816014015561024082015181601501908051906020019061130f929190613146565b5061026082015181601601556102808201518160170160006101000a81548173ffffffffffffffffffffffffffffffffffffffff021916908373ffffffffffffffffffffffffffffffffffffffff1602179055506102a08201518160180160006101000a81548173ffffffffffffffffffffffffffffffffffffffff021916908373ffffffffffffffffffffffffffffffffffffffff1602179055509050506113d98960096000600b54815260200190815260200160002060100154612dbb90919063ffffffff16565b60096000600b54815260200190815260200160002060110181905550600b549150509a9950505050505050505050565b600060096000838152602001908152602001600020905080600f0160009054906101000a900473ffffffffffffffffffffffffffffffffffffffff1673ffffffffffffffffffffffffffffffffffffffff163373ffffffffffffffffffffffffffffffffffffffff16146114b2576040517f08c379a00000000000000000000000000000000000000000000000000000000081526004016114a990614672565b60405180910390fd5b8060130160019054906101000a900460ff1615611504576040517f08c379a00000000000000000000000000000000000000000000000000000000081526004016114fb906146de565b60405180910390fd5b60005b816015018054905081101561161957600082601501828154811061152e5761152d614414565b5b906000526020600020015490506000600a6000868152602001908152602001600020600083815260200190815260200160002060009054906101000a900473ffffffffffffffffffffffffffffffffffffffff169050600073ffffffffffffffffffffffffffffffffffffffff168173ffffffffffffffffffffffffffffffffffffffff1614611604578073ffffffffffffffffffffffffffffffffffffffff166108fc85601101549081150290604051600060405180830381858888f19350505050158015611602573d6000803e3d6000fd5b505b50508080611611906143cc565b915050611507565b5080600c0160009054906101000a900473ffffffffffffffffffffffffffffffffffffffff1673ffffffffffffffffffffffffffffffffffffffff166342842e0e3083600f0160009054906101000a900473ffffffffffffffffffffffffffffffffffffffff1684600601546040518463ffffffff1660e01b81526004016116a3939291906145c9565b600060405180830381600087803b1580156116bd57600080fd5b505af11580156116d1573d6000803e3d6000fd5b5050505060018160130160006101000a81548160ff02191690831515021790555060018160130160016101000a81548160ff0219169083151502179055505050565b6000806009600084815260200190815260200160002060130160009054906101000a900460ff161561177a576040517f08c379a00000000000000000000000000000000000000000000000000000000081526004016117719061474a565b60405180910390fd5b6009600084815260200190815260200160002060130160019054906101000a900460ff16156117de576040517f08c379a00000000000000000000000000000000000000000000000000000000081526004016117d5906146de565b60405180910390fd5b6000600960008581526020019081526020016000206016015403611837576040517f08c379a000000000000000000000000000000000000000000000000000000000815260040161182e906147b6565b60405180910390fd5b6009600084815260200190815260200160002060170160009054906101000a900473ffffffffffffffffffffffffffffffffffffffff16600960008581526020019081526020016000206016015491509150915091565b600047905090565b60008060008060006009600087815260200190815260200160002060100154905060006118e060646118d2600585612da590919063ffffffff16565b612dbb90919063ffffffff16565b60096000898152602001908152602001600020600301546119019190614376565b9050600061192c606461191e600586612da590919063ffffffff16565b612dbb90919063ffffffff16565b9050600081838561193d91906140a3565b61194791906140a3565b9050838383839750975097509750505050509193509193565b600160009054906101000a900473ffffffffffffffffffffffffffffffffffffffff1673ffffffffffffffffffffffffffffffffffffffff163373ffffffffffffffffffffffffffffffffffffffff16146119f0576040517f08c379a00000000000000000000000000000000000000000000000000000000081526004016119e790614822565b60405180910390fd5b60008060009054906101000a900473ffffffffffffffffffffffffffffffffffffffff169050336000806101000a81548173ffffffffffffffffffffffffffffffffffffffff021916908373ffffffffffffffffffffffffffffffffffffffff1602179055506000600160006101000a81548173ffffffffffffffffffffffffffffffffffffffff021916908373ffffffffffffffffffffffffffffffffffffffff1602179055503373ffffffffffffffffffffffffffffffffffffffff168173ffffffffffffffffffffffffffffffffffffffff167f8be0079c531659141344cd1fd0a4f28419497f9722a3daafe3b4186f6b6457e060405160405180910390a350565b60058181548110611b0557600080fd5b906000526020600020016000915090505481565b600a6020528160005260406000206020528060005260406000206000915091509054906101000a900473ffffffffffffffffffffffffffffffffffffffff1681565b60008060009054906101000a900473ffffffffffffffffffffffffffffffffffffffff16905090565b60036020528060005260406000206000915090508060000160009054906101000a900460ff16908060000160019054906101000a900460ff16905082565b600060606000600b5467ffffffffffffffff811115611be457611be3613582565b5b604051908082528060200260200182016040528015611c125781602001602082028036833780820191505090505b5090506000805b600b548111611ccd578573ffffffffffffffffffffffffffffffffffffffff1660096000838152602001908152602001600020600f0160009054906101000a900473ffffffffffffffffffffffffffffffffffffffff1673ffffffffffffffffffffffffffffffffffffffff1603611cba5780838381518110611c9f57611c9e614414565b5b6020026020010181815250508180611cb6906143cc565b9250505b8080611cc5906143cc565b915050611c19565b5060008167ffffffffffffffff811115611cea57611ce9613582565b5b604051908082528060200260200182016040528015611d185781602001602082028036833780820191505090505b50905060005b82811015611d7357838181518110611d3957611d38614414565b5b6020026020010151828281518110611d5457611d53614414565b5b6020026020010181815250508080611d6b906143cc565b915050611d1e565b50818194509450505050915091565b6000806009600084815260200190815260200160002060120154905060008111611de1576040517f08c379a0000000000000000000000000000000000000000000000000000000008152600401611dd89061488e565b60405180910390fd5b606460506009600086815260200190815260200160002060040154611e0691906142b0565b611e1091906148dd565b60096000858152602001908152602001600020601201541015611e68576040517f08c379a0000000000000000000000000000000000000000000000000000000008152600401611e5f9061495a565b60405180910390fd5b600460009054906101000a900473ffffffffffffffffffffffffffffffffffffffff1673ffffffffffffffffffffffffffffffffffffffff16635d3b1d30600754600460149054906101000a900467ffffffffffffffff16600860049054906101000a900461ffff16600860009054906101000a900463ffffffff16600860069054906101000a900463ffffffff166040518663ffffffff1660e01b8152600401611f179594939291906149f2565b6020604051808303816000875af1158015611f36573d6000803e3d6000fd5b505050506040513d601f19601f82011682018060405250810190611f5a9190614a5a565b91506040518060600160405280600015158152602001600115158152602001600067ffffffffffffffff811115611f9457611f93613582565b5b604051908082528060200260200182016040528015611fc25781602001602082028036833780820191505090505b508152506003600084815260200190815260200160002060008201518160000160006101000a81548160ff02191690831515021790555060208201518160000160016101000a81548160ff0219169083151502179055506040820151816001019080519060200190612035929190613146565b509050508160026000858152602001908152602001600020819055506005829080600181540180825580915050600190039060005260206000200160009091909190915055816006819055507fcc58b13ad3eab50626c6a6300b1d139cd6ebb1688a7cced9461c2f7e762665ee82600860069054906101000a900463ffffffff166040516120c4929190614a87565b60405180910390a150919050565b6120da613193565b6000600960008481526020019081526020016000209050600060405180610260016040528085815260200183600101805461211490614adf565b80601f016020809104026020016040519081016040528092919081815260200182805461214090614adf565b801561218d5780601f106121625761010080835404028352916020019161218d565b820191906000526020600020905b81548152906001019060200180831161217057829003601f168201915b505050505081526020018360020180546121a690614adf565b80601f01602080910402602001604051908101604052809291908181526020018280546121d290614adf565b801561221f5780601f106121f45761010080835404028352916020019161221f565b820191906000526020600020905b81548152906001019060200180831161220257829003601f168201915b5050505050815260200183600701600580602002604051908101604052809291906000905b828210156122e757838201805461225a90614adf565b80601f016020809104026020016040519081016040528092919081815260200182805461228690614adf565b80156122d35780601f106122a8576101008083540402835291602001916122d3565b820191906000526020600020905b8154815290600101906020018083116122b657829003601f168201915b505050505081526020019060010190612244565b5050505081526020018360030154815260200183600401548152602001836005015481526020018360060154815260200183600c0160009054906101000a900473ffffffffffffffffffffffffffffffffffffffff1673ffffffffffffffffffffffffffffffffffffffff16815260200183600d01805461236790614adf565b80601f016020809104026020016040519081016040528092919081815260200182805461239390614adf565b80156123e05780601f106123b5576101008083540402835291602001916123e0565b820191906000526020600020905b8154815290600101906020018083116123c357829003601f168201915b5050505050815260200183600e0160009054906101000a900473ffffffffffffffffffffffffffffffffffffffff1673ffffffffffffffffffffffffffffffffffffffff16815260200183600f0160009054906101000a900473ffffffffffffffffffffffffffffffffffffffff1673ffffffffffffffffffffffffffffffffffffffff168152602001836010015481526020018360110154815260200183601201548152602001836016015481526020018360170160009054906101000a900473ffffffffffffffffffffffffffffffffffffffff1673ffffffffffffffffffffffffffffffffffffffff1681526020018360130160009054906101000a900460ff16151581526020018360130160019054906101000a900460ff16151581525090508092505050919050565b60006009600084815260200190815260200160002090508060130160009054906101000a900460ff1615612577576040517f08c379a000000000000000000000000000000000000000000000000000000000815260040161256e9061474a565b60405180910390fd5b8060130160019054906101000a900460ff16156125c9576040517f08c379a00000000000000000000000000000000000000000000000000000000081526004016125c0906146de565b60405180910390fd5b6064605082600401546125dc91906142b0565b6125e691906148dd565b8160120154101561262c576040517f08c379a000000000000000000000000000000000000000000000000000000000815260040161262390614b5c565b60405180910390fd5b3373ffffffffffffffffffffffffffffffffffffffff1681600f0160009054906101000a900473ffffffffffffffffffffffffffffffffffffffff1673ffffffffffffffffffffffffffffffffffffffff16146126be576040517f08c379a00000000000000000000000000000000000000000000000000000000081526004016126b590614bc8565b60405180910390fd5b60006126ca8484612dd1565b905060008190506000600a6000878152602001908152602001600020600083815260200190815260200160002060009054906101000a900473ffffffffffffffffffffffffffffffffffffffff169050600073ffffffffffffffffffffffffffffffffffffffff168173ffffffffffffffffffffffffffffffffffffffff1603612789576040517f08c379a000000000000000000000000000000000000000000000000000000000815260040161278090614c34565b60405180910390fd5b808460170160006101000a81548173ffffffffffffffffffffffffffffffffffffffff021916908373ffffffffffffffffffffffffffffffffffffffff160217905550857f37a30a31c187f323329351db43159a5b3c2dde95e0f21f061360aa03aa5415b783836040516127fe929190614c54565b60405180910390a2600060096000888152602001908152602001600020601001549050600061284a606461283c600585612da590919063ffffffff16565b612dbb90919063ffffffff16565b600960008a81526020019081526020016000206003015461286b9190614376565b905060006128966064612888600586612da590919063ffffffff16565b612dbb90919063ffffffff16565b905060008183856128a791906140a3565b6128b191906140a3565b905087600f0160009054906101000a900473ffffffffffffffffffffffffffffffffffffffff1673ffffffffffffffffffffffffffffffffffffffff166108fc849081150290604051600060405180830381858888f1935050505015801561291d573d6000803e3d6000fd5b508760180160009054906101000a900473ffffffffffffffffffffffffffffffffffffffff1673ffffffffffffffffffffffffffffffffffffffff166108fc839081150290604051600060405180830381858888f19350505050158015612988573d6000803e3d6000fd5b5087600e0160009054906101000a900473ffffffffffffffffffffffffffffffffffffffff1673ffffffffffffffffffffffffffffffffffffffff166108fc829081150290604051600060405180830381858888f193505050501580156129f3573d6000803e3d6000fd5b5087600c0160009054906101000a900473ffffffffffffffffffffffffffffffffffffffff1673ffffffffffffffffffffffffffffffffffffffff166342842e0e30878b600601546040518463ffffffff1660e01b8152600401612a59939291906145c9565b600060405180830381600087803b158015612a7357600080fd5b505af1158015612a87573d6000803e3d6000fd5b5050505060018860130160016101000a81548160ff021916908315150217905550897f1de299c7214202a224cf78dcd7adac60eac743ba8a2cc84012e96c5a048edfd660405160405180910390a250505050505050505050565b600060606003600084815260200190815260200160002060000160019054906101000a900460ff16612b48576040517f08c379a0000000000000000000000000000000000000000000000000000000008152600401612b3f90614cc9565b60405180910390fd5b6000600360008581526020019081526020016000206040518060600160405290816000820160009054906101000a900460ff161515151581526020016000820160019054906101000a900460ff1615151515815260200160018201805480602002602001604051908101604052809291908181526020018280548015612bed57602002820191906000526020600020905b815481526020019060010190808311612bd9575b5050505050815250509050806000015181604001519250925050915091565b60026020528060005260406000206000915090505481565b600060096000838152602001908152602001600020601101549050919050565b612c4c612eb1565b612c5581612f41565b50565b6000806009600085815260200190815260200160002090506000816011015484612c8291906142b0565b9050809250505092915050565b60065481565b6003600083815260200190815260200160002060000160019054906101000a900460ff16612cf8576040517f08c379a0000000000000000000000000000000000000000000000000000000008152600401612cef90614cc9565b60405180910390fd5b60016003600084815260200190815260200160002060000160006101000a81548160ff02191690831515021790555080600360008481526020019081526020016000206001019080519060200190612d51929190613146565b507ffe2e2d779dba245964d4e3ef9b994be63856fd568bf7d3ca9e224755cb1bd54d8282604051612d83929190613c6d565b60405180910390a15050565b60008183612d9d9190614376565b905092915050565b60008183612db391906142b0565b905092915050565b60008183612dc991906148dd565b905092915050565b60006003600083815260200190815260200160002060000160009054906101000a900460ff16612e36576040517f08c379a0000000000000000000000000000000000000000000000000000000008152600401612e2d90614d35565b60405180910390fd5b600060036000848152602001908152602001600020600101600081548110612e6157612e60614414565b5b906000526020600020015490506000600960008681526020019081526020016000206012015482612e929190614d55565b90506000600182612ea39190614376565b905080935050505092915050565b60008054906101000a900473ffffffffffffffffffffffffffffffffffffffff1673ffffffffffffffffffffffffffffffffffffffff163373ffffffffffffffffffffffffffffffffffffffff1614612f3f576040517f08c379a0000000000000000000000000000000000000000000000000000000008152600401612f3690614dd2565b60405180910390fd5b565b3373ffffffffffffffffffffffffffffffffffffffff168173ffffffffffffffffffffffffffffffffffffffff1603612faf576040517f08c379a0000000000000000000000000000000000000000000000000000000008152600401612fa690614e3e565b60405180910390fd5b80600160006101000a81548173ffffffffffffffffffffffffffffffffffffffff021916908373ffffffffffffffffffffffffffffffffffffffff1602179055508073ffffffffffffffffffffffffffffffffffffffff1660008054906101000a900473ffffffffffffffffffffffffffffffffffffffff1673ffffffffffffffffffffffffffffffffffffffff167fed8889f560326eb138920d842192f0eb3dd22b4f139c87a2c57538e05bae127860405160405180910390a350565b82805461307990614adf565b90600052602060002090601f01602090048101928261309b57600085556130e2565b82601f106130b457805160ff19168380011785556130e2565b828001600101855582156130e2579182015b828111156130e15782518255916020019190600101906130c6565b5b5090506130ef9190613287565b5090565b8260058101928215613135579160200282015b8281111561313457825182908051906020019061312492919061306d565b5091602001919060010190613106565b5b50905061314291906132a4565b5090565b828054828255906000526020600020908101928215613182579160200282015b82811115613181578251825591602001919060010190613166565b5b50905061318f9190613287565b5090565b6040518061026001604052806000815260200160608152602001606081526020016131bc6132c8565b815260200160008152602001600081526020016000815260200160008152602001600073ffffffffffffffffffffffffffffffffffffffff16815260200160608152602001600073ffffffffffffffffffffffffffffffffffffffff168152602001600073ffffffffffffffffffffffffffffffffffffffff16815260200160008152602001600081526020016000815260200160008152602001600073ffffffffffffffffffffffffffffffffffffffff1681526020016000151581526020016000151581525090565b5b808211156132a0576000816000905550600101613288565b5090565b5b808211156132c457600081816132bb91906132ef565b506001016132a5565b5090565b6040518060a001604052806005905b60608152602001906001900390816132d75790505090565b5080546132fb90614adf565b6000825580601f1061330d575061332c565b601f01602090049060005260206000209081019061332b9190613287565b5b50565b6000604051905090565b600080fd5b600080fd5b6000819050919050565b61335681613343565b811461336157600080fd5b50565b6000813590506133738161334d565b92915050565b60006020828403121561338f5761338e613339565b5b600061339d84828501613364565b91505092915050565b6133af81613343565b82525050565b60006020820190506133ca60008301846133a6565b92915050565b600073ffffffffffffffffffffffffffffffffffffffff82169050919050565b60006133fb826133d0565b9050919050565b61340b816133f0565b811461341657600080fd5b50565b60008135905061342881613402565b92915050565b600080fd5b600080fd5b600080fd5b60008083601f8401126134535761345261342e565b5b8235905067ffffffffffffffff8111156134705761346f613433565b5b60208301915083600182028301111561348c5761348b613438565b5b9250929050565b6000806000806000608086880312156134af576134ae613339565b5b60006134bd88828901613419565b95505060206134ce88828901613419565b94505060406134df88828901613364565b935050606086013567ffffffffffffffff811115613500576134ff61333e565b5b61350c8882890161343d565b92509250509295509295909350565b60007fffffffff0000000000000000000000000000000000000000000000000000000082169050919050565b6135508161351b565b82525050565b600060208201905061356b6000830184613547565b92915050565b6000601f19601f8301169050919050565b7f4e487b7100000000000000000000000000000000000000000000000000000000600052604160045260246000fd5b6135ba82613571565b810181811067ffffffffffffffff821117156135d9576135d8613582565b5b80604052505050565b60006135ec61332f565b90506135f882826135b1565b919050565b600067ffffffffffffffff82111561361857613617613582565b5b602082029050602081019050919050565b600061363c613637846135fd565b6135e2565b9050808382526020820190506020840283018581111561365f5761365e613438565b5b835b8181101561368857806136748882613364565b845260208401935050602081019050613661565b5050509392505050565b600082601f8301126136a7576136a661342e565b5b81356136b7848260208601613629565b91505092915050565b600080604083850312156136d7576136d6613339565b5b60006136e585828601613364565b925050602083013567ffffffffffffffff8111156137065761370561333e565b5b61371285828601613692565b9150509250929050565b613725816133f0565b82525050565b6000606082019050613740600083018661371c565b61374d602083018561371c565b61375a604083018461371c565b949350505050565b6000806040838503121561377957613778613339565b5b600061378785828601613364565b925050602061379885828601613364565b9150509250929050565b600080604083850312156137b9576137b8613339565b5b60006137c785828601613419565b92505060206137d885828601613364565b9150509250929050565b600080fd5b600067ffffffffffffffff82111561380257613801613582565b5b61380b82613571565b9050602081019050919050565b82818337600083830152505050565b600061383a613835846137e7565b6135e2565b905082815260208101848484011115613856576138556137e2565b5b613861848285613818565b509392505050565b600082601f83011261387e5761387d61342e565b5b813561388e848260208601613827565b91505092915050565b600067ffffffffffffffff8211156138b2576138b1613582565b5b602082029050919050565b60006138d06138cb84613897565b6135e2565b905080602084028301858111156138ea576138e9613438565b5b835b8181101561393157803567ffffffffffffffff81111561390f5761390e61342e565b5b80860161391c8982613869565b855260208501945050506020810190506138ec565b5050509392505050565b600082601f8301126139505761394f61342e565b5b600561395d8482856138bd565b91505092915050565b6000806000806000806000806000806101408b8d03121561398a57613989613339565b5b60008b013567ffffffffffffffff8111156139a8576139a761333e565b5b6139b48d828e01613869565b9a505060208b013567ffffffffffffffff8111156139d5576139d461333e565b5b6139e18d828e01613869565b99505060406139f28d828e01613364565b9850506060613a038d828e01613364565b9750506080613a148d828e01613364565b96505060a0613a258d828e01613364565b95505060c0613a368d828e01613419565b94505060e08b013567ffffffffffffffff811115613a5757613a5661333e565b5b613a638d828e0161393b565b9350506101008b013567ffffffffffffffff811115613a8557613a8461333e565b5b613a918d828e01613869565b925050610120613aa38d828e01613419565b9150509295989b9194979a5092959850565b6000604082019050613aca600083018561371c565b613ad760208301846133a6565b9392505050565b6000608082019050613af360008301876133a6565b613b0060208301866133a6565b613b0d60408301856133a6565b613b1a60608301846133a6565b95945050505050565b6000602082019050613b38600083018461371c565b92915050565b60008115159050919050565b613b5381613b3e565b82525050565b6000604082019050613b6e6000830185613b4a565b613b7b6020830184613b4a565b9392505050565b600060208284031215613b9857613b97613339565b5b6000613ba684828501613419565b91505092915050565b600081519050919050565b600082825260208201905092915050565b6000819050602082019050919050565b613be481613343565b82525050565b6000613bf68383613bdb565b60208301905092915050565b6000602082019050919050565b6000613c1a82613baf565b613c248185613bba565b9350613c2f83613bcb565b8060005b83811015613c60578151613c478882613bea565b9750613c5283613c02565b925050600181019050613c33565b5085935050505092915050565b6000604082019050613c8260008301856133a6565b8181036020830152613c948184613c0f565b90509392505050565b600081519050919050565b600082825260208201905092915050565b60005b83811015613cd7578082015181840152602081019050613cbc565b83811115613ce6576000848401525b50505050565b6000613cf782613c9d565b613d018185613ca8565b9350613d11818560208601613cb9565b613d1a81613571565b840191505092915050565b600060059050919050565b600081905092915050565b6000819050919050565b6000613d518383613cec565b905092915050565b6000602082019050919050565b6000613d7182613d25565b613d7b8185613d30565b935083602082028501613d8d85613d3b565b8060005b85811015613dc95784840389528151613daa8582613d45565b9450613db583613d59565b925060208a01995050600181019050613d91565b50829750879550505050505092915050565b613de4816133f0565b82525050565b613df381613b3e565b82525050565b600061026083016000830151613e126000860182613bdb565b5060208301518482036020860152613e2a8282613cec565b91505060408301518482036040860152613e448282613cec565b91505060608301518482036060860152613e5e8282613d66565b9150506080830151613e736080860182613bdb565b5060a0830151613e8660a0860182613bdb565b5060c0830151613e9960c0860182613bdb565b5060e0830151613eac60e0860182613bdb565b50610100830151613ec1610100860182613ddb565b50610120830151848203610120860152613edb8282613cec565b915050610140830151613ef2610140860182613ddb565b50610160830151613f07610160860182613ddb565b50610180830151613f1c610180860182613bdb565b506101a0830151613f316101a0860182613bdb565b506101c0830151613f466101c0860182613bdb565b506101e0830151613f5b6101e0860182613bdb565b50610200830151613f70610200860182613ddb565b50610220830151613f85610220860182613dea565b50610240830151613f9a610240860182613dea565b508091505092915050565b60006020820190508181036000830152613fbf8184613df9565b905092915050565b6000604082019050613fdc6000830185613b4a565b8181036020830152613fee8184613c0f565b90509392505050565b600082825260208201905092915050565b7f526166666c65206e6f7420666f756e6400000000000000000000000000000000600082015250565b600061403e601083613ff7565b915061404982614008565b602082019050919050565b6000602082019050818103600083015261406d81614031565b9050919050565b7f4e487b7100000000000000000000000000000000000000000000000000000000600052601160045260246000fd5b60006140ae82613343565b91506140b983613343565b9250828210156140cc576140cb614074565b5b828203905092915050565b60006040820190506140ec600083018561371c565b6140f9602083018461371c565b9392505050565b7f526166666c652069732063616e63656c6c656400000000000000000000000000600082015250565b6000614136601383613ff7565b915061414182614100565b602082019050919050565b6000602082019050818103600083015261416581614129565b9050919050565b7f526166666c6520697320656e6465640000000000000000000000000000000000600082015250565b60006141a2600f83613ff7565b91506141ad8261416c565b602082019050919050565b600060208201905081810360008301526141d181614195565b9050919050565b7f496e76616c6964206e756d626572206f66207469636b65747300000000000000600082015250565b600061420e601983613ff7565b9150614219826141d8565b602082019050919050565b6000602082019050818103600083015261423d81614201565b9050919050565b7f4e6f7420656e6f756768207469636b65747320617661696c61626c6500000000600082015250565b600061427a601c83613ff7565b915061428582614244565b602082019050919050565b600060208201905081810360008301526142a98161426d565b9050919050565b60006142bb82613343565b91506142c683613343565b9250817fffffffffffffffffffffffffffffffffffffffffffffffffffffffffffffffff04831182151516156142ff576142fe614074565b5b828202905092915050565b7f496e636f7272656374207061796d656e7420616d6f756e740000000000000000600082015250565b6000614340601883613ff7565b915061434b8261430a565b602082019050919050565b6000602082019050818103600083015261436f81614333565b9050919050565b600061438182613343565b915061438c83613343565b9250827fffffffffffffffffffffffffffffffffffffffffffffffffffffffffffffffff038211156143c1576143c0614074565b5b828201905092915050565b60006143d782613343565b91507fffffffffffffffffffffffffffffffffffffffffffffffffffffffffffffffff820361440957614408614074565b5b600182019050919050565b7f4e487b7100000000000000000000000000000000000000000000000000000000600052603260045260246000fd5b7f496e76616c6964204e465420636f6e7472616374206164647265737300000000600082015250565b6000614479601c83613ff7565b915061448482614443565b602082019050919050565b600060208201905081810360008301526144a88161446c565b9050919050565b7f456e642074696d65206d75737420626520696e20667574757265000000000000600082015250565b60006144e5601a83613ff7565b91506144f0826144af565b602082019050919050565b60006020820190508181036000830152614514816144d8565b9050919050565b60008151905061452a81613402565b92915050565b60006020828403121561454657614545613339565b5b60006145548482850161451b565b91505092915050565b7f4f6e6c79204e4654206f776e65722063616e2063726561746520726166666c65600082015250565b6000614593602083613ff7565b915061459e8261455d565b602082019050919050565b600060208201905081810360008301526145c281614586565b9050919050565b60006060820190506145de600083018661371c565b6145eb602083018561371c565b6145f860408301846133a6565b949350505050565b7f4f6e6c7920726166666c652063726561746f722063616e2063616e63656c207460008201527f6865206c6f747465727900000000000000000000000000000000000000000000602082015250565b600061465c602a83613ff7565b915061466782614600565b604082019050919050565b6000602082019050818103600083015261468b8161464f565b9050919050565b7f526166666c652068617320616c726561647920656e6465640000000000000000600082015250565b60006146c8601883613ff7565b91506146d382614692565b602082019050919050565b600060208201905081810360008301526146f7816146bb565b9050919050565b7f526166666c6520686173206265656e2063616e63656c6c656400000000000000600082015250565b6000614734601983613ff7565b915061473f826146fe565b602082019050919050565b6000602082019050818103600083015261476381614727565b9050919050565b7f57696e6e657220686173206e6f74206265656e207069636b6564207965740000600082015250565b60006147a0601e83613ff7565b91506147ab8261476a565b602082019050919050565b600060208201905081810360008301526147cf81614793565b9050919050565b7f4d7573742062652070726f706f736564206f776e657200000000000000000000600082015250565b600061480c601683613ff7565b9150614817826147d6565b602082019050919050565b6000602082019050818103600083015261483b816147ff565b9050919050565b7f4e6f207469636b65747320736f6c642079657400000000000000000000000000600082015250565b6000614878601383613ff7565b915061488382614842565b602082019050919050565b600060208201905081810360008301526148a78161486b565b9050919050565b7f4e487b7100000000000000000000000000000000000000000000000000000000600052601260045260246000fd5b60006148e882613343565b91506148f383613343565b925082614903576149026148ae565b5b828204905092915050565b7f4e6f7420656e6f756768207469636b657420736f6c6400000000000000000000600082015250565b6000614944601683613ff7565b915061494f8261490e565b602082019050919050565b6000602082019050818103600083015261497381614937565b9050919050565b6000819050919050565b61498d8161497a565b82525050565b600067ffffffffffffffff82169050919050565b6149b081614993565b82525050565b600061ffff82169050919050565b6149cd816149b6565b82525050565b600063ffffffff82169050919050565b6149ec816149d3565b82525050565b600060a082019050614a076000830188614984565b614a1460208301876149a7565b614a2160408301866149c4565b614a2e60608301856149e3565b614a3b60808301846149e3565b9695505050505050565b600081519050614a548161334d565b92915050565b600060208284031215614a7057614a6f613339565b5b6000614a7e84828501614a45565b91505092915050565b6000604082019050614a9c60008301856133a6565b614aa960208301846149e3565b9392505050565b7f4e487b7100000000000000000000000000000000000000000000000000000000600052602260045260246000fd5b60006002820490506001821680614af757607f821691505b602082108103614b0a57614b09614ab0565b5b50919050565b7f526166666c652063616e277420626520636f6d706c6574656420796574000000600082015250565b6000614b46601d83613ff7565b9150614b5182614b10565b602082019050919050565b60006020820190508181036000830152614b7581614b39565b9050919050565b7f796f7520617265206e6f742074686520726166666c65206f776e657200000000600082015250565b6000614bb2601c83613ff7565b9150614bbd82614b7c565b602082019050919050565b60006020820190508181036000830152614be181614ba5565b9050919050565b7f57696e6e657220686173206e6f74206265656e2073656c656374656420796574600082015250565b6000614c1e602083613ff7565b9150614c2982614be8565b602082019050919050565b60006020820190508181036000830152614c4d81614c11565b9050919050565b6000604082019050614c6960008301856133a6565b614c76602083018461371c565b9392505050565b7f72657175657374206e6f7420666f756e64000000000000000000000000000000600082015250565b6000614cb3601183613ff7565b9150614cbe82614c7d565b602082019050919050565b60006020820190508181036000830152614ce281614ca6565b9050919050565b7f52657175657374206e6f742066756c66696c6c65642079657400000000000000600082015250565b6000614d1f601983613ff7565b9150614d2a82614ce9565b602082019050919050565b60006020820190508181036000830152614d4e81614d12565b9050919050565b6000614d6082613343565b9150614d6b83613343565b925082614d7b57614d7a6148ae565b5b828206905092915050565b7f4f6e6c792063616c6c61626c65206279206f776e657200000000000000000000600082015250565b6000614dbc601683613ff7565b9150614dc782614d86565b602082019050919050565b60006020820190508181036000830152614deb81614daf565b9050919050565b7f43616e6e6f74207472616e7366657220746f2073656c66000000000000000000600082015250565b6000614e28601783613ff7565b9150614e3382614df2565b602082019050919050565b60006020820190508181036000830152614e5781614e1b565b905091905056fea264697066735822122084bc05e87d32dacdbdb3d3264a62562a1e83bc441b1e21368e9ca27851d51bb864736f6c634300080e0033",
  "immutableReferences": {
    "192": [
      {
        "length": 32,
        "start": 2065
      },
      {
        "length": 32,
        "start": 2149
      }
    ]
  },
  "source": "// SPDX-License-Identifier: MIT\r\npragma solidity ^0.8.0;\r\n\r\nimport \"@openzeppelin/contracts/token/ERC721/IERC721.sol\";\r\nimport \"@openzeppelin/contracts/utils/math/SafeMath.sol\";\r\nimport \"@openzeppelin/contracts/token/ERC721/IERC721Receiver.sol\";\r\nimport \"@chainlink/contracts/src/v0.8/interfaces/VRFCoordinatorV2Interface.sol\";\r\nimport \"@chainlink/contracts/src/v0.8/VRFConsumerBaseV2.sol\";\r\nimport \"@chainlink/contracts/src/v0.8/ConfirmedOwner.sol\";\r\n\r\ncontract mainNftRaffle is IERC721Receiver, VRFConsumerBaseV2, ConfirmedOwner {\r\n    using SafeMath for uint256;\r\n\r\n    mapping(uint256 => uint256) public raffleIdToRequestId;\r\n    event RequestSent(uint256 requestId, uint32 numWords);\r\n    event RequestFulfilled(uint256 requestId, uint256[] randomWords);\r\n\r\n    struct RequestStatus {\r\n        bool fulfilled; // whether the request has been successfully fulfilled\r\n        bool exists; // whether a requestId exists\r\n        uint256[] randomWords;\r\n    }\r\n    mapping(uint256 => RequestStatus)\r\n        public s_requests; /* requestId --> requestStatus */\r\n    VRFCoordinatorV2Interface COORDINATOR;\r\n\r\n    event WinnerSelected(\r\n        uint256 indexed raffleId,\r\n        uint256 winningTicketNumber,\r\n        address winningTicketOwner\r\n    );\r\n\r\n    // Your subscription ID.\r\n    uint64 s_subscriptionId = 5654;\r\n\r\n    // past requests Id.\r\n    uint256[] public requestIds;\r\n    uint256 public lastRequestId;\r\n\r\n    bytes32 keyHash =\r\n        0x4b09e658ed251bcafeebbc69400383d49f344ace09b9576fe248bb02c003fe9f;\r\n\r\n    uint32 callbackGasLimit = 100000;\r\n\r\n    // The default is 3, but you can set this higher.\r\n    uint16 requestConfirmations = 3;\r\n\r\n    // For this example, retrieve 2 random values in one request.\r\n    // Cannot exceed VRFCoordinatorV2.MAX_NUM_WORDS.\r\n    uint32 numWords = 1;\r\n\r\n    /**\r\n     * COORDINATOR: 0x7a1BaC17Ccc5b313516C5E16fb24f7659aA5ebed\r\n     */\r\n    constructor()\r\n        VRFConsumerBaseV2(0x7a1BaC17Ccc5b313516C5E16fb24f7659aA5ebed)\r\n        ConfirmedOwner(msg.sender)\r\n    {\r\n        COORDINATOR = VRFCoordinatorV2Interface(\r\n            0x7a1BaC17Ccc5b313516C5E16fb24f7659aA5ebed\r\n        );\r\n        s_subscriptionId;\r\n    }\r\n\r\n    struct Raffle {\r\n        uint raffleId;\r\n        string raffleName;\r\n        string description;\r\n        uint256 nftPrice;\r\n        uint256 totalVolumeofTickets;\r\n        uint256 endTime;\r\n        uint256 nftId;\r\n        string[5] goals;\r\n        address nftContractAddress;\r\n        string nftSourceLink;\r\n        address charityAddress;\r\n        address raffleCreator;\r\n        uint256 rafflePool;\r\n        uint256 ticketPrice;\r\n        uint256 totalSoldTickets;\r\n        bool raffleCancelled;\r\n        bool raffleEnded;\r\n        uint256 fundsInContract;\r\n        uint256[] tickets;\r\n        uint winningTicket;\r\n        address raffleWinner;\r\n        address payable developmentTeam;\r\n    }\r\n\r\n    struct RaffleInfo {\r\n        uint raffleId;\r\n        string raffleName;\r\n        string description;\r\n        string[5] goals;\r\n        uint256 nftPrice;\r\n        uint256 totalVolumeofTickets;\r\n        uint256 endTime;\r\n        uint256 nftId;\r\n        address nftContractAddress;\r\n        string nftSourceLink;\r\n        address charityAddress;\r\n        address raffleCreator;\r\n        uint256 rafflePool;\r\n        uint256 ticketPrice;\r\n        uint256 totalSoldTickets;\r\n        uint winningTicket;\r\n        address raffleWinner;\r\n        bool raffleCancelled;\r\n        bool raffleEnded;\r\n    }\r\n\r\n    mapping(uint256 => Raffle) private raffles;\r\n    mapping(uint256 => mapping(uint256 => address)) public ticketToOwner;\r\n    uint256 private raffleCount = 0;\r\n\r\n    event raffleEnded(uint256 indexed raffleId);\r\n\r\n    function requestRandomTicket(\r\n        uint256 _raffleId\r\n    ) public returns (uint256 requestId) {\r\n        uint256 totalTicketsSold = raffles[_raffleId].totalSoldTickets;\r\n        require(totalTicketsSold > 0, \"No tickets sold yet\");\r\n        require(\r\n            raffles[_raffleId].totalSoldTickets >=\r\n                (raffles[_raffleId].totalVolumeofTickets * 80) / 100,\r\n            \"Not enough ticket sold\"\r\n        );\r\n\r\n        requestId = COORDINATOR.requestRandomWords(\r\n            keyHash,\r\n            s_subscriptionId,\r\n            requestConfirmations,\r\n            callbackGasLimit,\r\n            numWords\r\n        );\r\n\r\n        // Create a new RequestStatus for this requestId and associate it with the raffleId\r\n        s_requests[requestId] = RequestStatus({\r\n            randomWords: new uint256[](0),\r\n            exists: true,\r\n            fulfilled: false\r\n        });\r\n\r\n        // Map the raffleId to the requestId\r\n        raffleIdToRequestId[_raffleId] = requestId;\r\n\r\n        requestIds.push(requestId);\r\n        lastRequestId = requestId;\r\n        emit RequestSent(requestId, numWords);\r\n        return requestId;\r\n    }\r\n\r\n    function fulfillRandomWords(\r\n        uint256 _requestId,\r\n        uint256[] memory _randomWords\r\n    ) internal override {\r\n        require(s_requests[_requestId].exists, \"request not found\");\r\n        s_requests[_requestId].fulfilled = true;\r\n        s_requests[_requestId].randomWords = _randomWords;\r\n        emit RequestFulfilled(_requestId, _randomWords);\r\n    }\r\n\r\n    function pickRandomTicket(\r\n        uint256 _raffleId,\r\n        uint256 requestId\r\n    ) private view returns (uint256) {\r\n        require(s_requests[requestId].fulfilled, \"Request not fulfilled yet\");\r\n        uint256 randomValue = s_requests[requestId].randomWords[0];\r\n        uint256 randomNumber = randomValue %\r\n            raffles[_raffleId].totalSoldTickets;\r\n        uint256 winningTicket = randomNumber + 1; // Adding 1 to convert 0-based index to 1-based ticket numbers\r\n        return winningTicket;\r\n    }\r\n\r\n    function getRequestStatus(\r\n        uint256 _requestId\r\n    ) external view returns (bool fulfilled, uint256[] memory randomWords) {\r\n        require(s_requests[_requestId].exists, \"request not found\");\r\n        RequestStatus memory request = s_requests[_requestId];\r\n        return (request.fulfilled, request.randomWords);\r\n    }\r\n\r\n    function createRaffle(\r\n        string memory _raffleName,\r\n        string memory _description,\r\n        uint256 _nftPrice,\r\n        uint256 _totalVolumeofTickets,\r\n        uint256 _endTime,\r\n        uint256 _nftId,\r\n        address _nftContractAddress,\r\n        string[5] memory _goals,\r\n        string memory _nftSourceLink,\r\n        address _charityAddress\r\n    ) public returns (uint256) {\r\n        require(\r\n            _nftContractAddress != address(0),\r\n            \"Invalid NFT contract address\"\r\n        );\r\n        require(_endTime > block.timestamp, \"End time must be in future\");\r\n        IERC721 nftContract = IERC721(_nftContractAddress);\r\n        require(\r\n            msg.sender == nftContract.ownerOf(_nftId),\r\n            \"Only NFT owner can create raffle\"\r\n        );\r\n\r\n        nftContract.safeTransferFrom(msg.sender, address(this), _nftId);\r\n        raffleCount++;\r\n\r\n        raffles[raffleCount] = Raffle({\r\n            raffleId: raffleCount,\r\n            raffleName: _raffleName,\r\n            description: _description,\r\n            goals: _goals,\r\n            nftPrice: _nftPrice,\r\n            totalVolumeofTickets: _totalVolumeofTickets,\r\n            endTime: _endTime,\r\n            nftId: _nftId,\r\n            nftContractAddress: _nftContractAddress,\r\n            nftSourceLink: _nftSourceLink,\r\n            raffleCreator: msg.sender,\r\n            rafflePool: (_nftPrice.mul(150)).div(100),\r\n            ticketPrice: 0,\r\n            charityAddress: _charityAddress,\r\n            totalSoldTickets: 0,\r\n            raffleCancelled: false,\r\n            raffleEnded: false,\r\n            fundsInContract: 0,\r\n            tickets: new uint256[](0),\r\n            winningTicket: 0,\r\n            raffleWinner: address(0),\r\n            developmentTeam: payable(\r\n                address(0x1Eb43EBde750C57AaCEE85777e7c063218B0e1B4)\r\n            )\r\n        });\r\n\r\n        raffles[raffleCount].ticketPrice = raffles[raffleCount].rafflePool.div(\r\n            _totalVolumeofTickets\r\n        );\r\n\r\n        return raffleCount;\r\n    }\r\n\r\n    function getTicketPrice(uint256 _raffleId) public view returns (uint256) {\r\n        return raffles[_raffleId].ticketPrice;\r\n    }\r\n\r\n    function getTicketsOwned(\r\n        address _address,\r\n        uint256 raffleId\r\n    ) public view returns (uint256) {\r\n        uint256 totalTicketsOwned = 0;\r\n        for (uint256 i = 0; i < raffles[raffleId].tickets.length; i++) {\r\n            if (\r\n                ticketToOwner[raffleId][raffles[raffleId].tickets[i]] ==\r\n                _address\r\n            ) {\r\n                totalTicketsOwned = totalTicketsOwned.add(1);\r\n            }\r\n        }\r\n        return totalTicketsOwned;\r\n    }\r\n\r\n    function getOwnedRaffles(\r\n        address owner\r\n    ) public view returns (uint256 totalRaffles, uint256[] memory raffleIds) {\r\n        uint256[] memory ownedRaffleIds = new uint256[](raffleCount);\r\n        uint256 count = 0;\r\n        for (uint256 i = 0; i <= raffleCount; i++) {\r\n            if (raffles[i].raffleCreator == owner) {\r\n                ownedRaffleIds[count] = i;\r\n                count++;\r\n            }\r\n        }\r\n        uint256[] memory result = new uint256[](count);\r\n        for (uint256 j = 0; j < count; j++) {\r\n            result[j] = ownedRaffleIds[j];\r\n        }\r\n        return (count, result);\r\n    }\r\n\r\n    function getAvailableTickets(\r\n        uint256 _raffleID\r\n    ) public view returns (uint256) {\r\n        Raffle storage raffle = raffles[_raffleID];\r\n        require(raffle.raffleId != 0, \"Raffle not found\");\r\n\r\n        if (raffle.raffleEnded || raffle.raffleCancelled) {\r\n            return 0;\r\n        } else {\r\n            return raffle.totalVolumeofTickets - raffle.totalSoldTickets;\r\n        }\r\n    }\r\n\r\n    function buyTicket(\r\n        uint256 _raffleId,\r\n        uint256 _totalTicketsWanted\r\n    ) public payable {\r\n        Raffle storage raffle = raffles[_raffleId];\r\n\r\n        require(!raffle.raffleCancelled, \"Raffle is cancelled\");\r\n        require(!raffle.raffleEnded, \"Raffle is ended\");\r\n        require(_totalTicketsWanted > 0, \"Invalid number of tickets\");\r\n        require(\r\n            _totalTicketsWanted <=\r\n                raffle.totalVolumeofTickets - raffle.totalSoldTickets,\r\n            \"Not enough tickets available\"\r\n        );\r\n        uint256 totalTicketPrice = _totalTicketsWanted * raffle.ticketPrice;\r\n        require(msg.value >= totalTicketPrice, \"Incorrect payment amount\");\r\n\r\n        // Update ticket ownership\r\n        for (uint256 i = 0; i < _totalTicketsWanted; i++) {\r\n            uint256 ticket = raffle.totalSoldTickets + 1 + i;\r\n            raffle.tickets.push(ticket);\r\n            ticketToOwner[_raffleId][ticket] = msg.sender;\r\n        }\r\n\r\n        // Update raffle info\r\n        raffle.totalSoldTickets += _totalTicketsWanted;\r\n        raffle.fundsInContract += msg.value;\r\n    }\r\n\r\n    function getTotalTicketPrice(\r\n        uint _raffleId,\r\n        uint256 _totalTicketsWanted\r\n    ) public view returns (uint256) {\r\n        Raffle storage raffle = raffles[_raffleId];\r\n\r\n        uint256 totalTicketPrice = _totalTicketsWanted * raffle.ticketPrice;\r\n        return totalTicketPrice;\r\n    }\r\n\r\n    function pickWinner(uint256 raffleId, uint256 requestId) public {\r\n        Raffle storage raffle = raffles[raffleId];\r\n\r\n        require(!raffle.raffleCancelled, \"Raffle has been cancelled\");\r\n        require(!raffle.raffleEnded, \"Raffle has already ended\");\r\n        require(\r\n            raffle.totalSoldTickets >= (raffle.totalVolumeofTickets * 80) / 100,\r\n            \"Raffle can't be completed yet\"\r\n        );\r\n        require(\r\n            raffle.raffleCreator == msg.sender,\r\n            \"you are not the raffle owner\"\r\n        );\r\n\r\n        uint256 winningTicket = pickRandomTicket(raffleId, requestId);\r\n\r\n        uint winningTicketNumber = winningTicket;\r\n        address winningTicketOwner = ticketToOwner[raffleId][\r\n            winningTicketNumber\r\n        ];\r\n        require(\r\n            winningTicketOwner != address(0),\r\n            \"Winner has not been selected yet\"\r\n        );\r\n\r\n        // Store the winning ticket information in the raffle struct\r\n        raffle.raffleWinner = winningTicketOwner;\r\n\r\n        // Emit an event to indicate that a winner has been selected.\r\n        emit WinnerSelected(raffleId, winningTicketNumber, winningTicketOwner);\r\n\r\n        // Send the prize pool to each entity\r\n        uint256 rafflePrizePool = raffles[raffleId].rafflePool;\r\n        uint256 raffleCreatorPrize = raffles[raffleId].nftPrice +\r\n            (rafflePrizePool.mul(5)).div(100);\r\n        uint256 developmentTeamPrize = (rafflePrizePool.mul(5)).div(100);\r\n        uint256 charityPrize = rafflePrizePool -\r\n            raffleCreatorPrize -\r\n            developmentTeamPrize;\r\n\r\n        // Transfer the prize amounts to each entity.\r\n        payable(raffle.raffleCreator).transfer(raffleCreatorPrize);\r\n        payable(raffle.developmentTeam).transfer(developmentTeamPrize);\r\n        payable(raffle.charityAddress).transfer(charityPrize);\r\n\r\n        // Call safeTransferFrom function on ERC721 token contract to transfer the NFT to the winner.\r\n        IERC721(raffle.nftContractAddress).safeTransferFrom(\r\n            address(this),\r\n            winningTicketOwner,\r\n            raffle.nftId\r\n        );\r\n\r\n        // Mark the raffle as ended\r\n        raffle.raffleEnded = true;\r\n\r\n        // Emit raffleEnded event\r\n        emit raffleEnded(raffleId);\r\n    }\r\n\r\n    function cancelRaffle(uint256 _raffleId) public {\r\n        Raffle storage raffle = raffles[_raffleId];\r\n        require(\r\n            msg.sender == raffle.raffleCreator,\r\n            \"Only raffle creator can cancel the lottery\"\r\n        );\r\n        require(!raffle.raffleEnded, \"Raffle has already ended\");\r\n\r\n        // Refund funds to ticket owners\r\n        for (uint256 i = 0; i < raffle.tickets.length; i++) {\r\n            uint256 ticket = raffle.tickets[i];\r\n            address ticketOwner = ticketToOwner[_raffleId][ticket];\r\n            if (ticketOwner != address(0)) {\r\n                payable(ticketOwner).transfer(raffle.ticketPrice);\r\n            }\r\n        }\r\n\r\n        // Transfer NFT back to raffle creator\r\n        IERC721(raffle.nftContractAddress).safeTransferFrom(\r\n            address(this),\r\n            raffle.raffleCreator,\r\n            raffle.nftId\r\n        );\r\n\r\n        // Update raffle status\r\n        raffle.raffleCancelled = true;\r\n        raffle.raffleEnded = true;\r\n    }\r\n\r\n    function getPrizePool(\r\n        uint256 _raffleId\r\n    ) public view returns (uint256, uint256, uint256, uint256) {\r\n        uint256 rafflePrizePool = raffles[_raffleId].rafflePool;\r\n        uint256 raffleCreatorPrize = raffles[_raffleId].nftPrice +\r\n            (rafflePrizePool.mul(5)).div(100);\r\n        uint256 developmentTeamPrize = (rafflePrizePool.mul(5)).div(100);\r\n        uint256 charityPrize = rafflePrizePool -\r\n            raffleCreatorPrize -\r\n            developmentTeamPrize;\r\n\r\n        return (\r\n            rafflePrizePool,\r\n            raffleCreatorPrize,\r\n            developmentTeamPrize,\r\n            charityPrize\r\n        );\r\n    }\r\n\r\n    function getRaffleWinner(\r\n        uint256 raffleId\r\n    ) public view returns (address winner, uint256 winningTicket) {\r\n        require(\r\n            !raffles[raffleId].raffleCancelled,\r\n            \"Raffle has been cancelled\"\r\n        );\r\n        require(!raffles[raffleId].raffleEnded, \"Raffle has already ended\");\r\n        require(\r\n            raffles[raffleId].winningTicket != 0,\r\n            \"Winner has not been picked yet\"\r\n        );\r\n\r\n        return (\r\n            raffles[raffleId].raffleWinner,\r\n            raffles[raffleId].winningTicket\r\n        );\r\n    }\r\n\r\n    function raffleInfo(\r\n        uint256 _raffleID\r\n    ) public view returns (RaffleInfo memory) {\r\n        Raffle storage raffle = raffles[_raffleID];\r\n\r\n        RaffleInfo memory raffleInfo = RaffleInfo({\r\n            raffleId: _raffleID,\r\n            raffleName: raffle.raffleName,\r\n            description: raffle.description,\r\n            goals: raffle.goals,\r\n            nftPrice: raffle.nftPrice,\r\n            totalVolumeofTickets: raffle.totalVolumeofTickets,\r\n            endTime: raffle.endTime,\r\n            nftId: raffle.nftId,\r\n            nftContractAddress: raffle.nftContractAddress,\r\n            nftSourceLink: raffle.nftSourceLink,\r\n            charityAddress: raffle.charityAddress,\r\n            raffleCreator: raffle.raffleCreator,\r\n            rafflePool: raffle.rafflePool,\r\n            ticketPrice: raffle.ticketPrice,\r\n            totalSoldTickets: raffle.totalSoldTickets,\r\n            winningTicket: raffle.winningTicket,\r\n            raffleWinner: raffle.raffleWinner,\r\n            raffleCancelled: raffle.raffleCancelled,\r\n            raffleEnded: raffle.raffleEnded\r\n        });\r\n\r\n        return raffleInfo;\r\n    }\r\n\r\n    function onERC721Received(\r\n        address operator,\r\n        address from,\r\n        uint256 tokenId,\r\n        bytes calldata data\r\n    ) external returns (bytes4) {\r\n        return this.onERC721Received.selector;\r\n    }\r\n\r\n    function getEntityAddresses(\r\n        uint256 _raffleId\r\n    ) public view returns (address, address, address) {\r\n        return (\r\n            raffles[_raffleId].raffleCreator,\r\n            raffles[_raffleId].developmentTeam,\r\n            raffles[_raffleId].charityAddress\r\n        );\r\n    }\r\n\r\n    function getTotalRaffles() public view returns (uint256) {\r\n        return raffleCount;\r\n    }\r\n\r\n    function getContractBalance() public view returns (uint256) {\r\n        return address(this).balance;\r\n    }\r\n}",
  "sourcePath": "C:\\Users\\user\\Desktop\\GIT_REPOS\\originx-dapp\\backend\\contracts\\mainNftRaffle.sol",
  "compiler": {
    "name": "solc",
    "version": "0.8.14+commit.80d49f37.Emscripten.clang"
  },
  "schemaVersion": "3.4.13",
  "updatedAt": "2023-08-14T08:24:38.787Z",
  "networkType": "ethereum",
  "devdoc": {
    "kind": "dev",
    "methods": {
      "onERC721Received(address,address,uint256,bytes)": {
        "details": "Whenever an {IERC721} `tokenId` token is transferred to this contract via {IERC721-safeTransferFrom} by `operator` from `from`, this function is called. It must return its Solidity selector to confirm the token transfer. If any other value is returned or the interface is not implemented by the recipient, the transfer will be reverted. The selector can be obtained in Solidity with `IERC721Receiver.onERC721Received.selector`."
      }
    },
    "version": 1
  },
  "userdoc": {
    "kind": "user",
    "methods": {
      "acceptOwnership()": {
        "notice": "Allows an ownership transfer to be completed by the recipient."
      },
      "constructor": {
        "notice": "COORDINATOR: 0x7a1BaC17Ccc5b313516C5E16fb24f7659aA5ebed"
      },
      "owner()": {
        "notice": "Get the current owner"
      },
      "transferOwnership(address)": {
        "notice": "Allows an owner to begin transferring ownership to a new address, pending."
      }
    },
    "version": 1
  }
}