{
  "contractName": "mainNftRaffle",
  "abi": [
    {
      "anonymous": false,
      "inputs": [
        {
          "indexed": true,
          "internalType": "uint256",
          "name": "raffleId",
          "type": "uint256"
        },
        {
          "indexed": false,
          "internalType": "uint256",
          "name": "winningTicketNumber",
          "type": "uint256"
        },
        {
          "indexed": false,
          "internalType": "address",
          "name": "winningTicketOwner",
          "type": "address"
        }
      ],
      "name": "WinnerSelected",
      "type": "event"
    },
    {
      "anonymous": false,
      "inputs": [
        {
          "indexed": true,
          "internalType": "uint256",
          "name": "raffleId",
          "type": "uint256"
        }
      ],
      "name": "raffleEnded",
      "type": "event"
    },
    {
      "inputs": [
        {
          "internalType": "uint256",
          "name": "",
          "type": "uint256"
        },
        {
          "internalType": "uint256",
          "name": "",
          "type": "uint256"
        }
      ],
      "name": "ticketToOwner",
      "outputs": [
        {
          "internalType": "address",
          "name": "",
          "type": "address"
        }
      ],
      "stateMutability": "view",
      "type": "function",
      "constant": true
    },
    {
      "inputs": [
        {
          "internalType": "string",
          "name": "_raffleName",
          "type": "string"
        },
        {
          "internalType": "string",
          "name": "_description",
          "type": "string"
        },
        {
          "internalType": "uint256",
          "name": "_nftPrice",
          "type": "uint256"
        },
        {
          "internalType": "uint256",
          "name": "_totalVolumeofTickets",
          "type": "uint256"
        },
        {
          "internalType": "uint256",
          "name": "_endTime",
          "type": "uint256"
        },
        {
          "internalType": "uint256",
          "name": "_nftId",
          "type": "uint256"
        },
        {
          "internalType": "address",
          "name": "_nftContractAddress",
          "type": "address"
        },
        {
          "internalType": "string[5]",
          "name": "_goals",
          "type": "string[5]"
        },
        {
          "internalType": "string",
          "name": "_nftSourceLink",
          "type": "string"
        },
        {
          "internalType": "address",
          "name": "_charityAddress",
          "type": "address"
        }
      ],
      "name": "createRaffle",
      "outputs": [
        {
          "internalType": "uint256",
          "name": "",
          "type": "uint256"
        }
      ],
      "stateMutability": "nonpayable",
      "type": "function"
    },
    {
      "inputs": [
        {
          "internalType": "uint256",
          "name": "_raffleId",
          "type": "uint256"
        }
      ],
      "name": "getTicketPrice",
      "outputs": [
        {
          "internalType": "uint256",
          "name": "",
          "type": "uint256"
        }
      ],
      "stateMutability": "view",
      "type": "function",
      "constant": true
    },
    {
      "inputs": [
        {
          "internalType": "address",
          "name": "_address",
          "type": "address"
        },
        {
          "internalType": "uint256",
          "name": "raffleId",
          "type": "uint256"
        }
      ],
      "name": "getTicketsOwned",
      "outputs": [
        {
          "internalType": "uint256",
          "name": "",
          "type": "uint256"
        }
      ],
      "stateMutability": "view",
      "type": "function",
      "constant": true
    },
    {
      "inputs": [
        {
          "internalType": "address",
          "name": "owner",
          "type": "address"
        }
      ],
      "name": "getOwnedRaffles",
      "outputs": [
        {
          "internalType": "uint256",
          "name": "totalRaffles",
          "type": "uint256"
        },
        {
          "internalType": "uint256[]",
          "name": "raffleIds",
          "type": "uint256[]"
        }
      ],
      "stateMutability": "view",
      "type": "function",
      "constant": true
    },
    {
      "inputs": [
        {
          "internalType": "uint256",
          "name": "_raffleID",
          "type": "uint256"
        }
      ],
      "name": "getAvailableTickets",
      "outputs": [
        {
          "internalType": "uint256",
          "name": "",
          "type": "uint256"
        }
      ],
      "stateMutability": "view",
      "type": "function",
      "constant": true
    },
    {
      "inputs": [
        {
          "internalType": "uint256",
          "name": "_raffleId",
          "type": "uint256"
        },
        {
          "internalType": "uint256",
          "name": "_totalTicketsWanted",
          "type": "uint256"
        }
      ],
      "name": "buyTicket",
      "outputs": [],
      "stateMutability": "payable",
      "type": "function",
      "payable": true
    },
    {
      "inputs": [
        {
          "internalType": "uint256",
          "name": "_raffleId",
          "type": "uint256"
        },
        {
          "internalType": "uint256",
          "name": "_totalTicketsWanted",
          "type": "uint256"
        }
      ],
      "name": "getTotalTicketPrice",
      "outputs": [
        {
          "internalType": "uint256",
          "name": "",
          "type": "uint256"
        }
      ],
      "stateMutability": "view",
      "type": "function",
      "constant": true
    },
    {
      "inputs": [
        {
          "internalType": "uint256",
          "name": "raffleId",
          "type": "uint256"
        }
      ],
      "name": "pickWinner",
      "outputs": [],
      "stateMutability": "nonpayable",
      "type": "function"
    },
    {
      "inputs": [
        {
          "internalType": "uint256",
          "name": "_raffleId",
          "type": "uint256"
        }
      ],
      "name": "cancelRaffle",
      "outputs": [],
      "stateMutability": "nonpayable",
      "type": "function"
    },
    {
      "inputs": [
        {
          "internalType": "uint256",
          "name": "_raffleId",
          "type": "uint256"
        }
      ],
      "name": "getPrizePool",
      "outputs": [
        {
          "internalType": "uint256",
          "name": "",
          "type": "uint256"
        },
        {
          "internalType": "uint256",
          "name": "",
          "type": "uint256"
        },
        {
          "internalType": "uint256",
          "name": "",
          "type": "uint256"
        },
        {
          "internalType": "uint256",
          "name": "",
          "type": "uint256"
        }
      ],
      "stateMutability": "view",
      "type": "function",
      "constant": true
    },
    {
      "inputs": [
        {
          "internalType": "uint256",
          "name": "raffleId",
          "type": "uint256"
        }
      ],
      "name": "getRaffleWinner",
      "outputs": [
        {
          "internalType": "address",
          "name": "winner",
          "type": "address"
        },
        {
          "internalType": "uint256",
          "name": "winningTicket",
          "type": "uint256"
        }
      ],
      "stateMutability": "view",
      "type": "function",
      "constant": true
    },
    {
      "inputs": [
        {
          "internalType": "uint256",
          "name": "_raffleID",
          "type": "uint256"
        }
      ],
      "name": "raffleInfo",
      "outputs": [
        {
          "components": [
            {
              "internalType": "uint256",
              "name": "raffleId",
              "type": "uint256"
            },
            {
              "internalType": "string",
              "name": "raffleName",
              "type": "string"
            },
            {
              "internalType": "string",
              "name": "description",
              "type": "string"
            },
            {
              "internalType": "string[5]",
              "name": "goals",
              "type": "string[5]"
            },
            {
              "internalType": "uint256",
              "name": "nftPrice",
              "type": "uint256"
            },
            {
              "internalType": "uint256",
              "name": "totalVolumeofTickets",
              "type": "uint256"
            },
            {
              "internalType": "uint256",
              "name": "endTime",
              "type": "uint256"
            },
            {
              "internalType": "uint256",
              "name": "nftId",
              "type": "uint256"
            },
            {
              "internalType": "address",
              "name": "nftContractAddress",
              "type": "address"
            },
            {
              "internalType": "string",
              "name": "nftSourceLink",
              "type": "string"
            },
            {
              "internalType": "address",
              "name": "charityAddress",
              "type": "address"
            },
            {
              "internalType": "address",
              "name": "raffleCreator",
              "type": "address"
            },
            {
              "internalType": "uint256",
              "name": "rafflePool",
              "type": "uint256"
            },
            {
              "internalType": "uint256",
              "name": "ticketPrice",
              "type": "uint256"
            },
            {
              "internalType": "uint256",
              "name": "totalSoldTickets",
              "type": "uint256"
            },
            {
              "internalType": "uint256",
              "name": "winningTicket",
              "type": "uint256"
            },
            {
              "internalType": "address",
              "name": "raffleWinner",
              "type": "address"
            },
            {
              "internalType": "bool",
              "name": "raffleCancelled",
              "type": "bool"
            },
            {
              "internalType": "bool",
              "name": "raffleEnded",
              "type": "bool"
            }
          ],
          "internalType": "struct mainNftRaffle.RaffleInfo",
          "name": "",
          "type": "tuple"
        }
      ],
      "stateMutability": "view",
      "type": "function",
      "constant": true
    },
    {
      "inputs": [
        {
          "internalType": "address",
          "name": "operator",
          "type": "address"
        },
        {
          "internalType": "address",
          "name": "from",
          "type": "address"
        },
        {
          "internalType": "uint256",
          "name": "tokenId",
          "type": "uint256"
        },
        {
          "internalType": "bytes",
          "name": "data",
          "type": "bytes"
        }
      ],
      "name": "onERC721Received",
      "outputs": [
        {
          "internalType": "bytes4",
          "name": "",
          "type": "bytes4"
        }
      ],
      "stateMutability": "nonpayable",
      "type": "function"
    },
    {
      "inputs": [
        {
          "internalType": "uint256",
          "name": "_raffleId",
          "type": "uint256"
        }
      ],
      "name": "getEntityAddresses",
      "outputs": [
        {
          "internalType": "address",
          "name": "",
          "type": "address"
        },
        {
          "internalType": "address",
          "name": "",
          "type": "address"
        },
        {
          "internalType": "address",
          "name": "",
          "type": "address"
        }
      ],
      "stateMutability": "view",
      "type": "function",
      "constant": true
    },
    {
      "inputs": [],
      "name": "getTotalRaffles",
      "outputs": [
        {
          "internalType": "uint256",
          "name": "",
          "type": "uint256"
        }
      ],
      "stateMutability": "view",
      "type": "function",
      "constant": true
    },
    {
      "inputs": [],
      "name": "getContractBalance",
      "outputs": [
        {
          "internalType": "uint256",
          "name": "",
          "type": "uint256"
        }
      ],
      "stateMutability": "view",
      "type": "function",
      "constant": true
    }
  ],
  "bytecode": "0x6080604052600060025534801561001557600080fd5b50613a8f806100256000396000f3fe6080604052600436106100fe5760003560e01c806362617c9a11610095578063a4e74daf11610064578063a4e74daf1461038c578063bf30d790146103ca578063f06fc96114610407578063f737d21d14610444578063f9ea23821461046d576100fe565b806362617c9a146102a65780636f9fb98a146102e45780637822be4a1461030f5780638a56e3b91461034f576100fe565b8063298ec208116100d1578063298ec208146101e757806338a2efbe146102035780634c8871fa146102405780635fba31711461027d576100fe565b80630cc7b2a9146101035780630ded5c3614610140578063150b7a021461016b5780632973c9b1146101a8575b600080fd5b34801561010f57600080fd5b5061012a6004803603810190610125919061256d565b6104aa565b60405161013791906125a9565b60405180910390f35b34801561014c57600080fd5b5061015561055f565b60405161016291906125a9565b60405180910390f35b34801561017757600080fd5b50610192600480360381019061018d9190612687565b610569565b60405161019f919061274a565b60405180910390f35b3480156101b457600080fd5b506101cf60048036038101906101ca919061256d565b61057e565b6040516101de93929190612774565b60405180910390f35b61020160048036038101906101fc91906127ab565b610632565b005b34801561020f57600080fd5b5061022a600480360381019061022591906127eb565b6108e6565b60405161023791906125a9565b60405180910390f35b34801561024c57600080fd5b5061026760048036038101906102629190612a3b565b6109ed565b60405161027491906125a9565b60405180910390f35b34801561028957600080fd5b506102a4600480360381019061029f919061256d565b6110af565b005b3480156102b257600080fd5b506102cd60048036038101906102c8919061256d565b6113b8565b6040516102db929190612b8a565b60405180910390f35b3480156102f057600080fd5b506102f961152e565b60405161030691906125a9565b60405180910390f35b34801561031b57600080fd5b506103366004803603810190610331919061256d565b611536565b6040516103469493929190612bb3565b60405180910390f35b34801561035b57600080fd5b50610376600480360381019061037191906127ab565b6115fe565b6040516103839190612bf8565b60405180910390f35b34801561039857600080fd5b506103b360048036038101906103ae9190612c13565b611640565b6040516103c1929190612cfe565b60405180910390f35b3480156103d657600080fd5b506103f160048036038101906103ec919061256d565b6117ff565b6040516103fe9190613042565b60405180910390f35b34801561041357600080fd5b5061042e6004803603810190610429919061256d565b611c3a565b60405161043b91906125a9565b60405180910390f35b34801561045057600080fd5b5061046b6004803603810190610466919061256d565b611c59565b005b34801561047957600080fd5b50610494600480360381019061048f91906127ab565b61218f565b6040516104a191906125a9565b60405180910390f35b60008060008084815260200190815260200160002090506000816000015403610508576040517f08c379a00000000000000000000000000000000000000000000000000000000081526004016104ff906130c1565b60405180910390fd5b8060130160019054906101000a900460ff168061053357508060130160009054906101000a900460ff165b1561054257600091505061055a565b806012015481600401546105569190613110565b9150505b919050565b6000600254905090565b600063150b7a0260e01b905095945050505050565b6000806000806000858152602001908152602001600020600f0160009054906101000a900473ffffffffffffffffffffffffffffffffffffffff1660008086815260200190815260200160002060180160009054906101000a900473ffffffffffffffffffffffffffffffffffffffff16600080878152602001908152602001600020600e0160009054906101000a900473ffffffffffffffffffffffffffffffffffffffff169250925092509193909250565b600080600084815260200190815260200160002090508060130160009054906101000a900460ff161561069a576040517f08c379a000000000000000000000000000000000000000000000000000000000815260040161069190613190565b60405180910390fd5b8060130160019054906101000a900460ff16156106ec576040517f08c379a00000000000000000000000000000000000000000000000000000000081526004016106e3906131fc565b60405180910390fd5b6000821161072f576040517f08c379a000000000000000000000000000000000000000000000000000000000815260040161072690613268565b60405180910390fd5b806012015481600401546107439190613110565b821115610785576040517f08c379a000000000000000000000000000000000000000000000000000000000815260040161077c906132d4565b60405180910390fd5b600081601101548361079791906132f4565b9050803410156107dc576040517f08c379a00000000000000000000000000000000000000000000000000000000081526004016107d39061339a565b60405180910390fd5b60005b838110156108a957600081600185601201546107fb91906133ba565b61080591906133ba565b9050836015018190806001815401808255809150506001900390600052602060002001600090919091909150553360016000888152602001908152602001600020600083815260200190815260200160002060006101000a81548173ffffffffffffffffffffffffffffffffffffffff021916908373ffffffffffffffffffffffffffffffffffffffff1602179055505080806108a190613410565b9150506107df565b50828260120160008282546108be91906133ba565b92505081905550348260140160008282546108d991906133ba565b9250508190555050505050565b6000806000905060005b600080858152602001908152602001600020601501805490508110156109e2578473ffffffffffffffffffffffffffffffffffffffff16600160008681526020019081526020016000206000806000888152602001908152602001600020601501848154811061096357610962613458565b5b9060005260206000200154815260200190815260200160002060009054906101000a900473ffffffffffffffffffffffffffffffffffffffff1673ffffffffffffffffffffffffffffffffffffffff16036109cf576109cc6001836121c590919063ffffffff16565b91505b80806109da90613410565b9150506108f0565b508091505092915050565b60008073ffffffffffffffffffffffffffffffffffffffff168573ffffffffffffffffffffffffffffffffffffffff1603610a5d576040517f08c379a0000000000000000000000000000000000000000000000000000000008152600401610a54906134d3565b60405180910390fd5b428711610a9f576040517f08c379a0000000000000000000000000000000000000000000000000000000008152600401610a969061353f565b60405180910390fd5b60008590508073ffffffffffffffffffffffffffffffffffffffff16636352211e886040518263ffffffff1660e01b8152600401610add91906125a9565b602060405180830381865afa158015610afa573d6000803e3d6000fd5b505050506040513d601f19601f82011682018060405250810190610b1e9190613574565b73ffffffffffffffffffffffffffffffffffffffff163373ffffffffffffffffffffffffffffffffffffffff1614610b8b576040517f08c379a0000000000000000000000000000000000000000000000000000000008152600401610b82906135ed565b60405180910390fd5b8073ffffffffffffffffffffffffffffffffffffffff166342842e0e33308a6040518463ffffffff1660e01b8152600401610bc89392919061360d565b600060405180830381600087803b158015610be257600080fd5b505af1158015610bf6573d6000803e3d6000fd5b5050505060026000815480929190610c0d90613410565b9190505550604051806102c0016040528060025481526020018d81526020018c81526020018b81526020018a81526020018981526020018881526020018681526020018773ffffffffffffffffffffffffffffffffffffffff1681526020018581526020018473ffffffffffffffffffffffffffffffffffffffff1681526020013373ffffffffffffffffffffffffffffffffffffffff168152602001610cd16064610cc360968f6121db90919063ffffffff16565b6121f190919063ffffffff16565b8152602001600081526020016000815260200160001515815260200160001515815260200160008152602001600067ffffffffffffffff811115610d1857610d17612841565b5b604051908082528060200260200182016040528015610d465781602001602082028036833780820191505090505b50815260200160008152602001600073ffffffffffffffffffffffffffffffffffffffff168152602001731eb43ebde750c57aacee85777e7c063218b0e1b473ffffffffffffffffffffffffffffffffffffffff168152506000806002548152602001908152602001600020600082015181600001556020820151816001019080519060200190610dd8929190612261565b506040820151816002019080519060200190610df5929190612261565b50606082015181600301556080820151816004015560a0820151816005015560c0820151816006015560e082015181600701906005610e359291906122e7565b5061010082015181600c0160006101000a81548173ffffffffffffffffffffffffffffffffffffffff021916908373ffffffffffffffffffffffffffffffffffffffff16021790555061012082015181600d019080519060200190610e9b929190612261565b5061014082015181600e0160006101000a81548173ffffffffffffffffffffffffffffffffffffffff021916908373ffffffffffffffffffffffffffffffffffffffff16021790555061016082015181600f0160006101000a81548173ffffffffffffffffffffffffffffffffffffffff021916908373ffffffffffffffffffffffffffffffffffffffff16021790555061018082015181601001556101a082015181601101556101c082015181601201556101e08201518160130160006101000a81548160ff0219169083151502179055506102008201518160130160016101000a81548160ff0219169083151502179055506102208201518160140155610240820151816015019080519060200190610fb792919061233a565b5061026082015181601601556102808201518160170160006101000a81548173ffffffffffffffffffffffffffffffffffffffff021916908373ffffffffffffffffffffffffffffffffffffffff1602179055506102a08201518160180160006101000a81548173ffffffffffffffffffffffffffffffffffffffff021916908373ffffffffffffffffffffffffffffffffffffffff160217905550905050611080896000806002548152602001908152602001600020601001546121f190919063ffffffff16565b6000806002548152602001908152602001600020601101819055506002549150509a9950505050505050505050565b6000806000838152602001908152602001600020905080600f0160009054906101000a900473ffffffffffffffffffffffffffffffffffffffff1673ffffffffffffffffffffffffffffffffffffffff163373ffffffffffffffffffffffffffffffffffffffff1614611157576040517f08c379a000000000000000000000000000000000000000000000000000000000815260040161114e906136b6565b60405180910390fd5b8060130160019054906101000a900460ff16156111a9576040517f08c379a00000000000000000000000000000000000000000000000000000000081526004016111a090613722565b60405180910390fd5b60005b81601501805490508110156112be5760008260150182815481106111d3576111d2613458565b5b90600052602060002001549050600060016000868152602001908152602001600020600083815260200190815260200160002060009054906101000a900473ffffffffffffffffffffffffffffffffffffffff169050600073ffffffffffffffffffffffffffffffffffffffff168173ffffffffffffffffffffffffffffffffffffffff16146112a9578073ffffffffffffffffffffffffffffffffffffffff166108fc85601101549081150290604051600060405180830381858888f193505050501580156112a7573d6000803e3d6000fd5b505b505080806112b690613410565b9150506111ac565b5080600c0160009054906101000a900473ffffffffffffffffffffffffffffffffffffffff1673ffffffffffffffffffffffffffffffffffffffff166342842e0e3083600f0160009054906101000a900473ffffffffffffffffffffffffffffffffffffffff1684600601546040518463ffffffff1660e01b81526004016113489392919061360d565b600060405180830381600087803b15801561136257600080fd5b505af1158015611376573d6000803e3d6000fd5b5050505060018160130160006101000a81548160ff02191690831515021790555060018160130160016101000a81548160ff0219169083151502179055505050565b60008060008084815260200190815260200160002060130160009054906101000a900460ff161561141e576040517f08c379a00000000000000000000000000000000000000000000000000000000081526004016114159061378e565b60405180910390fd5b60008084815260200190815260200160002060130160019054906101000a900460ff1615611481576040517f08c379a000000000000000000000000000000000000000000000000000000000815260040161147890613722565b60405180910390fd5b600080600085815260200190815260200160002060160154036114d9576040517f08c379a00000000000000000000000000000000000000000000000000000000081526004016114d0906137fa565b60405180910390fd5b60008084815260200190815260200160002060170160009054906101000a900473ffffffffffffffffffffffffffffffffffffffff166000808581526020019081526020016000206016015491509150915091565b600047905090565b6000806000806000806000878152602001908152602001600020601001549050600061157f60646115716005856121db90919063ffffffff16565b6121f190919063ffffffff16565b6000808981526020019081526020016000206003015461159f91906133ba565b905060006115ca60646115bc6005866121db90919063ffffffff16565b6121f190919063ffffffff16565b905060008183856115db9190613110565b6115e59190613110565b9050838383839750975097509750505050509193509193565b60016020528160005260406000206020528060005260406000206000915091509054906101000a900473ffffffffffffffffffffffffffffffffffffffff1681565b60006060600060025467ffffffffffffffff81111561166257611661612841565b5b6040519080825280602002602001820160405280156116905781602001602082028036833780820191505090505b5090506000805b600254811161174a578573ffffffffffffffffffffffffffffffffffffffff16600080838152602001908152602001600020600f0160009054906101000a900473ffffffffffffffffffffffffffffffffffffffff1673ffffffffffffffffffffffffffffffffffffffff1603611737578083838151811061171c5761171b613458565b5b602002602001018181525050818061173390613410565b9250505b808061174290613410565b915050611697565b5060008167ffffffffffffffff81111561176757611766612841565b5b6040519080825280602002602001820160405280156117955781602001602082028036833780820191505090505b50905060005b828110156117f0578381815181106117b6576117b5613458565b5b60200260200101518282815181106117d1576117d0613458565b5b60200260200101818152505080806117e890613410565b91505061179b565b50818194509450505050915091565b611807612387565b60008060008481526020019081526020016000209050600060405180610260016040528085815260200183600101805461184090613849565b80601f016020809104026020016040519081016040528092919081815260200182805461186c90613849565b80156118b95780601f1061188e576101008083540402835291602001916118b9565b820191906000526020600020905b81548152906001019060200180831161189c57829003601f168201915b505050505081526020018360020180546118d290613849565b80601f01602080910402602001604051908101604052809291908181526020018280546118fe90613849565b801561194b5780601f106119205761010080835404028352916020019161194b565b820191906000526020600020905b81548152906001019060200180831161192e57829003601f168201915b5050505050815260200183600701600580602002604051908101604052809291906000905b82821015611a1357838201805461198690613849565b80601f01602080910402602001604051908101604052809291908181526020018280546119b290613849565b80156119ff5780601f106119d4576101008083540402835291602001916119ff565b820191906000526020600020905b8154815290600101906020018083116119e257829003601f168201915b505050505081526020019060010190611970565b5050505081526020018360030154815260200183600401548152602001836005015481526020018360060154815260200183600c0160009054906101000a900473ffffffffffffffffffffffffffffffffffffffff1673ffffffffffffffffffffffffffffffffffffffff16815260200183600d018054611a9390613849565b80601f0160208091040260200160405190810160405280929190818152602001828054611abf90613849565b8015611b0c5780601f10611ae157610100808354040283529160200191611b0c565b820191906000526020600020905b815481529060010190602001808311611aef57829003601f168201915b5050505050815260200183600e0160009054906101000a900473ffffffffffffffffffffffffffffffffffffffff1673ffffffffffffffffffffffffffffffffffffffff16815260200183600f0160009054906101000a900473ffffffffffffffffffffffffffffffffffffffff1673ffffffffffffffffffffffffffffffffffffffff168152602001836010015481526020018360110154815260200183601201548152602001836016015481526020018360170160009054906101000a900473ffffffffffffffffffffffffffffffffffffffff1673ffffffffffffffffffffffffffffffffffffffff1681526020018360130160009054906101000a900460ff16151581526020018360130160019054906101000a900460ff16151581525090508092505050919050565b6000806000838152602001908152602001600020601101549050919050565b600080600083815260200190815260200160002090508060130160009054906101000a900460ff1615611cc1576040517f08c379a0000000000000000000000000000000000000000000000000000000008152600401611cb89061378e565b60405180910390fd5b8060130160019054906101000a900460ff1615611d13576040517f08c379a0000000000000000000000000000000000000000000000000000000008152600401611d0a90613722565b60405180910390fd5b606460508260040154611d2691906132f4565b611d3091906138a9565b81601201541015611d76576040517f08c379a0000000000000000000000000000000000000000000000000000000008152600401611d6d90613926565b60405180910390fd5b6000611d8183612207565b9050600060016000858152602001908152602001600020600083815260200190815260200160002060009054906101000a900473ffffffffffffffffffffffffffffffffffffffff169050600073ffffffffffffffffffffffffffffffffffffffff168173ffffffffffffffffffffffffffffffffffffffff1603611e3b576040517f08c379a0000000000000000000000000000000000000000000000000000000008152600401611e3290613992565b60405180910390fd5b808360170160006101000a81548173ffffffffffffffffffffffffffffffffffffffff021916908373ffffffffffffffffffffffffffffffffffffffff160217905550837f37a30a31c187f323329351db43159a5b3c2dde95e0f21f061360aa03aa5415b78383604051611eb09291906139b2565b60405180910390a260008060008681526020019081526020016000206010015490506000611efb6064611eed6005856121db90919063ffffffff16565b6121f190919063ffffffff16565b60008088815260200190815260200160002060030154611f1b91906133ba565b90506000611f466064611f386005866121db90919063ffffffff16565b6121f190919063ffffffff16565b90506000818385611f579190613110565b611f619190613110565b905086600f0160009054906101000a900473ffffffffffffffffffffffffffffffffffffffff1673ffffffffffffffffffffffffffffffffffffffff166108fc849081150290604051600060405180830381858888f19350505050158015611fcd573d6000803e3d6000fd5b508660180160009054906101000a900473ffffffffffffffffffffffffffffffffffffffff1673ffffffffffffffffffffffffffffffffffffffff166108fc839081150290604051600060405180830381858888f19350505050158015612038573d6000803e3d6000fd5b5086600e0160009054906101000a900473ffffffffffffffffffffffffffffffffffffffff1673ffffffffffffffffffffffffffffffffffffffff166108fc829081150290604051600060405180830381858888f193505050501580156120a3573d6000803e3d6000fd5b5086600c0160009054906101000a900473ffffffffffffffffffffffffffffffffffffffff1673ffffffffffffffffffffffffffffffffffffffff166342842e0e30878a600601546040518463ffffffff1660e01b81526004016121099392919061360d565b600060405180830381600087803b15801561212357600080fd5b505af1158015612137573d6000803e3d6000fd5b5050505060018760130160016101000a81548160ff021916908315150217905550877f1de299c7214202a224cf78dcd7adac60eac743ba8a2cc84012e96c5a048edfd660405160405180910390a25050505050505050565b600080600080858152602001908152602001600020905060008160110154846121b891906132f4565b9050809250505092915050565b600081836121d391906133ba565b905092915050565b600081836121e991906132f4565b905092915050565b600081836121ff91906138a9565b905092915050565b6000806000808481526020019081526020016000206012015442446040516020016122339291906139fc565b6040516020818303038152906040528051906020012060001c6122569190613a28565b905080915050919050565b82805461226d90613849565b90600052602060002090601f01602090048101928261228f57600085556122d6565b82601f106122a857805160ff19168380011785556122d6565b828001600101855582156122d6579182015b828111156122d55782518255916020019190600101906122ba565b5b5090506122e3919061247b565b5090565b8260058101928215612329579160200282015b82811115612328578251829080519060200190612318929190612261565b50916020019190600101906122fa565b5b5090506123369190612498565b5090565b828054828255906000526020600020908101928215612376579160200282015b8281111561237557825182559160200191906001019061235a565b5b509050612383919061247b565b5090565b6040518061026001604052806000815260200160608152602001606081526020016123b06124bc565b815260200160008152602001600081526020016000815260200160008152602001600073ffffffffffffffffffffffffffffffffffffffff16815260200160608152602001600073ffffffffffffffffffffffffffffffffffffffff168152602001600073ffffffffffffffffffffffffffffffffffffffff16815260200160008152602001600081526020016000815260200160008152602001600073ffffffffffffffffffffffffffffffffffffffff1681526020016000151581526020016000151581525090565b5b8082111561249457600081600090555060010161247c565b5090565b5b808211156124b857600081816124af91906124e3565b50600101612499565b5090565b6040518060a001604052806005905b60608152602001906001900390816124cb5790505090565b5080546124ef90613849565b6000825580601f106125015750612520565b601f01602090049060005260206000209081019061251f919061247b565b5b50565b6000604051905090565b600080fd5b600080fd5b6000819050919050565b61254a81612537565b811461255557600080fd5b50565b60008135905061256781612541565b92915050565b6000602082840312156125835761258261252d565b5b600061259184828501612558565b91505092915050565b6125a381612537565b82525050565b60006020820190506125be600083018461259a565b92915050565b600073ffffffffffffffffffffffffffffffffffffffff82169050919050565b60006125ef826125c4565b9050919050565b6125ff816125e4565b811461260a57600080fd5b50565b60008135905061261c816125f6565b92915050565b600080fd5b600080fd5b600080fd5b60008083601f84011261264757612646612622565b5b8235905067ffffffffffffffff81111561266457612663612627565b5b6020830191508360018202830111156126805761267f61262c565b5b9250929050565b6000806000806000608086880312156126a3576126a261252d565b5b60006126b18882890161260d565b95505060206126c28882890161260d565b94505060406126d388828901612558565b935050606086013567ffffffffffffffff8111156126f4576126f3612532565b5b61270088828901612631565b92509250509295509295909350565b60007fffffffff0000000000000000000000000000000000000000000000000000000082169050919050565b6127448161270f565b82525050565b600060208201905061275f600083018461273b565b92915050565b61276e816125e4565b82525050565b60006060820190506127896000830186612765565b6127966020830185612765565b6127a36040830184612765565b949350505050565b600080604083850312156127c2576127c161252d565b5b60006127d085828601612558565b92505060206127e185828601612558565b9150509250929050565b600080604083850312156128025761280161252d565b5b60006128108582860161260d565b925050602061282185828601612558565b9150509250929050565b600080fd5b6000601f19601f8301169050919050565b7f4e487b7100000000000000000000000000000000000000000000000000000000600052604160045260246000fd5b61287982612830565b810181811067ffffffffffffffff8211171561289857612897612841565b5b80604052505050565b60006128ab612523565b90506128b78282612870565b919050565b600067ffffffffffffffff8211156128d7576128d6612841565b5b6128e082612830565b9050602081019050919050565b82818337600083830152505050565b600061290f61290a846128bc565b6128a1565b90508281526020810184848401111561292b5761292a61282b565b5b6129368482856128ed565b509392505050565b600082601f83011261295357612952612622565b5b81356129638482602086016128fc565b91505092915050565b600067ffffffffffffffff82111561298757612986612841565b5b602082029050919050565b60006129a56129a08461296c565b6128a1565b905080602084028301858111156129bf576129be61262c565b5b835b81811015612a0657803567ffffffffffffffff8111156129e4576129e3612622565b5b8086016129f1898261293e565b855260208501945050506020810190506129c1565b5050509392505050565b600082601f830112612a2557612a24612622565b5b6005612a32848285612992565b91505092915050565b6000806000806000806000806000806101408b8d031215612a5f57612a5e61252d565b5b60008b013567ffffffffffffffff811115612a7d57612a7c612532565b5b612a898d828e0161293e565b9a505060208b013567ffffffffffffffff811115612aaa57612aa9612532565b5b612ab68d828e0161293e565b9950506040612ac78d828e01612558565b9850506060612ad88d828e01612558565b9750506080612ae98d828e01612558565b96505060a0612afa8d828e01612558565b95505060c0612b0b8d828e0161260d565b94505060e08b013567ffffffffffffffff811115612b2c57612b2b612532565b5b612b388d828e01612a10565b9350506101008b013567ffffffffffffffff811115612b5a57612b59612532565b5b612b668d828e0161293e565b925050610120612b788d828e0161260d565b9150509295989b9194979a5092959850565b6000604082019050612b9f6000830185612765565b612bac602083018461259a565b9392505050565b6000608082019050612bc8600083018761259a565b612bd5602083018661259a565b612be2604083018561259a565b612bef606083018461259a565b95945050505050565b6000602082019050612c0d6000830184612765565b92915050565b600060208284031215612c2957612c2861252d565b5b6000612c378482850161260d565b91505092915050565b600081519050919050565b600082825260208201905092915050565b6000819050602082019050919050565b612c7581612537565b82525050565b6000612c878383612c6c565b60208301905092915050565b6000602082019050919050565b6000612cab82612c40565b612cb58185612c4b565b9350612cc083612c5c565b8060005b83811015612cf1578151612cd88882612c7b565b9750612ce383612c93565b925050600181019050612cc4565b5085935050505092915050565b6000604082019050612d13600083018561259a565b8181036020830152612d258184612ca0565b90509392505050565b600081519050919050565b600082825260208201905092915050565b60005b83811015612d68578082015181840152602081019050612d4d565b83811115612d77576000848401525b50505050565b6000612d8882612d2e565b612d928185612d39565b9350612da2818560208601612d4a565b612dab81612830565b840191505092915050565b600060059050919050565b600081905092915050565b6000819050919050565b6000612de28383612d7d565b905092915050565b6000602082019050919050565b6000612e0282612db6565b612e0c8185612dc1565b935083602082028501612e1e85612dcc565b8060005b85811015612e5a5784840389528151612e3b8582612dd6565b9450612e4683612dea565b925060208a01995050600181019050612e22565b50829750879550505050505092915050565b612e75816125e4565b82525050565b60008115159050919050565b612e9081612e7b565b82525050565b600061026083016000830151612eaf6000860182612c6c565b5060208301518482036020860152612ec78282612d7d565b91505060408301518482036040860152612ee18282612d7d565b91505060608301518482036060860152612efb8282612df7565b9150506080830151612f106080860182612c6c565b5060a0830151612f2360a0860182612c6c565b5060c0830151612f3660c0860182612c6c565b5060e0830151612f4960e0860182612c6c565b50610100830151612f5e610100860182612e6c565b50610120830151848203610120860152612f788282612d7d565b915050610140830151612f8f610140860182612e6c565b50610160830151612fa4610160860182612e6c565b50610180830151612fb9610180860182612c6c565b506101a0830151612fce6101a0860182612c6c565b506101c0830151612fe36101c0860182612c6c565b506101e0830151612ff86101e0860182612c6c565b5061020083015161300d610200860182612e6c565b50610220830151613022610220860182612e87565b50610240830151613037610240860182612e87565b508091505092915050565b6000602082019050818103600083015261305c8184612e96565b905092915050565b600082825260208201905092915050565b7f526166666c65206e6f7420666f756e6400000000000000000000000000000000600082015250565b60006130ab601083613064565b91506130b682613075565b602082019050919050565b600060208201905081810360008301526130da8161309e565b9050919050565b7f4e487b7100000000000000000000000000000000000000000000000000000000600052601160045260246000fd5b600061311b82612537565b915061312683612537565b925082821015613139576131386130e1565b5b828203905092915050565b7f526166666c652069732063616e63656c6c656400000000000000000000000000600082015250565b600061317a601383613064565b915061318582613144565b602082019050919050565b600060208201905081810360008301526131a98161316d565b9050919050565b7f526166666c6520697320656e6465640000000000000000000000000000000000600082015250565b60006131e6600f83613064565b91506131f1826131b0565b602082019050919050565b60006020820190508181036000830152613215816131d9565b9050919050565b7f496e76616c6964206e756d626572206f66207469636b65747300000000000000600082015250565b6000613252601983613064565b915061325d8261321c565b602082019050919050565b6000602082019050818103600083015261328181613245565b9050919050565b7f4e6f7420656e6f756768207469636b65747320617661696c61626c6500000000600082015250565b60006132be601c83613064565b91506132c982613288565b602082019050919050565b600060208201905081810360008301526132ed816132b1565b9050919050565b60006132ff82612537565b915061330a83612537565b9250817fffffffffffffffffffffffffffffffffffffffffffffffffffffffffffffffff0483118215151615613343576133426130e1565b5b828202905092915050565b7f496e636f7272656374207061796d656e7420616d6f756e740000000000000000600082015250565b6000613384601883613064565b915061338f8261334e565b602082019050919050565b600060208201905081810360008301526133b381613377565b9050919050565b60006133c582612537565b91506133d083612537565b9250827fffffffffffffffffffffffffffffffffffffffffffffffffffffffffffffffff03821115613405576134046130e1565b5b828201905092915050565b600061341b82612537565b91507fffffffffffffffffffffffffffffffffffffffffffffffffffffffffffffffff820361344d5761344c6130e1565b5b600182019050919050565b7f4e487b7100000000000000000000000000000000000000000000000000000000600052603260045260246000fd5b7f496e76616c6964204e465420636f6e7472616374206164647265737300000000600082015250565b60006134bd601c83613064565b91506134c882613487565b602082019050919050565b600060208201905081810360008301526134ec816134b0565b9050919050565b7f456e642074696d65206d75737420626520696e20667574757265000000000000600082015250565b6000613529601a83613064565b9150613534826134f3565b602082019050919050565b600060208201905081810360008301526135588161351c565b9050919050565b60008151905061356e816125f6565b92915050565b60006020828403121561358a5761358961252d565b5b60006135988482850161355f565b91505092915050565b7f4f6e6c79204e4654206f776e65722063616e2063726561746520726166666c65600082015250565b60006135d7602083613064565b91506135e2826135a1565b602082019050919050565b60006020820190508181036000830152613606816135ca565b9050919050565b60006060820190506136226000830186612765565b61362f6020830185612765565b61363c604083018461259a565b949350505050565b7f4f6e6c7920726166666c652063726561746f722063616e2063616e63656c207460008201527f6865206c6f747465727900000000000000000000000000000000000000000000602082015250565b60006136a0602a83613064565b91506136ab82613644565b604082019050919050565b600060208201905081810360008301526136cf81613693565b9050919050565b7f526166666c652068617320616c726561647920656e6465640000000000000000600082015250565b600061370c601883613064565b9150613717826136d6565b602082019050919050565b6000602082019050818103600083015261373b816136ff565b9050919050565b7f526166666c6520686173206265656e2063616e63656c6c656400000000000000600082015250565b6000613778601983613064565b915061378382613742565b602082019050919050565b600060208201905081810360008301526137a78161376b565b9050919050565b7f57696e6e657220686173206e6f74206265656e207069636b6564207965740000600082015250565b60006137e4601e83613064565b91506137ef826137ae565b602082019050919050565b60006020820190508181036000830152613813816137d7565b9050919050565b7f4e487b7100000000000000000000000000000000000000000000000000000000600052602260045260246000fd5b6000600282049050600182168061386157607f821691505b6020821081036138745761387361381a565b5b50919050565b7f4e487b7100000000000000000000000000000000000000000000000000000000600052601260045260246000fd5b60006138b482612537565b91506138bf83612537565b9250826138cf576138ce61387a565b5b828204905092915050565b7f526166666c652063616e277420626520636f6d706c6574656420796574000000600082015250565b6000613910601d83613064565b915061391b826138da565b602082019050919050565b6000602082019050818103600083015261393f81613903565b9050919050565b7f57696e6e657220686173206e6f74206265656e2073656c656374656420796574600082015250565b600061397c602083613064565b915061398782613946565b602082019050919050565b600060208201905081810360008301526139ab8161396f565b9050919050565b60006040820190506139c7600083018561259a565b6139d46020830184612765565b9392505050565b6000819050919050565b6139f66139f182612537565b6139db565b82525050565b6000613a0882856139e5565b602082019150613a1882846139e5565b6020820191508190509392505050565b6000613a3382612537565b9150613a3e83612537565b925082613a4e57613a4d61387a565b5b82820690509291505056fea2646970667358221220f0dee2d7d9865c4a27796c2dea74ca5cff3e5709e6fa2c5bffd964510beb666a64736f6c634300080e0033",
  "immutableReferences": {},
  "source": "// SPDX-License-Identifier: MIT\r\npragma solidity ^0.8.0;\r\n\r\nimport \"@openzeppelin/contracts/token/ERC721/IERC721.sol\";\r\nimport \"@openzeppelin/contracts/utils/math/SafeMath.sol\";\r\nimport \"@openzeppelin/contracts/token/ERC721/IERC721Receiver.sol\";\r\n\r\ncontract mainNftRaffle is IERC721Receiver {\r\n    using SafeMath for uint256;\r\n\r\n    struct Raffle {\r\n        uint raffleId;\r\n        string raffleName;\r\n        string description;\r\n        uint256 nftPrice;\r\n        uint256 totalVolumeofTickets;\r\n        uint256 endTime;\r\n        uint256 nftId;\r\n        string[5] goals;\r\n        address nftContractAddress;\r\n        string nftSourceLink;\r\n        address charityAddress;\r\n        address raffleCreator;\r\n        uint256 rafflePool;\r\n        uint256 ticketPrice;\r\n        uint256 totalSoldTickets;\r\n        bool raffleCancelled;\r\n        bool raffleEnded;\r\n        uint256 fundsInContract;\r\n        uint256[] tickets;\r\n        uint winningTicket;\r\n        address raffleWinner;\r\n        address payable developmentTeam;\r\n    }\r\n\r\n    struct RaffleInfo {\r\n        uint raffleId;\r\n        string raffleName;\r\n        string description;\r\n        string[5] goals;\r\n        uint256 nftPrice;\r\n        uint256 totalVolumeofTickets;\r\n        uint256 endTime;\r\n        uint256 nftId;\r\n        address nftContractAddress;\r\n        string nftSourceLink;\r\n        address charityAddress;\r\n        address raffleCreator;\r\n        uint256 rafflePool;\r\n        uint256 ticketPrice;\r\n        uint256 totalSoldTickets;\r\n        uint winningTicket;\r\n        address raffleWinner;\r\n        bool raffleCancelled;\r\n        bool raffleEnded;\r\n    }\r\n\r\n    mapping(uint256 => Raffle) private raffles;\r\n    mapping(uint256 => mapping(uint256 => address)) public ticketToOwner;\r\n    uint256 private raffleCount = 0;\r\n\r\n    event WinnerSelected(\r\n        uint256 indexed raffleId,\r\n        uint256 winningTicketNumber,\r\n        address winningTicketOwner\r\n    );\r\n    event raffleEnded(uint256 indexed raffleId);\r\n\r\n    function createRaffle(\r\n        string memory _raffleName,\r\n        string memory _description,\r\n        uint256 _nftPrice,\r\n        uint256 _totalVolumeofTickets,\r\n        uint256 _endTime,\r\n        uint256 _nftId,\r\n        address _nftContractAddress,\r\n        string[5] memory _goals,\r\n        string memory _nftSourceLink,\r\n        address _charityAddress\r\n    ) public returns (uint256) {\r\n        require(\r\n            _nftContractAddress != address(0),\r\n            \"Invalid NFT contract address\"\r\n        );\r\n        require(_endTime > block.timestamp, \"End time must be in future\");\r\n        IERC721 nftContract = IERC721(_nftContractAddress);\r\n        require(\r\n            msg.sender == nftContract.ownerOf(_nftId),\r\n            \"Only NFT owner can create raffle\"\r\n        );\r\n\r\n        nftContract.safeTransferFrom(msg.sender, address(this), _nftId);\r\n        raffleCount++;\r\n\r\n        raffles[raffleCount] = Raffle({\r\n            raffleId: raffleCount,\r\n            raffleName: _raffleName,\r\n            description: _description,\r\n            goals: _goals,\r\n            nftPrice: _nftPrice,\r\n            totalVolumeofTickets: _totalVolumeofTickets,\r\n            endTime: _endTime,\r\n            nftId: _nftId,\r\n            nftContractAddress: _nftContractAddress,\r\n            nftSourceLink: _nftSourceLink,\r\n            raffleCreator: msg.sender,\r\n            rafflePool: (_nftPrice.mul(150)).div(100),\r\n            ticketPrice: 0,\r\n            charityAddress: _charityAddress,\r\n            totalSoldTickets: 0,\r\n            raffleCancelled: false,\r\n            raffleEnded: false,\r\n            fundsInContract: 0,\r\n            tickets: new uint256[](0),\r\n            winningTicket: 0,\r\n            raffleWinner: address(0),\r\n            developmentTeam: payable(\r\n                address(0x1Eb43EBde750C57AaCEE85777e7c063218B0e1B4)\r\n            )\r\n        });\r\n\r\n        raffles[raffleCount].ticketPrice = raffles[raffleCount].rafflePool.div(\r\n            _totalVolumeofTickets\r\n        );\r\n\r\n        return raffleCount;\r\n    }\r\n\r\n    function getTicketPrice(uint256 _raffleId) public view returns (uint256) {\r\n        return raffles[_raffleId].ticketPrice;\r\n    }\r\n\r\n    function getTicketsOwned(\r\n        address _address,\r\n        uint256 raffleId\r\n    ) public view returns (uint256) {\r\n        uint256 totalTicketsOwned = 0;\r\n        for (uint256 i = 0; i < raffles[raffleId].tickets.length; i++) {\r\n            if (\r\n                ticketToOwner[raffleId][raffles[raffleId].tickets[i]] ==\r\n                _address\r\n            ) {\r\n                totalTicketsOwned = totalTicketsOwned.add(1);\r\n            }\r\n        }\r\n        return totalTicketsOwned;\r\n    }\r\n\r\n    function getOwnedRaffles(\r\n        address owner\r\n    ) public view returns (uint256 totalRaffles, uint256[] memory raffleIds) {\r\n        uint256[] memory ownedRaffleIds = new uint256[](raffleCount);\r\n        uint256 count = 0;\r\n        for (uint256 i = 0; i <= raffleCount; i++) {\r\n            if (raffles[i].raffleCreator == owner) {\r\n                ownedRaffleIds[count] = i;\r\n                count++;\r\n            }\r\n        }\r\n        uint256[] memory result = new uint256[](count);\r\n        for (uint256 j = 0; j < count; j++) {\r\n            result[j] = ownedRaffleIds[j];\r\n        }\r\n        return (count, result);\r\n    }\r\n\r\n    function getAvailableTickets(\r\n        uint256 _raffleID\r\n    ) public view returns (uint256) {\r\n        Raffle storage raffle = raffles[_raffleID];\r\n        require(raffle.raffleId != 0, \"Raffle not found\");\r\n\r\n        if (raffle.raffleEnded || raffle.raffleCancelled) {\r\n            return 0;\r\n        } else {\r\n            return raffle.totalVolumeofTickets - raffle.totalSoldTickets;\r\n        }\r\n    }\r\n\r\n    function buyTicket(\r\n        uint256 _raffleId,\r\n        uint256 _totalTicketsWanted\r\n    ) public payable {\r\n        Raffle storage raffle = raffles[_raffleId];\r\n\r\n        require(!raffle.raffleCancelled, \"Raffle is cancelled\");\r\n        require(!raffle.raffleEnded, \"Raffle is ended\");\r\n        require(_totalTicketsWanted > 0, \"Invalid number of tickets\");\r\n        require(\r\n            _totalTicketsWanted <=\r\n                raffle.totalVolumeofTickets - raffle.totalSoldTickets,\r\n            \"Not enough tickets available\"\r\n        );\r\n        uint256 totalTicketPrice = _totalTicketsWanted * raffle.ticketPrice;\r\n        require(msg.value >= totalTicketPrice, \"Incorrect payment amount\");\r\n\r\n        // Update ticket ownership\r\n        for (uint256 i = 0; i < _totalTicketsWanted; i++) {\r\n            uint256 ticket = raffle.totalSoldTickets + 1 + i;\r\n            raffle.tickets.push(ticket);\r\n            ticketToOwner[_raffleId][ticket] = msg.sender;\r\n        }\r\n\r\n        // Update raffle info\r\n        raffle.totalSoldTickets += _totalTicketsWanted;\r\n        raffle.fundsInContract += msg.value;\r\n    }\r\n\r\n    function getTotalTicketPrice(\r\n        uint _raffleId,\r\n        uint256 _totalTicketsWanted\r\n    ) public view returns (uint256) {\r\n        Raffle storage raffle = raffles[_raffleId];\r\n\r\n        uint256 totalTicketPrice = _totalTicketsWanted * raffle.ticketPrice;\r\n        return totalTicketPrice;\r\n    }\r\n\r\n    // This function picks a random ticket from totalSoldTickets for a raffleId.\r\n    function pickRandomTicket(uint256 raffleId) private view returns (uint256) {\r\n        uint256 randomNumber = uint256(\r\n            keccak256(abi.encodePacked(block.timestamp, block.difficulty))\r\n        ) % raffles[raffleId].totalSoldTickets;\r\n        return randomNumber;\r\n    }\r\n\r\n    function pickWinner(uint256 raffleId) public {\r\n        Raffle storage raffle = raffles[raffleId];\r\n\r\n        require(!raffle.raffleCancelled, \"Raffle has been cancelled\");\r\n        require(!raffle.raffleEnded, \"Raffle has already ended\");\r\n        require(\r\n            raffle.totalSoldTickets >= (raffle.totalVolumeofTickets * 80) / 100,\r\n            \"Raffle can't be completed yet\"\r\n        );\r\n\r\n        // Pick a random ticket as the winning ticket.\r\n        uint256 winningTicketNumber = pickRandomTicket(raffleId);\r\n        address winningTicketOwner = ticketToOwner[raffleId][\r\n            winningTicketNumber\r\n        ];\r\n        require(\r\n            winningTicketOwner != address(0),\r\n            \"Winner has not been selected yet\"\r\n        );\r\n\r\n        // Store the winning ticket information in the raffle struct\r\n        raffle.raffleWinner = winningTicketOwner;\r\n\r\n        // Emit an event to indicate that a winner has been selected.\r\n        emit WinnerSelected(raffleId, winningTicketNumber, winningTicketOwner);\r\n\r\n        // Send the prize pool to each entity\r\n        uint256 rafflePrizePool = raffles[raffleId].rafflePool;\r\n        uint256 raffleCreatorPrize = raffles[raffleId].nftPrice +\r\n            (rafflePrizePool.mul(5)).div(100);\r\n        uint256 developmentTeamPrize = (rafflePrizePool.mul(5)).div(100);\r\n        uint256 charityPrize = rafflePrizePool -\r\n            raffleCreatorPrize -\r\n            developmentTeamPrize;\r\n\r\n        // Transfer the prize amounts to each entity.\r\n        payable(raffle.raffleCreator).transfer(raffleCreatorPrize);\r\n        payable(raffle.developmentTeam).transfer(developmentTeamPrize);\r\n        payable(raffle.charityAddress).transfer(charityPrize);\r\n\r\n        // Call safeTransferFrom function on ERC721 token contract to transfer the NFT to the winner.\r\n        IERC721(raffle.nftContractAddress).safeTransferFrom(\r\n            address(this),\r\n            winningTicketOwner,\r\n            raffle.nftId\r\n        );\r\n\r\n        // Mark the raffle as ended\r\n        raffle.raffleEnded = true;\r\n\r\n        // Emit raffleEnded event\r\n        emit raffleEnded(raffleId);\r\n    }\r\n\r\n    function cancelRaffle(uint256 _raffleId) public {\r\n        Raffle storage raffle = raffles[_raffleId];\r\n        require(\r\n            msg.sender == raffle.raffleCreator,\r\n            \"Only raffle creator can cancel the lottery\"\r\n        );\r\n        require(!raffle.raffleEnded, \"Raffle has already ended\");\r\n\r\n        // Refund funds to ticket owners\r\n        for (uint256 i = 0; i < raffle.tickets.length; i++) {\r\n            uint256 ticket = raffle.tickets[i];\r\n            address ticketOwner = ticketToOwner[_raffleId][ticket];\r\n            if (ticketOwner != address(0)) {\r\n                payable(ticketOwner).transfer(raffle.ticketPrice);\r\n            }\r\n        }\r\n\r\n        // Transfer NFT back to raffle creator\r\n        IERC721(raffle.nftContractAddress).safeTransferFrom(\r\n            address(this),\r\n            raffle.raffleCreator,\r\n            raffle.nftId\r\n        );\r\n\r\n        // Update raffle status\r\n        raffle.raffleCancelled = true;\r\n        raffle.raffleEnded = true;\r\n    }\r\n\r\n    function getPrizePool(\r\n        uint256 _raffleId\r\n    ) public view returns (uint256, uint256, uint256, uint256) {\r\n        uint256 rafflePrizePool = raffles[_raffleId].rafflePool;\r\n        uint256 raffleCreatorPrize = raffles[_raffleId].nftPrice +\r\n            (rafflePrizePool.mul(5)).div(100);\r\n        uint256 developmentTeamPrize = (rafflePrizePool.mul(5)).div(100);\r\n        uint256 charityPrize = rafflePrizePool -\r\n            raffleCreatorPrize -\r\n            developmentTeamPrize;\r\n\r\n        return (\r\n            rafflePrizePool,\r\n            raffleCreatorPrize,\r\n            developmentTeamPrize,\r\n            charityPrize\r\n        );\r\n    }\r\n\r\n    function getRaffleWinner(\r\n        uint256 raffleId\r\n    ) public view returns (address winner, uint256 winningTicket) {\r\n        require(\r\n            !raffles[raffleId].raffleCancelled,\r\n            \"Raffle has been cancelled\"\r\n        );\r\n        require(!raffles[raffleId].raffleEnded, \"Raffle has already ended\");\r\n        require(\r\n            raffles[raffleId].winningTicket != 0,\r\n            \"Winner has not been picked yet\"\r\n        );\r\n\r\n        return (\r\n            raffles[raffleId].raffleWinner,\r\n            raffles[raffleId].winningTicket\r\n        );\r\n    }\r\n\r\n    function raffleInfo(\r\n        uint256 _raffleID\r\n    ) public view returns (RaffleInfo memory) {\r\n        Raffle storage raffle = raffles[_raffleID];\r\n\r\n        RaffleInfo memory raffleInfo = RaffleInfo({\r\n            raffleId: _raffleID,\r\n            raffleName: raffle.raffleName,\r\n            description: raffle.description,\r\n            goals: raffle.goals,\r\n            nftPrice: raffle.nftPrice,\r\n            totalVolumeofTickets: raffle.totalVolumeofTickets,\r\n            endTime: raffle.endTime,\r\n            nftId: raffle.nftId,\r\n            nftContractAddress: raffle.nftContractAddress,\r\n            nftSourceLink: raffle.nftSourceLink,\r\n            charityAddress: raffle.charityAddress,\r\n            raffleCreator: raffle.raffleCreator,\r\n            rafflePool: raffle.rafflePool,\r\n            ticketPrice: raffle.ticketPrice,\r\n            totalSoldTickets: raffle.totalSoldTickets,\r\n            winningTicket: raffle.winningTicket,\r\n            raffleWinner: raffle.raffleWinner,\r\n            raffleCancelled: raffle.raffleCancelled,\r\n            raffleEnded: raffle.raffleEnded\r\n        });\r\n\r\n        return raffleInfo;\r\n    }\r\n\r\n    function onERC721Received(\r\n        address operator,\r\n        address from,\r\n        uint256 tokenId,\r\n        bytes calldata data\r\n    ) external returns (bytes4) {\r\n        return this.onERC721Received.selector;\r\n    }\r\n\r\n    function getEntityAddresses(\r\n        uint256 _raffleId\r\n    ) public view returns (address, address, address) {\r\n        return (\r\n            raffles[_raffleId].raffleCreator,\r\n            raffles[_raffleId].developmentTeam,\r\n            raffles[_raffleId].charityAddress\r\n        );\r\n    }\r\n\r\n    function getTotalRaffles() public view returns (uint256) {\r\n        return raffleCount;\r\n    }\r\n\r\n    function getContractBalance() public view returns (uint256) {\r\n        return address(this).balance;\r\n    }\r\n}\r\n",
  "sourcePath": "C:\\Users\\user\\Desktop\\GIT_REPOS\\originx-dapp\\backend\\contracts\\mainNftRaffle.sol",
  "compiler": {
    "name": "solc",
    "version": "0.8.14+commit.80d49f37.Emscripten.clang"
  },
  "schemaVersion": "3.4.13",
  "updatedAt": "2023-08-06T15:32:13.540Z",
  "networkType": "ethereum",
  "devdoc": {
    "kind": "dev",
    "methods": {
      "onERC721Received(address,address,uint256,bytes)": {
        "details": "Whenever an {IERC721} `tokenId` token is transferred to this contract via {IERC721-safeTransferFrom} by `operator` from `from`, this function is called. It must return its Solidity selector to confirm the token transfer. If any other value is returned or the interface is not implemented by the recipient, the transfer will be reverted. The selector can be obtained in Solidity with `IERC721Receiver.onERC721Received.selector`."
      }
    },
    "version": 1
  },
  "userdoc": {
    "kind": "user",
    "methods": {},
    "version": 1
  }
}