{
  "contractName": "mainNftRaffle",
  "abi": [
    {
      "anonymous": false,
      "inputs": [
        {
          "indexed": true,
          "internalType": "uint256",
          "name": "raffleId",
          "type": "uint256"
        },
        {
          "indexed": false,
          "internalType": "uint256",
          "name": "winningTicketNumber",
          "type": "uint256"
        },
        {
          "indexed": false,
          "internalType": "address",
          "name": "winningTicketOwner",
          "type": "address"
        }
      ],
      "name": "WinnerSelected",
      "type": "event"
    },
    {
      "anonymous": false,
      "inputs": [
        {
          "indexed": true,
          "internalType": "uint256",
          "name": "raffleId",
          "type": "uint256"
        }
      ],
      "name": "raffleEnded",
      "type": "event"
    },
    {
      "inputs": [
        {
          "internalType": "uint256",
          "name": "",
          "type": "uint256"
        },
        {
          "internalType": "uint256",
          "name": "",
          "type": "uint256"
        }
      ],
      "name": "ticketToOwner",
      "outputs": [
        {
          "internalType": "address",
          "name": "",
          "type": "address"
        }
      ],
      "stateMutability": "view",
      "type": "function",
      "constant": true
    },
    {
      "inputs": [
        {
          "internalType": "string",
          "name": "_raffleName",
          "type": "string"
        },
        {
          "internalType": "uint256",
          "name": "_nftPrice",
          "type": "uint256"
        },
        {
          "internalType": "uint256",
          "name": "_totalVolumeofTickets",
          "type": "uint256"
        },
        {
          "internalType": "uint256",
          "name": "_endTime",
          "type": "uint256"
        },
        {
          "internalType": "uint256",
          "name": "_nftId",
          "type": "uint256"
        },
        {
          "internalType": "address",
          "name": "_nftContractAddress",
          "type": "address"
        },
        {
          "internalType": "string",
          "name": "_nftSourceLink",
          "type": "string"
        },
        {
          "internalType": "address",
          "name": "_charityAddress",
          "type": "address"
        }
      ],
      "name": "createRaffle",
      "outputs": [
        {
          "internalType": "uint256",
          "name": "",
          "type": "uint256"
        }
      ],
      "stateMutability": "nonpayable",
      "type": "function"
    },
    {
      "inputs": [
        {
          "internalType": "uint256",
          "name": "_raffleId",
          "type": "uint256"
        }
      ],
      "name": "getTicketPrice",
      "outputs": [
        {
          "internalType": "uint256",
          "name": "",
          "type": "uint256"
        }
      ],
      "stateMutability": "view",
      "type": "function",
      "constant": true
    },
    {
      "inputs": [
        {
          "internalType": "address",
          "name": "_address",
          "type": "address"
        },
        {
          "internalType": "uint256",
          "name": "raffleId",
          "type": "uint256"
        }
      ],
      "name": "getTicketsOwned",
      "outputs": [
        {
          "internalType": "uint256",
          "name": "",
          "type": "uint256"
        }
      ],
      "stateMutability": "view",
      "type": "function",
      "constant": true
    },
    {
      "inputs": [
        {
          "internalType": "address",
          "name": "owner",
          "type": "address"
        }
      ],
      "name": "getOwnedRaffles",
      "outputs": [
        {
          "internalType": "uint256",
          "name": "totalRaffles",
          "type": "uint256"
        },
        {
          "internalType": "uint256[]",
          "name": "raffleIds",
          "type": "uint256[]"
        }
      ],
      "stateMutability": "view",
      "type": "function",
      "constant": true
    },
    {
      "inputs": [
        {
          "internalType": "uint256",
          "name": "_raffleID",
          "type": "uint256"
        }
      ],
      "name": "getAvailableTickets",
      "outputs": [
        {
          "internalType": "uint256",
          "name": "",
          "type": "uint256"
        }
      ],
      "stateMutability": "view",
      "type": "function",
      "constant": true
    },
    {
      "inputs": [
        {
          "internalType": "uint256",
          "name": "_raffleId",
          "type": "uint256"
        },
        {
          "internalType": "uint256",
          "name": "_totalTicketsWanted",
          "type": "uint256"
        }
      ],
      "name": "buyTicket",
      "outputs": [],
      "stateMutability": "payable",
      "type": "function",
      "payable": true
    },
    {
      "inputs": [
        {
          "internalType": "uint256",
          "name": "_raffleId",
          "type": "uint256"
        },
        {
          "internalType": "uint256",
          "name": "_totalTicketsWanted",
          "type": "uint256"
        }
      ],
      "name": "getTotalTicketPrice",
      "outputs": [
        {
          "internalType": "uint256",
          "name": "",
          "type": "uint256"
        }
      ],
      "stateMutability": "view",
      "type": "function",
      "constant": true
    },
    {
      "inputs": [
        {
          "internalType": "uint256",
          "name": "raffleId",
          "type": "uint256"
        }
      ],
      "name": "pickWinner",
      "outputs": [],
      "stateMutability": "nonpayable",
      "type": "function"
    },
    {
      "inputs": [
        {
          "internalType": "uint256",
          "name": "_raffleId",
          "type": "uint256"
        }
      ],
      "name": "cancelRaffle",
      "outputs": [],
      "stateMutability": "nonpayable",
      "type": "function"
    },
    {
      "inputs": [
        {
          "internalType": "uint256",
          "name": "_raffleId",
          "type": "uint256"
        }
      ],
      "name": "getPrizePool",
      "outputs": [
        {
          "internalType": "uint256",
          "name": "",
          "type": "uint256"
        },
        {
          "internalType": "uint256",
          "name": "",
          "type": "uint256"
        },
        {
          "internalType": "uint256",
          "name": "",
          "type": "uint256"
        },
        {
          "internalType": "uint256",
          "name": "",
          "type": "uint256"
        }
      ],
      "stateMutability": "view",
      "type": "function",
      "constant": true
    },
    {
      "inputs": [
        {
          "internalType": "uint256",
          "name": "raffleId",
          "type": "uint256"
        }
      ],
      "name": "getRaffleWinner",
      "outputs": [
        {
          "internalType": "address",
          "name": "winner",
          "type": "address"
        },
        {
          "internalType": "uint256",
          "name": "winningTicket",
          "type": "uint256"
        }
      ],
      "stateMutability": "view",
      "type": "function",
      "constant": true
    },
    {
      "inputs": [
        {
          "internalType": "uint256",
          "name": "_raffleID",
          "type": "uint256"
        }
      ],
      "name": "raffleInfo",
      "outputs": [
        {
          "components": [
            {
              "internalType": "uint256",
              "name": "raffleId",
              "type": "uint256"
            },
            {
              "internalType": "string",
              "name": "raffleName",
              "type": "string"
            },
            {
              "internalType": "uint256",
              "name": "nftPrice",
              "type": "uint256"
            },
            {
              "internalType": "uint256",
              "name": "totalVolumeofTickets",
              "type": "uint256"
            },
            {
              "internalType": "uint256",
              "name": "endTime",
              "type": "uint256"
            },
            {
              "internalType": "uint256",
              "name": "nftId",
              "type": "uint256"
            },
            {
              "internalType": "address",
              "name": "nftContractAddress",
              "type": "address"
            },
            {
              "internalType": "string",
              "name": "nftSourceLink",
              "type": "string"
            },
            {
              "internalType": "address",
              "name": "charityAddress",
              "type": "address"
            },
            {
              "internalType": "address",
              "name": "raffleCreator",
              "type": "address"
            },
            {
              "internalType": "uint256",
              "name": "rafflePool",
              "type": "uint256"
            },
            {
              "internalType": "uint256",
              "name": "ticketPrice",
              "type": "uint256"
            },
            {
              "internalType": "uint256",
              "name": "totalSoldTickets",
              "type": "uint256"
            },
            {
              "internalType": "uint256",
              "name": "winningTicket",
              "type": "uint256"
            },
            {
              "internalType": "address",
              "name": "raffleWinner",
              "type": "address"
            },
            {
              "internalType": "bool",
              "name": "raffleCancelled",
              "type": "bool"
            },
            {
              "internalType": "bool",
              "name": "raffleEnded",
              "type": "bool"
            }
          ],
          "internalType": "struct mainNftRaffle.RaffleInfo",
          "name": "",
          "type": "tuple"
        }
      ],
      "stateMutability": "view",
      "type": "function",
      "constant": true
    },
    {
      "inputs": [
        {
          "internalType": "address",
          "name": "operator",
          "type": "address"
        },
        {
          "internalType": "address",
          "name": "from",
          "type": "address"
        },
        {
          "internalType": "uint256",
          "name": "tokenId",
          "type": "uint256"
        },
        {
          "internalType": "bytes",
          "name": "data",
          "type": "bytes"
        }
      ],
      "name": "onERC721Received",
      "outputs": [
        {
          "internalType": "bytes4",
          "name": "",
          "type": "bytes4"
        }
      ],
      "stateMutability": "nonpayable",
      "type": "function"
    },
    {
      "inputs": [
        {
          "internalType": "uint256",
          "name": "_raffleId",
          "type": "uint256"
        }
      ],
      "name": "getEntityAddresses",
      "outputs": [
        {
          "internalType": "address",
          "name": "",
          "type": "address"
        },
        {
          "internalType": "address",
          "name": "",
          "type": "address"
        },
        {
          "internalType": "address",
          "name": "",
          "type": "address"
        }
      ],
      "stateMutability": "view",
      "type": "function",
      "constant": true
    },
    {
      "inputs": [],
      "name": "getTotalRaffles",
      "outputs": [
        {
          "internalType": "uint256",
          "name": "",
          "type": "uint256"
        }
      ],
      "stateMutability": "view",
      "type": "function",
      "constant": true
    },
    {
      "inputs": [],
      "name": "getContractBalance",
      "outputs": [
        {
          "internalType": "uint256",
          "name": "",
          "type": "uint256"
        }
      ],
      "stateMutability": "view",
      "type": "function",
      "constant": true
    }
  ],
  "bytecode": "0x6080604052600060025534801561001557600080fd5b50613788806100256000396000f3fe6080604052600436106100fe5760003560e01c806362617c9a11610095578063a4e74daf11610064578063a4e74daf1461038c578063bf30d790146103ca578063f06fc96114610407578063f737d21d14610444578063f9ea23821461046d576100fe565b806362617c9a146102a65780636f9fb98a146102e45780637822be4a1461030f5780638a56e3b91461034f576100fe565b80632973c9b1116100d15780632973c9b1146101e5578063298ec2081461022457806338a2efbe146102405780635fba31711461027d576100fe565b80630cc7b2a9146101035780630ded5c3614610140578063150b7a021461016b5780631e8c48e4146101a8575b600080fd5b34801561010f57600080fd5b5061012a60048036038101906101259190612249565b6104aa565b6040516101379190612285565b60405180910390f35b34801561014c57600080fd5b5061015561055f565b6040516101629190612285565b60405180910390f35b34801561017757600080fd5b50610192600480360381019061018d9190612363565b610569565b60405161019f9190612426565b60405180910390f35b3480156101b457600080fd5b506101cf60048036038101906101ca9190612582565b61057e565b6040516101dc9190612285565b60405180910390f35b3480156101f157600080fd5b5061020c60048036038101906102079190612249565b610bed565b60405161021b9392919061267f565b60405180910390f35b61023e600480360381019061023991906126b6565b610ca1565b005b34801561024c57600080fd5b50610267600480360381019061026291906126f6565b610f55565b6040516102749190612285565b60405180910390f35b34801561028957600080fd5b506102a4600480360381019061029f9190612249565b61105c565b005b3480156102b257600080fd5b506102cd60048036038101906102c89190612249565b611365565b6040516102db929190612736565b60405180910390f35b3480156102f057600080fd5b506102f96114db565b6040516103069190612285565b60405180910390f35b34801561031b57600080fd5b5061033660048036038101906103319190612249565b6114e3565b604051610346949392919061275f565b60405180910390f35b34801561035b57600080fd5b50610376600480360381019061037191906126b6565b6115ab565b60405161038391906127a4565b60405180910390f35b34801561039857600080fd5b506103b360048036038101906103ae91906127bf565b6115ed565b6040516103c19291906128aa565b60405180910390f35b3480156103d657600080fd5b506103f160048036038101906103ec9190612249565b6117ac565b6040516103fe9190612af7565b60405180910390f35b34801561041357600080fd5b5061042e60048036038101906104299190612249565b611a8e565b60405161043b9190612285565b60405180910390f35b34801561045057600080fd5b5061046b60048036038101906104669190612249565b611aad565b005b34801561047957600080fd5b50610494600480360381019061048f91906126b6565b611fe3565b6040516104a19190612285565b60405180910390f35b60008060008084815260200190815260200160002090506000816000015403610508576040517f08c379a00000000000000000000000000000000000000000000000000000000081526004016104ff90612b76565b60405180910390fd5b80600d0160019054906101000a900460ff1680610533575080600d0160009054906101000a900460ff165b1561054257600091505061055a565b80600c015481600301546105569190612bc5565b9150505b919050565b6000600254905090565b600063150b7a0260e01b905095945050505050565b60008073ffffffffffffffffffffffffffffffffffffffff168473ffffffffffffffffffffffffffffffffffffffff16036105ee576040517f08c379a00000000000000000000000000000000000000000000000000000000081526004016105e590612c45565b60405180910390fd5b428611610630576040517f08c379a000000000000000000000000000000000000000000000000000000000815260040161062790612cb1565b60405180910390fd5b60008490508073ffffffffffffffffffffffffffffffffffffffff16636352211e876040518263ffffffff1660e01b815260040161066e9190612285565b602060405180830381865afa15801561068b573d6000803e3d6000fd5b505050506040513d601f19601f820116820180604052508101906106af9190612ce6565b73ffffffffffffffffffffffffffffffffffffffff163373ffffffffffffffffffffffffffffffffffffffff161461071c576040517f08c379a000000000000000000000000000000000000000000000000000000000815260040161071390612d5f565b60405180910390fd5b8073ffffffffffffffffffffffffffffffffffffffff166342842e0e3330896040518463ffffffff1660e01b815260040161075993929190612d7f565b600060405180830381600087803b15801561077357600080fd5b505af1158015610787573d6000803e3d6000fd5b505050506002600081548092919061079e90612db6565b919050555060405180610280016040528060025481526020018b81526020018a81526020018981526020018881526020018781526020018673ffffffffffffffffffffffffffffffffffffffff1681526020018581526020018473ffffffffffffffffffffffffffffffffffffffff1681526020013373ffffffffffffffffffffffffffffffffffffffff168152602001610856606461084860968e61201990919063ffffffff16565b61202f90919063ffffffff16565b8152602001600081526020016000815260200160001515815260200160001515815260200160008152602001600067ffffffffffffffff81111561089d5761089c612457565b5b6040519080825280602002602001820160405280156108cb5781602001602082028036833780820191505090505b50815260200160008152602001600073ffffffffffffffffffffffffffffffffffffffff16815260200173e46cb9ca18520d3f0394f570c35259c188b33b9873ffffffffffffffffffffffffffffffffffffffff168152506000806002548152602001908152602001600020600082015181600001556020820151816001019081610956919061300a565b5060408201518160020155606082015181600301556080820151816004015560a0820151816005015560c08201518160060160006101000a81548173ffffffffffffffffffffffffffffffffffffffff021916908373ffffffffffffffffffffffffffffffffffffffff16021790555060e08201518160070190816109db919061300a565b506101008201518160080160006101000a81548173ffffffffffffffffffffffffffffffffffffffff021916908373ffffffffffffffffffffffffffffffffffffffff1602179055506101208201518160090160006101000a81548173ffffffffffffffffffffffffffffffffffffffff021916908373ffffffffffffffffffffffffffffffffffffffff16021790555061014082015181600a015561016082015181600b015561018082015181600c01556101a082015181600d0160006101000a81548160ff0219169083151502179055506101c082015181600d0160016101000a81548160ff0219169083151502179055506101e082015181600e015561020082015181600f019080519060200190610af79291906120b5565b5061022082015181601001556102408201518160110160006101000a81548173ffffffffffffffffffffffffffffffffffffffff021916908373ffffffffffffffffffffffffffffffffffffffff1602179055506102608201518160120160006101000a81548173ffffffffffffffffffffffffffffffffffffffff021916908373ffffffffffffffffffffffffffffffffffffffff160217905550905050610bc0886000806002548152602001908152602001600020600a015461202f90919063ffffffff16565b6000806002548152602001908152602001600020600b018190555060025491505098975050505050505050565b600080600080600085815260200190815260200160002060090160009054906101000a900473ffffffffffffffffffffffffffffffffffffffff1660008086815260200190815260200160002060120160009054906101000a900473ffffffffffffffffffffffffffffffffffffffff1660008087815260200190815260200160002060080160009054906101000a900473ffffffffffffffffffffffffffffffffffffffff169250925092509193909250565b6000806000848152602001908152602001600020905080600d0160009054906101000a900460ff1615610d09576040517f08c379a0000000000000000000000000000000000000000000000000000000008152600401610d0090613128565b60405180910390fd5b80600d0160019054906101000a900460ff1615610d5b576040517f08c379a0000000000000000000000000000000000000000000000000000000008152600401610d5290613194565b60405180910390fd5b60008211610d9e576040517f08c379a0000000000000000000000000000000000000000000000000000000008152600401610d9590613200565b60405180910390fd5b80600c01548160030154610db29190612bc5565b821115610df4576040517f08c379a0000000000000000000000000000000000000000000000000000000008152600401610deb9061326c565b60405180910390fd5b600081600b015483610e06919061328c565b905080341015610e4b576040517f08c379a0000000000000000000000000000000000000000000000000000000008152600401610e429061331a565b60405180910390fd5b60005b83811015610f1857600081600185600c0154610e6a919061333a565b610e74919061333a565b905083600f018190806001815401808255809150506001900390600052602060002001600090919091909150553360016000888152602001908152602001600020600083815260200190815260200160002060006101000a81548173ffffffffffffffffffffffffffffffffffffffff021916908373ffffffffffffffffffffffffffffffffffffffff160217905550508080610f1090612db6565b915050610e4e565b508282600c016000828254610f2d919061333a565b925050819055503482600e016000828254610f48919061333a565b9250508190555050505050565b6000806000905060005b600080858152602001908152602001600020600f0180549050811015611051578473ffffffffffffffffffffffffffffffffffffffff16600160008681526020019081526020016000206000806000888152602001908152602001600020600f018481548110610fd257610fd161336e565b5b9060005260206000200154815260200190815260200160002060009054906101000a900473ffffffffffffffffffffffffffffffffffffffff1673ffffffffffffffffffffffffffffffffffffffff160361103e5761103b60018361204590919063ffffffff16565b91505b808061104990612db6565b915050610f5f565b508091505092915050565b600080600083815260200190815260200160002090508060090160009054906101000a900473ffffffffffffffffffffffffffffffffffffffff1673ffffffffffffffffffffffffffffffffffffffff163373ffffffffffffffffffffffffffffffffffffffff1614611104576040517f08c379a00000000000000000000000000000000000000000000000000000000081526004016110fb9061340f565b60405180910390fd5b80600d0160019054906101000a900460ff1615611156576040517f08c379a000000000000000000000000000000000000000000000000000000000815260040161114d9061347b565b60405180910390fd5b60005b81600f018054905081101561126b57600082600f0182815481106111805761117f61336e565b5b90600052602060002001549050600060016000868152602001908152602001600020600083815260200190815260200160002060009054906101000a900473ffffffffffffffffffffffffffffffffffffffff169050600073ffffffffffffffffffffffffffffffffffffffff168173ffffffffffffffffffffffffffffffffffffffff1614611256578073ffffffffffffffffffffffffffffffffffffffff166108fc85600b01549081150290604051600060405180830381858888f19350505050158015611254573d6000803e3d6000fd5b505b5050808061126390612db6565b915050611159565b508060060160009054906101000a900473ffffffffffffffffffffffffffffffffffffffff1673ffffffffffffffffffffffffffffffffffffffff166342842e0e308360090160009054906101000a900473ffffffffffffffffffffffffffffffffffffffff1684600501546040518463ffffffff1660e01b81526004016112f593929190612d7f565b600060405180830381600087803b15801561130f57600080fd5b505af1158015611323573d6000803e3d6000fd5b50505050600181600d0160006101000a81548160ff021916908315150217905550600181600d0160016101000a81548160ff0219169083151502179055505050565b600080600080848152602001908152602001600020600d0160009054906101000a900460ff16156113cb576040517f08c379a00000000000000000000000000000000000000000000000000000000081526004016113c2906134e7565b60405180910390fd5b600080848152602001908152602001600020600d0160019054906101000a900460ff161561142e576040517f08c379a00000000000000000000000000000000000000000000000000000000081526004016114259061347b565b60405180910390fd5b60008060008581526020019081526020016000206010015403611486576040517f08c379a000000000000000000000000000000000000000000000000000000000815260040161147d90613553565b60405180910390fd5b60008084815260200190815260200160002060110160009054906101000a900473ffffffffffffffffffffffffffffffffffffffff166000808581526020019081526020016000206010015491509150915091565b600047905090565b6000806000806000806000878152602001908152602001600020600a01549050600061152c606461151e60058561201990919063ffffffff16565b61202f90919063ffffffff16565b6000808981526020019081526020016000206002015461154c919061333a565b90506000611577606461156960058661201990919063ffffffff16565b61202f90919063ffffffff16565b905060008183856115889190612bc5565b6115929190612bc5565b9050838383839750975097509750505050509193509193565b60016020528160005260406000206020528060005260406000206000915091509054906101000a900473ffffffffffffffffffffffffffffffffffffffff1681565b60006060600060025467ffffffffffffffff81111561160f5761160e612457565b5b60405190808252806020026020018201604052801561163d5781602001602082028036833780820191505090505b5090506000805b60025481116116f7578573ffffffffffffffffffffffffffffffffffffffff1660008083815260200190815260200160002060090160009054906101000a900473ffffffffffffffffffffffffffffffffffffffff1673ffffffffffffffffffffffffffffffffffffffff16036116e457808383815181106116c9576116c861336e565b5b60200260200101818152505081806116e090612db6565b9250505b80806116ef90612db6565b915050611644565b5060008167ffffffffffffffff81111561171457611713612457565b5b6040519080825280602002602001820160405280156117425781602001602082028036833780820191505090505b50905060005b8281101561179d578381815181106117635761176261336e565b5b602002602001015182828151811061177e5761177d61336e565b5b602002602001018181525050808061179590612db6565b915050611748565b50818194509450505050915091565b6117b4612102565b6000806000848152602001908152602001600020905060006040518061022001604052808581526020018360010180546117ed90612e2d565b80601f016020809104026020016040519081016040528092919081815260200182805461181990612e2d565b80156118665780601f1061183b57610100808354040283529160200191611866565b820191906000526020600020905b81548152906001019060200180831161184957829003601f168201915b50505050508152602001836002015481526020018360030154815260200183600401548152602001836005015481526020018360060160009054906101000a900473ffffffffffffffffffffffffffffffffffffffff1673ffffffffffffffffffffffffffffffffffffffff1681526020018360070180546118e790612e2d565b80601f016020809104026020016040519081016040528092919081815260200182805461191390612e2d565b80156119605780601f1061193557610100808354040283529160200191611960565b820191906000526020600020905b81548152906001019060200180831161194357829003601f168201915b505050505081526020018360080160009054906101000a900473ffffffffffffffffffffffffffffffffffffffff1673ffffffffffffffffffffffffffffffffffffffff1681526020018360090160009054906101000a900473ffffffffffffffffffffffffffffffffffffffff1673ffffffffffffffffffffffffffffffffffffffff16815260200183600a0154815260200183600b0154815260200183600c01548152602001836010015481526020018360110160009054906101000a900473ffffffffffffffffffffffffffffffffffffffff1673ffffffffffffffffffffffffffffffffffffffff16815260200183600d0160009054906101000a900460ff161515815260200183600d0160019054906101000a900460ff16151581525090508092505050919050565b6000806000838152602001908152602001600020600b01549050919050565b6000806000838152602001908152602001600020905080600d0160009054906101000a900460ff1615611b15576040517f08c379a0000000000000000000000000000000000000000000000000000000008152600401611b0c906134e7565b60405180910390fd5b80600d0160019054906101000a900460ff1615611b67576040517f08c379a0000000000000000000000000000000000000000000000000000000008152600401611b5e9061347b565b60405180910390fd5b606460508260030154611b7a919061328c565b611b8491906135a2565b81600c01541015611bca576040517f08c379a0000000000000000000000000000000000000000000000000000000008152600401611bc19061361f565b60405180910390fd5b6000611bd58361205b565b9050600060016000858152602001908152602001600020600083815260200190815260200160002060009054906101000a900473ffffffffffffffffffffffffffffffffffffffff169050600073ffffffffffffffffffffffffffffffffffffffff168173ffffffffffffffffffffffffffffffffffffffff1603611c8f576040517f08c379a0000000000000000000000000000000000000000000000000000000008152600401611c869061368b565b60405180910390fd5b808360110160006101000a81548173ffffffffffffffffffffffffffffffffffffffff021916908373ffffffffffffffffffffffffffffffffffffffff160217905550837f37a30a31c187f323329351db43159a5b3c2dde95e0f21f061360aa03aa5415b78383604051611d049291906136ab565b60405180910390a26000806000868152602001908152602001600020600a015490506000611d4f6064611d4160058561201990919063ffffffff16565b61202f90919063ffffffff16565b60008088815260200190815260200160002060020154611d6f919061333a565b90506000611d9a6064611d8c60058661201990919063ffffffff16565b61202f90919063ffffffff16565b90506000818385611dab9190612bc5565b611db59190612bc5565b90508660090160009054906101000a900473ffffffffffffffffffffffffffffffffffffffff1673ffffffffffffffffffffffffffffffffffffffff166108fc849081150290604051600060405180830381858888f19350505050158015611e21573d6000803e3d6000fd5b508660120160009054906101000a900473ffffffffffffffffffffffffffffffffffffffff1673ffffffffffffffffffffffffffffffffffffffff166108fc839081150290604051600060405180830381858888f19350505050158015611e8c573d6000803e3d6000fd5b508660080160009054906101000a900473ffffffffffffffffffffffffffffffffffffffff1673ffffffffffffffffffffffffffffffffffffffff166108fc829081150290604051600060405180830381858888f19350505050158015611ef7573d6000803e3d6000fd5b508660060160009054906101000a900473ffffffffffffffffffffffffffffffffffffffff1673ffffffffffffffffffffffffffffffffffffffff166342842e0e30878a600501546040518463ffffffff1660e01b8152600401611f5d93929190612d7f565b600060405180830381600087803b158015611f7757600080fd5b505af1158015611f8b573d6000803e3d6000fd5b50505050600187600d0160016101000a81548160ff021916908315150217905550877f1de299c7214202a224cf78dcd7adac60eac743ba8a2cc84012e96c5a048edfd660405160405180910390a25050505050505050565b6000806000808581526020019081526020016000209050600081600b01548461200c919061328c565b9050809250505092915050565b60008183612027919061328c565b905092915050565b6000818361203d91906135a2565b905092915050565b60008183612053919061333a565b905092915050565b600080600080848152602001908152602001600020600c015442446040516020016120879291906136f5565b6040516020818303038152906040528051906020012060001c6120aa9190613721565b905080915050919050565b8280548282559060005260206000209081019282156120f1579160200282015b828111156120f05782518255916020019190600101906120d5565b5b5090506120fe91906121e2565b5090565b604051806102200160405280600081526020016060815260200160008152602001600081526020016000815260200160008152602001600073ffffffffffffffffffffffffffffffffffffffff16815260200160608152602001600073ffffffffffffffffffffffffffffffffffffffff168152602001600073ffffffffffffffffffffffffffffffffffffffff16815260200160008152602001600081526020016000815260200160008152602001600073ffffffffffffffffffffffffffffffffffffffff1681526020016000151581526020016000151581525090565b5b808211156121fb5760008160009055506001016121e3565b5090565b6000604051905090565b600080fd5b600080fd5b6000819050919050565b61222681612213565b811461223157600080fd5b50565b6000813590506122438161221d565b92915050565b60006020828403121561225f5761225e612209565b5b600061226d84828501612234565b91505092915050565b61227f81612213565b82525050565b600060208201905061229a6000830184612276565b92915050565b600073ffffffffffffffffffffffffffffffffffffffff82169050919050565b60006122cb826122a0565b9050919050565b6122db816122c0565b81146122e657600080fd5b50565b6000813590506122f8816122d2565b92915050565b600080fd5b600080fd5b600080fd5b60008083601f840112612323576123226122fe565b5b8235905067ffffffffffffffff8111156123405761233f612303565b5b60208301915083600182028301111561235c5761235b612308565b5b9250929050565b60008060008060006080868803121561237f5761237e612209565b5b600061238d888289016122e9565b955050602061239e888289016122e9565b94505060406123af88828901612234565b935050606086013567ffffffffffffffff8111156123d0576123cf61220e565b5b6123dc8882890161230d565b92509250509295509295909350565b60007fffffffff0000000000000000000000000000000000000000000000000000000082169050919050565b612420816123eb565b82525050565b600060208201905061243b6000830184612417565b92915050565b600080fd5b6000601f19601f8301169050919050565b7f4e487b7100000000000000000000000000000000000000000000000000000000600052604160045260246000fd5b61248f82612446565b810181811067ffffffffffffffff821117156124ae576124ad612457565b5b80604052505050565b60006124c16121ff565b90506124cd8282612486565b919050565b600067ffffffffffffffff8211156124ed576124ec612457565b5b6124f682612446565b9050602081019050919050565b82818337600083830152505050565b6000612525612520846124d2565b6124b7565b90508281526020810184848401111561254157612540612441565b5b61254c848285612503565b509392505050565b600082601f830112612569576125686122fe565b5b8135612579848260208601612512565b91505092915050565b600080600080600080600080610100898b0312156125a3576125a2612209565b5b600089013567ffffffffffffffff8111156125c1576125c061220e565b5b6125cd8b828c01612554565b98505060206125de8b828c01612234565b97505060406125ef8b828c01612234565b96505060606126008b828c01612234565b95505060806126118b828c01612234565b94505060a06126228b828c016122e9565b93505060c089013567ffffffffffffffff8111156126435761264261220e565b5b61264f8b828c01612554565b92505060e06126608b828c016122e9565b9150509295985092959890939650565b612679816122c0565b82525050565b60006060820190506126946000830186612670565b6126a16020830185612670565b6126ae6040830184612670565b949350505050565b600080604083850312156126cd576126cc612209565b5b60006126db85828601612234565b92505060206126ec85828601612234565b9150509250929050565b6000806040838503121561270d5761270c612209565b5b600061271b858286016122e9565b925050602061272c85828601612234565b9150509250929050565b600060408201905061274b6000830185612670565b6127586020830184612276565b9392505050565b60006080820190506127746000830187612276565b6127816020830186612276565b61278e6040830185612276565b61279b6060830184612276565b95945050505050565b60006020820190506127b96000830184612670565b92915050565b6000602082840312156127d5576127d4612209565b5b60006127e3848285016122e9565b91505092915050565b600081519050919050565b600082825260208201905092915050565b6000819050602082019050919050565b61282181612213565b82525050565b60006128338383612818565b60208301905092915050565b6000602082019050919050565b6000612857826127ec565b61286181856127f7565b935061286c83612808565b8060005b8381101561289d5781516128848882612827565b975061288f8361283f565b925050600181019050612870565b5085935050505092915050565b60006040820190506128bf6000830185612276565b81810360208301526128d1818461284c565b90509392505050565b600081519050919050565b600082825260208201905092915050565b60005b838110156129145780820151818401526020810190506128f9565b60008484015250505050565b600061292b826128da565b61293581856128e5565b93506129458185602086016128f6565b61294e81612446565b840191505092915050565b612962816122c0565b82525050565b60008115159050919050565b61297d81612968565b82525050565b60006102208301600083015161299c6000860182612818565b50602083015184820360208601526129b48282612920565b91505060408301516129c96040860182612818565b5060608301516129dc6060860182612818565b5060808301516129ef6080860182612818565b5060a0830151612a0260a0860182612818565b5060c0830151612a1560c0860182612959565b5060e083015184820360e0860152612a2d8282612920565b915050610100830151612a44610100860182612959565b50610120830151612a59610120860182612959565b50610140830151612a6e610140860182612818565b50610160830151612a83610160860182612818565b50610180830151612a98610180860182612818565b506101a0830151612aad6101a0860182612818565b506101c0830151612ac26101c0860182612959565b506101e0830151612ad76101e0860182612974565b50610200830151612aec610200860182612974565b508091505092915050565b60006020820190508181036000830152612b118184612983565b905092915050565b600082825260208201905092915050565b7f526166666c65206e6f7420666f756e6400000000000000000000000000000000600082015250565b6000612b60601083612b19565b9150612b6b82612b2a565b602082019050919050565b60006020820190508181036000830152612b8f81612b53565b9050919050565b7f4e487b7100000000000000000000000000000000000000000000000000000000600052601160045260246000fd5b6000612bd082612213565b9150612bdb83612213565b9250828203905081811115612bf357612bf2612b96565b5b92915050565b7f496e76616c6964204e465420636f6e7472616374206164647265737300000000600082015250565b6000612c2f601c83612b19565b9150612c3a82612bf9565b602082019050919050565b60006020820190508181036000830152612c5e81612c22565b9050919050565b7f456e642074696d65206d75737420626520696e20667574757265000000000000600082015250565b6000612c9b601a83612b19565b9150612ca682612c65565b602082019050919050565b60006020820190508181036000830152612cca81612c8e565b9050919050565b600081519050612ce0816122d2565b92915050565b600060208284031215612cfc57612cfb612209565b5b6000612d0a84828501612cd1565b91505092915050565b7f4f6e6c79204e4654206f776e65722063616e2063726561746520726166666c65600082015250565b6000612d49602083612b19565b9150612d5482612d13565b602082019050919050565b60006020820190508181036000830152612d7881612d3c565b9050919050565b6000606082019050612d946000830186612670565b612da16020830185612670565b612dae6040830184612276565b949350505050565b6000612dc182612213565b91507fffffffffffffffffffffffffffffffffffffffffffffffffffffffffffffffff8203612df357612df2612b96565b5b600182019050919050565b7f4e487b7100000000000000000000000000000000000000000000000000000000600052602260045260246000fd5b60006002820490506001821680612e4557607f821691505b602082108103612e5857612e57612dfe565b5b50919050565b60008190508160005260206000209050919050565b60006020601f8301049050919050565b600082821b905092915050565b600060088302612ec07fffffffffffffffffffffffffffffffffffffffffffffffffffffffffffffffff82612e83565b612eca8683612e83565b95508019841693508086168417925050509392505050565b6000819050919050565b6000612f07612f02612efd84612213565b612ee2565b612213565b9050919050565b6000819050919050565b612f2183612eec565b612f35612f2d82612f0e565b848454612e90565b825550505050565b600090565b612f4a612f3d565b612f55818484612f18565b505050565b5b81811015612f7957612f6e600082612f42565b600181019050612f5b565b5050565b601f821115612fbe57612f8f81612e5e565b612f9884612e73565b81016020851015612fa7578190505b612fbb612fb385612e73565b830182612f5a565b50505b505050565b600082821c905092915050565b6000612fe160001984600802612fc3565b1980831691505092915050565b6000612ffa8383612fd0565b9150826002028217905092915050565b613013826128da565b67ffffffffffffffff81111561302c5761302b612457565b5b6130368254612e2d565b613041828285612f7d565b600060209050601f8311600181146130745760008415613062578287015190505b61306c8582612fee565b8655506130d4565b601f19841661308286612e5e565b60005b828110156130aa57848901518255600182019150602085019450602081019050613085565b868310156130c757848901516130c3601f891682612fd0565b8355505b6001600288020188555050505b505050505050565b7f526166666c652069732063616e63656c6c656400000000000000000000000000600082015250565b6000613112601383612b19565b915061311d826130dc565b602082019050919050565b6000602082019050818103600083015261314181613105565b9050919050565b7f526166666c6520697320656e6465640000000000000000000000000000000000600082015250565b600061317e600f83612b19565b915061318982613148565b602082019050919050565b600060208201905081810360008301526131ad81613171565b9050919050565b7f496e76616c6964206e756d626572206f66207469636b65747300000000000000600082015250565b60006131ea601983612b19565b91506131f5826131b4565b602082019050919050565b60006020820190508181036000830152613219816131dd565b9050919050565b7f4e6f7420656e6f756768207469636b65747320617661696c61626c6500000000600082015250565b6000613256601c83612b19565b915061326182613220565b602082019050919050565b6000602082019050818103600083015261328581613249565b9050919050565b600061329782612213565b91506132a283612213565b92508282026132b081612213565b915082820484148315176132c7576132c6612b96565b5b5092915050565b7f496e636f7272656374207061796d656e7420616d6f756e740000000000000000600082015250565b6000613304601883612b19565b915061330f826132ce565b602082019050919050565b60006020820190508181036000830152613333816132f7565b9050919050565b600061334582612213565b915061335083612213565b925082820190508082111561336857613367612b96565b5b92915050565b7f4e487b7100000000000000000000000000000000000000000000000000000000600052603260045260246000fd5b7f4f6e6c7920726166666c652063726561746f722063616e2063616e63656c207460008201527f6865206c6f747465727900000000000000000000000000000000000000000000602082015250565b60006133f9602a83612b19565b91506134048261339d565b604082019050919050565b60006020820190508181036000830152613428816133ec565b9050919050565b7f526166666c652068617320616c726561647920656e6465640000000000000000600082015250565b6000613465601883612b19565b91506134708261342f565b602082019050919050565b6000602082019050818103600083015261349481613458565b9050919050565b7f526166666c6520686173206265656e2063616e63656c6c656400000000000000600082015250565b60006134d1601983612b19565b91506134dc8261349b565b602082019050919050565b60006020820190508181036000830152613500816134c4565b9050919050565b7f57696e6e657220686173206e6f74206265656e207069636b6564207965740000600082015250565b600061353d601e83612b19565b915061354882613507565b602082019050919050565b6000602082019050818103600083015261356c81613530565b9050919050565b7f4e487b7100000000000000000000000000000000000000000000000000000000600052601260045260246000fd5b60006135ad82612213565b91506135b883612213565b9250826135c8576135c7613573565b5b828204905092915050565b7f526166666c652063616e277420626520636f6d706c6574656420796574000000600082015250565b6000613609601d83612b19565b9150613614826135d3565b602082019050919050565b60006020820190508181036000830152613638816135fc565b9050919050565b7f57696e6e657220686173206e6f74206265656e2073656c656374656420796574600082015250565b6000613675602083612b19565b91506136808261363f565b602082019050919050565b600060208201905081810360008301526136a481613668565b9050919050565b60006040820190506136c06000830185612276565b6136cd6020830184612670565b9392505050565b6000819050919050565b6136ef6136ea82612213565b6136d4565b82525050565b600061370182856136de565b60208201915061371182846136de565b6020820191508190509392505050565b600061372c82612213565b915061373783612213565b92508261374757613746613573565b5b82820690509291505056fea26469706673582212202fac32f298286330e9f562e2d1ed03c1471dfdb4ebe251583a879e6fea18584464736f6c63430008130033",
  "immutableReferences": {},
  "source": "// SPDX-License-Identifier: MIT\r\npragma solidity ^0.8.0;\r\n\r\n// 0x46025aFCEa9627943aa1aa009BA827eC95D201b6\r\n// https://cdn.pixabay.com/photo/2022/01/17/17/20/bored-6945309_1280.png\r\n\r\nimport \"@openzeppelin/contracts/token/ERC721/IERC721.sol\";\r\nimport \"@openzeppelin/contracts/utils/math/SafeMath.sol\";\r\nimport \"@openzeppelin/contracts/token/ERC721/IERC721Receiver.sol\";\r\n\r\ncontract mainNftRaffle is IERC721Receiver {\r\n    using SafeMath for uint256;\r\n\r\n    struct Raffle {\r\n        uint raffleId;\r\n        string raffleName;\r\n        uint256 nftPrice;\r\n        uint256 totalVolumeofTickets;\r\n        uint256 endTime;\r\n        uint256 nftId;\r\n        address nftContractAddress;\r\n        string nftSourceLink;\r\n        address charityAddress;\r\n        address raffleCreator;\r\n        uint256 rafflePool;\r\n        uint256 ticketPrice;\r\n        uint256 totalSoldTickets;\r\n        bool raffleCancelled;\r\n        bool raffleEnded;\r\n        uint256 fundsInContract;\r\n        uint256[] tickets;\r\n        uint winningTicket;\r\n        address raffleWinner;\r\n        address payable developmentTeam;\r\n    }\r\n\r\n    struct RaffleInfo {\r\n        uint raffleId;\r\n        string raffleName;\r\n        uint256 nftPrice;\r\n        uint256 totalVolumeofTickets;\r\n        uint256 endTime;\r\n        uint256 nftId;\r\n        address nftContractAddress;\r\n        string nftSourceLink;\r\n        address charityAddress;\r\n        address raffleCreator;\r\n        uint256 rafflePool;\r\n        uint256 ticketPrice;\r\n        uint256 totalSoldTickets;\r\n        uint winningTicket;\r\n        address raffleWinner;\r\n        bool raffleCancelled;\r\n        bool raffleEnded;\r\n    }\r\n\r\n    mapping(uint256 => Raffle) private raffles;\r\n    mapping(uint256 => mapping(uint256 => address)) public ticketToOwner;\r\n    uint256 private raffleCount = 0;\r\n\r\n    event WinnerSelected(\r\n        uint256 indexed raffleId,\r\n        uint256 winningTicketNumber,\r\n        address winningTicketOwner\r\n    );\r\n    event raffleEnded(uint256 indexed raffleId);\r\n\r\n    function createRaffle(\r\n        string memory _raffleName,\r\n        uint256 _nftPrice,\r\n        uint256 _totalVolumeofTickets,\r\n        uint256 _endTime,\r\n        uint256 _nftId,\r\n        address _nftContractAddress,\r\n        string memory _nftSourceLink,\r\n        address _charityAddress\r\n    ) public returns (uint256) {\r\n        require(\r\n            _nftContractAddress != address(0),\r\n            \"Invalid NFT contract address\"\r\n        );\r\n        require(_endTime > block.timestamp, \"End time must be in future\");\r\n        IERC721 nftContract = IERC721(_nftContractAddress);\r\n        require(\r\n            msg.sender == nftContract.ownerOf(_nftId),\r\n            \"Only NFT owner can create raffle\"\r\n        );\r\n\r\n        nftContract.safeTransferFrom(msg.sender, address(this), _nftId);\r\n        raffleCount++;\r\n\r\n        raffles[raffleCount] = Raffle({\r\n            raffleId: raffleCount,\r\n            raffleName: _raffleName,\r\n            nftPrice: _nftPrice,\r\n            totalVolumeofTickets: _totalVolumeofTickets,\r\n            endTime: _endTime,\r\n            nftId: _nftId,\r\n            nftContractAddress: _nftContractAddress,\r\n            nftSourceLink: _nftSourceLink,\r\n            raffleCreator: msg.sender,\r\n            rafflePool: (_nftPrice.mul(150)).div(100),\r\n            ticketPrice: 0,\r\n            charityAddress: _charityAddress,\r\n            totalSoldTickets: 0,\r\n            raffleCancelled: false,\r\n            raffleEnded: false,\r\n            fundsInContract: 0,\r\n            tickets: new uint256[](0),\r\n            winningTicket: 0,\r\n            raffleWinner: address(0),\r\n            developmentTeam: payable(\r\n                address(0xE46Cb9CA18520D3F0394F570C35259c188B33B98)\r\n            )\r\n        });\r\n\r\n        raffles[raffleCount].ticketPrice = raffles[raffleCount].rafflePool.div(\r\n            _totalVolumeofTickets\r\n        );\r\n\r\n        return raffleCount;\r\n    }\r\n\r\n    function getTicketPrice(uint256 _raffleId) public view returns (uint256) {\r\n        return raffles[_raffleId].ticketPrice;\r\n    }\r\n\r\n    function getTicketsOwned(\r\n        address _address,\r\n        uint256 raffleId\r\n    ) public view returns (uint256) {\r\n        uint256 totalTicketsOwned = 0;\r\n        for (uint256 i = 0; i < raffles[raffleId].tickets.length; i++) {\r\n            if (\r\n                ticketToOwner[raffleId][raffles[raffleId].tickets[i]] ==\r\n                _address\r\n            ) {\r\n                totalTicketsOwned = totalTicketsOwned.add(1);\r\n            }\r\n        }\r\n        return totalTicketsOwned;\r\n    }\r\n\r\n    function getOwnedRaffles(\r\n        address owner\r\n    ) public view returns (uint256 totalRaffles, uint256[] memory raffleIds) {\r\n        uint256[] memory ownedRaffleIds = new uint256[](raffleCount);\r\n        uint256 count = 0;\r\n        for (uint256 i = 0; i <= raffleCount; i++) {\r\n            if (raffles[i].raffleCreator == owner) {\r\n                ownedRaffleIds[count] = i;\r\n                count++;\r\n            }\r\n        }\r\n        uint256[] memory result = new uint256[](count);\r\n        for (uint256 j = 0; j < count; j++) {\r\n            result[j] = ownedRaffleIds[j];\r\n        }\r\n        return (count, result);\r\n    }\r\n\r\n    function getAvailableTickets(\r\n        uint256 _raffleID\r\n    ) public view returns (uint256) {\r\n        Raffle storage raffle = raffles[_raffleID];\r\n        require(raffle.raffleId != 0, \"Raffle not found\");\r\n\r\n        if (raffle.raffleEnded || raffle.raffleCancelled) {\r\n            return 0;\r\n        } else {\r\n            return raffle.totalVolumeofTickets - raffle.totalSoldTickets;\r\n        }\r\n    }\r\n\r\n    function buyTicket(\r\n        uint256 _raffleId,\r\n        uint256 _totalTicketsWanted\r\n    ) public payable {\r\n        Raffle storage raffle = raffles[_raffleId];\r\n\r\n        require(!raffle.raffleCancelled, \"Raffle is cancelled\");\r\n        require(!raffle.raffleEnded, \"Raffle is ended\");\r\n        require(_totalTicketsWanted > 0, \"Invalid number of tickets\");\r\n        require(\r\n            _totalTicketsWanted <=\r\n                raffle.totalVolumeofTickets - raffle.totalSoldTickets,\r\n            \"Not enough tickets available\"\r\n        );\r\n        uint256 totalTicketPrice = _totalTicketsWanted * raffle.ticketPrice;\r\n        require(msg.value >= totalTicketPrice, \"Incorrect payment amount\");\r\n\r\n        // Update ticket ownership\r\n        for (uint256 i = 0; i < _totalTicketsWanted; i++) {\r\n            uint256 ticket = raffle.totalSoldTickets + 1 + i;\r\n            raffle.tickets.push(ticket);\r\n            ticketToOwner[_raffleId][ticket] = msg.sender;\r\n        }\r\n\r\n        // Update raffle info\r\n        raffle.totalSoldTickets += _totalTicketsWanted;\r\n        raffle.fundsInContract += msg.value;\r\n    }\r\n\r\n    function getTotalTicketPrice(\r\n        uint _raffleId,\r\n        uint256 _totalTicketsWanted\r\n    ) public view returns (uint256) {\r\n        Raffle storage raffle = raffles[_raffleId];\r\n\r\n        uint256 totalTicketPrice = _totalTicketsWanted * raffle.ticketPrice;\r\n        return totalTicketPrice;\r\n    }\r\n\r\n    // This function picks a random ticket from totalSoldTickets for a raffleId.\r\n    function pickRandomTicket(uint256 raffleId) private view returns (uint256) {\r\n        uint256 randomNumber = uint256(\r\n            keccak256(abi.encodePacked(block.timestamp, block.difficulty))\r\n        ) % raffles[raffleId].totalSoldTickets;\r\n        return randomNumber;\r\n    }\r\n\r\n    function pickWinner(uint256 raffleId) public {\r\n        Raffle storage raffle = raffles[raffleId];\r\n\r\n        require(!raffle.raffleCancelled, \"Raffle has been cancelled\");\r\n        require(!raffle.raffleEnded, \"Raffle has already ended\");\r\n        require(\r\n            raffle.totalSoldTickets >= (raffle.totalVolumeofTickets * 80) / 100,\r\n            \"Raffle can't be completed yet\"\r\n        );\r\n\r\n        // Pick a random ticket as the winning ticket.\r\n        uint256 winningTicketNumber = pickRandomTicket(raffleId);\r\n        address winningTicketOwner = ticketToOwner[raffleId][\r\n            winningTicketNumber\r\n        ];\r\n        require(\r\n            winningTicketOwner != address(0),\r\n            \"Winner has not been selected yet\"\r\n        );\r\n\r\n        // Store the winning ticket information in the raffle struct\r\n        raffle.raffleWinner = winningTicketOwner;\r\n\r\n        // Emit an event to indicate that a winner has been selected.\r\n        emit WinnerSelected(raffleId, winningTicketNumber, winningTicketOwner);\r\n\r\n        // Send the prize pool to each entity\r\n        uint256 rafflePrizePool = raffles[raffleId].rafflePool;\r\n        uint256 raffleCreatorPrize = raffles[raffleId].nftPrice +\r\n            (rafflePrizePool.mul(5)).div(100);\r\n        uint256 developmentTeamPrize = (rafflePrizePool.mul(5)).div(100);\r\n        uint256 charityPrize = rafflePrizePool -\r\n            raffleCreatorPrize -\r\n            developmentTeamPrize;\r\n\r\n        // Transfer the prize amounts to each entity.\r\n        payable(raffle.raffleCreator).transfer(raffleCreatorPrize);\r\n        payable(raffle.developmentTeam).transfer(developmentTeamPrize);\r\n        payable(raffle.charityAddress).transfer(charityPrize);\r\n\r\n        // Call safeTransferFrom function on ERC721 token contract to transfer the NFT to the winner.\r\n        IERC721(raffle.nftContractAddress).safeTransferFrom(\r\n            address(this),\r\n            winningTicketOwner,\r\n            raffle.nftId\r\n        );\r\n\r\n        // Mark the raffle as ended\r\n        raffle.raffleEnded = true;\r\n\r\n        // Emit raffleEnded event\r\n        emit raffleEnded(raffleId);\r\n    }\r\n\r\n    function cancelRaffle(uint256 _raffleId) public {\r\n        Raffle storage raffle = raffles[_raffleId];\r\n        require(\r\n            msg.sender == raffle.raffleCreator,\r\n            \"Only raffle creator can cancel the lottery\"\r\n        );\r\n        require(!raffle.raffleEnded, \"Raffle has already ended\");\r\n\r\n        // Refund funds to ticket owners\r\n        for (uint256 i = 0; i < raffle.tickets.length; i++) {\r\n            uint256 ticket = raffle.tickets[i];\r\n            address ticketOwner = ticketToOwner[_raffleId][ticket];\r\n            if (ticketOwner != address(0)) {\r\n                payable(ticketOwner).transfer(raffle.ticketPrice);\r\n            }\r\n        }\r\n\r\n        // Transfer NFT back to raffle creator\r\n        IERC721(raffle.nftContractAddress).safeTransferFrom(\r\n            address(this),\r\n            raffle.raffleCreator,\r\n            raffle.nftId\r\n        );\r\n\r\n        // Update raffle status\r\n        raffle.raffleCancelled = true;\r\n        raffle.raffleEnded = true;\r\n    }\r\n\r\n    function getPrizePool(\r\n        uint256 _raffleId\r\n    ) public view returns (uint256, uint256, uint256, uint256) {\r\n        uint256 rafflePrizePool = raffles[_raffleId].rafflePool;\r\n        uint256 raffleCreatorPrize = raffles[_raffleId].nftPrice +\r\n            (rafflePrizePool.mul(5)).div(100);\r\n        uint256 developmentTeamPrize = (rafflePrizePool.mul(5)).div(100);\r\n        uint256 charityPrize = rafflePrizePool -\r\n            raffleCreatorPrize -\r\n            developmentTeamPrize;\r\n\r\n        return (\r\n            rafflePrizePool,\r\n            raffleCreatorPrize,\r\n            developmentTeamPrize,\r\n            charityPrize\r\n        );\r\n    }\r\n\r\n    function getRaffleWinner(\r\n        uint256 raffleId\r\n    ) public view returns (address winner, uint256 winningTicket) {\r\n        require(\r\n            !raffles[raffleId].raffleCancelled,\r\n            \"Raffle has been cancelled\"\r\n        );\r\n        require(!raffles[raffleId].raffleEnded, \"Raffle has already ended\");\r\n        require(\r\n            raffles[raffleId].winningTicket != 0,\r\n            \"Winner has not been picked yet\"\r\n        );\r\n\r\n        return (\r\n            raffles[raffleId].raffleWinner,\r\n            raffles[raffleId].winningTicket\r\n        );\r\n    }\r\n\r\n    function raffleInfo(\r\n        uint256 _raffleID\r\n    ) public view returns (RaffleInfo memory) {\r\n        Raffle storage raffle = raffles[_raffleID];\r\n\r\n        RaffleInfo memory raffleInfo = RaffleInfo({\r\n            raffleId: _raffleID,\r\n            raffleName: raffle.raffleName,\r\n            nftPrice: raffle.nftPrice,\r\n            totalVolumeofTickets: raffle.totalVolumeofTickets,\r\n            endTime: raffle.endTime,\r\n            nftId: raffle.nftId,\r\n            nftContractAddress: raffle.nftContractAddress,\r\n            nftSourceLink: raffle.nftSourceLink,\r\n            charityAddress: raffle.charityAddress,\r\n            raffleCreator: raffle.raffleCreator,\r\n            rafflePool: raffle.rafflePool,\r\n            ticketPrice: raffle.ticketPrice,\r\n            totalSoldTickets: raffle.totalSoldTickets,\r\n            winningTicket: raffle.winningTicket,\r\n            raffleWinner: raffle.raffleWinner,\r\n            raffleCancelled: raffle.raffleCancelled,\r\n            raffleEnded: raffle.raffleEnded\r\n        });\r\n\r\n        return raffleInfo;\r\n    }\r\n\r\n    function onERC721Received(\r\n        address operator,\r\n        address from,\r\n        uint256 tokenId,\r\n        bytes calldata data\r\n    ) external returns (bytes4) {\r\n        return this.onERC721Received.selector;\r\n    }\r\n\r\n    function getEntityAddresses(\r\n        uint256 _raffleId\r\n    ) public view returns (address, address, address) {\r\n        return (\r\n            raffles[_raffleId].raffleCreator,\r\n            raffles[_raffleId].developmentTeam,\r\n            raffles[_raffleId].charityAddress\r\n        );\r\n    }\r\n\r\n    function getTotalRaffles() public view returns (uint256) {\r\n        return raffleCount;\r\n    }\r\n\r\n    function getContractBalance() public view returns (uint256) {\r\n        return address(this).balance;\r\n    }\r\n}\r\n",
  "sourcePath": "C:\\Users\\user\\Desktop\\GIT_REPOS\\originx\\backend\\contracts\\mainNftRaffle.sol",
  "compiler": {
    "name": "solc",
    "version": "0.8.19+commit.7dd6d404.Emscripten.clang"
  },
  "schemaVersion": "3.4.13",
  "updatedAt": "2023-06-21T04:00:52.343Z",
  "networkType": "ethereum",
  "devdoc": {
    "kind": "dev",
    "methods": {
      "onERC721Received(address,address,uint256,bytes)": {
        "details": "Whenever an {IERC721} `tokenId` token is transferred to this contract via {IERC721-safeTransferFrom} by `operator` from `from`, this function is called. It must return its Solidity selector to confirm the token transfer. If any other value is returned or the interface is not implemented by the recipient, the transfer will be reverted. The selector can be obtained in Solidity with `IERC721Receiver.onERC721Received.selector`."
      }
    },
    "version": 1
  },
  "userdoc": {
    "kind": "user",
    "methods": {},
    "version": 1
  }
}