{
  "contractName": "mainNftRaffle",
  "abi": [
    {
      "anonymous": false,
      "inputs": [
        {
          "indexed": true,
          "internalType": "uint256",
          "name": "raffleId",
          "type": "uint256"
        },
        {
          "indexed": false,
          "internalType": "uint256",
          "name": "winningTicketNumber",
          "type": "uint256"
        },
        {
          "indexed": false,
          "internalType": "address",
          "name": "winningTicketOwner",
          "type": "address"
        }
      ],
      "name": "WinnerSelected",
      "type": "event"
    },
    {
      "inputs": [
        {
          "internalType": "uint256",
          "name": "",
          "type": "uint256"
        },
        {
          "internalType": "uint256",
          "name": "",
          "type": "uint256"
        }
      ],
      "name": "ticketToOwner",
      "outputs": [
        {
          "internalType": "address",
          "name": "",
          "type": "address"
        }
      ],
      "stateMutability": "view",
      "type": "function",
      "constant": true
    },
    {
      "inputs": [
        {
          "internalType": "string",
          "name": "_raffleName",
          "type": "string"
        },
        {
          "internalType": "uint256",
          "name": "_nftPrice",
          "type": "uint256"
        },
        {
          "internalType": "uint256",
          "name": "_totalVolumeofTickets",
          "type": "uint256"
        },
        {
          "internalType": "uint256",
          "name": "_endTime",
          "type": "uint256"
        },
        {
          "internalType": "uint256",
          "name": "_nftId",
          "type": "uint256"
        },
        {
          "internalType": "address",
          "name": "_nftContractAddress",
          "type": "address"
        },
        {
          "internalType": "string",
          "name": "_nftSourceLink",
          "type": "string"
        },
        {
          "internalType": "address",
          "name": "_charityAddress",
          "type": "address"
        }
      ],
      "name": "createRaffle",
      "outputs": [
        {
          "internalType": "uint256",
          "name": "",
          "type": "uint256"
        }
      ],
      "stateMutability": "nonpayable",
      "type": "function"
    },
    {
      "inputs": [
        {
          "internalType": "uint256",
          "name": "_raffleId",
          "type": "uint256"
        }
      ],
      "name": "getTicketPrice",
      "outputs": [
        {
          "internalType": "uint256",
          "name": "",
          "type": "uint256"
        }
      ],
      "stateMutability": "view",
      "type": "function",
      "constant": true
    },
    {
      "inputs": [
        {
          "internalType": "address",
          "name": "_address",
          "type": "address"
        },
        {
          "internalType": "uint256",
          "name": "raffleId",
          "type": "uint256"
        }
      ],
      "name": "getTicketsOwned",
      "outputs": [
        {
          "internalType": "uint256",
          "name": "",
          "type": "uint256"
        }
      ],
      "stateMutability": "view",
      "type": "function",
      "constant": true
    },
    {
      "inputs": [
        {
          "internalType": "address",
          "name": "owner",
          "type": "address"
        }
      ],
      "name": "getOwnedRaffles",
      "outputs": [
        {
          "internalType": "uint256",
          "name": "totalRaffles",
          "type": "uint256"
        },
        {
          "internalType": "uint256[]",
          "name": "raffleIds",
          "type": "uint256[]"
        }
      ],
      "stateMutability": "view",
      "type": "function",
      "constant": true
    },
    {
      "inputs": [
        {
          "internalType": "uint256",
          "name": "_raffleID",
          "type": "uint256"
        }
      ],
      "name": "getAvailableTickets",
      "outputs": [
        {
          "internalType": "uint256",
          "name": "",
          "type": "uint256"
        }
      ],
      "stateMutability": "view",
      "type": "function",
      "constant": true
    },
    {
      "inputs": [
        {
          "internalType": "uint256",
          "name": "_raffleId",
          "type": "uint256"
        },
        {
          "internalType": "uint256",
          "name": "_totalTicketsWanted",
          "type": "uint256"
        }
      ],
      "name": "buyTicket",
      "outputs": [],
      "stateMutability": "payable",
      "type": "function",
      "payable": true
    },
    {
      "inputs": [
        {
          "internalType": "uint256",
          "name": "_raffleId",
          "type": "uint256"
        },
        {
          "internalType": "uint256",
          "name": "_totalTicketsWanted",
          "type": "uint256"
        }
      ],
      "name": "getTotalTicketPrice",
      "outputs": [
        {
          "internalType": "uint256",
          "name": "",
          "type": "uint256"
        }
      ],
      "stateMutability": "view",
      "type": "function",
      "constant": true
    },
    {
      "inputs": [
        {
          "internalType": "uint256",
          "name": "raffleId",
          "type": "uint256"
        }
      ],
      "name": "pickWinner",
      "outputs": [],
      "stateMutability": "nonpayable",
      "type": "function"
    },
    {
      "inputs": [
        {
          "internalType": "uint256",
          "name": "_raffleId",
          "type": "uint256"
        }
      ],
      "name": "getPrizePool",
      "outputs": [
        {
          "internalType": "uint256",
          "name": "",
          "type": "uint256"
        },
        {
          "internalType": "uint256",
          "name": "",
          "type": "uint256"
        },
        {
          "internalType": "uint256",
          "name": "",
          "type": "uint256"
        },
        {
          "internalType": "uint256",
          "name": "",
          "type": "uint256"
        }
      ],
      "stateMutability": "view",
      "type": "function",
      "constant": true
    },
    {
      "inputs": [
        {
          "internalType": "uint256",
          "name": "_raffleId",
          "type": "uint256"
        }
      ],
      "name": "sendPrizePool",
      "outputs": [],
      "stateMutability": "nonpayable",
      "type": "function"
    },
    {
      "inputs": [
        {
          "internalType": "uint256",
          "name": "_raffleID",
          "type": "uint256"
        }
      ],
      "name": "raffleInfo",
      "outputs": [
        {
          "components": [
            {
              "internalType": "uint256",
              "name": "raffleId",
              "type": "uint256"
            },
            {
              "internalType": "string",
              "name": "raffleName",
              "type": "string"
            },
            {
              "internalType": "uint256",
              "name": "nftPrice",
              "type": "uint256"
            },
            {
              "internalType": "uint256",
              "name": "totalVolumeofTickets",
              "type": "uint256"
            },
            {
              "internalType": "uint256",
              "name": "endTime",
              "type": "uint256"
            },
            {
              "internalType": "uint256",
              "name": "nftId",
              "type": "uint256"
            },
            {
              "internalType": "address",
              "name": "nftContractAddress",
              "type": "address"
            },
            {
              "internalType": "string",
              "name": "nftSourceLink",
              "type": "string"
            },
            {
              "internalType": "address",
              "name": "charityAddress",
              "type": "address"
            },
            {
              "internalType": "address",
              "name": "raffleCreator",
              "type": "address"
            },
            {
              "internalType": "uint256",
              "name": "rafflePool",
              "type": "uint256"
            },
            {
              "internalType": "uint256",
              "name": "ticketPrice",
              "type": "uint256"
            },
            {
              "internalType": "uint256",
              "name": "totalSoldTickets",
              "type": "uint256"
            },
            {
              "internalType": "uint256",
              "name": "winningTicket",
              "type": "uint256"
            },
            {
              "internalType": "address",
              "name": "raffleWinner",
              "type": "address"
            },
            {
              "internalType": "bool",
              "name": "raffleCancelled",
              "type": "bool"
            },
            {
              "internalType": "bool",
              "name": "raffleEnded",
              "type": "bool"
            }
          ],
          "internalType": "struct mainNftRaffle.RaffleInfo",
          "name": "",
          "type": "tuple"
        }
      ],
      "stateMutability": "view",
      "type": "function",
      "constant": true
    },
    {
      "inputs": [
        {
          "internalType": "address",
          "name": "operator",
          "type": "address"
        },
        {
          "internalType": "address",
          "name": "from",
          "type": "address"
        },
        {
          "internalType": "uint256",
          "name": "tokenId",
          "type": "uint256"
        },
        {
          "internalType": "bytes",
          "name": "data",
          "type": "bytes"
        }
      ],
      "name": "onERC721Received",
      "outputs": [
        {
          "internalType": "bytes4",
          "name": "",
          "type": "bytes4"
        }
      ],
      "stateMutability": "nonpayable",
      "type": "function"
    },
    {
      "inputs": [],
      "name": "getTotalRaffles",
      "outputs": [
        {
          "internalType": "uint256",
          "name": "",
          "type": "uint256"
        }
      ],
      "stateMutability": "view",
      "type": "function",
      "constant": true
    },
    {
      "inputs": [
        {
          "internalType": "uint256",
          "name": "_raffleId",
          "type": "uint256"
        }
      ],
      "name": "getEntityAddresses",
      "outputs": [
        {
          "internalType": "address",
          "name": "",
          "type": "address"
        },
        {
          "internalType": "address",
          "name": "",
          "type": "address"
        },
        {
          "internalType": "address",
          "name": "",
          "type": "address"
        }
      ],
      "stateMutability": "view",
      "type": "function",
      "constant": true
    },
    {
      "inputs": [],
      "name": "getContractBalance",
      "outputs": [
        {
          "internalType": "uint256",
          "name": "",
          "type": "uint256"
        }
      ],
      "stateMutability": "view",
      "type": "function",
      "constant": true
    }
  ],
  "bytecode": "0x6080604052600060025534801561001557600080fd5b50613146806100256000396000f3fe6080604052600436106100f35760003560e01c80637822be4a1161008a578063bf30d79011610059578063bf30d79014610381578063f06fc961146103be578063f737d21d146103fb578063f9ea238214610424576100f3565b80637822be4a1461029d5780638a56e3b9146102dd5780639a290b871461031a578063a4e74daf14610343576100f3565b80632973c9b1116100c65780632973c9b1146101da578063298ec2081461021957806338a2efbe146102355780636f9fb98a14610272576100f3565b80630cc7b2a9146100f85780630ded5c3614610135578063150b7a02146101605780631e8c48e41461019d575b600080fd5b34801561010457600080fd5b5061011f600480360381019061011a9190611d9a565b610461565b60405161012c9190611dd6565b60405180910390f35b34801561014157600080fd5b5061014a610516565b6040516101579190611dd6565b60405180910390f35b34801561016c57600080fd5b5061018760048036038101906101829190611eb4565b610520565b6040516101949190611f77565b60405180910390f35b3480156101a957600080fd5b506101c460048036038101906101bf91906120d3565b610535565b6040516101d19190611dd6565b60405180910390f35b3480156101e657600080fd5b5061020160048036038101906101fc9190611d9a565b610ba4565b604051610210939291906121d0565b60405180910390f35b610233600480360381019061022e9190612207565b610c58565b005b34801561024157600080fd5b5061025c60048036038101906102579190612247565b610f0c565b6040516102699190611dd6565b60405180910390f35b34801561027e57600080fd5b50610287611013565b6040516102949190611dd6565b60405180910390f35b3480156102a957600080fd5b506102c460048036038101906102bf9190611d9a565b61101b565b6040516102d49493929190612287565b60405180910390f35b3480156102e957600080fd5b5061030460048036038101906102ff9190612207565b6110e3565b60405161031191906122cc565b60405180910390f35b34801561032657600080fd5b50610341600480360381019061033c9190611d9a565b611125565b005b34801561034f57600080fd5b5061036a600480360381019061036591906122e7565b611506565b6040516103789291906123d2565b60405180910390f35b34801561038d57600080fd5b506103a860048036038101906103a39190611d9a565b6116c5565b6040516103b5919061261f565b60405180910390f35b3480156103ca57600080fd5b506103e560048036038101906103e09190611d9a565b6119a7565b6040516103f29190611dd6565b60405180910390f35b34801561040757600080fd5b50610422600480360381019061041d9190611d9a565b6119c6565b005b34801561043057600080fd5b5061044b60048036038101906104469190612207565b611b34565b6040516104589190611dd6565b60405180910390f35b600080600080848152602001908152602001600020905060008160000154036104bf576040517f08c379a00000000000000000000000000000000000000000000000000000000081526004016104b69061269e565b60405180910390fd5b80600d0160019054906101000a900460ff16806104ea575080600d0160009054906101000a900460ff165b156104f9576000915050610511565b80600c0154816003015461050d91906126ed565b9150505b919050565b6000600254905090565b600063150b7a0260e01b905095945050505050565b60008073ffffffffffffffffffffffffffffffffffffffff168473ffffffffffffffffffffffffffffffffffffffff16036105a5576040517f08c379a000000000000000000000000000000000000000000000000000000000815260040161059c9061276d565b60405180910390fd5b4286116105e7576040517f08c379a00000000000000000000000000000000000000000000000000000000081526004016105de906127d9565b60405180910390fd5b60008490508073ffffffffffffffffffffffffffffffffffffffff16636352211e876040518263ffffffff1660e01b81526004016106259190611dd6565b602060405180830381865afa158015610642573d6000803e3d6000fd5b505050506040513d601f19601f82011682018060405250810190610666919061280e565b73ffffffffffffffffffffffffffffffffffffffff163373ffffffffffffffffffffffffffffffffffffffff16146106d3576040517f08c379a00000000000000000000000000000000000000000000000000000000081526004016106ca90612887565b60405180910390fd5b8073ffffffffffffffffffffffffffffffffffffffff166342842e0e3330896040518463ffffffff1660e01b8152600401610710939291906128a7565b600060405180830381600087803b15801561072a57600080fd5b505af115801561073e573d6000803e3d6000fd5b5050505060026000815480929190610755906128de565b919050555060405180610280016040528060025481526020018b81526020018a81526020018981526020018881526020018781526020018673ffffffffffffffffffffffffffffffffffffffff1681526020018581526020018473ffffffffffffffffffffffffffffffffffffffff1681526020013373ffffffffffffffffffffffffffffffffffffffff16815260200161080d60646107ff60968e611b6a90919063ffffffff16565b611b8090919063ffffffff16565b8152602001600081526020016000815260200160001515815260200160001515815260200160008152602001600067ffffffffffffffff81111561085457610853611fa8565b5b6040519080825280602002602001820160405280156108825781602001602082028036833780820191505090505b50815260200160008152602001600073ffffffffffffffffffffffffffffffffffffffff16815260200173e46cb9ca18520d3f0394f570c35259c188b33b9873ffffffffffffffffffffffffffffffffffffffff16815250600080600254815260200190815260200160002060008201518160000155602082015181600101908161090d9190612b32565b5060408201518160020155606082015181600301556080820151816004015560a0820151816005015560c08201518160060160006101000a81548173ffffffffffffffffffffffffffffffffffffffff021916908373ffffffffffffffffffffffffffffffffffffffff16021790555060e08201518160070190816109929190612b32565b506101008201518160080160006101000a81548173ffffffffffffffffffffffffffffffffffffffff021916908373ffffffffffffffffffffffffffffffffffffffff1602179055506101208201518160090160006101000a81548173ffffffffffffffffffffffffffffffffffffffff021916908373ffffffffffffffffffffffffffffffffffffffff16021790555061014082015181600a015561016082015181600b015561018082015181600c01556101a082015181600d0160006101000a81548160ff0219169083151502179055506101c082015181600d0160016101000a81548160ff0219169083151502179055506101e082015181600e015561020082015181600f019080519060200190610aae929190611c06565b5061022082015181601001556102408201518160110160006101000a81548173ffffffffffffffffffffffffffffffffffffffff021916908373ffffffffffffffffffffffffffffffffffffffff1602179055506102608201518160120160006101000a81548173ffffffffffffffffffffffffffffffffffffffff021916908373ffffffffffffffffffffffffffffffffffffffff160217905550905050610b77886000806002548152602001908152602001600020600a0154611b8090919063ffffffff16565b6000806002548152602001908152602001600020600b018190555060025491505098975050505050505050565b600080600080600085815260200190815260200160002060090160009054906101000a900473ffffffffffffffffffffffffffffffffffffffff1660008086815260200190815260200160002060120160009054906101000a900473ffffffffffffffffffffffffffffffffffffffff1660008087815260200190815260200160002060080160009054906101000a900473ffffffffffffffffffffffffffffffffffffffff169250925092509193909250565b6000806000848152602001908152602001600020905080600d0160009054906101000a900460ff1615610cc0576040517f08c379a0000000000000000000000000000000000000000000000000000000008152600401610cb790612c50565b60405180910390fd5b80600d0160019054906101000a900460ff1615610d12576040517f08c379a0000000000000000000000000000000000000000000000000000000008152600401610d0990612cbc565b60405180910390fd5b60008211610d55576040517f08c379a0000000000000000000000000000000000000000000000000000000008152600401610d4c90612d28565b60405180910390fd5b80600c01548160030154610d6991906126ed565b821115610dab576040517f08c379a0000000000000000000000000000000000000000000000000000000008152600401610da290612d94565b60405180910390fd5b600081600b015483610dbd9190612db4565b905080341015610e02576040517f08c379a0000000000000000000000000000000000000000000000000000000008152600401610df990612e42565b60405180910390fd5b60005b83811015610ecf57600081600185600c0154610e219190612e62565b610e2b9190612e62565b905083600f018190806001815401808255809150506001900390600052602060002001600090919091909150553360016000888152602001908152602001600020600083815260200190815260200160002060006101000a81548173ffffffffffffffffffffffffffffffffffffffff021916908373ffffffffffffffffffffffffffffffffffffffff160217905550508080610ec7906128de565b915050610e05565b508282600c016000828254610ee49190612e62565b925050819055503482600e016000828254610eff9190612e62565b9250508190555050505050565b6000806000905060005b600080858152602001908152602001600020600f0180549050811015611008578473ffffffffffffffffffffffffffffffffffffffff16600160008681526020019081526020016000206000806000888152602001908152602001600020600f018481548110610f8957610f88612e96565b5b9060005260206000200154815260200190815260200160002060009054906101000a900473ffffffffffffffffffffffffffffffffffffffff1673ffffffffffffffffffffffffffffffffffffffff1603610ff557610ff2600183611b9690919063ffffffff16565b91505b8080611000906128de565b915050610f16565b508091505092915050565b600047905090565b6000806000806000806000878152602001908152602001600020600a0154905060006110646064611056600585611b6a90919063ffffffff16565b611b8090919063ffffffff16565b600080898152602001908152602001600020600201546110849190612e62565b905060006110af60646110a1600586611b6a90919063ffffffff16565b611b8090919063ffffffff16565b905060008183856110c091906126ed565b6110ca91906126ed565b9050838383839750975097509750505050509193509193565b60016020528160005260406000206020528060005260406000206000915091509054906101000a900473ffffffffffffffffffffffffffffffffffffffff1681565b600080828152602001908152602001600020600a015447101561117d576040517f08c379a000000000000000000000000000000000000000000000000000000000815260040161117490612f11565b60405180910390fd5b600080600083815260200190815260200160002060110160009054906101000a900473ffffffffffffffffffffffffffffffffffffffff1690506000806000848152602001908152602001600020600a0154905060006111fa60646111ec600585611b6a90919063ffffffff16565b611b8090919063ffffffff16565b6000808681526020019081526020016000206002015461121a9190612e62565b905060006112456064611237600586611b6a90919063ffffffff16565b611b8090919063ffffffff16565b9050600081838561125691906126ed565b61126091906126ed565b9050600073ffffffffffffffffffffffffffffffffffffffff168573ffffffffffffffffffffffffffffffffffffffff16036112d1576040517f08c379a00000000000000000000000000000000000000000000000000000000081526004016112c890612f7d565b60405180910390fd5b60008087815260200190815260200160002060090160009054906101000a900473ffffffffffffffffffffffffffffffffffffffff1673ffffffffffffffffffffffffffffffffffffffff166108fc849081150290604051600060405180830381858888f1935050505015801561134c573d6000803e3d6000fd5b5060008087815260200190815260200160002060120160009054906101000a900473ffffffffffffffffffffffffffffffffffffffff1673ffffffffffffffffffffffffffffffffffffffff166108fc839081150290604051600060405180830381858888f193505050501580156113c8573d6000803e3d6000fd5b5060008087815260200190815260200160002060080160009054906101000a900473ffffffffffffffffffffffffffffffffffffffff1673ffffffffffffffffffffffffffffffffffffffff166108fc829081150290604051600060405180830381858888f19350505050158015611444573d6000803e3d6000fd5b5060008087815260200190815260200160002060060160009054906101000a900473ffffffffffffffffffffffffffffffffffffffff1673ffffffffffffffffffffffffffffffffffffffff166342842e0e30876000808b8152602001908152602001600020600501546040518463ffffffff1660e01b81526004016114cc939291906128a7565b600060405180830381600087803b1580156114e657600080fd5b505af11580156114fa573d6000803e3d6000fd5b50505050505050505050565b60006060600060025467ffffffffffffffff81111561152857611527611fa8565b5b6040519080825280602002602001820160405280156115565781602001602082028036833780820191505090505b5090506000805b6002548111611610578573ffffffffffffffffffffffffffffffffffffffff1660008083815260200190815260200160002060090160009054906101000a900473ffffffffffffffffffffffffffffffffffffffff1673ffffffffffffffffffffffffffffffffffffffff16036115fd57808383815181106115e2576115e1612e96565b5b60200260200101818152505081806115f9906128de565b9250505b8080611608906128de565b91505061155d565b5060008167ffffffffffffffff81111561162d5761162c611fa8565b5b60405190808252806020026020018201604052801561165b5781602001602082028036833780820191505090505b50905060005b828110156116b65783818151811061167c5761167b612e96565b5b602002602001015182828151811061169757611696612e96565b5b60200260200101818152505080806116ae906128de565b915050611661565b50818194509450505050915091565b6116cd611c53565b60008060008481526020019081526020016000209050600060405180610220016040528085815260200183600101805461170690612955565b80601f016020809104026020016040519081016040528092919081815260200182805461173290612955565b801561177f5780601f106117545761010080835404028352916020019161177f565b820191906000526020600020905b81548152906001019060200180831161176257829003601f168201915b50505050508152602001836002015481526020018360030154815260200183600401548152602001836005015481526020018360060160009054906101000a900473ffffffffffffffffffffffffffffffffffffffff1673ffffffffffffffffffffffffffffffffffffffff16815260200183600701805461180090612955565b80601f016020809104026020016040519081016040528092919081815260200182805461182c90612955565b80156118795780601f1061184e57610100808354040283529160200191611879565b820191906000526020600020905b81548152906001019060200180831161185c57829003601f168201915b505050505081526020018360080160009054906101000a900473ffffffffffffffffffffffffffffffffffffffff1673ffffffffffffffffffffffffffffffffffffffff1681526020018360090160009054906101000a900473ffffffffffffffffffffffffffffffffffffffff1673ffffffffffffffffffffffffffffffffffffffff16815260200183600a0154815260200183600b0154815260200183600c01548152602001836010015481526020018360110160009054906101000a900473ffffffffffffffffffffffffffffffffffffffff1673ffffffffffffffffffffffffffffffffffffffff16815260200183600d0160009054906101000a900460ff161515815260200183600d0160019054906101000a900460ff16151581525090508092505050919050565b6000806000838152602001908152602001600020600b01549050919050565b60646050600080848152602001908152602001600020600301546119ea9190612db4565b6119f49190612fcc565b600080838152602001908152602001600020600c01541015611a4b576040517f08c379a0000000000000000000000000000000000000000000000000000000008152600401611a4290613049565b60405180910390fd5b6000611a5682611bac565b9050600060016000848152602001908152602001600020600083815260200190815260200160002060009054906101000a900473ffffffffffffffffffffffffffffffffffffffff1690508060008085815260200190815260200160002060110160006101000a81548173ffffffffffffffffffffffffffffffffffffffff021916908373ffffffffffffffffffffffffffffffffffffffff160217905550827f37a30a31c187f323329351db43159a5b3c2dde95e0f21f061360aa03aa5415b78383604051611b27929190613069565b60405180910390a2505050565b6000806000808581526020019081526020016000209050600081600b015484611b5d9190612db4565b9050809250505092915050565b60008183611b789190612db4565b905092915050565b60008183611b8e9190612fcc565b905092915050565b60008183611ba49190612e62565b905092915050565b600080600080848152602001908152602001600020600c01544244604051602001611bd89291906130b3565b6040516020818303038152906040528051906020012060001c611bfb91906130df565b905080915050919050565b828054828255906000526020600020908101928215611c42579160200282015b82811115611c41578251825591602001919060010190611c26565b5b509050611c4f9190611d33565b5090565b604051806102200160405280600081526020016060815260200160008152602001600081526020016000815260200160008152602001600073ffffffffffffffffffffffffffffffffffffffff16815260200160608152602001600073ffffffffffffffffffffffffffffffffffffffff168152602001600073ffffffffffffffffffffffffffffffffffffffff16815260200160008152602001600081526020016000815260200160008152602001600073ffffffffffffffffffffffffffffffffffffffff1681526020016000151581526020016000151581525090565b5b80821115611d4c576000816000905550600101611d34565b5090565b6000604051905090565b600080fd5b600080fd5b6000819050919050565b611d7781611d64565b8114611d8257600080fd5b50565b600081359050611d9481611d6e565b92915050565b600060208284031215611db057611daf611d5a565b5b6000611dbe84828501611d85565b91505092915050565b611dd081611d64565b82525050565b6000602082019050611deb6000830184611dc7565b92915050565b600073ffffffffffffffffffffffffffffffffffffffff82169050919050565b6000611e1c82611df1565b9050919050565b611e2c81611e11565b8114611e3757600080fd5b50565b600081359050611e4981611e23565b92915050565b600080fd5b600080fd5b600080fd5b60008083601f840112611e7457611e73611e4f565b5b8235905067ffffffffffffffff811115611e9157611e90611e54565b5b602083019150836001820283011115611ead57611eac611e59565b5b9250929050565b600080600080600060808688031215611ed057611ecf611d5a565b5b6000611ede88828901611e3a565b9550506020611eef88828901611e3a565b9450506040611f0088828901611d85565b935050606086013567ffffffffffffffff811115611f2157611f20611d5f565b5b611f2d88828901611e5e565b92509250509295509295909350565b60007fffffffff0000000000000000000000000000000000000000000000000000000082169050919050565b611f7181611f3c565b82525050565b6000602082019050611f8c6000830184611f68565b92915050565b600080fd5b6000601f19601f8301169050919050565b7f4e487b7100000000000000000000000000000000000000000000000000000000600052604160045260246000fd5b611fe082611f97565b810181811067ffffffffffffffff82111715611fff57611ffe611fa8565b5b80604052505050565b6000612012611d50565b905061201e8282611fd7565b919050565b600067ffffffffffffffff82111561203e5761203d611fa8565b5b61204782611f97565b9050602081019050919050565b82818337600083830152505050565b600061207661207184612023565b612008565b90508281526020810184848401111561209257612091611f92565b5b61209d848285612054565b509392505050565b600082601f8301126120ba576120b9611e4f565b5b81356120ca848260208601612063565b91505092915050565b600080600080600080600080610100898b0312156120f4576120f3611d5a565b5b600089013567ffffffffffffffff81111561211257612111611d5f565b5b61211e8b828c016120a5565b985050602061212f8b828c01611d85565b97505060406121408b828c01611d85565b96505060606121518b828c01611d85565b95505060806121628b828c01611d85565b94505060a06121738b828c01611e3a565b93505060c089013567ffffffffffffffff81111561219457612193611d5f565b5b6121a08b828c016120a5565b92505060e06121b18b828c01611e3a565b9150509295985092959890939650565b6121ca81611e11565b82525050565b60006060820190506121e560008301866121c1565b6121f260208301856121c1565b6121ff60408301846121c1565b949350505050565b6000806040838503121561221e5761221d611d5a565b5b600061222c85828601611d85565b925050602061223d85828601611d85565b9150509250929050565b6000806040838503121561225e5761225d611d5a565b5b600061226c85828601611e3a565b925050602061227d85828601611d85565b9150509250929050565b600060808201905061229c6000830187611dc7565b6122a96020830186611dc7565b6122b66040830185611dc7565b6122c36060830184611dc7565b95945050505050565b60006020820190506122e160008301846121c1565b92915050565b6000602082840312156122fd576122fc611d5a565b5b600061230b84828501611e3a565b91505092915050565b600081519050919050565b600082825260208201905092915050565b6000819050602082019050919050565b61234981611d64565b82525050565b600061235b8383612340565b60208301905092915050565b6000602082019050919050565b600061237f82612314565b612389818561231f565b935061239483612330565b8060005b838110156123c55781516123ac888261234f565b97506123b783612367565b925050600181019050612398565b5085935050505092915050565b60006040820190506123e76000830185611dc7565b81810360208301526123f98184612374565b90509392505050565b600081519050919050565b600082825260208201905092915050565b60005b8381101561243c578082015181840152602081019050612421565b60008484015250505050565b600061245382612402565b61245d818561240d565b935061246d81856020860161241e565b61247681611f97565b840191505092915050565b61248a81611e11565b82525050565b60008115159050919050565b6124a581612490565b82525050565b6000610220830160008301516124c46000860182612340565b50602083015184820360208601526124dc8282612448565b91505060408301516124f16040860182612340565b5060608301516125046060860182612340565b5060808301516125176080860182612340565b5060a083015161252a60a0860182612340565b5060c083015161253d60c0860182612481565b5060e083015184820360e08601526125558282612448565b91505061010083015161256c610100860182612481565b50610120830151612581610120860182612481565b50610140830151612596610140860182612340565b506101608301516125ab610160860182612340565b506101808301516125c0610180860182612340565b506101a08301516125d56101a0860182612340565b506101c08301516125ea6101c0860182612481565b506101e08301516125ff6101e086018261249c565b5061020083015161261461020086018261249c565b508091505092915050565b6000602082019050818103600083015261263981846124ab565b905092915050565b600082825260208201905092915050565b7f526166666c65206e6f7420666f756e6400000000000000000000000000000000600082015250565b6000612688601083612641565b915061269382612652565b602082019050919050565b600060208201905081810360008301526126b78161267b565b9050919050565b7f4e487b7100000000000000000000000000000000000000000000000000000000600052601160045260246000fd5b60006126f882611d64565b915061270383611d64565b925082820390508181111561271b5761271a6126be565b5b92915050565b7f496e76616c6964204e465420636f6e7472616374206164647265737300000000600082015250565b6000612757601c83612641565b915061276282612721565b602082019050919050565b600060208201905081810360008301526127868161274a565b9050919050565b7f456e642074696d65206d75737420626520696e20667574757265000000000000600082015250565b60006127c3601a83612641565b91506127ce8261278d565b602082019050919050565b600060208201905081810360008301526127f2816127b6565b9050919050565b60008151905061280881611e23565b92915050565b60006020828403121561282457612823611d5a565b5b6000612832848285016127f9565b91505092915050565b7f4f6e6c79204e4654206f776e65722063616e2063726561746520726166666c65600082015250565b6000612871602083612641565b915061287c8261283b565b602082019050919050565b600060208201905081810360008301526128a081612864565b9050919050565b60006060820190506128bc60008301866121c1565b6128c960208301856121c1565b6128d66040830184611dc7565b949350505050565b60006128e982611d64565b91507fffffffffffffffffffffffffffffffffffffffffffffffffffffffffffffffff820361291b5761291a6126be565b5b600182019050919050565b7f4e487b7100000000000000000000000000000000000000000000000000000000600052602260045260246000fd5b6000600282049050600182168061296d57607f821691505b6020821081036129805761297f612926565b5b50919050565b60008190508160005260206000209050919050565b60006020601f8301049050919050565b600082821b905092915050565b6000600883026129e87fffffffffffffffffffffffffffffffffffffffffffffffffffffffffffffffff826129ab565b6129f286836129ab565b95508019841693508086168417925050509392505050565b6000819050919050565b6000612a2f612a2a612a2584611d64565b612a0a565b611d64565b9050919050565b6000819050919050565b612a4983612a14565b612a5d612a5582612a36565b8484546129b8565b825550505050565b600090565b612a72612a65565b612a7d818484612a40565b505050565b5b81811015612aa157612a96600082612a6a565b600181019050612a83565b5050565b601f821115612ae657612ab781612986565b612ac08461299b565b81016020851015612acf578190505b612ae3612adb8561299b565b830182612a82565b50505b505050565b600082821c905092915050565b6000612b0960001984600802612aeb565b1980831691505092915050565b6000612b228383612af8565b9150826002028217905092915050565b612b3b82612402565b67ffffffffffffffff811115612b5457612b53611fa8565b5b612b5e8254612955565b612b69828285612aa5565b600060209050601f831160018114612b9c5760008415612b8a578287015190505b612b948582612b16565b865550612bfc565b601f198416612baa86612986565b60005b82811015612bd257848901518255600182019150602085019450602081019050612bad565b86831015612bef5784890151612beb601f891682612af8565b8355505b6001600288020188555050505b505050505050565b7f526166666c652069732063616e63656c6c656400000000000000000000000000600082015250565b6000612c3a601383612641565b9150612c4582612c04565b602082019050919050565b60006020820190508181036000830152612c6981612c2d565b9050919050565b7f526166666c6520697320656e6465640000000000000000000000000000000000600082015250565b6000612ca6600f83612641565b9150612cb182612c70565b602082019050919050565b60006020820190508181036000830152612cd581612c99565b9050919050565b7f496e76616c6964206e756d626572206f66207469636b65747300000000000000600082015250565b6000612d12601983612641565b9150612d1d82612cdc565b602082019050919050565b60006020820190508181036000830152612d4181612d05565b9050919050565b7f4e6f7420656e6f756768207469636b65747320617661696c61626c6500000000600082015250565b6000612d7e601c83612641565b9150612d8982612d48565b602082019050919050565b60006020820190508181036000830152612dad81612d71565b9050919050565b6000612dbf82611d64565b9150612dca83611d64565b9250828202612dd881611d64565b91508282048414831517612def57612dee6126be565b5b5092915050565b7f496e636f7272656374207061796d656e7420616d6f756e740000000000000000600082015250565b6000612e2c601883612641565b9150612e3782612df6565b602082019050919050565b60006020820190508181036000830152612e5b81612e1f565b9050919050565b6000612e6d82611d64565b9150612e7883611d64565b9250828201905080821115612e9057612e8f6126be565b5b92915050565b7f4e487b7100000000000000000000000000000000000000000000000000000000600052603260045260246000fd5b7f496e73756666696369656e7420636f6e74726163742062616c616e6365000000600082015250565b6000612efb601d83612641565b9150612f0682612ec5565b602082019050919050565b60006020820190508181036000830152612f2a81612eee565b9050919050565b7f57696e6e657220686173206e6f74206265656e2073656c656374656420796574600082015250565b6000612f67602083612641565b9150612f7282612f31565b602082019050919050565b60006020820190508181036000830152612f9681612f5a565b9050919050565b7f4e487b7100000000000000000000000000000000000000000000000000000000600052601260045260246000fd5b6000612fd782611d64565b9150612fe283611d64565b925082612ff257612ff1612f9d565b5b828204905092915050565b7f526166666c652063616e277420626520636f6d706c6574656420796574000000600082015250565b6000613033601d83612641565b915061303e82612ffd565b602082019050919050565b6000602082019050818103600083015261306281613026565b9050919050565b600060408201905061307e6000830185611dc7565b61308b60208301846121c1565b9392505050565b6000819050919050565b6130ad6130a882611d64565b613092565b82525050565b60006130bf828561309c565b6020820191506130cf828461309c565b6020820191508190509392505050565b60006130ea82611d64565b91506130f583611d64565b92508261310557613104612f9d565b5b82820690509291505056fea2646970667358221220d810552d0ee31e835592dad1c850dd2e48129d0012bfda80b455868de89bc97e64736f6c63430008130033",
  "immutableReferences": {},
  "source": "// SPDX-License-Identifier: MIT\r\npragma solidity ^0.8.0;\r\n\r\nimport \"@openzeppelin/contracts/token/ERC721/IERC721.sol\";\r\nimport \"@openzeppelin/contracts/utils/math/SafeMath.sol\";\r\nimport \"@openzeppelin/contracts/token/ERC721/IERC721Receiver.sol\";\r\n\r\ncontract mainNftRaffle is IERC721Receiver {\r\n    using SafeMath for uint256;\r\n\r\n    struct Raffle {\r\n        uint raffleId;\r\n        string raffleName;\r\n        uint256 nftPrice;\r\n        uint256 totalVolumeofTickets;\r\n        uint256 endTime;\r\n        uint256 nftId;\r\n        address nftContractAddress;\r\n        string nftSourceLink;\r\n        address charityAddress;\r\n        address raffleCreator;\r\n        uint256 rafflePool;\r\n        uint256 ticketPrice;\r\n        uint256 totalSoldTickets;\r\n        bool raffleCancelled;\r\n        bool raffleEnded;\r\n        uint256 fundsInContract;\r\n        uint256[] tickets;\r\n        uint winningTicket;\r\n        address raffleWinner;\r\n        address payable developmentTeam;\r\n    }\r\n\r\n    struct RaffleInfo {\r\n        uint raffleId;\r\n        string raffleName;\r\n        uint256 nftPrice;\r\n        uint256 totalVolumeofTickets;\r\n        uint256 endTime;\r\n        uint256 nftId;\r\n        address nftContractAddress;\r\n        string nftSourceLink;\r\n        address charityAddress;\r\n        address raffleCreator;\r\n        uint256 rafflePool;\r\n        uint256 ticketPrice;\r\n        uint256 totalSoldTickets;\r\n        uint winningTicket;\r\n        address raffleWinner;\r\n        bool raffleCancelled;\r\n        bool raffleEnded;\r\n    }\r\n\r\n    mapping(uint256 => Raffle) private raffles;\r\n    mapping(uint256 => mapping(uint256 => address)) public ticketToOwner;\r\n    uint256 private raffleCount = 0;\r\n\r\n    event WinnerSelected(\r\n        uint256 indexed raffleId,\r\n        uint256 winningTicketNumber,\r\n        address winningTicketOwner\r\n    );\r\n\r\n    function createRaffle(\r\n        string memory _raffleName,\r\n        uint256 _nftPrice,\r\n        uint256 _totalVolumeofTickets,\r\n        uint256 _endTime,\r\n        uint256 _nftId,\r\n        address _nftContractAddress,\r\n        string memory _nftSourceLink,\r\n        address _charityAddress\r\n    ) public returns (uint256) {\r\n        require(\r\n            _nftContractAddress != address(0),\r\n            \"Invalid NFT contract address\"\r\n        );\r\n        require(_endTime > block.timestamp, \"End time must be in future\");\r\n        IERC721 nftContract = IERC721(_nftContractAddress);\r\n        require(\r\n            msg.sender == nftContract.ownerOf(_nftId),\r\n            \"Only NFT owner can create raffle\"\r\n        );\r\n\r\n        nftContract.safeTransferFrom(msg.sender, address(this), _nftId);\r\n        raffleCount++;\r\n\r\n        raffles[raffleCount] = Raffle({\r\n            raffleId: raffleCount,\r\n            raffleName: _raffleName,\r\n            nftPrice: _nftPrice,\r\n            totalVolumeofTickets: _totalVolumeofTickets,\r\n            endTime: _endTime,\r\n            nftId: _nftId,\r\n            nftContractAddress: _nftContractAddress,\r\n            nftSourceLink: _nftSourceLink,\r\n            raffleCreator: msg.sender,\r\n            rafflePool: (_nftPrice.mul(150)).div(100),\r\n            ticketPrice: 0,\r\n            charityAddress: _charityAddress,\r\n            totalSoldTickets: 0,\r\n            raffleCancelled: false,\r\n            raffleEnded: false,\r\n            fundsInContract: 0,\r\n            tickets: new uint256[](0),\r\n            winningTicket: 0,\r\n            raffleWinner: address(0),\r\n            developmentTeam: payable(\r\n                address(0xE46Cb9CA18520D3F0394F570C35259c188B33B98)\r\n            )\r\n        });\r\n\r\n        raffles[raffleCount].ticketPrice = raffles[raffleCount].rafflePool.div(\r\n            _totalVolumeofTickets\r\n        );\r\n\r\n        return raffleCount;\r\n    }\r\n\r\n    function getTicketPrice(uint256 _raffleId) public view returns (uint256) {\r\n        return raffles[_raffleId].ticketPrice;\r\n    }\r\n\r\n    function getTicketsOwned(\r\n        address _address,\r\n        uint256 raffleId\r\n    ) public view returns (uint256) {\r\n        uint256 totalTicketsOwned = 0;\r\n        for (uint256 i = 0; i < raffles[raffleId].tickets.length; i++) {\r\n            if (\r\n                ticketToOwner[raffleId][raffles[raffleId].tickets[i]] ==\r\n                _address\r\n            ) {\r\n                totalTicketsOwned = totalTicketsOwned.add(1);\r\n            }\r\n        }\r\n        return totalTicketsOwned;\r\n    }\r\n\r\n    function getOwnedRaffles(\r\n        address owner\r\n    ) public view returns (uint256 totalRaffles, uint256[] memory raffleIds) {\r\n        uint256[] memory ownedRaffleIds = new uint256[](raffleCount);\r\n        uint256 count = 0;\r\n        for (uint256 i = 0; i <= raffleCount; i++) {\r\n            if (raffles[i].raffleCreator == owner) {\r\n                ownedRaffleIds[count] = i;\r\n                count++;\r\n            }\r\n        }\r\n        uint256[] memory result = new uint256[](count);\r\n        for (uint256 j = 0; j < count; j++) {\r\n            result[j] = ownedRaffleIds[j];\r\n        }\r\n        return (count, result);\r\n    }\r\n\r\n    function getAvailableTickets(\r\n        uint256 _raffleID\r\n    ) public view returns (uint256) {\r\n        Raffle storage raffle = raffles[_raffleID];\r\n        require(raffle.raffleId != 0, \"Raffle not found\");\r\n\r\n        if (raffle.raffleEnded || raffle.raffleCancelled) {\r\n            return 0;\r\n        } else {\r\n            return raffle.totalVolumeofTickets - raffle.totalSoldTickets;\r\n        }\r\n    }\r\n\r\n    function buyTicket(\r\n        uint256 _raffleId,\r\n        uint256 _totalTicketsWanted\r\n    ) public payable {\r\n        Raffle storage raffle = raffles[_raffleId];\r\n\r\n        require(!raffle.raffleCancelled, \"Raffle is cancelled\");\r\n        require(!raffle.raffleEnded, \"Raffle is ended\");\r\n        require(_totalTicketsWanted > 0, \"Invalid number of tickets\");\r\n        require(\r\n            _totalTicketsWanted <=\r\n                raffle.totalVolumeofTickets - raffle.totalSoldTickets,\r\n            \"Not enough tickets available\"\r\n        );\r\n        uint256 totalTicketPrice = _totalTicketsWanted * raffle.ticketPrice;\r\n        require(msg.value >= totalTicketPrice, \"Incorrect payment amount\");\r\n\r\n        // Update ticket ownership\r\n        for (uint256 i = 0; i < _totalTicketsWanted; i++) {\r\n            uint256 ticket = raffle.totalSoldTickets + 1 + i;\r\n            raffle.tickets.push(ticket);\r\n            ticketToOwner[_raffleId][ticket] = msg.sender;\r\n        }\r\n\r\n        // Update raffle info\r\n        raffle.totalSoldTickets += _totalTicketsWanted;\r\n        raffle.fundsInContract += msg.value;\r\n    }\r\n\r\n    function getTotalTicketPrice(\r\n        uint _raffleId,\r\n        uint256 _totalTicketsWanted\r\n    ) public view returns (uint256) {\r\n        Raffle storage raffle = raffles[_raffleId];\r\n\r\n        uint256 totalTicketPrice = _totalTicketsWanted * raffle.ticketPrice;\r\n        return totalTicketPrice;\r\n    }\r\n\r\n    // This function picks a random ticket from totalSoldTickets for a raffleId.\r\n    function pickRandomTicket(uint256 raffleId) private view returns (uint256) {\r\n        uint256 randomNumber = uint256(\r\n            keccak256(abi.encodePacked(block.timestamp, block.difficulty))\r\n        ) % raffles[raffleId].totalSoldTickets;\r\n        return randomNumber;\r\n    }\r\n\r\n    function pickWinner(uint256 raffleId) public {\r\n        require(\r\n            raffles[raffleId].totalSoldTickets >=\r\n                (raffles[raffleId].totalVolumeofTickets * 80) / 100,\r\n            \"Raffle can't be completed yet\"\r\n        );\r\n\r\n        // Pick a random ticket as the winning ticket.\r\n        uint256 winningTicketNumber = pickRandomTicket(raffleId);\r\n        address winningTicketOwner = ticketToOwner[raffleId][\r\n            winningTicketNumber\r\n        ];\r\n        raffles[raffleId].raffleWinner = winningTicketOwner;\r\n\r\n        // Emit an event to indicate that a winner has been selected.\r\n        emit WinnerSelected(raffleId, winningTicketNumber, winningTicketOwner);\r\n    }\r\n\r\n    function getPrizePool(\r\n        uint256 _raffleId\r\n    ) public view returns (uint256, uint256, uint256, uint256) {\r\n        uint256 rafflePrizePool = raffles[_raffleId].rafflePool;\r\n        uint256 raffleCreatorPrize = raffles[_raffleId].nftPrice +\r\n            (rafflePrizePool.mul(5)).div(100);\r\n        uint256 developmentTeamPrize = (rafflePrizePool.mul(5)).div(100);\r\n        uint256 charityPrize = rafflePrizePool -\r\n            raffleCreatorPrize -\r\n            developmentTeamPrize;\r\n\r\n        return (\r\n            rafflePrizePool,\r\n            raffleCreatorPrize,\r\n            developmentTeamPrize,\r\n            charityPrize\r\n        );\r\n    }\r\n\r\n    function sendPrizePool(uint256 _raffleId) public {\r\n        require(\r\n            address(this).balance >= raffles[_raffleId].rafflePool,\r\n            \"Insufficient contract balance\"\r\n        );\r\n\r\n        // Retrieve the winner information from the raffle struct\r\n        address winningTicketOwner = raffles[_raffleId].raffleWinner;\r\n\r\n        uint256 rafflePrizePool = raffles[_raffleId].rafflePool;\r\n        uint256 raffleCreatorPrize = raffles[_raffleId].nftPrice +\r\n            (rafflePrizePool.mul(5)).div(100);\r\n        uint256 developmentTeamPrize = (rafflePrizePool.mul(5)).div(100);\r\n        uint256 charityPrize = rafflePrizePool -\r\n            raffleCreatorPrize -\r\n            developmentTeamPrize;\r\n\r\n        require(\r\n            winningTicketOwner != address(0),\r\n            \"Winner has not been selected yet\"\r\n        );\r\n\r\n        // Transfer the prize amounts to each entity.\r\n        payable(raffles[_raffleId].raffleCreator).transfer(raffleCreatorPrize);\r\n\r\n        payable(raffles[_raffleId].developmentTeam).transfer(\r\n            developmentTeamPrize\r\n        );\r\n        payable(raffles[_raffleId].charityAddress).transfer(charityPrize);\r\n\r\n        // Call safeTransferFrom function on ERC721 token contract to transfer the NFT to the winner.\r\n        IERC721(raffles[_raffleId].nftContractAddress).safeTransferFrom(\r\n            address(this),\r\n            winningTicketOwner,\r\n            raffles[_raffleId].nftId\r\n        );\r\n    }\r\n\r\n    function raffleInfo(\r\n        uint256 _raffleID\r\n    ) public view returns (RaffleInfo memory) {\r\n        Raffle storage raffle = raffles[_raffleID];\r\n\r\n        RaffleInfo memory raffleInfo = RaffleInfo({\r\n            raffleId: _raffleID,\r\n            raffleName: raffle.raffleName,\r\n            nftPrice: raffle.nftPrice,\r\n            totalVolumeofTickets: raffle.totalVolumeofTickets,\r\n            endTime: raffle.endTime,\r\n            nftId: raffle.nftId,\r\n            winningTicket: raffle.winningTicket,\r\n            raffleWinner: raffle.raffleWinner,\r\n            nftContractAddress: raffle.nftContractAddress,\r\n            nftSourceLink: raffle.nftSourceLink,\r\n            charityAddress: raffle.charityAddress,\r\n            raffleCreator: raffle.raffleCreator,\r\n            rafflePool: raffle.rafflePool,\r\n            ticketPrice: raffle.ticketPrice,\r\n            totalSoldTickets: raffle.totalSoldTickets,\r\n            raffleCancelled: raffle.raffleCancelled,\r\n            raffleEnded: raffle.raffleEnded\r\n        });\r\n\r\n        return raffleInfo;\r\n    }\r\n\r\n    function onERC721Received(\r\n        address operator,\r\n        address from,\r\n        uint256 tokenId,\r\n        bytes calldata data\r\n    ) external returns (bytes4) {\r\n        return this.onERC721Received.selector;\r\n    }\r\n\r\n    function getTotalRaffles() public view returns (uint256) {\r\n        return raffleCount;\r\n    }\r\n\r\n    function getEntityAddresses(\r\n        uint256 _raffleId\r\n    ) public view returns (address, address, address) {\r\n        return (\r\n            raffles[_raffleId].raffleCreator,\r\n            raffles[_raffleId].developmentTeam,\r\n            raffles[_raffleId].charityAddress\r\n        );\r\n    }\r\n\r\n    function getContractBalance() public view returns (uint256) {\r\n        return address(this).balance;\r\n    }\r\n}\r\n",
  "sourcePath": "C:\\Users\\user\\Desktop\\GIT_REPOS\\originx\\backend\\contracts\\mainNftRaffle.sol",
  "compiler": {
    "name": "solc",
    "version": "0.8.19+commit.7dd6d404.Emscripten.clang"
  },
  "schemaVersion": "3.4.13",
  "updatedAt": "2023-06-08T16:58:27.881Z",
  "networkType": "ethereum",
  "devdoc": {
    "kind": "dev",
    "methods": {
      "onERC721Received(address,address,uint256,bytes)": {
        "details": "Whenever an {IERC721} `tokenId` token is transferred to this contract via {IERC721-safeTransferFrom} by `operator` from `from`, this function is called. It must return its Solidity selector to confirm the token transfer. If any other value is returned or the interface is not implemented by the recipient, the transfer will be reverted. The selector can be obtained in Solidity with `IERC721Receiver.onERC721Received.selector`."
      }
    },
    "version": 1
  },
  "userdoc": {
    "kind": "user",
    "methods": {},
    "version": 1
  }
}