{
  "contractName": "nftRafflerOriginx1",
  "abi": [
    {
      "inputs": [
        {
          "internalType": "string",
          "name": "_raffleName",
          "type": "string"
        },
        {
          "internalType": "uint256",
          "name": "_nftPrice",
          "type": "uint256"
        },
        {
          "internalType": "uint256",
          "name": "_totalVolumeofTickets",
          "type": "uint256"
        },
        {
          "internalType": "uint256",
          "name": "_endTime",
          "type": "uint256"
        },
        {
          "internalType": "uint256",
          "name": "_nftId",
          "type": "uint256"
        },
        {
          "internalType": "address",
          "name": "_nftContractAddress",
          "type": "address"
        },
        {
          "internalType": "string",
          "name": "_nftSourceLink",
          "type": "string"
        }
      ],
      "name": "createRaffle",
      "outputs": [
        {
          "internalType": "uint256",
          "name": "",
          "type": "uint256"
        }
      ],
      "stateMutability": "nonpayable",
      "type": "function"
    },
    {
      "inputs": [
        {
          "internalType": "uint256",
          "name": "_raffleID",
          "type": "uint256"
        }
      ],
      "name": "getAvailableTickets",
      "outputs": [
        {
          "internalType": "uint256",
          "name": "",
          "type": "uint256"
        }
      ],
      "stateMutability": "view",
      "type": "function"
    },
    {
      "inputs": [
        {
          "internalType": "uint256",
          "name": "_raffleID",
          "type": "uint256"
        },
        {
          "internalType": "uint256",
          "name": "_totalTicketsWanted",
          "type": "uint256"
        }
      ],
      "name": "buyTicket",
      "outputs": [],
      "stateMutability": "payable",
      "type": "function"
    },
    {
      "inputs": [
        {
          "internalType": "uint256",
          "name": "_raffleID",
          "type": "uint256"
        }
      ],
      "name": "raffleInfo",
      "outputs": [
        {
          "components": [
            {
              "internalType": "string",
              "name": "raffleName",
              "type": "string"
            },
            {
              "internalType": "uint256",
              "name": "nftPrice",
              "type": "uint256"
            },
            {
              "internalType": "uint256",
              "name": "totalVolumeofTickets",
              "type": "uint256"
            },
            {
              "internalType": "uint256",
              "name": "endTime",
              "type": "uint256"
            },
            {
              "internalType": "uint256",
              "name": "nftId",
              "type": "uint256"
            },
            {
              "internalType": "address",
              "name": "nftContractAddress",
              "type": "address"
            },
            {
              "internalType": "string",
              "name": "nftSourceLink",
              "type": "string"
            },
            {
              "internalType": "address",
              "name": "raffleCreator",
              "type": "address"
            },
            {
              "internalType": "uint256",
              "name": "rafflePool",
              "type": "uint256"
            },
            {
              "internalType": "uint256",
              "name": "ticketPrice",
              "type": "uint256"
            },
            {
              "internalType": "uint256",
              "name": "totalSoldTickets",
              "type": "uint256"
            },
            {
              "internalType": "bool",
              "name": "raffleCancelled",
              "type": "bool"
            },
            {
              "internalType": "bool",
              "name": "raffleEnded",
              "type": "bool"
            }
          ],
          "internalType": "struct nftRafflerOriginx1.RaffleInfo",
          "name": "",
          "type": "tuple"
        }
      ],
      "stateMutability": "view",
      "type": "function"
    },
    {
      "inputs": [
        {
          "internalType": "address",
          "name": "operator",
          "type": "address"
        },
        {
          "internalType": "address",
          "name": "from",
          "type": "address"
        },
        {
          "internalType": "uint256",
          "name": "tokenId",
          "type": "uint256"
        },
        {
          "internalType": "bytes",
          "name": "data",
          "type": "bytes"
        }
      ],
      "name": "onERC721Received",
      "outputs": [
        {
          "internalType": "bytes4",
          "name": "",
          "type": "bytes4"
        }
      ],
      "stateMutability": "nonpayable",
      "type": "function"
    }
  ],
  "bytecode": "0x60806040526000600255600060035534801561001a57600080fd5b50611cba8061002a6000396000f3fe60806040526004361061004a5760003560e01c80630cc7b2a91461004f578063150b7a021461008c578063298ec208146100c9578063bf30d790146100e5578063d67bbec414610122575b600080fd5b34801561005b57600080fd5b5061007660048036038101906100719190610ddf565b61015f565b6040516100839190610e1b565b60405180910390f35b34801561009857600080fd5b506100b360048036038101906100ae9190610ef9565b610214565b6040516100c09190610fbc565b60405180910390f35b6100e360048036038101906100de9190610fd7565b610229565b005b3480156100f157600080fd5b5061010c60048036038101906101079190610ddf565b6104e4565b6040516101199190611200565b60405180910390f35b34801561012e57600080fd5b5061014960048036038101906101449190611352565b610736565b6040516101569190610e1b565b60405180910390f35b600080600080848152602001908152602001600020905060008160000154036101bd576040517f08c379a00000000000000000000000000000000000000000000000000000000081526004016101b490611489565b60405180910390fd5b80600c0160019054906101000a900460ff16806101e8575080600c0160009054906101000a900460ff165b156101f757600091505061020f565b80600b0154816003015461020b91906114d8565b9150505b919050565b600063150b7a0260e01b905095945050505050565b600080600084815260200190815260200160002090506000816000015403610286576040517f08c379a000000000000000000000000000000000000000000000000000000000815260040161027d90611489565b60405180910390fd5b80600c0160009054906101000a900460ff16156102d8576040517f08c379a00000000000000000000000000000000000000000000000000000000081526004016102cf90611558565b60405180910390fd5b80600c0160019054906101000a900460ff161561032a576040517f08c379a0000000000000000000000000000000000000000000000000000000008152600401610321906115c4565b60405180910390fd5b80600301546103468383600b0154610c5190919063ffffffff16565b1115610387576040517f08c379a000000000000000000000000000000000000000000000000000000000815260040161037e90611630565b60405180910390fd5b60006103a08383600a0154610c6790919063ffffffff16565b9050803410156103e5576040517f08c379a00000000000000000000000000000000000000000000000000000000081526004016103dc9061169c565b60405180910390fd5b60005b8381101561049f576000600184600e018054905061040691906116bc565b905083600e01819080600181540180825580915050600190039060005260206000200160009091909190915055806001600088815260200190815260200160002060000160003373ffffffffffffffffffffffffffffffffffffffff1673ffffffffffffffffffffffffffffffffffffffff16815260200190815260200160002081905550508080610497906116f0565b9150506103e8565b506104b78383600b0154610c5190919063ffffffff16565b82600b01819055506104d63483600d0154610c5190919063ffffffff16565b82600d018190555050505050565b6104ec610c93565b600080600084815260200190815260200160002090506000604051806101a0016040528083600101805461051f90611767565b80601f016020809104026020016040519081016040528092919081815260200182805461054b90611767565b80156105985780601f1061056d57610100808354040283529160200191610598565b820191906000526020600020905b81548152906001019060200180831161057b57829003601f168201915b50505050508152602001836002015481526020018360030154815260200183600401548152602001836005015481526020018360060160009054906101000a900473ffffffffffffffffffffffffffffffffffffffff1673ffffffffffffffffffffffffffffffffffffffff16815260200183600701805461061990611767565b80601f016020809104026020016040519081016040528092919081815260200182805461064590611767565b80156106925780601f1061066757610100808354040283529160200191610692565b820191906000526020600020905b81548152906001019060200180831161067557829003601f168201915b505050505081526020018360080160009054906101000a900473ffffffffffffffffffffffffffffffffffffffff1673ffffffffffffffffffffffffffffffffffffffff1681526020018360090154815260200183600a0154815260200183600b0154815260200183600c0160009054906101000a900460ff161515815260200183600c0160019054906101000a900460ff16151581525090508092505050919050565b60008073ffffffffffffffffffffffffffffffffffffffff168373ffffffffffffffffffffffffffffffffffffffff16036107a6576040517f08c379a000000000000000000000000000000000000000000000000000000000815260040161079d906117e4565b60405180910390fd5b4285116107e8576040517f08c379a00000000000000000000000000000000000000000000000000000000081526004016107df90611850565b60405180910390fd5b60008390508073ffffffffffffffffffffffffffffffffffffffff16636352211e866040518263ffffffff1660e01b81526004016108269190610e1b565b602060405180830381865afa158015610843573d6000803e3d6000fd5b505050506040513d601f19601f820116820180604052508101906108679190611885565b73ffffffffffffffffffffffffffffffffffffffff163373ffffffffffffffffffffffffffffffffffffffff16146108d4576040517f08c379a00000000000000000000000000000000000000000000000000000000081526004016108cb906118fe565b60405180910390fd5b8073ffffffffffffffffffffffffffffffffffffffff166342842e0e3330886040518463ffffffff1660e01b81526004016109119392919061192d565b600060405180830381600087803b15801561092b57600080fd5b505af115801561093f573d6000803e3d6000fd5b5050505060036000815480929190610956906116f0565b919050555060405180610200016040528060035481526020018a81526020018981526020018881526020018781526020018681526020018573ffffffffffffffffffffffffffffffffffffffff1681526020018481526020013373ffffffffffffffffffffffffffffffffffffffff1681526020016109f260646109e460968d610c6790919063ffffffff16565b610c7d90919063ffffffff16565b8152602001600081526020016000815260200160001515815260200160001515815260200160008152602001600067ffffffffffffffff811115610a3957610a38611227565b5b604051908082528060200260200182016040528015610a675781602001602082028036833780820191505090505b508152506000806003548152602001908152602001600020600082015181600001556020820151816001019081610a9e9190611b10565b5060408201518160020155606082015181600301556080820151816004015560a0820151816005015560c08201518160060160006101000a81548173ffffffffffffffffffffffffffffffffffffffff021916908373ffffffffffffffffffffffffffffffffffffffff16021790555060e0820151816007019081610b239190611b10565b506101008201518160080160006101000a81548173ffffffffffffffffffffffffffffffffffffffff021916908373ffffffffffffffffffffffffffffffffffffffff160217905550610120820151816009015561014082015181600a015561016082015181600b015561018082015181600c0160006101000a81548160ff0219169083151502179055506101a082015181600c0160016101000a81548160ff0219169083151502179055506101c082015181600d01556101e082015181600e019080519060200190610bf7929190610d2b565b50905050610c2587600080600354815260200190815260200160002060090154610c7d90919063ffffffff16565b6000806003548152602001908152602001600020600a0181905550600354915050979650505050505050565b60008183610c5f91906116bc565b905092915050565b60008183610c759190611be2565b905092915050565b60008183610c8b9190611c53565b905092915050565b604051806101a001604052806060815260200160008152602001600081526020016000815260200160008152602001600073ffffffffffffffffffffffffffffffffffffffff16815260200160608152602001600073ffffffffffffffffffffffffffffffffffffffff1681526020016000815260200160008152602001600081526020016000151581526020016000151581525090565b828054828255906000526020600020908101928215610d67579160200282015b82811115610d66578251825591602001919060010190610d4b565b5b509050610d749190610d78565b5090565b5b80821115610d91576000816000905550600101610d79565b5090565b6000604051905090565b600080fd5b600080fd5b6000819050919050565b610dbc81610da9565b8114610dc757600080fd5b50565b600081359050610dd981610db3565b92915050565b600060208284031215610df557610df4610d9f565b5b6000610e0384828501610dca565b91505092915050565b610e1581610da9565b82525050565b6000602082019050610e306000830184610e0c565b92915050565b600073ffffffffffffffffffffffffffffffffffffffff82169050919050565b6000610e6182610e36565b9050919050565b610e7181610e56565b8114610e7c57600080fd5b50565b600081359050610e8e81610e68565b92915050565b600080fd5b600080fd5b600080fd5b60008083601f840112610eb957610eb8610e94565b5b8235905067ffffffffffffffff811115610ed657610ed5610e99565b5b602083019150836001820283011115610ef257610ef1610e9e565b5b9250929050565b600080600080600060808688031215610f1557610f14610d9f565b5b6000610f2388828901610e7f565b9550506020610f3488828901610e7f565b9450506040610f4588828901610dca565b935050606086013567ffffffffffffffff811115610f6657610f65610da4565b5b610f7288828901610ea3565b92509250509295509295909350565b60007fffffffff0000000000000000000000000000000000000000000000000000000082169050919050565b610fb681610f81565b82525050565b6000602082019050610fd16000830184610fad565b92915050565b60008060408385031215610fee57610fed610d9f565b5b6000610ffc85828601610dca565b925050602061100d85828601610dca565b9150509250929050565b600081519050919050565b600082825260208201905092915050565b60005b83811015611051578082015181840152602081019050611036565b60008484015250505050565b6000601f19601f8301169050919050565b600061107982611017565b6110838185611022565b9350611093818560208601611033565b61109c8161105d565b840191505092915050565b6110b081610da9565b82525050565b6110bf81610e56565b82525050565b60008115159050919050565b6110da816110c5565b82525050565b60006101a08301600083015184820360008601526110fe828261106e565b915050602083015161111360208601826110a7565b50604083015161112660408601826110a7565b50606083015161113960608601826110a7565b50608083015161114c60808601826110a7565b5060a083015161115f60a08601826110b6565b5060c083015184820360c0860152611177828261106e565b91505060e083015161118c60e08601826110b6565b506101008301516111a16101008601826110a7565b506101208301516111b66101208601826110a7565b506101408301516111cb6101408601826110a7565b506101608301516111e06101608601826110d1565b506101808301516111f56101808601826110d1565b508091505092915050565b6000602082019050818103600083015261121a81846110e0565b905092915050565b600080fd5b7f4e487b7100000000000000000000000000000000000000000000000000000000600052604160045260246000fd5b61125f8261105d565b810181811067ffffffffffffffff8211171561127e5761127d611227565b5b80604052505050565b6000611291610d95565b905061129d8282611256565b919050565b600067ffffffffffffffff8211156112bd576112bc611227565b5b6112c68261105d565b9050602081019050919050565b82818337600083830152505050565b60006112f56112f0846112a2565b611287565b90508281526020810184848401111561131157611310611222565b5b61131c8482856112d3565b509392505050565b600082601f83011261133957611338610e94565b5b81356113498482602086016112e2565b91505092915050565b600080600080600080600060e0888a03121561137157611370610d9f565b5b600088013567ffffffffffffffff81111561138f5761138e610da4565b5b61139b8a828b01611324565b97505060206113ac8a828b01610dca565b96505060406113bd8a828b01610dca565b95505060606113ce8a828b01610dca565b94505060806113df8a828b01610dca565b93505060a06113f08a828b01610e7f565b92505060c088013567ffffffffffffffff81111561141157611410610da4565b5b61141d8a828b01611324565b91505092959891949750929550565b600082825260208201905092915050565b7f526166666c65206e6f7420666f756e6400000000000000000000000000000000600082015250565b600061147360108361142c565b915061147e8261143d565b602082019050919050565b600060208201905081810360008301526114a281611466565b9050919050565b7f4e487b7100000000000000000000000000000000000000000000000000000000600052601160045260246000fd5b60006114e382610da9565b91506114ee83610da9565b9250828203905081811115611506576115056114a9565b5b92915050565b7f526166666c652063616e63656c6c656400000000000000000000000000000000600082015250565b600061154260108361142c565b915061154d8261150c565b602082019050919050565b6000602082019050818103600083015261157181611535565b9050919050565b7f526166666c6520656e6465640000000000000000000000000000000000000000600082015250565b60006115ae600c8361142c565b91506115b982611578565b602082019050919050565b600060208201905081810360008301526115dd816115a1565b9050919050565b7f4e6f7420656e6f756768207469636b65747320617661696c61626c6500000000600082015250565b600061161a601c8361142c565b9150611625826115e4565b602082019050919050565b600060208201905081810360008301526116498161160d565b9050919050565b7f496e73756666696369656e742066756e64730000000000000000000000000000600082015250565b600061168660128361142c565b915061169182611650565b602082019050919050565b600060208201905081810360008301526116b581611679565b9050919050565b60006116c782610da9565b91506116d283610da9565b92508282019050808211156116ea576116e96114a9565b5b92915050565b60006116fb82610da9565b91507fffffffffffffffffffffffffffffffffffffffffffffffffffffffffffffffff820361172d5761172c6114a9565b5b600182019050919050565b7f4e487b7100000000000000000000000000000000000000000000000000000000600052602260045260246000fd5b6000600282049050600182168061177f57607f821691505b60208210810361179257611791611738565b5b50919050565b7f496e76616c6964204e465420636f6e7472616374206164647265737300000000600082015250565b60006117ce601c8361142c565b91506117d982611798565b602082019050919050565b600060208201905081810360008301526117fd816117c1565b9050919050565b7f456e642074696d65206d75737420626520696e20667574757265000000000000600082015250565b600061183a601a8361142c565b915061184582611804565b602082019050919050565b600060208201905081810360008301526118698161182d565b9050919050565b60008151905061187f81610e68565b92915050565b60006020828403121561189b5761189a610d9f565b5b60006118a984828501611870565b91505092915050565b7f4f6e6c79204e4654206f776e65722063616e2063726561746520726166666c65600082015250565b60006118e860208361142c565b91506118f3826118b2565b602082019050919050565b60006020820190508181036000830152611917816118db565b9050919050565b61192781610e56565b82525050565b6000606082019050611942600083018661191e565b61194f602083018561191e565b61195c6040830184610e0c565b949350505050565b60008190508160005260206000209050919050565b60006020601f8301049050919050565b600082821b905092915050565b6000600883026119c67fffffffffffffffffffffffffffffffffffffffffffffffffffffffffffffffff82611989565b6119d08683611989565b95508019841693508086168417925050509392505050565b6000819050919050565b6000611a0d611a08611a0384610da9565b6119e8565b610da9565b9050919050565b6000819050919050565b611a27836119f2565b611a3b611a3382611a14565b848454611996565b825550505050565b600090565b611a50611a43565b611a5b818484611a1e565b505050565b5b81811015611a7f57611a74600082611a48565b600181019050611a61565b5050565b601f821115611ac457611a9581611964565b611a9e84611979565b81016020851015611aad578190505b611ac1611ab985611979565b830182611a60565b50505b505050565b600082821c905092915050565b6000611ae760001984600802611ac9565b1980831691505092915050565b6000611b008383611ad6565b9150826002028217905092915050565b611b1982611017565b67ffffffffffffffff811115611b3257611b31611227565b5b611b3c8254611767565b611b47828285611a83565b600060209050601f831160018114611b7a5760008415611b68578287015190505b611b728582611af4565b865550611bda565b601f198416611b8886611964565b60005b82811015611bb057848901518255600182019150602085019450602081019050611b8b565b86831015611bcd5784890151611bc9601f891682611ad6565b8355505b6001600288020188555050505b505050505050565b6000611bed82610da9565b9150611bf883610da9565b9250828202611c0681610da9565b91508282048414831517611c1d57611c1c6114a9565b5b5092915050565b7f4e487b7100000000000000000000000000000000000000000000000000000000600052601260045260246000fd5b6000611c5e82610da9565b9150611c6983610da9565b925082611c7957611c78611c24565b5b82820490509291505056fea2646970667358221220691fe48997dffb55baf74b9ab2464804224e532420c079e50c335dc24d49fac964736f6c63430008130033",
  "immutableReferences": {},
  "source": "// SPDX-License-Identifier: MIT\r\npragma solidity ^0.8.0;\r\n\r\nimport \"@openzeppelin/contracts/token/ERC721/IERC721.sol\";\r\nimport \"@openzeppelin/contracts/utils/math/SafeMath.sol\";\r\nimport \"@openzeppelin/contracts/token/ERC721/IERC721Receiver.sol\";\r\n\r\ncontract nftRafflerOriginx1 is IERC721Receiver {\r\n    using SafeMath for uint256;\r\n\r\n    struct Raffle {\r\n        uint raffleId;\r\n        string raffleName;\r\n        uint256 nftPrice;\r\n        uint256 totalVolumeofTickets;\r\n        uint256 endTime;\r\n        uint256 nftId;\r\n        address nftContractAddress;\r\n        string nftSourceLink;\r\n        address raffleCreator;\r\n        uint256 rafflePool;\r\n        uint256 ticketPrice;\r\n        uint256 totalSoldTickets;\r\n        bool raffleCancelled;\r\n        bool raffleEnded;\r\n        uint256 fundsInContract;\r\n        uint256[] tickets;\r\n    }\r\n\r\n    struct RaffleInfo {\r\n        string raffleName;\r\n        uint256 nftPrice;\r\n        uint256 totalVolumeofTickets;\r\n        uint256 endTime;\r\n        uint256 nftId;\r\n        address nftContractAddress;\r\n        string nftSourceLink;\r\n        address raffleCreator;\r\n        uint256 rafflePool;\r\n        uint256 ticketPrice;\r\n        uint256 totalSoldTickets;\r\n        bool raffleCancelled;\r\n        bool raffleEnded;\r\n    }\r\n\r\n    struct TicketOwnership {\r\n        mapping(address => uint256) ticketsOwned;\r\n    }\r\n\r\n    mapping(uint256 => Raffle) private raffles;\r\n    mapping(uint256 => TicketOwnership) private ticketOwnerships;\r\n    uint256 private randomNonce = 0;\r\n    uint256 private raffleCount = 0;\r\n\r\n    function createRaffle(\r\n        string memory _raffleName,\r\n        uint256 _nftPrice,\r\n        uint256 _totalVolumeofTickets,\r\n        uint256 _endTime,\r\n        uint256 _nftId,\r\n        address _nftContractAddress,\r\n        string memory _nftSourceLink\r\n    ) public returns (uint256) {\r\n        require(\r\n            _nftContractAddress != address(0),\r\n            \"Invalid NFT contract address\"\r\n        );\r\n        require(_endTime > block.timestamp, \"End time must be in future\");\r\n        IERC721 nftContract = IERC721(_nftContractAddress);\r\n        require(\r\n            msg.sender == nftContract.ownerOf(_nftId),\r\n            \"Only NFT owner can create raffle\"\r\n        );\r\n\r\n        nftContract.safeTransferFrom(msg.sender, address(this), _nftId);\r\n        raffleCount++;\r\n\r\n        raffles[raffleCount] = Raffle({\r\n            raffleId: raffleCount,\r\n            raffleName: _raffleName,\r\n            nftPrice: _nftPrice,\r\n            totalVolumeofTickets: _totalVolumeofTickets,\r\n            endTime: _endTime,\r\n            nftId: _nftId,\r\n            nftContractAddress: _nftContractAddress,\r\n            nftSourceLink: _nftSourceLink,\r\n            raffleCreator: msg.sender,\r\n            rafflePool: (_nftPrice.mul(150)).div(100),\r\n            ticketPrice: 0,\r\n            totalSoldTickets: 0,\r\n            raffleCancelled: false,\r\n            raffleEnded: false,\r\n            fundsInContract: 0,\r\n            tickets: new uint256[](0)\r\n        });\r\n\r\n        raffles[raffleCount].ticketPrice = raffles[raffleCount].rafflePool.div(\r\n            _totalVolumeofTickets\r\n        );\r\n\r\n        return raffleCount;\r\n    }\r\n\r\n    function getAvailableTickets(\r\n        uint256 _raffleID\r\n    ) public view returns (uint256) {\r\n        Raffle storage raffle = raffles[_raffleID];\r\n        require(raffle.raffleId != 0, \"Raffle not found\");\r\n\r\n        if (raffle.raffleEnded || raffle.raffleCancelled) {\r\n            return 0;\r\n        } else {\r\n            return raffle.totalVolumeofTickets - raffle.totalSoldTickets;\r\n        }\r\n    }\r\n\r\n    function buyTicket(\r\n        uint256 _raffleID,\r\n        uint256 _totalTicketsWanted\r\n    ) public payable {\r\n        Raffle storage raffle = raffles[_raffleID];\r\n        require(raffle.raffleId != 0, \"Raffle not found\");\r\n        require(!raffle.raffleCancelled, \"Raffle cancelled\");\r\n        require(!raffle.raffleEnded, \"Raffle ended\");\r\n        require(\r\n            raffle.totalSoldTickets.add(_totalTicketsWanted) <=\r\n                raffle.totalVolumeofTickets,\r\n            \"Not enough tickets available\"\r\n        );\r\n\r\n        // Calculate the price for the requested number of tickets\r\n        uint256 ticketPrice = raffle.ticketPrice.mul(_totalTicketsWanted);\r\n        require(msg.value >= ticketPrice, \"Insufficient funds\");\r\n\r\n        // Add the tickets to the ticket array\r\n        for (uint256 i = 0; i < _totalTicketsWanted; i++) {\r\n            uint256 ticketNumber = raffle.tickets.length + 1;\r\n            raffle.tickets.push(ticketNumber);\r\n            ticketOwnerships[_raffleID].ticketsOwned[msg.sender] = ticketNumber;\r\n        }\r\n\r\n        // Increment the number of sold tickets\r\n        raffle.totalSoldTickets = raffle.totalSoldTickets.add(\r\n            _totalTicketsWanted\r\n        );\r\n\r\n        // Update the funds in the contract\r\n        raffle.fundsInContract = raffle.fundsInContract.add(msg.value);\r\n    }\r\n\r\n    function raffleInfo(\r\n        uint256 _raffleID\r\n    ) public view returns (RaffleInfo memory) {\r\n        Raffle storage raffle = raffles[_raffleID];\r\n\r\n        RaffleInfo memory raffleInfo = RaffleInfo({\r\n            raffleName: raffle.raffleName,\r\n            nftPrice: raffle.nftPrice,\r\n            totalVolumeofTickets: raffle.totalVolumeofTickets,\r\n            endTime: raffle.endTime,\r\n            nftId: raffle.nftId,\r\n            nftContractAddress: raffle.nftContractAddress,\r\n            nftSourceLink: raffle.nftSourceLink,\r\n            raffleCreator: raffle.raffleCreator,\r\n            rafflePool: raffle.rafflePool,\r\n            ticketPrice: raffle.ticketPrice,\r\n            totalSoldTickets: raffle.totalSoldTickets,\r\n            raffleCancelled: raffle.raffleCancelled,\r\n            raffleEnded: raffle.raffleEnded\r\n        });\r\n\r\n        return raffleInfo;\r\n    }\r\n\r\n    // unused function.\r\n    function onERC721Received(\r\n        address operator,\r\n        address from,\r\n        uint256 tokenId,\r\n        bytes calldata data\r\n    ) external returns (bytes4) {\r\n        return this.onERC721Received.selector;\r\n    }\r\n}\r\n",
  "sourcePath": "C:\\Users\\user\\Desktop\\GIT_REPOS\\dappathon\\backend\\contracts\\mainNftRaffle.sol",
  "compiler": {
    "name": "solc",
    "version": "0.8.19+commit.7dd6d404.Emscripten.clang"
  },
  "schemaVersion": "3.4.13",
  "updatedAt": "2023-05-06T16:02:22.764Z",
  "devdoc": {
    "kind": "dev",
    "methods": {
      "onERC721Received(address,address,uint256,bytes)": {
        "details": "Whenever an {IERC721} `tokenId` token is transferred to this contract via {IERC721-safeTransferFrom} by `operator` from `from`, this function is called. It must return its Solidity selector to confirm the token transfer. If any other value is returned or the interface is not implemented by the recipient, the transfer will be reverted. The selector can be obtained in Solidity with `IERC721Receiver.onERC721Received.selector`."
      }
    },
    "version": 1
  },
  "userdoc": {
    "kind": "user",
    "methods": {},
    "version": 1
  }
}