{
  "contractName": "originxRaffler",
  "abi": [
    {
      "inputs": [],
      "stateMutability": "nonpayable",
      "type": "constructor"
    },
    {
      "inputs": [
        {
          "internalType": "address",
          "name": "have",
          "type": "address"
        },
        {
          "internalType": "address",
          "name": "want",
          "type": "address"
        }
      ],
      "name": "OnlyCoordinatorCanFulfill",
      "type": "error"
    },
    {
      "anonymous": false,
      "inputs": [
        {
          "indexed": true,
          "internalType": "address",
          "name": "from",
          "type": "address"
        },
        {
          "indexed": true,
          "internalType": "address",
          "name": "to",
          "type": "address"
        }
      ],
      "name": "OwnershipTransferRequested",
      "type": "event"
    },
    {
      "anonymous": false,
      "inputs": [
        {
          "indexed": true,
          "internalType": "address",
          "name": "from",
          "type": "address"
        },
        {
          "indexed": true,
          "internalType": "address",
          "name": "to",
          "type": "address"
        }
      ],
      "name": "OwnershipTransferred",
      "type": "event"
    },
    {
      "anonymous": false,
      "inputs": [
        {
          "indexed": false,
          "internalType": "uint256",
          "name": "requestId",
          "type": "uint256"
        },
        {
          "indexed": false,
          "internalType": "uint256[]",
          "name": "randomWords",
          "type": "uint256[]"
        }
      ],
      "name": "RequestFulfilled",
      "type": "event"
    },
    {
      "anonymous": false,
      "inputs": [
        {
          "indexed": false,
          "internalType": "uint256",
          "name": "requestId",
          "type": "uint256"
        },
        {
          "indexed": false,
          "internalType": "uint32",
          "name": "numWords",
          "type": "uint32"
        }
      ],
      "name": "RequestSent",
      "type": "event"
    },
    {
      "anonymous": false,
      "inputs": [
        {
          "indexed": true,
          "internalType": "uint256",
          "name": "raffleId",
          "type": "uint256"
        },
        {
          "indexed": false,
          "internalType": "uint256",
          "name": "winningTicketNumber",
          "type": "uint256"
        },
        {
          "indexed": false,
          "internalType": "address",
          "name": "winningTicketOwner",
          "type": "address"
        }
      ],
      "name": "WinnerSelected",
      "type": "event"
    },
    {
      "anonymous": false,
      "inputs": [
        {
          "indexed": true,
          "internalType": "uint256",
          "name": "raffleId",
          "type": "uint256"
        }
      ],
      "name": "raffleEnded",
      "type": "event"
    },
    {
      "inputs": [],
      "name": "acceptOwnership",
      "outputs": [],
      "stateMutability": "nonpayable",
      "type": "function"
    },
    {
      "inputs": [],
      "name": "lastRequestId",
      "outputs": [
        {
          "internalType": "uint256",
          "name": "",
          "type": "uint256"
        }
      ],
      "stateMutability": "view",
      "type": "function"
    },
    {
      "inputs": [],
      "name": "owner",
      "outputs": [
        {
          "internalType": "address",
          "name": "",
          "type": "address"
        }
      ],
      "stateMutability": "view",
      "type": "function"
    },
    {
      "inputs": [
        {
          "internalType": "uint256",
          "name": "",
          "type": "uint256"
        }
      ],
      "name": "raffleIdToRequestId",
      "outputs": [
        {
          "internalType": "uint256",
          "name": "",
          "type": "uint256"
        }
      ],
      "stateMutability": "view",
      "type": "function"
    },
    {
      "inputs": [
        {
          "internalType": "uint256",
          "name": "requestId",
          "type": "uint256"
        },
        {
          "internalType": "uint256[]",
          "name": "randomWords",
          "type": "uint256[]"
        }
      ],
      "name": "rawFulfillRandomWords",
      "outputs": [],
      "stateMutability": "nonpayable",
      "type": "function"
    },
    {
      "inputs": [
        {
          "internalType": "uint256",
          "name": "",
          "type": "uint256"
        }
      ],
      "name": "requestIds",
      "outputs": [
        {
          "internalType": "uint256",
          "name": "",
          "type": "uint256"
        }
      ],
      "stateMutability": "view",
      "type": "function"
    },
    {
      "inputs": [
        {
          "internalType": "uint256",
          "name": "",
          "type": "uint256"
        }
      ],
      "name": "s_requests",
      "outputs": [
        {
          "internalType": "bool",
          "name": "fulfilled",
          "type": "bool"
        },
        {
          "internalType": "bool",
          "name": "exists",
          "type": "bool"
        }
      ],
      "stateMutability": "view",
      "type": "function"
    },
    {
      "inputs": [
        {
          "internalType": "uint256",
          "name": "",
          "type": "uint256"
        },
        {
          "internalType": "uint256",
          "name": "",
          "type": "uint256"
        }
      ],
      "name": "ticketToOwner",
      "outputs": [
        {
          "internalType": "address",
          "name": "",
          "type": "address"
        }
      ],
      "stateMutability": "view",
      "type": "function"
    },
    {
      "inputs": [
        {
          "internalType": "address",
          "name": "to",
          "type": "address"
        }
      ],
      "name": "transferOwnership",
      "outputs": [],
      "stateMutability": "nonpayable",
      "type": "function"
    },
    {
      "inputs": [
        {
          "internalType": "uint256",
          "name": "_raffleId",
          "type": "uint256"
        }
      ],
      "name": "requestRandomTicket",
      "outputs": [
        {
          "internalType": "uint256",
          "name": "requestId",
          "type": "uint256"
        }
      ],
      "stateMutability": "nonpayable",
      "type": "function"
    },
    {
      "inputs": [
        {
          "internalType": "uint256",
          "name": "_raffleId",
          "type": "uint256"
        }
      ],
      "name": "getRequestForRaffle",
      "outputs": [
        {
          "internalType": "uint256",
          "name": "requestId",
          "type": "uint256"
        }
      ],
      "stateMutability": "view",
      "type": "function"
    },
    {
      "inputs": [
        {
          "internalType": "uint256",
          "name": "_requestId",
          "type": "uint256"
        }
      ],
      "name": "getRequestStatus",
      "outputs": [
        {
          "internalType": "bool",
          "name": "fulfilled",
          "type": "bool"
        },
        {
          "internalType": "uint256[]",
          "name": "randomWords",
          "type": "uint256[]"
        }
      ],
      "stateMutability": "view",
      "type": "function"
    },
    {
      "inputs": [
        {
          "internalType": "string",
          "name": "_raffleName",
          "type": "string"
        },
        {
          "internalType": "string",
          "name": "_description",
          "type": "string"
        },
        {
          "internalType": "uint256",
          "name": "_nftPrice",
          "type": "uint256"
        },
        {
          "internalType": "uint256",
          "name": "_totalVolumeofTickets",
          "type": "uint256"
        },
        {
          "internalType": "uint256",
          "name": "_endTime",
          "type": "uint256"
        },
        {
          "internalType": "string",
          "name": "_nftName",
          "type": "string"
        },
        {
          "internalType": "uint256",
          "name": "_nftId",
          "type": "uint256"
        },
        {
          "internalType": "address",
          "name": "_nftContractAddress",
          "type": "address"
        },
        {
          "internalType": "string[5]",
          "name": "_goals",
          "type": "string[5]"
        },
        {
          "internalType": "string",
          "name": "_nftSourceLink",
          "type": "string"
        },
        {
          "internalType": "address",
          "name": "_charityAddress",
          "type": "address"
        }
      ],
      "name": "createRaffle",
      "outputs": [
        {
          "internalType": "uint256",
          "name": "",
          "type": "uint256"
        }
      ],
      "stateMutability": "nonpayable",
      "type": "function"
    },
    {
      "inputs": [
        {
          "internalType": "uint256",
          "name": "_raffleId",
          "type": "uint256"
        }
      ],
      "name": "getTicketPrice",
      "outputs": [
        {
          "internalType": "uint256",
          "name": "",
          "type": "uint256"
        }
      ],
      "stateMutability": "view",
      "type": "function"
    },
    {
      "inputs": [
        {
          "internalType": "address",
          "name": "_address",
          "type": "address"
        },
        {
          "internalType": "uint256",
          "name": "raffleId",
          "type": "uint256"
        }
      ],
      "name": "getTicketsOwned",
      "outputs": [
        {
          "internalType": "uint256",
          "name": "",
          "type": "uint256"
        }
      ],
      "stateMutability": "view",
      "type": "function"
    },
    {
      "inputs": [
        {
          "internalType": "address",
          "name": "owner",
          "type": "address"
        }
      ],
      "name": "getOwnedRaffles",
      "outputs": [
        {
          "internalType": "uint256",
          "name": "totalRaffles",
          "type": "uint256"
        },
        {
          "internalType": "uint256[]",
          "name": "raffleIds",
          "type": "uint256[]"
        }
      ],
      "stateMutability": "view",
      "type": "function"
    },
    {
      "inputs": [
        {
          "internalType": "uint256",
          "name": "_raffleID",
          "type": "uint256"
        }
      ],
      "name": "getAvailableTickets",
      "outputs": [
        {
          "internalType": "uint256",
          "name": "",
          "type": "uint256"
        }
      ],
      "stateMutability": "view",
      "type": "function"
    },
    {
      "inputs": [
        {
          "internalType": "uint256",
          "name": "_raffleId",
          "type": "uint256"
        },
        {
          "internalType": "uint256",
          "name": "_totalTicketsWanted",
          "type": "uint256"
        }
      ],
      "name": "buyTicket",
      "outputs": [],
      "stateMutability": "payable",
      "type": "function"
    },
    {
      "inputs": [
        {
          "internalType": "uint256",
          "name": "_raffleId",
          "type": "uint256"
        },
        {
          "internalType": "uint256",
          "name": "_totalTicketsWanted",
          "type": "uint256"
        }
      ],
      "name": "getTotalTicketPrice",
      "outputs": [
        {
          "internalType": "uint256",
          "name": "",
          "type": "uint256"
        }
      ],
      "stateMutability": "view",
      "type": "function"
    },
    {
      "inputs": [
        {
          "internalType": "uint256",
          "name": "raffleId",
          "type": "uint256"
        },
        {
          "internalType": "uint256",
          "name": "requestId",
          "type": "uint256"
        }
      ],
      "name": "pickWinner",
      "outputs": [],
      "stateMutability": "nonpayable",
      "type": "function"
    },
    {
      "inputs": [
        {
          "internalType": "uint256",
          "name": "_raffleId",
          "type": "uint256"
        }
      ],
      "name": "cancelRaffle",
      "outputs": [],
      "stateMutability": "nonpayable",
      "type": "function"
    },
    {
      "inputs": [
        {
          "internalType": "uint256",
          "name": "_raffleId",
          "type": "uint256"
        }
      ],
      "name": "getPrizePool",
      "outputs": [
        {
          "internalType": "uint256",
          "name": "",
          "type": "uint256"
        },
        {
          "internalType": "uint256",
          "name": "",
          "type": "uint256"
        },
        {
          "internalType": "uint256",
          "name": "",
          "type": "uint256"
        },
        {
          "internalType": "uint256",
          "name": "",
          "type": "uint256"
        }
      ],
      "stateMutability": "view",
      "type": "function"
    },
    {
      "inputs": [
        {
          "internalType": "uint256",
          "name": "raffleId",
          "type": "uint256"
        }
      ],
      "name": "getRaffleWinner",
      "outputs": [
        {
          "internalType": "address",
          "name": "winner",
          "type": "address"
        },
        {
          "internalType": "uint256",
          "name": "winningTicket",
          "type": "uint256"
        }
      ],
      "stateMutability": "view",
      "type": "function"
    },
    {
      "inputs": [
        {
          "internalType": "uint256",
          "name": "_raffleID",
          "type": "uint256"
        }
      ],
      "name": "raffleInfo",
      "outputs": [
        {
          "components": [
            {
              "internalType": "uint256",
              "name": "raffleId",
              "type": "uint256"
            },
            {
              "internalType": "string",
              "name": "raffleName",
              "type": "string"
            },
            {
              "internalType": "string",
              "name": "description",
              "type": "string"
            },
            {
              "internalType": "string[5]",
              "name": "goals",
              "type": "string[5]"
            },
            {
              "internalType": "uint256",
              "name": "nftPrice",
              "type": "uint256"
            },
            {
              "internalType": "uint256",
              "name": "totalVolumeofTickets",
              "type": "uint256"
            },
            {
              "internalType": "uint256",
              "name": "endTime",
              "type": "uint256"
            },
            {
              "internalType": "string",
              "name": "nftName",
              "type": "string"
            },
            {
              "internalType": "uint256",
              "name": "nftId",
              "type": "uint256"
            },
            {
              "internalType": "address",
              "name": "nftContractAddress",
              "type": "address"
            },
            {
              "internalType": "string",
              "name": "nftSourceLink",
              "type": "string"
            },
            {
              "internalType": "address",
              "name": "charityAddress",
              "type": "address"
            },
            {
              "internalType": "address",
              "name": "raffleCreator",
              "type": "address"
            },
            {
              "internalType": "uint256",
              "name": "rafflePool",
              "type": "uint256"
            },
            {
              "internalType": "uint256",
              "name": "ticketPrice",
              "type": "uint256"
            },
            {
              "internalType": "uint256",
              "name": "totalSoldTickets",
              "type": "uint256"
            },
            {
              "internalType": "uint256",
              "name": "winningTicket",
              "type": "uint256"
            },
            {
              "internalType": "address",
              "name": "raffleWinner",
              "type": "address"
            },
            {
              "internalType": "bool",
              "name": "raffleCancelled",
              "type": "bool"
            },
            {
              "internalType": "bool",
              "name": "raffleEnded",
              "type": "bool"
            }
          ],
          "internalType": "struct originxRaffler.RaffleInfo",
          "name": "",
          "type": "tuple"
        }
      ],
      "stateMutability": "view",
      "type": "function"
    },
    {
      "inputs": [
        {
          "internalType": "address",
          "name": "operator",
          "type": "address"
        },
        {
          "internalType": "address",
          "name": "from",
          "type": "address"
        },
        {
          "internalType": "uint256",
          "name": "tokenId",
          "type": "uint256"
        },
        {
          "internalType": "bytes",
          "name": "data",
          "type": "bytes"
        }
      ],
      "name": "onERC721Received",
      "outputs": [
        {
          "internalType": "bytes4",
          "name": "",
          "type": "bytes4"
        }
      ],
      "stateMutability": "nonpayable",
      "type": "function"
    },
    {
      "inputs": [
        {
          "internalType": "uint256",
          "name": "_raffleId",
          "type": "uint256"
        }
      ],
      "name": "getEntityAddresses",
      "outputs": [
        {
          "internalType": "address",
          "name": "",
          "type": "address"
        },
        {
          "internalType": "address",
          "name": "",
          "type": "address"
        },
        {
          "internalType": "address",
          "name": "",
          "type": "address"
        }
      ],
      "stateMutability": "view",
      "type": "function"
    },
    {
      "inputs": [],
      "name": "getTotalRaffles",
      "outputs": [
        {
          "internalType": "uint256",
          "name": "",
          "type": "uint256"
        }
      ],
      "stateMutability": "view",
      "type": "function"
    },
    {
      "inputs": [],
      "name": "getContractBalance",
      "outputs": [
        {
          "internalType": "uint256",
          "name": "",
          "type": "uint256"
        }
      ],
      "stateMutability": "view",
      "type": "function"
    }
  ],
  "bytecode": "0x60a0604052611226600460146101000a81548167ffffffffffffffff021916908367ffffffffffffffff1602179055507f474e34a077df58807dbe9c96d3c009b23b3c6d0cce433e59bbf5b34f823bc56c60001b600755620186a0600860006101000a81548163ffffffff021916908363ffffffff1602179055506003600860046101000a81548161ffff021916908361ffff1602179055506001600860066101000a81548163ffffffff021916908363ffffffff1602179055506000600b55348015620000cc57600080fd5b5033806000738103b0a8a00be2ddc778e6e7eaa21791cd3646258073ffffffffffffffffffffffffffffffffffffffff1660808173ffffffffffffffffffffffffffffffffffffffff168152505050600073ffffffffffffffffffffffffffffffffffffffff168273ffffffffffffffffffffffffffffffffffffffff16036200018d576040517f08c379a0000000000000000000000000000000000000000000000000000000008152600401620001849062000410565b60405180910390fd5b816000806101000a81548173ffffffffffffffffffffffffffffffffffffffff021916908373ffffffffffffffffffffffffffffffffffffffff160217905550600073ffffffffffffffffffffffffffffffffffffffff168173ffffffffffffffffffffffffffffffffffffffff1614620002145762000213816200028060201b60201c565b5b505050738103b0a8a00be2ddc778e6e7eaa21791cd364625600460006101000a81548173ffffffffffffffffffffffffffffffffffffffff021916908373ffffffffffffffffffffffffffffffffffffffff160217905550600460149054906101000a905050620004a4565b3373ffffffffffffffffffffffffffffffffffffffff168173ffffffffffffffffffffffffffffffffffffffff1603620002f1576040517f08c379a0000000000000000000000000000000000000000000000000000000008152600401620002e89062000482565b60405180910390fd5b80600160006101000a81548173ffffffffffffffffffffffffffffffffffffffff021916908373ffffffffffffffffffffffffffffffffffffffff1602179055508073ffffffffffffffffffffffffffffffffffffffff1660008054906101000a900473ffffffffffffffffffffffffffffffffffffffff1673ffffffffffffffffffffffffffffffffffffffff167fed8889f560326eb138920d842192f0eb3dd22b4f139c87a2c57538e05bae127860405160405180910390a350565b600082825260208201905092915050565b7f43616e6e6f7420736574206f776e657220746f207a65726f0000000000000000600082015250565b6000620003f8601883620003af565b91506200040582620003c0565b602082019050919050565b600060208201905081810360008301526200042b81620003e9565b9050919050565b7f43616e6e6f74207472616e7366657220746f2073656c66000000000000000000600082015250565b60006200046a601783620003af565b9150620004778262000432565b602082019050919050565b600060208201905081810360008301526200049d816200045b565b9050919050565b6080516150bc620004c76000396000818161086901526108bd01526150bc6000f3fe6080604052600436106101b75760003560e01c80638a56e3b9116100ec578063d63fed511161008a578063f06fc96111610064578063f06fc961146106c4578063f2fde38b14610701578063f9ea23821461072a578063fc2a88c314610767576101b7565b8063d63fed5114610620578063d8a4676f14610649578063e479821414610687576101b7565b8063a168fa89116100c6578063a168fa891461052a578063a4e74daf14610568578063bb39cb5c146105a6578063bf30d790146105e3576101b7565b80638a56e3b9146104855780638c3fd660146104c25780638da5cb5b146104ff576101b7565b806351b98f70116101595780636f9fb98a116101335780636f9fb98a146103c65780637822be4a146103f157806379ba5097146104315780638796ba8c14610448576101b7565b806351b98f70146103225780635fba31711461035f57806362617c9a14610388576101b7565b80631fe543e3116101955780631fe543e3146102615780632973c9b11461028a578063298ec208146102c957806338a2efbe146102e5576101b7565b80630cc7b2a9146101bc5780630ded5c36146101f9578063150b7a0214610224575b600080fd5b3480156101c857600080fd5b506101e360048036038101906101de91906134e8565b610792565b6040516101f09190613524565b60405180910390f35b34801561020557600080fd5b5061020e610848565b60405161021b9190613524565b60405180910390f35b34801561023057600080fd5b5061024b60048036038101906102469190613602565b610852565b60405161025891906136c5565b60405180910390f35b34801561026d57600080fd5b506102886004803603810190610283919061382f565b610867565b005b34801561029657600080fd5b506102b160048036038101906102ac91906134e8565b610927565b6040516102c09392919061389a565b60405180910390f35b6102e360048036038101906102de91906138d1565b6109de565b005b3480156102f157600080fd5b5061030c60048036038101906103079190613911565b610c93565b6040516103199190613524565b60405180910390f35b34801561032e57600080fd5b50610349600480360381019061034491906134e8565b610d9c565b6040516103569190613524565b60405180910390f35b34801561036b57600080fd5b50610386600480360381019061038191906134e8565b610dfc565b005b34801561039457600080fd5b506103af60048036038101906103aa91906134e8565b611106565b6040516103bd929190613951565b60405180910390f35b3480156103d257600080fd5b506103db611281565b6040516103e89190613524565b60405180910390f35b3480156103fd57600080fd5b50610418600480360381019061041391906134e8565b611289565b604051610428949392919061397a565b60405180910390f35b34801561043d57600080fd5b50610446611353565b005b34801561045457600080fd5b5061046f600480360381019061046a91906134e8565b6114e8565b60405161047c9190613524565b60405180910390f35b34801561049157600080fd5b506104ac60048036038101906104a791906138d1565b61150c565b6040516104b991906139bf565b60405180910390f35b3480156104ce57600080fd5b506104e960048036038101906104e49190613b5e565b61154e565b6040516104f69190613524565b60405180910390f35b34801561050b57600080fd5b50610514611c31565b60405161052191906139bf565b60405180910390f35b34801561053657600080fd5b50610551600480360381019061054c91906134e8565b611c5a565b60405161055f929190613cf9565b60405180910390f35b34801561057457600080fd5b5061058f600480360381019061058a9190613d22565b611c98565b60405161059d929190613e0d565b60405180910390f35b3480156105b257600080fd5b506105cd60048036038101906105c891906134e8565b611e58565b6040516105da9190613524565b60405180910390f35b3480156105ef57600080fd5b5061060a600480360381019061060591906134e8565b6121a8565b6040516106179190614161565b60405180910390f35b34801561062c57600080fd5b50610647600480360381019061064291906138d1565b612676565b005b34801561065557600080fd5b50610670600480360381019061066b91906134e8565b612c49565b60405161067e929190614183565b60405180910390f35b34801561069357600080fd5b506106ae60048036038101906106a991906134e8565b612d74565b6040516106bb9190613524565b60405180910390f35b3480156106d057600080fd5b506106eb60048036038101906106e691906134e8565b612d8c565b6040516106f89190613524565b60405180910390f35b34801561070d57600080fd5b5061072860048036038101906107239190613d22565b612dac565b005b34801561073657600080fd5b50610751600480360381019061074c91906138d1565b612dc0565b60405161075e9190613524565b60405180910390f35b34801561077357600080fd5b5061077c612df7565b6040516107899190613524565b60405180910390f35b60008060096000848152602001908152602001600020905060008160000154036107f1576040517f08c379a00000000000000000000000000000000000000000000000000000000081526004016107e890614210565b60405180910390fd5b8060140160019054906101000a900460ff168061081c57508060140160009054906101000a900460ff165b1561082b576000915050610843565b8060130154816004015461083f919061425f565b9150505b919050565b6000600b54905090565b600063150b7a0260e01b905095945050505050565b7f000000000000000000000000000000000000000000000000000000000000000073ffffffffffffffffffffffffffffffffffffffff163373ffffffffffffffffffffffffffffffffffffffff161461091957337f00000000000000000000000000000000000000000000000000000000000000006040517f1cf993f4000000000000000000000000000000000000000000000000000000008152600401610910929190614293565b60405180910390fd5b6109238282612dfd565b5050565b60008060006009600085815260200190815260200160002060100160009054906101000a900473ffffffffffffffffffffffffffffffffffffffff166009600086815260200190815260200160002060190160009054906101000a900473ffffffffffffffffffffffffffffffffffffffff1660096000878152602001908152602001600020600f0160009054906101000a900473ffffffffffffffffffffffffffffffffffffffff169250925092509193909250565b60006009600084815260200190815260200160002090508060140160009054906101000a900460ff1615610a47576040517f08c379a0000000000000000000000000000000000000000000000000000000008152600401610a3e90614308565b60405180910390fd5b8060140160019054906101000a900460ff1615610a99576040517f08c379a0000000000000000000000000000000000000000000000000000000008152600401610a9090614374565b60405180910390fd5b60008211610adc576040517f08c379a0000000000000000000000000000000000000000000000000000000008152600401610ad3906143e0565b60405180910390fd5b80601301548160040154610af0919061425f565b821115610b32576040517f08c379a0000000000000000000000000000000000000000000000000000000008152600401610b299061444c565b60405180910390fd5b6000816012015483610b44919061446c565b905080341015610b89576040517f08c379a0000000000000000000000000000000000000000000000000000000008152600401610b8090614512565b60405180910390fd5b60005b83811015610c565760008160018560130154610ba89190614532565b610bb29190614532565b90508360160181908060018154018082558091505060019003906000526020600020016000909190919091505533600a6000888152602001908152602001600020600083815260200190815260200160002060006101000a81548173ffffffffffffffffffffffffffffffffffffffff021916908373ffffffffffffffffffffffffffffffffffffffff160217905550508080610c4e90614588565b915050610b8c565b5082826013016000828254610c6b9190614532565b9250508190555034826015016000828254610c869190614532565b9250508190555050505050565b6000806000905060005b6009600085815260200190815260200160002060160180549050811015610d91578473ffffffffffffffffffffffffffffffffffffffff16600a60008681526020019081526020016000206000600960008881526020019081526020016000206016018481548110610d1257610d116145d0565b5b9060005260206000200154815260200190815260200160002060009054906101000a900473ffffffffffffffffffffffffffffffffffffffff1673ffffffffffffffffffffffffffffffffffffffff1603610d7e57610d7b600183612ef790919063ffffffff16565b91505b8080610d8990614588565b915050610c9d565b508091505092915050565b60006002600083815260200190815260200160002054905060008103610df7576040517f08c379a0000000000000000000000000000000000000000000000000000000008152600401610dee9061464b565b60405180910390fd5b919050565b60006009600083815260200190815260200160002090508060100160009054906101000a900473ffffffffffffffffffffffffffffffffffffffff1673ffffffffffffffffffffffffffffffffffffffff163373ffffffffffffffffffffffffffffffffffffffff1614610ea5576040517f08c379a0000000000000000000000000000000000000000000000000000000008152600401610e9c906146dd565b60405180910390fd5b8060140160019054906101000a900460ff1615610ef7576040517f08c379a0000000000000000000000000000000000000000000000000000000008152600401610eee90614749565b60405180910390fd5b60005b816016018054905081101561100c576000826016018281548110610f2157610f206145d0565b5b906000526020600020015490506000600a6000868152602001908152602001600020600083815260200190815260200160002060009054906101000a900473ffffffffffffffffffffffffffffffffffffffff169050600073ffffffffffffffffffffffffffffffffffffffff168173ffffffffffffffffffffffffffffffffffffffff1614610ff7578073ffffffffffffffffffffffffffffffffffffffff166108fc85601201549081150290604051600060405180830381858888f19350505050158015610ff5573d6000803e3d6000fd5b505b5050808061100490614588565b915050610efa565b5080600d0160009054906101000a900473ffffffffffffffffffffffffffffffffffffffff1673ffffffffffffffffffffffffffffffffffffffff166342842e0e308360100160009054906101000a900473ffffffffffffffffffffffffffffffffffffffff1684600701546040518463ffffffff1660e01b815260040161109693929190614769565b600060405180830381600087803b1580156110b057600080fd5b505af11580156110c4573d6000803e3d6000fd5b5050505060018160140160006101000a81548160ff02191690831515021790555060018160140160016101000a81548160ff0219169083151502179055505050565b6000806009600084815260200190815260200160002060140160009054906101000a900460ff161561116d576040517f08c379a0000000000000000000000000000000000000000000000000000000008152600401611164906147ec565b60405180910390fd5b6009600084815260200190815260200160002060140160019054906101000a900460ff16156111d1576040517f08c379a00000000000000000000000000000000000000000000000000000000081526004016111c890614749565b60405180910390fd5b600060096000858152602001908152602001600020601701540361122a576040517f08c379a000000000000000000000000000000000000000000000000000000000815260040161122190614858565b60405180910390fd5b6009600084815260200190815260200160002060180160009054906101000a900473ffffffffffffffffffffffffffffffffffffffff16600960008581526020019081526020016000206017015491509150915091565b600047905090565b60008060008060006009600087815260200190815260200160002060110154905060006112d360646112c5600585612f0d90919063ffffffff16565b612f2390919063ffffffff16565b60096000898152602001908152602001600020600301546112f49190614532565b9050600061131f6064611311600586612f0d90919063ffffffff16565b612f2390919063ffffffff16565b90506000818385611330919061425f565b61133a919061425f565b9050838383839750975097509750505050509193509193565b600160009054906101000a900473ffffffffffffffffffffffffffffffffffffffff1673ffffffffffffffffffffffffffffffffffffffff163373ffffffffffffffffffffffffffffffffffffffff16146113e3576040517f08c379a00000000000000000000000000000000000000000000000000000000081526004016113da906148c4565b60405180910390fd5b60008060009054906101000a900473ffffffffffffffffffffffffffffffffffffffff169050336000806101000a81548173ffffffffffffffffffffffffffffffffffffffff021916908373ffffffffffffffffffffffffffffffffffffffff1602179055506000600160006101000a81548173ffffffffffffffffffffffffffffffffffffffff021916908373ffffffffffffffffffffffffffffffffffffffff1602179055503373ffffffffffffffffffffffffffffffffffffffff168173ffffffffffffffffffffffffffffffffffffffff167f8be0079c531659141344cd1fd0a4f28419497f9722a3daafe3b4186f6b6457e060405160405180910390a350565b600581815481106114f857600080fd5b906000526020600020016000915090505481565b600a6020528160005260406000206020528060005260406000206000915091509054906101000a900473ffffffffffffffffffffffffffffffffffffffff1681565b60008073ffffffffffffffffffffffffffffffffffffffff168573ffffffffffffffffffffffffffffffffffffffff16036115be576040517f08c379a00000000000000000000000000000000000000000000000000000000081526004016115b590614930565b60405180910390fd5b428811611600576040517f08c379a00000000000000000000000000000000000000000000000000000000081526004016115f79061499c565b60405180910390fd5b60008590508073ffffffffffffffffffffffffffffffffffffffff16636352211e886040518263ffffffff1660e01b815260040161163e9190613524565b602060405180830381865afa15801561165b573d6000803e3d6000fd5b505050506040513d601f19601f8201168201806040525081019061167f91906149d1565b73ffffffffffffffffffffffffffffffffffffffff163373ffffffffffffffffffffffffffffffffffffffff16146116ec576040517f08c379a00000000000000000000000000000000000000000000000000000000081526004016116e390614a4a565b60405180910390fd5b8073ffffffffffffffffffffffffffffffffffffffff166342842e0e33308a6040518463ffffffff1660e01b815260040161172993929190614769565b600060405180830381600087803b15801561174357600080fd5b505af1158015611757573d6000803e3d6000fd5b50505050600b600081548092919061176e90614588565b9190505550604051806102e00160405280600b5481526020018e81526020018d81526020018c81526020018b81526020018a81526020018981526020018881526020018681526020018773ffffffffffffffffffffffffffffffffffffffff1681526020018581526020018473ffffffffffffffffffffffffffffffffffffffff1681526020013373ffffffffffffffffffffffffffffffffffffffff168152602001611831606460968f611823919061446c565b612f2390919063ffffffff16565b8152602001600081526020016000815260200160001515815260200160001515815260200160008152602001600067ffffffffffffffff811115611878576118776136f1565b5b6040519080825280602002602001820160405280156118a65781602001602082028036833780820191505090505b50815260200160008152602001600073ffffffffffffffffffffffffffffffffffffffff168152602001731eb43ebde750c57aacee85777e7c063218b0e1b473ffffffffffffffffffffffffffffffffffffffff1681525060096000600b5481526020019081526020016000206000820151816000015560208201518160010190805190602001906119399291906131d5565b5060408201518160020190805190602001906119569291906131d5565b50606082015181600301556080820151816004015560a0820151816005015560c08201518160060190805190602001906119919291906131d5565b5060e08201518160070155610100820151816008019060056119b492919061325b565b5061012082015181600d0160006101000a81548173ffffffffffffffffffffffffffffffffffffffff021916908373ffffffffffffffffffffffffffffffffffffffff16021790555061014082015181600e019080519060200190611a1a9291906131d5565b5061016082015181600f0160006101000a81548173ffffffffffffffffffffffffffffffffffffffff021916908373ffffffffffffffffffffffffffffffffffffffff1602179055506101808201518160100160006101000a81548173ffffffffffffffffffffffffffffffffffffffff021916908373ffffffffffffffffffffffffffffffffffffffff1602179055506101a082015181601101556101c082015181601201556101e082015181601301556102008201518160140160006101000a81548160ff0219169083151502179055506102208201518160140160016101000a81548160ff0219169083151502179055506102408201518160150155610260820151816016019080519060200190611b369291906132ae565b5061028082015181601701556102a08201518160180160006101000a81548173ffffffffffffffffffffffffffffffffffffffff021916908373ffffffffffffffffffffffffffffffffffffffff1602179055506102c08201518160190160006101000a81548173ffffffffffffffffffffffffffffffffffffffff021916908373ffffffffffffffffffffffffffffffffffffffff160217905550905050611c008a60096000600b54815260200190815260200160002060110154612f2390919063ffffffff16565b60096000600b54815260200190815260200160002060120181905550600b549150509b9a5050505050505050505050565b60008060009054906101000a900473ffffffffffffffffffffffffffffffffffffffff16905090565b60036020528060005260406000206000915090508060000160009054906101000a900460ff16908060000160019054906101000a900460ff16905082565b600060606000600b5467ffffffffffffffff811115611cba57611cb96136f1565b5b604051908082528060200260200182016040528015611ce85781602001602082028036833780820191505090505b5090506000805b600b548111611da3578573ffffffffffffffffffffffffffffffffffffffff166009600083815260200190815260200160002060100160009054906101000a900473ffffffffffffffffffffffffffffffffffffffff1673ffffffffffffffffffffffffffffffffffffffff1603611d905780838381518110611d7557611d746145d0565b5b6020026020010181815250508180611d8c90614588565b9250505b8080611d9b90614588565b915050611cef565b5060008167ffffffffffffffff811115611dc057611dbf6136f1565b5b604051908082528060200260200182016040528015611dee5781602001602082028036833780820191505090505b50905060005b82811015611e4957838181518110611e0f57611e0e6145d0565b5b6020026020010151828281518110611e2a57611e296145d0565b5b6020026020010181815250508080611e4190614588565b915050611df4565b50818194509450505050915091565b6000806009600084815260200190815260200160002060130154905060008111611eb7576040517f08c379a0000000000000000000000000000000000000000000000000000000008152600401611eae90614ab6565b60405180910390fd5b606460506009600086815260200190815260200160002060040154611edc919061446c565b611ee69190614b05565b60096000858152602001908152602001600020601301541015611f3e576040517f08c379a0000000000000000000000000000000000000000000000000000000008152600401611f3590614b82565b60405180910390fd5b600460009054906101000a900473ffffffffffffffffffffffffffffffffffffffff1673ffffffffffffffffffffffffffffffffffffffff16635d3b1d30600754600460149054906101000a900467ffffffffffffffff16600860049054906101000a900461ffff16600860009054906101000a900463ffffffff16600860069054906101000a900463ffffffff166040518663ffffffff1660e01b8152600401611fed959493929190614c1a565b6020604051808303816000875af115801561200c573d6000803e3d6000fd5b505050506040513d601f19601f820116820180604052508101906120309190614c82565b91506040518060600160405280600015158152602001600115158152602001600067ffffffffffffffff81111561206a576120696136f1565b5b6040519080825280602002602001820160405280156120985781602001602082028036833780820191505090505b508152506003600084815260200190815260200160002060008201518160000160006101000a81548160ff02191690831515021790555060208201518160000160016101000a81548160ff021916908315150217905550604082015181600101908051906020019061210b9291906132ae565b509050508160026000858152602001908152602001600020819055506005829080600181540180825580915050600190039060005260206000200160009091909190915055816006819055507fcc58b13ad3eab50626c6a6300b1d139cd6ebb1688a7cced9461c2f7e762665ee82600860069054906101000a900463ffffffff1660405161219a929190614caf565b60405180910390a150919050565b6121b06132fb565b600060096000848152602001908152602001600020905060006040518061028001604052808581526020018360010180546121ea90614d07565b80601f016020809104026020016040519081016040528092919081815260200182805461221690614d07565b80156122635780601f1061223857610100808354040283529160200191612263565b820191906000526020600020905b81548152906001019060200180831161224657829003601f168201915b5050505050815260200183600201805461227c90614d07565b80601f01602080910402602001604051908101604052809291908181526020018280546122a890614d07565b80156122f55780601f106122ca576101008083540402835291602001916122f5565b820191906000526020600020905b8154815290600101906020018083116122d857829003601f168201915b5050505050815260200183600801600580602002604051908101604052809291906000905b828210156123bd57838201805461233090614d07565b80601f016020809104026020016040519081016040528092919081815260200182805461235c90614d07565b80156123a95780601f1061237e576101008083540402835291602001916123a9565b820191906000526020600020905b81548152906001019060200180831161238c57829003601f168201915b50505050508152602001906001019061231a565b5050505081526020018360030154815260200183600401548152602001836005015481526020018360060180546123f390614d07565b80601f016020809104026020016040519081016040528092919081815260200182805461241f90614d07565b801561246c5780601f106124415761010080835404028352916020019161246c565b820191906000526020600020905b81548152906001019060200180831161244f57829003601f168201915b505050505081526020018360070154815260200183600d0160009054906101000a900473ffffffffffffffffffffffffffffffffffffffff1673ffffffffffffffffffffffffffffffffffffffff16815260200183600e0180546124cf90614d07565b80601f01602080910402602001604051908101604052809291908181526020018280546124fb90614d07565b80156125485780601f1061251d57610100808354040283529160200191612548565b820191906000526020600020905b81548152906001019060200180831161252b57829003601f168201915b5050505050815260200183600f0160009054906101000a900473ffffffffffffffffffffffffffffffffffffffff1673ffffffffffffffffffffffffffffffffffffffff1681526020018360100160009054906101000a900473ffffffffffffffffffffffffffffffffffffffff1673ffffffffffffffffffffffffffffffffffffffff168152602001836011015481526020018360120154815260200183601301548152602001836017015481526020018360180160009054906101000a900473ffffffffffffffffffffffffffffffffffffffff1673ffffffffffffffffffffffffffffffffffffffff1681526020018360140160009054906101000a900460ff16151581526020018360140160019054906101000a900460ff16151581525090508092505050919050565b60006009600084815260200190815260200160002090508060140160009054906101000a900460ff16156126df576040517f08c379a00000000000000000000000000000000000000000000000000000000081526004016126d6906147ec565b60405180910390fd5b8060140160019054906101000a900460ff1615612731576040517f08c379a000000000000000000000000000000000000000000000000000000000815260040161272890614749565b60405180910390fd5b606460508260040154612744919061446c565b61274e9190614b05565b81601301541015612794576040517f08c379a000000000000000000000000000000000000000000000000000000000815260040161278b90614d84565b60405180910390fd5b3373ffffffffffffffffffffffffffffffffffffffff168160100160009054906101000a900473ffffffffffffffffffffffffffffffffffffffff1673ffffffffffffffffffffffffffffffffffffffff1614612826576040517f08c379a000000000000000000000000000000000000000000000000000000000815260040161281d90614df0565b60405180910390fd5b60006128328484612f39565b905060008190506000600a6000878152602001908152602001600020600083815260200190815260200160002060009054906101000a900473ffffffffffffffffffffffffffffffffffffffff169050600073ffffffffffffffffffffffffffffffffffffffff168173ffffffffffffffffffffffffffffffffffffffff16036128f1576040517f08c379a00000000000000000000000000000000000000000000000000000000081526004016128e890614e5c565b60405180910390fd5b808460180160006101000a81548173ffffffffffffffffffffffffffffffffffffffff021916908373ffffffffffffffffffffffffffffffffffffffff160217905550857f37a30a31c187f323329351db43159a5b3c2dde95e0f21f061360aa03aa5415b78383604051612966929190614e7c565b60405180910390a260006009600088815260200190815260200160002060110154905060006129b260646129a4600585612f0d90919063ffffffff16565b612f2390919063ffffffff16565b600960008a8152602001908152602001600020600301546129d39190614532565b905060006129fe60646129f0600586612f0d90919063ffffffff16565b612f2390919063ffffffff16565b90506000818385612a0f919061425f565b612a19919061425f565b90508760100160009054906101000a900473ffffffffffffffffffffffffffffffffffffffff1673ffffffffffffffffffffffffffffffffffffffff166108fc849081150290604051600060405180830381858888f19350505050158015612a85573d6000803e3d6000fd5b508760190160009054906101000a900473ffffffffffffffffffffffffffffffffffffffff1673ffffffffffffffffffffffffffffffffffffffff166108fc839081150290604051600060405180830381858888f19350505050158015612af0573d6000803e3d6000fd5b5087600f0160009054906101000a900473ffffffffffffffffffffffffffffffffffffffff1673ffffffffffffffffffffffffffffffffffffffff166108fc829081150290604051600060405180830381858888f19350505050158015612b5b573d6000803e3d6000fd5b5087600d0160009054906101000a900473ffffffffffffffffffffffffffffffffffffffff1673ffffffffffffffffffffffffffffffffffffffff166342842e0e30878b600701546040518463ffffffff1660e01b8152600401612bc193929190614769565b600060405180830381600087803b158015612bdb57600080fd5b505af1158015612bef573d6000803e3d6000fd5b5050505060018860140160016101000a81548160ff021916908315150217905550897f1de299c7214202a224cf78dcd7adac60eac743ba8a2cc84012e96c5a048edfd660405160405180910390a250505050505050505050565b600060606003600084815260200190815260200160002060000160019054906101000a900460ff16612cb0576040517f08c379a0000000000000000000000000000000000000000000000000000000008152600401612ca790614ef1565b60405180910390fd5b6000600360008581526020019081526020016000206040518060600160405290816000820160009054906101000a900460ff161515151581526020016000820160019054906101000a900460ff1615151515815260200160018201805480602002602001604051908101604052809291908181526020018280548015612d5557602002820191906000526020600020905b815481526020019060010190808311612d41575b5050505050815250509050806000015181604001519250925050915091565b60026020528060005260406000206000915090505481565b600060096000838152602001908152602001600020601201549050919050565b612db4613019565b612dbd816130a9565b50565b6000806009600085815260200190815260200160002090506000816012015484612dea919061446c565b9050809250505092915050565b60065481565b6003600083815260200190815260200160002060000160019054906101000a900460ff16612e60576040517f08c379a0000000000000000000000000000000000000000000000000000000008152600401612e5790614ef1565b60405180910390fd5b60016003600084815260200190815260200160002060000160006101000a81548160ff02191690831515021790555080600360008481526020019081526020016000206001019080519060200190612eb99291906132ae565b507ffe2e2d779dba245964d4e3ef9b994be63856fd568bf7d3ca9e224755cb1bd54d8282604051612eeb929190613e0d565b60405180910390a15050565b60008183612f059190614532565b905092915050565b60008183612f1b919061446c565b905092915050565b60008183612f319190614b05565b905092915050565b60006003600083815260200190815260200160002060000160009054906101000a900460ff16612f9e576040517f08c379a0000000000000000000000000000000000000000000000000000000008152600401612f9590614f5d565b60405180910390fd5b600060036000848152602001908152602001600020600101600081548110612fc957612fc86145d0565b5b906000526020600020015490506000600960008681526020019081526020016000206013015482612ffa9190614f7d565b9050600060018261300b9190614532565b905080935050505092915050565b60008054906101000a900473ffffffffffffffffffffffffffffffffffffffff1673ffffffffffffffffffffffffffffffffffffffff163373ffffffffffffffffffffffffffffffffffffffff16146130a7576040517f08c379a000000000000000000000000000000000000000000000000000000000815260040161309e90614ffa565b60405180910390fd5b565b3373ffffffffffffffffffffffffffffffffffffffff168173ffffffffffffffffffffffffffffffffffffffff1603613117576040517f08c379a000000000000000000000000000000000000000000000000000000000815260040161310e90615066565b60405180910390fd5b80600160006101000a81548173ffffffffffffffffffffffffffffffffffffffff021916908373ffffffffffffffffffffffffffffffffffffffff1602179055508073ffffffffffffffffffffffffffffffffffffffff1660008054906101000a900473ffffffffffffffffffffffffffffffffffffffff1673ffffffffffffffffffffffffffffffffffffffff167fed8889f560326eb138920d842192f0eb3dd22b4f139c87a2c57538e05bae127860405160405180910390a350565b8280546131e190614d07565b90600052602060002090601f016020900481019282613203576000855561324a565b82601f1061321c57805160ff191683800117855561324a565b8280016001018555821561324a579182015b8281111561324957825182559160200191906001019061322e565b5b50905061325791906133f6565b5090565b826005810192821561329d579160200282015b8281111561329c57825182908051906020019061328c9291906131d5565b509160200191906001019061326e565b5b5090506132aa9190613413565b5090565b8280548282559060005260206000209081019282156132ea579160200282015b828111156132e95782518255916020019190600101906132ce565b5b5090506132f791906133f6565b5090565b604051806102800160405280600081526020016060815260200160608152602001613324613437565b81526020016000815260200160008152602001600081526020016060815260200160008152602001600073ffffffffffffffffffffffffffffffffffffffff16815260200160608152602001600073ffffffffffffffffffffffffffffffffffffffff168152602001600073ffffffffffffffffffffffffffffffffffffffff16815260200160008152602001600081526020016000815260200160008152602001600073ffffffffffffffffffffffffffffffffffffffff1681526020016000151581526020016000151581525090565b5b8082111561340f5760008160009055506001016133f7565b5090565b5b80821115613433576000818161342a919061345e565b50600101613414565b5090565b6040518060a001604052806005905b60608152602001906001900390816134465790505090565b50805461346a90614d07565b6000825580601f1061347c575061349b565b601f01602090049060005260206000209081019061349a91906133f6565b5b50565b6000604051905090565b600080fd5b600080fd5b6000819050919050565b6134c5816134b2565b81146134d057600080fd5b50565b6000813590506134e2816134bc565b92915050565b6000602082840312156134fe576134fd6134a8565b5b600061350c848285016134d3565b91505092915050565b61351e816134b2565b82525050565b60006020820190506135396000830184613515565b92915050565b600073ffffffffffffffffffffffffffffffffffffffff82169050919050565b600061356a8261353f565b9050919050565b61357a8161355f565b811461358557600080fd5b50565b60008135905061359781613571565b92915050565b600080fd5b600080fd5b600080fd5b60008083601f8401126135c2576135c161359d565b5b8235905067ffffffffffffffff8111156135df576135de6135a2565b5b6020830191508360018202830111156135fb576135fa6135a7565b5b9250929050565b60008060008060006080868803121561361e5761361d6134a8565b5b600061362c88828901613588565b955050602061363d88828901613588565b945050604061364e888289016134d3565b935050606086013567ffffffffffffffff81111561366f5761366e6134ad565b5b61367b888289016135ac565b92509250509295509295909350565b60007fffffffff0000000000000000000000000000000000000000000000000000000082169050919050565b6136bf8161368a565b82525050565b60006020820190506136da60008301846136b6565b92915050565b6000601f19601f8301169050919050565b7f4e487b7100000000000000000000000000000000000000000000000000000000600052604160045260246000fd5b613729826136e0565b810181811067ffffffffffffffff82111715613748576137476136f1565b5b80604052505050565b600061375b61349e565b90506137678282613720565b919050565b600067ffffffffffffffff821115613787576137866136f1565b5b602082029050602081019050919050565b60006137ab6137a68461376c565b613751565b905080838252602082019050602084028301858111156137ce576137cd6135a7565b5b835b818110156137f757806137e388826134d3565b8452602084019350506020810190506137d0565b5050509392505050565b600082601f8301126138165761381561359d565b5b8135613826848260208601613798565b91505092915050565b60008060408385031215613846576138456134a8565b5b6000613854858286016134d3565b925050602083013567ffffffffffffffff811115613875576138746134ad565b5b61388185828601613801565b9150509250929050565b6138948161355f565b82525050565b60006060820190506138af600083018661388b565b6138bc602083018561388b565b6138c9604083018461388b565b949350505050565b600080604083850312156138e8576138e76134a8565b5b60006138f6858286016134d3565b9250506020613907858286016134d3565b9150509250929050565b60008060408385031215613928576139276134a8565b5b600061393685828601613588565b9250506020613947858286016134d3565b9150509250929050565b6000604082019050613966600083018561388b565b6139736020830184613515565b9392505050565b600060808201905061398f6000830187613515565b61399c6020830186613515565b6139a96040830185613515565b6139b66060830184613515565b95945050505050565b60006020820190506139d4600083018461388b565b92915050565b600080fd5b600067ffffffffffffffff8211156139fa576139f96136f1565b5b613a03826136e0565b9050602081019050919050565b82818337600083830152505050565b6000613a32613a2d846139df565b613751565b905082815260208101848484011115613a4e57613a4d6139da565b5b613a59848285613a10565b509392505050565b600082601f830112613a7657613a7561359d565b5b8135613a86848260208601613a1f565b91505092915050565b600067ffffffffffffffff821115613aaa57613aa96136f1565b5b602082029050919050565b6000613ac8613ac384613a8f565b613751565b90508060208402830185811115613ae257613ae16135a7565b5b835b81811015613b2957803567ffffffffffffffff811115613b0757613b0661359d565b5b808601613b148982613a61565b85526020850194505050602081019050613ae4565b5050509392505050565b600082601f830112613b4857613b4761359d565b5b6005613b55848285613ab5565b91505092915050565b60008060008060008060008060008060006101608c8e031215613b8457613b836134a8565b5b60008c013567ffffffffffffffff811115613ba257613ba16134ad565b5b613bae8e828f01613a61565b9b505060208c013567ffffffffffffffff811115613bcf57613bce6134ad565b5b613bdb8e828f01613a61565b9a50506040613bec8e828f016134d3565b9950506060613bfd8e828f016134d3565b9850506080613c0e8e828f016134d3565b97505060a08c013567ffffffffffffffff811115613c2f57613c2e6134ad565b5b613c3b8e828f01613a61565b96505060c0613c4c8e828f016134d3565b95505060e0613c5d8e828f01613588565b9450506101008c013567ffffffffffffffff811115613c7f57613c7e6134ad565b5b613c8b8e828f01613b33565b9350506101208c013567ffffffffffffffff811115613cad57613cac6134ad565b5b613cb98e828f01613a61565b925050610140613ccb8e828f01613588565b9150509295989b509295989b9093969950565b60008115159050919050565b613cf381613cde565b82525050565b6000604082019050613d0e6000830185613cea565b613d1b6020830184613cea565b9392505050565b600060208284031215613d3857613d376134a8565b5b6000613d4684828501613588565b91505092915050565b600081519050919050565b600082825260208201905092915050565b6000819050602082019050919050565b613d84816134b2565b82525050565b6000613d968383613d7b565b60208301905092915050565b6000602082019050919050565b6000613dba82613d4f565b613dc48185613d5a565b9350613dcf83613d6b565b8060005b83811015613e00578151613de78882613d8a565b9750613df283613da2565b925050600181019050613dd3565b5085935050505092915050565b6000604082019050613e226000830185613515565b8181036020830152613e348184613daf565b90509392505050565b600081519050919050565b600082825260208201905092915050565b60005b83811015613e77578082015181840152602081019050613e5c565b83811115613e86576000848401525b50505050565b6000613e9782613e3d565b613ea18185613e48565b9350613eb1818560208601613e59565b613eba816136e0565b840191505092915050565b600060059050919050565b600081905092915050565b6000819050919050565b6000613ef18383613e8c565b905092915050565b6000602082019050919050565b6000613f1182613ec5565b613f1b8185613ed0565b935083602082028501613f2d85613edb565b8060005b85811015613f695784840389528151613f4a8582613ee5565b9450613f5583613ef9565b925060208a01995050600181019050613f31565b50829750879550505050505092915050565b613f848161355f565b82525050565b613f9381613cde565b82525050565b600061028083016000830151613fb26000860182613d7b565b5060208301518482036020860152613fca8282613e8c565b91505060408301518482036040860152613fe48282613e8c565b91505060608301518482036060860152613ffe8282613f06565b91505060808301516140136080860182613d7b565b5060a083015161402660a0860182613d7b565b5060c083015161403960c0860182613d7b565b5060e083015184820360e08601526140518282613e8c565b915050610100830151614068610100860182613d7b565b5061012083015161407d610120860182613f7b565b506101408301518482036101408601526140978282613e8c565b9150506101608301516140ae610160860182613f7b565b506101808301516140c3610180860182613f7b565b506101a08301516140d86101a0860182613d7b565b506101c08301516140ed6101c0860182613d7b565b506101e08301516141026101e0860182613d7b565b50610200830151614117610200860182613d7b565b5061022083015161412c610220860182613f7b565b50610240830151614141610240860182613f8a565b50610260830151614156610260860182613f8a565b508091505092915050565b6000602082019050818103600083015261417b8184613f99565b905092915050565b60006040820190506141986000830185613cea565b81810360208301526141aa8184613daf565b90509392505050565b600082825260208201905092915050565b7f526166666c65206e6f7420666f756e6400000000000000000000000000000000600082015250565b60006141fa6010836141b3565b9150614205826141c4565b602082019050919050565b60006020820190508181036000830152614229816141ed565b9050919050565b7f4e487b7100000000000000000000000000000000000000000000000000000000600052601160045260246000fd5b600061426a826134b2565b9150614275836134b2565b92508282101561428857614287614230565b5b828203905092915050565b60006040820190506142a8600083018561388b565b6142b5602083018461388b565b9392505050565b7f526166666c652069732063616e63656c6c656400000000000000000000000000600082015250565b60006142f26013836141b3565b91506142fd826142bc565b602082019050919050565b60006020820190508181036000830152614321816142e5565b9050919050565b7f526166666c6520697320656e6465640000000000000000000000000000000000600082015250565b600061435e600f836141b3565b915061436982614328565b602082019050919050565b6000602082019050818103600083015261438d81614351565b9050919050565b7f496e76616c6964206e756d626572206f66207469636b65747300000000000000600082015250565b60006143ca6019836141b3565b91506143d582614394565b602082019050919050565b600060208201905081810360008301526143f9816143bd565b9050919050565b7f4e6f7420656e6f756768207469636b65747320617661696c61626c6500000000600082015250565b6000614436601c836141b3565b915061444182614400565b602082019050919050565b6000602082019050818103600083015261446581614429565b9050919050565b6000614477826134b2565b9150614482836134b2565b9250817fffffffffffffffffffffffffffffffffffffffffffffffffffffffffffffffff04831182151516156144bb576144ba614230565b5b828202905092915050565b7f496e636f7272656374207061796d656e7420616d6f756e740000000000000000600082015250565b60006144fc6018836141b3565b9150614507826144c6565b602082019050919050565b6000602082019050818103600083015261452b816144ef565b9050919050565b600061453d826134b2565b9150614548836134b2565b9250827fffffffffffffffffffffffffffffffffffffffffffffffffffffffffffffffff0382111561457d5761457c614230565b5b828201905092915050565b6000614593826134b2565b91507fffffffffffffffffffffffffffffffffffffffffffffffffffffffffffffffff82036145c5576145c4614230565b5b600182019050919050565b7f4e487b7100000000000000000000000000000000000000000000000000000000600052603260045260246000fd5b7f4e6f207265717565737420666f72207468697320696400000000000000000000600082015250565b60006146356016836141b3565b9150614640826145ff565b602082019050919050565b6000602082019050818103600083015261466481614628565b9050919050565b7f4f6e6c7920726166666c652063726561746f722063616e2063616e63656c207460008201527f6865206c6f747465727900000000000000000000000000000000000000000000602082015250565b60006146c7602a836141b3565b91506146d28261466b565b604082019050919050565b600060208201905081810360008301526146f6816146ba565b9050919050565b7f526166666c652068617320616c726561647920656e6465640000000000000000600082015250565b60006147336018836141b3565b915061473e826146fd565b602082019050919050565b6000602082019050818103600083015261476281614726565b9050919050565b600060608201905061477e600083018661388b565b61478b602083018561388b565b6147986040830184613515565b949350505050565b7f526166666c6520686173206265656e2063616e63656c6c656400000000000000600082015250565b60006147d66019836141b3565b91506147e1826147a0565b602082019050919050565b60006020820190508181036000830152614805816147c9565b9050919050565b7f57696e6e657220686173206e6f74206265656e207069636b6564207965740000600082015250565b6000614842601e836141b3565b915061484d8261480c565b602082019050919050565b6000602082019050818103600083015261487181614835565b9050919050565b7f4d7573742062652070726f706f736564206f776e657200000000000000000000600082015250565b60006148ae6016836141b3565b91506148b982614878565b602082019050919050565b600060208201905081810360008301526148dd816148a1565b9050919050565b7f496e76616c6964204e465420636f6e7472616374206164647265737300000000600082015250565b600061491a601c836141b3565b9150614925826148e4565b602082019050919050565b600060208201905081810360008301526149498161490d565b9050919050565b7f456e642074696d65206d75737420626520696e20667574757265000000000000600082015250565b6000614986601a836141b3565b915061499182614950565b602082019050919050565b600060208201905081810360008301526149b581614979565b9050919050565b6000815190506149cb81613571565b92915050565b6000602082840312156149e7576149e66134a8565b5b60006149f5848285016149bc565b91505092915050565b7f4f6e6c79204e4654206f776e65722063616e2063726561746520726166666c65600082015250565b6000614a346020836141b3565b9150614a3f826149fe565b602082019050919050565b60006020820190508181036000830152614a6381614a27565b9050919050565b7f4e6f207469636b65747320736f6c642079657400000000000000000000000000600082015250565b6000614aa06013836141b3565b9150614aab82614a6a565b602082019050919050565b60006020820190508181036000830152614acf81614a93565b9050919050565b7f4e487b7100000000000000000000000000000000000000000000000000000000600052601260045260246000fd5b6000614b10826134b2565b9150614b1b836134b2565b925082614b2b57614b2a614ad6565b5b828204905092915050565b7f4e6f7420656e6f756768207469636b657420736f6c6400000000000000000000600082015250565b6000614b6c6016836141b3565b9150614b7782614b36565b602082019050919050565b60006020820190508181036000830152614b9b81614b5f565b9050919050565b6000819050919050565b614bb581614ba2565b82525050565b600067ffffffffffffffff82169050919050565b614bd881614bbb565b82525050565b600061ffff82169050919050565b614bf581614bde565b82525050565b600063ffffffff82169050919050565b614c1481614bfb565b82525050565b600060a082019050614c2f6000830188614bac565b614c3c6020830187614bcf565b614c496040830186614bec565b614c566060830185614c0b565b614c636080830184614c0b565b9695505050505050565b600081519050614c7c816134bc565b92915050565b600060208284031215614c9857614c976134a8565b5b6000614ca684828501614c6d565b91505092915050565b6000604082019050614cc46000830185613515565b614cd16020830184614c0b565b9392505050565b7f4e487b7100000000000000000000000000000000000000000000000000000000600052602260045260246000fd5b60006002820490506001821680614d1f57607f821691505b602082108103614d3257614d31614cd8565b5b50919050565b7f526166666c652063616e277420626520636f6d706c6574656420796574000000600082015250565b6000614d6e601d836141b3565b9150614d7982614d38565b602082019050919050565b60006020820190508181036000830152614d9d81614d61565b9050919050565b7f796f7520617265206e6f742074686520726166666c65206f776e657200000000600082015250565b6000614dda601c836141b3565b9150614de582614da4565b602082019050919050565b60006020820190508181036000830152614e0981614dcd565b9050919050565b7f57696e6e657220686173206e6f74206265656e2073656c656374656420796574600082015250565b6000614e466020836141b3565b9150614e5182614e10565b602082019050919050565b60006020820190508181036000830152614e7581614e39565b9050919050565b6000604082019050614e916000830185613515565b614e9e602083018461388b565b9392505050565b7f72657175657374206e6f7420666f756e64000000000000000000000000000000600082015250565b6000614edb6011836141b3565b9150614ee682614ea5565b602082019050919050565b60006020820190508181036000830152614f0a81614ece565b9050919050565b7f52657175657374206e6f742066756c66696c6c65642079657400000000000000600082015250565b6000614f476019836141b3565b9150614f5282614f11565b602082019050919050565b60006020820190508181036000830152614f7681614f3a565b9050919050565b6000614f88826134b2565b9150614f93836134b2565b925082614fa357614fa2614ad6565b5b828206905092915050565b7f4f6e6c792063616c6c61626c65206279206f776e657200000000000000000000600082015250565b6000614fe46016836141b3565b9150614fef82614fae565b602082019050919050565b6000602082019050818103600083015261501381614fd7565b9050919050565b7f43616e6e6f74207472616e7366657220746f2073656c66000000000000000000600082015250565b60006150506017836141b3565b915061505b8261501a565b602082019050919050565b6000602082019050818103600083015261507f81615043565b905091905056fea264697066735822122009d9f300b9534849369cf769942c975da61cd76eea7e534bdb8af36301025dec64736f6c634300080e0033",
  "immutableReferences": {
    "192": [
      {
        "length": 32,
        "start": 2153
      },
      {
        "length": 32,
        "start": 2237
      }
    ]
  },
  "source": "// SPDX-License-Identifier: MIT\r\n// sepolia - deployment\r\npragma solidity ^0.8.0;\r\n\r\nimport \"@openzeppelin/contracts/token/ERC721/IERC721.sol\";\r\nimport \"@openzeppelin/contracts/utils/math/SafeMath.sol\";\r\nimport \"@openzeppelin/contracts/token/ERC721/IERC721Receiver.sol\";\r\nimport \"@chainlink/contracts/src/v0.8/interfaces/VRFCoordinatorV2Interface.sol\";\r\nimport \"@chainlink/contracts/src/v0.8/VRFConsumerBaseV2.sol\";\r\nimport \"@chainlink/contracts/src/v0.8/ConfirmedOwner.sol\";\r\n\r\ncontract originxRaffler is IERC721Receiver, VRFConsumerBaseV2, ConfirmedOwner {\r\n    using SafeMath for uint256;\r\n\r\n    mapping(uint256 => uint256) public raffleIdToRequestId;\r\n    event RequestSent(uint256 requestId, uint32 numWords);\r\n    event RequestFulfilled(uint256 requestId, uint256[] randomWords);\r\n\r\n    struct RequestStatus {\r\n        bool fulfilled; // whether the request has been successfully fulfilled\r\n        bool exists; // whether a requestId exists\r\n        uint256[] randomWords;\r\n    }\r\n    mapping(uint256 => RequestStatus)\r\n        public s_requests; /* requestId --> requestStatus */\r\n    VRFCoordinatorV2Interface COORDINATOR;\r\n\r\n    event WinnerSelected(\r\n        uint256 indexed raffleId,\r\n        uint256 winningTicketNumber,\r\n        address winningTicketOwner\r\n    );\r\n\r\n    // Your subscription ID.\r\n    uint64 s_subscriptionId = 4646;\r\n\r\n    // past requests Id.\r\n    uint256[] public requestIds;\r\n    uint256 public lastRequestId;\r\n\r\n    bytes32 keyHash =\r\n        0x474e34a077df58807dbe9c96d3c009b23b3c6d0cce433e59bbf5b34f823bc56c;\r\n\r\n    uint32 callbackGasLimit = 100000;\r\n\r\n    // The default is 3, but you can set this higher.\r\n    uint16 requestConfirmations = 3;\r\n\r\n    // For this example, retrieve 2 random values in one request.\r\n    // Cannot exceed VRFCoordinatorV2.MAX_NUM_WORDS.\r\n    uint32 numWords = 1;\r\n\r\n    /**\r\n     * COORDINATOR Sepolia: 0x8103B0A8A00be2DDC778e6e7eaa21791Cd364625\r\n     */\r\n    constructor()\r\n        VRFConsumerBaseV2(0x8103B0A8A00be2DDC778e6e7eaa21791Cd364625)\r\n        ConfirmedOwner(msg.sender)\r\n    {\r\n        COORDINATOR = VRFCoordinatorV2Interface(\r\n            0x8103B0A8A00be2DDC778e6e7eaa21791Cd364625\r\n        );\r\n        s_subscriptionId;\r\n    }\r\n\r\n    struct Raffle {\r\n        uint raffleId;\r\n        string raffleName;\r\n        string description;\r\n        uint256 nftPrice;\r\n        uint256 totalVolumeofTickets;\r\n        uint256 endTime;\r\n        string nftName;\r\n        uint256 nftId;\r\n        string[5] goals;\r\n        address nftContractAddress;\r\n        string nftSourceLink;\r\n        address charityAddress;\r\n        address raffleCreator;\r\n        uint256 rafflePool;\r\n        uint256 ticketPrice;\r\n        uint256 totalSoldTickets;\r\n        bool raffleCancelled;\r\n        bool raffleEnded;\r\n        uint256 fundsInContract;\r\n        uint256[] tickets;\r\n        uint winningTicket;\r\n        address raffleWinner;\r\n        address payable developmentTeam;\r\n    }\r\n\r\n    struct RaffleInfo {\r\n        uint raffleId;\r\n        string raffleName;\r\n        string description;\r\n        string[5] goals;\r\n        uint256 nftPrice;\r\n        uint256 totalVolumeofTickets;\r\n        uint256 endTime;\r\n        string nftName;\r\n        uint256 nftId;\r\n        address nftContractAddress;\r\n        string nftSourceLink;\r\n        address charityAddress;\r\n        address raffleCreator;\r\n        uint256 rafflePool;\r\n        uint256 ticketPrice;\r\n        uint256 totalSoldTickets;\r\n        uint winningTicket;\r\n        address raffleWinner;\r\n        bool raffleCancelled;\r\n        bool raffleEnded;\r\n    }\r\n\r\n    mapping(uint256 => Raffle) private raffles;\r\n    mapping(uint256 => mapping(uint256 => address)) public ticketToOwner;\r\n    uint256 private raffleCount = 0;\r\n\r\n    event raffleEnded(uint256 indexed raffleId);\r\n\r\n    function requestRandomTicket(\r\n        uint256 _raffleId\r\n    ) public returns (uint256 requestId) {\r\n        uint256 totalTicketsSold = raffles[_raffleId].totalSoldTickets;\r\n        require(totalTicketsSold > 0, \"No tickets sold yet\");\r\n        require(\r\n            raffles[_raffleId].totalSoldTickets >=\r\n                (raffles[_raffleId].totalVolumeofTickets * 80) / 100,\r\n            \"Not enough ticket sold\"\r\n        );\r\n\r\n        requestId = COORDINATOR.requestRandomWords(\r\n            keyHash,\r\n            s_subscriptionId,\r\n            requestConfirmations,\r\n            callbackGasLimit,\r\n            numWords\r\n        );\r\n\r\n        // Create a new RequestStatus for this requestId and associate it with the raffleId\r\n        s_requests[requestId] = RequestStatus({\r\n            randomWords: new uint256[](0),\r\n            exists: true,\r\n            fulfilled: false\r\n        });\r\n\r\n        // Map the raffleId to the requestId\r\n        raffleIdToRequestId[_raffleId] = requestId;\r\n\r\n        requestIds.push(requestId);\r\n        lastRequestId = requestId;\r\n        emit RequestSent(requestId, numWords);\r\n        return requestId;\r\n    }\r\n\r\n    function getRequestForRaffle(\r\n        uint256 _raffleId\r\n    ) public view returns (uint256 requestId) {\r\n        requestId = raffleIdToRequestId[_raffleId];\r\n        require(requestId != 0, \"No request for this id\");\r\n        return requestId;\r\n    }\r\n\r\n    function fulfillRandomWords(\r\n        uint256 _requestId,\r\n        uint256[] memory _randomWords\r\n    ) internal override {\r\n        require(s_requests[_requestId].exists, \"request not found\");\r\n        s_requests[_requestId].fulfilled = true;\r\n        s_requests[_requestId].randomWords = _randomWords;\r\n        emit RequestFulfilled(_requestId, _randomWords);\r\n    }\r\n\r\n    function pickRandomTicket(\r\n        uint256 _raffleId,\r\n        uint256 requestId\r\n    ) private view returns (uint256) {\r\n        require(s_requests[requestId].fulfilled, \"Request not fulfilled yet\");\r\n        uint256 randomValue = s_requests[requestId].randomWords[0];\r\n        uint256 randomNumber = randomValue %\r\n            raffles[_raffleId].totalSoldTickets;\r\n        uint256 winningTicket = randomNumber + 1; // Adding 1 to convert 0-based index to 1-based ticket numbers\r\n        return winningTicket;\r\n    }\r\n\r\n    function getRequestStatus(\r\n        uint256 _requestId\r\n    ) external view returns (bool fulfilled, uint256[] memory randomWords) {\r\n        require(s_requests[_requestId].exists, \"request not found\");\r\n        RequestStatus memory request = s_requests[_requestId];\r\n        return (request.fulfilled, request.randomWords);\r\n    }\r\n\r\n    function createRaffle(\r\n        string memory _raffleName,\r\n        string memory _description,\r\n        uint256 _nftPrice,\r\n        uint256 _totalVolumeofTickets,\r\n        uint256 _endTime,\r\n        string memory _nftName,\r\n        uint256 _nftId,\r\n        address _nftContractAddress,\r\n        string[5] memory _goals,\r\n        string memory _nftSourceLink,\r\n        address _charityAddress\r\n    ) public returns (uint256) {\r\n        require(\r\n            _nftContractAddress != address(0),\r\n            \"Invalid NFT contract address\"\r\n        );\r\n        require(_endTime > block.timestamp, \"End time must be in future\");\r\n        IERC721 nftContract = IERC721(_nftContractAddress);\r\n        require(\r\n            msg.sender == nftContract.ownerOf(_nftId),\r\n            \"Only NFT owner can create raffle\"\r\n        );\r\n\r\n        nftContract.safeTransferFrom(msg.sender, address(this), _nftId);\r\n        raffleCount++;\r\n\r\n        raffles[raffleCount] = Raffle({\r\n            raffleId: raffleCount,\r\n            raffleName: _raffleName,\r\n            description: _description,\r\n            goals: _goals,\r\n            nftPrice: _nftPrice,\r\n            totalVolumeofTickets: _totalVolumeofTickets,\r\n            endTime: _endTime,\r\n            nftName: _nftName,\r\n            nftId: _nftId,\r\n            nftContractAddress: _nftContractAddress,\r\n            nftSourceLink: _nftSourceLink,\r\n            raffleCreator: msg.sender,\r\n            rafflePool: (_nftPrice * 150).div(100),\r\n            ticketPrice: 0,\r\n            charityAddress: _charityAddress,\r\n            totalSoldTickets: 0,\r\n            raffleCancelled: false,\r\n            raffleEnded: false,\r\n            fundsInContract: 0,\r\n            tickets: new uint256[](0),\r\n            winningTicket: 0,\r\n            raffleWinner: address(0),\r\n            developmentTeam: payable(\r\n                address(0x1Eb43EBde750C57AaCEE85777e7c063218B0e1B4)\r\n            )\r\n        });\r\n\r\n        raffles[raffleCount].ticketPrice = raffles[raffleCount].rafflePool.div(\r\n            _totalVolumeofTickets\r\n        );\r\n\r\n        return raffleCount;\r\n    }\r\n\r\n    function getTicketPrice(uint256 _raffleId) public view returns (uint256) {\r\n        return raffles[_raffleId].ticketPrice;\r\n    }\r\n\r\n    function getTicketsOwned(\r\n        address _address,\r\n        uint256 raffleId\r\n    ) public view returns (uint256) {\r\n        uint256 totalTicketsOwned = 0;\r\n        for (uint256 i = 0; i < raffles[raffleId].tickets.length; i++) {\r\n            if (\r\n                ticketToOwner[raffleId][raffles[raffleId].tickets[i]] ==\r\n                _address\r\n            ) {\r\n                totalTicketsOwned = totalTicketsOwned.add(1);\r\n            }\r\n        }\r\n        return totalTicketsOwned;\r\n    }\r\n\r\n    function getOwnedRaffles(\r\n        address owner\r\n    ) public view returns (uint256 totalRaffles, uint256[] memory raffleIds) {\r\n        uint256[] memory ownedRaffleIds = new uint256[](raffleCount);\r\n        uint256 count = 0;\r\n        for (uint256 i = 0; i <= raffleCount; i++) {\r\n            if (raffles[i].raffleCreator == owner) {\r\n                ownedRaffleIds[count] = i;\r\n                count++;\r\n            }\r\n        }\r\n        uint256[] memory result = new uint256[](count);\r\n        for (uint256 j = 0; j < count; j++) {\r\n            result[j] = ownedRaffleIds[j];\r\n        }\r\n        return (count, result);\r\n    }\r\n\r\n    function getAvailableTickets(\r\n        uint256 _raffleID\r\n    ) public view returns (uint256) {\r\n        Raffle storage raffle = raffles[_raffleID];\r\n        require(raffle.raffleId != 0, \"Raffle not found\");\r\n\r\n        if (raffle.raffleEnded || raffle.raffleCancelled) {\r\n            return 0;\r\n        } else {\r\n            return raffle.totalVolumeofTickets - raffle.totalSoldTickets;\r\n        }\r\n    }\r\n\r\n    function buyTicket(\r\n        uint256 _raffleId,\r\n        uint256 _totalTicketsWanted\r\n    ) public payable {\r\n        Raffle storage raffle = raffles[_raffleId];\r\n\r\n        require(!raffle.raffleCancelled, \"Raffle is cancelled\");\r\n        require(!raffle.raffleEnded, \"Raffle is ended\");\r\n        require(_totalTicketsWanted > 0, \"Invalid number of tickets\");\r\n        require(\r\n            _totalTicketsWanted <=\r\n                raffle.totalVolumeofTickets - raffle.totalSoldTickets,\r\n            \"Not enough tickets available\"\r\n        );\r\n        uint256 totalTicketPrice = _totalTicketsWanted * raffle.ticketPrice;\r\n        require(msg.value >= totalTicketPrice, \"Incorrect payment amount\");\r\n\r\n        // Update ticket ownership\r\n        for (uint256 i = 0; i < _totalTicketsWanted; i++) {\r\n            uint256 ticket = raffle.totalSoldTickets + 1 + i;\r\n            raffle.tickets.push(ticket);\r\n            ticketToOwner[_raffleId][ticket] = msg.sender;\r\n        }\r\n\r\n        // Update raffle info\r\n        raffle.totalSoldTickets += _totalTicketsWanted;\r\n        raffle.fundsInContract += msg.value;\r\n    }\r\n\r\n    function getTotalTicketPrice(\r\n        uint _raffleId,\r\n        uint256 _totalTicketsWanted\r\n    ) public view returns (uint256) {\r\n        Raffle storage raffle = raffles[_raffleId];\r\n\r\n        uint256 totalTicketPrice = _totalTicketsWanted * raffle.ticketPrice;\r\n        return totalTicketPrice;\r\n    }\r\n\r\n    function pickWinner(uint256 raffleId, uint256 requestId) public {\r\n        Raffle storage raffle = raffles[raffleId];\r\n\r\n        require(!raffle.raffleCancelled, \"Raffle has been cancelled\");\r\n        require(!raffle.raffleEnded, \"Raffle has already ended\");\r\n        require(\r\n            raffle.totalSoldTickets >= (raffle.totalVolumeofTickets * 80) / 100,\r\n            \"Raffle can't be completed yet\"\r\n        );\r\n        require(\r\n            raffle.raffleCreator == msg.sender,\r\n            \"you are not the raffle owner\"\r\n        );\r\n\r\n        uint256 winningTicket = pickRandomTicket(raffleId, requestId);\r\n\r\n        uint winningTicketNumber = winningTicket;\r\n        address winningTicketOwner = ticketToOwner[raffleId][winningTicketNumber];\r\n        require(\r\n            winningTicketOwner != address(0), \"Winner has not been selected yet\"\r\n        );\r\n\r\n        // Store the winning ticket information in the raffle struct\r\n        raffle.raffleWinner = winningTicketOwner;\r\n\r\n        // Emit an event to indicate that a winner has been selected.\r\n        emit WinnerSelected(raffleId, winningTicketNumber, winningTicketOwner);\r\n\r\n        // Send the prize pool to each entity\r\n        uint256 rafflePrizePool = raffles[raffleId].rafflePool;\r\n        uint256 raffleCreatorPrize = raffles[raffleId].nftPrice +\r\n            (rafflePrizePool.mul(5)).div(100);\r\n        uint256 developmentTeamPrize = (rafflePrizePool.mul(5)).div(100);\r\n        uint256 charityPrize = rafflePrizePool -\r\n            raffleCreatorPrize -\r\n            developmentTeamPrize;\r\n\r\n        // Transfer the prize amounts to each entity.\r\n        payable(raffle.raffleCreator).transfer(raffleCreatorPrize);\r\n        payable(raffle.developmentTeam).transfer(developmentTeamPrize);\r\n        payable(raffle.charityAddress).transfer(charityPrize);\r\n\r\n        // Call safeTransferFrom function on ERC721 token contract to transfer the NFT to the winner.\r\n        IERC721(raffle.nftContractAddress).safeTransferFrom(\r\n            address(this),\r\n            winningTicketOwner,\r\n            raffle.nftId\r\n        );\r\n\r\n        // Mark the raffle as ended\r\n        raffle.raffleEnded = true;\r\n\r\n        // Emit raffleEnded event\r\n        emit raffleEnded(raffleId);\r\n    }\r\n\r\n    function cancelRaffle(uint256 _raffleId) public {\r\n        Raffle storage raffle = raffles[_raffleId];\r\n        require(\r\n            msg.sender == raffle.raffleCreator,\r\n            \"Only raffle creator can cancel the lottery\"\r\n        );\r\n        require(!raffle.raffleEnded, \"Raffle has already ended\");\r\n\r\n        // Refund funds to ticket owners\r\n        for (uint256 i = 0; i < raffle.tickets.length; i++) {\r\n            uint256 ticket = raffle.tickets[i];\r\n            address ticketOwner = ticketToOwner[_raffleId][ticket];\r\n            if (ticketOwner != address(0)) {\r\n                payable(ticketOwner).transfer(raffle.ticketPrice);\r\n            }\r\n        }\r\n\r\n        // Transfer NFT back to raffle creator\r\n        IERC721(raffle.nftContractAddress).safeTransferFrom(\r\n            address(this),\r\n            raffle.raffleCreator,\r\n            raffle.nftId\r\n        );\r\n\r\n        // Update raffle status\r\n        raffle.raffleCancelled = true;\r\n        raffle.raffleEnded = true;\r\n    }\r\n\r\n    function getPrizePool(\r\n        uint256 _raffleId\r\n    ) public view returns (uint256, uint256, uint256, uint256) {\r\n        uint256 rafflePrizePool = raffles[_raffleId].rafflePool;\r\n        uint256 raffleCreatorPrize = raffles[_raffleId].nftPrice +\r\n            (rafflePrizePool.mul(5)).div(100);\r\n        uint256 developmentTeamPrize = (rafflePrizePool.mul(5)).div(100);\r\n        uint256 charityPrize = rafflePrizePool -\r\n            raffleCreatorPrize -\r\n            developmentTeamPrize;\r\n\r\n        return (\r\n            rafflePrizePool,\r\n            raffleCreatorPrize,\r\n            developmentTeamPrize,\r\n            charityPrize\r\n        );\r\n    }\r\n\r\n    function getRaffleWinner(\r\n        uint256 raffleId\r\n    ) public view returns (address winner, uint256 winningTicket) {\r\n        require(\r\n            !raffles[raffleId].raffleCancelled,\r\n            \"Raffle has been cancelled\"\r\n        );\r\n        require(!raffles[raffleId].raffleEnded, \"Raffle has already ended\");\r\n        require(\r\n            raffles[raffleId].winningTicket != 0,\r\n            \"Winner has not been picked yet\"\r\n        );\r\n\r\n        return (\r\n            raffles[raffleId].raffleWinner,\r\n            raffles[raffleId].winningTicket\r\n        );\r\n    }\r\n\r\n    function raffleInfo(\r\n        uint256 _raffleID\r\n    ) public view returns (RaffleInfo memory) {\r\n        Raffle storage raffle = raffles[_raffleID];\r\n\r\n        RaffleInfo memory raffleInfo = RaffleInfo({\r\n            raffleId: _raffleID,\r\n            raffleName: raffle.raffleName,\r\n            description: raffle.description,\r\n            goals: raffle.goals,\r\n            nftPrice: raffle.nftPrice,\r\n            totalVolumeofTickets: raffle.totalVolumeofTickets,\r\n            endTime: raffle.endTime,\r\n            nftName: raffle.nftName,\r\n            nftId: raffle.nftId,\r\n            nftContractAddress: raffle.nftContractAddress,\r\n            nftSourceLink: raffle.nftSourceLink,\r\n            charityAddress: raffle.charityAddress,\r\n            raffleCreator: raffle.raffleCreator,\r\n            rafflePool: raffle.rafflePool,\r\n            ticketPrice: raffle.ticketPrice,\r\n            totalSoldTickets: raffle.totalSoldTickets,\r\n            winningTicket: raffle.winningTicket,\r\n            raffleWinner: raffle.raffleWinner,\r\n            raffleCancelled: raffle.raffleCancelled,\r\n            raffleEnded: raffle.raffleEnded\r\n        });\r\n\r\n        return raffleInfo;\r\n    }\r\n\r\n    function onERC721Received(\r\n        address operator,\r\n        address from,\r\n        uint256 tokenId,\r\n        bytes calldata data\r\n    ) external returns (bytes4) {\r\n        return this.onERC721Received.selector;\r\n    }\r\n\r\n    function getEntityAddresses(\r\n        uint256 _raffleId\r\n    ) public view returns (address, address, address) {\r\n        return (\r\n            raffles[_raffleId].raffleCreator,\r\n            raffles[_raffleId].developmentTeam,\r\n            raffles[_raffleId].charityAddress\r\n        );\r\n    }\r\n\r\n    function getTotalRaffles() public view returns (uint256) {\r\n        return raffleCount;\r\n    }\r\n\r\n    function getContractBalance() public view returns (uint256) {\r\n        return address(this).balance;\r\n    }\r\n}",
  "sourcePath": "C:\\Users\\user\\Desktop\\GIT_REPOS\\originx-dapp\\backend\\contracts\\originxRaffler.sol",
  "compiler": {
    "name": "solc",
    "version": "0.8.14+commit.80d49f37.Emscripten.clang"
  },
  "schemaVersion": "3.4.13",
  "updatedAt": "2023-08-21T20:59:16.877Z",
  "networkType": "ethereum",
  "devdoc": {
    "kind": "dev",
    "methods": {
      "onERC721Received(address,address,uint256,bytes)": {
        "details": "Whenever an {IERC721} `tokenId` token is transferred to this contract via {IERC721-safeTransferFrom} by `operator` from `from`, this function is called. It must return its Solidity selector to confirm the token transfer. If any other value is returned or the interface is not implemented by the recipient, the transfer will be reverted. The selector can be obtained in Solidity with `IERC721Receiver.onERC721Received.selector`."
      }
    },
    "version": 1
  },
  "userdoc": {
    "kind": "user",
    "methods": {
      "acceptOwnership()": {
        "notice": "Allows an ownership transfer to be completed by the recipient."
      },
      "constructor": {
        "notice": "COORDINATOR Sepolia: 0x8103B0A8A00be2DDC778e6e7eaa21791Cd364625"
      },
      "owner()": {
        "notice": "Get the current owner"
      },
      "transferOwnership(address)": {
        "notice": "Allows an owner to begin transferring ownership to a new address, pending."
      }
    },
    "version": 1
  }
}