{
  "contractName": "TestMintOrg",
  "abi": [
    {
      "inputs": [],
      "stateMutability": "nonpayable",
      "type": "constructor"
    },
    {
      "anonymous": false,
      "inputs": [
        {
          "indexed": true,
          "internalType": "address",
          "name": "owner",
          "type": "address"
        },
        {
          "indexed": true,
          "internalType": "address",
          "name": "approved",
          "type": "address"
        },
        {
          "indexed": true,
          "internalType": "uint256",
          "name": "tokenId",
          "type": "uint256"
        }
      ],
      "name": "Approval",
      "type": "event"
    },
    {
      "anonymous": false,
      "inputs": [
        {
          "indexed": true,
          "internalType": "address",
          "name": "owner",
          "type": "address"
        },
        {
          "indexed": true,
          "internalType": "address",
          "name": "operator",
          "type": "address"
        },
        {
          "indexed": false,
          "internalType": "bool",
          "name": "approved",
          "type": "bool"
        }
      ],
      "name": "ApprovalForAll",
      "type": "event"
    },
    {
      "anonymous": false,
      "inputs": [
        {
          "indexed": true,
          "internalType": "address",
          "name": "previousOwner",
          "type": "address"
        },
        {
          "indexed": true,
          "internalType": "address",
          "name": "newOwner",
          "type": "address"
        }
      ],
      "name": "OwnershipTransferred",
      "type": "event"
    },
    {
      "anonymous": false,
      "inputs": [
        {
          "indexed": true,
          "internalType": "address",
          "name": "from",
          "type": "address"
        },
        {
          "indexed": true,
          "internalType": "address",
          "name": "to",
          "type": "address"
        },
        {
          "indexed": true,
          "internalType": "uint256",
          "name": "tokenId",
          "type": "uint256"
        }
      ],
      "name": "Transfer",
      "type": "event"
    },
    {
      "inputs": [
        {
          "internalType": "address",
          "name": "to",
          "type": "address"
        },
        {
          "internalType": "uint256",
          "name": "tokenId",
          "type": "uint256"
        }
      ],
      "name": "approve",
      "outputs": [],
      "stateMutability": "nonpayable",
      "type": "function"
    },
    {
      "inputs": [
        {
          "internalType": "address",
          "name": "owner",
          "type": "address"
        }
      ],
      "name": "balanceOf",
      "outputs": [
        {
          "internalType": "uint256",
          "name": "",
          "type": "uint256"
        }
      ],
      "stateMutability": "view",
      "type": "function"
    },
    {
      "inputs": [
        {
          "internalType": "uint256",
          "name": "tokenId",
          "type": "uint256"
        }
      ],
      "name": "getApproved",
      "outputs": [
        {
          "internalType": "address",
          "name": "",
          "type": "address"
        }
      ],
      "stateMutability": "view",
      "type": "function"
    },
    {
      "inputs": [
        {
          "internalType": "address",
          "name": "owner",
          "type": "address"
        },
        {
          "internalType": "address",
          "name": "operator",
          "type": "address"
        }
      ],
      "name": "isApprovedForAll",
      "outputs": [
        {
          "internalType": "bool",
          "name": "",
          "type": "bool"
        }
      ],
      "stateMutability": "view",
      "type": "function"
    },
    {
      "inputs": [],
      "name": "name",
      "outputs": [
        {
          "internalType": "string",
          "name": "",
          "type": "string"
        }
      ],
      "stateMutability": "view",
      "type": "function"
    },
    {
      "inputs": [],
      "name": "owner",
      "outputs": [
        {
          "internalType": "address",
          "name": "",
          "type": "address"
        }
      ],
      "stateMutability": "view",
      "type": "function"
    },
    {
      "inputs": [
        {
          "internalType": "uint256",
          "name": "tokenId",
          "type": "uint256"
        }
      ],
      "name": "ownerOf",
      "outputs": [
        {
          "internalType": "address",
          "name": "",
          "type": "address"
        }
      ],
      "stateMutability": "view",
      "type": "function"
    },
    {
      "inputs": [],
      "name": "renounceOwnership",
      "outputs": [],
      "stateMutability": "nonpayable",
      "type": "function"
    },
    {
      "inputs": [
        {
          "internalType": "address",
          "name": "from",
          "type": "address"
        },
        {
          "internalType": "address",
          "name": "to",
          "type": "address"
        },
        {
          "internalType": "uint256",
          "name": "tokenId",
          "type": "uint256"
        }
      ],
      "name": "safeTransferFrom",
      "outputs": [],
      "stateMutability": "nonpayable",
      "type": "function"
    },
    {
      "inputs": [
        {
          "internalType": "address",
          "name": "from",
          "type": "address"
        },
        {
          "internalType": "address",
          "name": "to",
          "type": "address"
        },
        {
          "internalType": "uint256",
          "name": "tokenId",
          "type": "uint256"
        },
        {
          "internalType": "bytes",
          "name": "data",
          "type": "bytes"
        }
      ],
      "name": "safeTransferFrom",
      "outputs": [],
      "stateMutability": "nonpayable",
      "type": "function"
    },
    {
      "inputs": [
        {
          "internalType": "address",
          "name": "operator",
          "type": "address"
        },
        {
          "internalType": "bool",
          "name": "approved",
          "type": "bool"
        }
      ],
      "name": "setApprovalForAll",
      "outputs": [],
      "stateMutability": "nonpayable",
      "type": "function"
    },
    {
      "inputs": [
        {
          "internalType": "bytes4",
          "name": "interfaceId",
          "type": "bytes4"
        }
      ],
      "name": "supportsInterface",
      "outputs": [
        {
          "internalType": "bool",
          "name": "",
          "type": "bool"
        }
      ],
      "stateMutability": "view",
      "type": "function"
    },
    {
      "inputs": [],
      "name": "symbol",
      "outputs": [
        {
          "internalType": "string",
          "name": "",
          "type": "string"
        }
      ],
      "stateMutability": "view",
      "type": "function"
    },
    {
      "inputs": [
        {
          "internalType": "uint256",
          "name": "tokenId",
          "type": "uint256"
        }
      ],
      "name": "tokenURI",
      "outputs": [
        {
          "internalType": "string",
          "name": "",
          "type": "string"
        }
      ],
      "stateMutability": "view",
      "type": "function"
    },
    {
      "inputs": [
        {
          "internalType": "address",
          "name": "from",
          "type": "address"
        },
        {
          "internalType": "address",
          "name": "to",
          "type": "address"
        },
        {
          "internalType": "uint256",
          "name": "tokenId",
          "type": "uint256"
        }
      ],
      "name": "transferFrom",
      "outputs": [],
      "stateMutability": "nonpayable",
      "type": "function"
    },
    {
      "inputs": [
        {
          "internalType": "address",
          "name": "newOwner",
          "type": "address"
        }
      ],
      "name": "transferOwnership",
      "outputs": [],
      "stateMutability": "nonpayable",
      "type": "function"
    },
    {
      "inputs": [
        {
          "internalType": "address",
          "name": "to",
          "type": "address"
        }
      ],
      "name": "safeMint",
      "outputs": [],
      "stateMutability": "nonpayable",
      "type": "function"
    },
    {
      "inputs": [
        {
          "internalType": "address",
          "name": "to",
          "type": "address"
        },
        {
          "internalType": "uint256",
          "name": "amount",
          "type": "uint256"
        }
      ],
      "name": "safeMintBatch",
      "outputs": [],
      "stateMutability": "nonpayable",
      "type": "function"
    },
    {
      "inputs": [
        {
          "internalType": "address",
          "name": "operator",
          "type": "address"
        },
        {
          "internalType": "uint256[]",
          "name": "tokenIds",
          "type": "uint256[]"
        }
      ],
      "name": "approveBatch",
      "outputs": [],
      "stateMutability": "nonpayable",
      "type": "function"
    }
  ],
  "bytecode": "0x60806040523480156200001157600080fd5b506040518060400160405280600b81526020017f546573744d696e744e46540000000000000000000000000000000000000000008152506040518060400160405280600381526020017f544d4e000000000000000000000000000000000000000000000000000000000081525081600090816200008f919062000412565b508060019081620000a1919062000412565b505050620000c4620000b8620000ca60201b60201c565b620000d260201b60201c565b620004f9565b600033905090565b6000600660009054906101000a900473ffffffffffffffffffffffffffffffffffffffff16905081600660006101000a81548173ffffffffffffffffffffffffffffffffffffffff021916908373ffffffffffffffffffffffffffffffffffffffff1602179055508173ffffffffffffffffffffffffffffffffffffffff168173ffffffffffffffffffffffffffffffffffffffff167f8be0079c531659141344cd1fd0a4f28419497f9722a3daafe3b4186f6b6457e060405160405180910390a35050565b600081519050919050565b7f4e487b7100000000000000000000000000000000000000000000000000000000600052604160045260246000fd5b7f4e487b7100000000000000000000000000000000000000000000000000000000600052602260045260246000fd5b600060028204905060018216806200021a57607f821691505b60208210810362000230576200022f620001d2565b5b50919050565b60008190508160005260206000209050919050565b60006020601f8301049050919050565b600082821b905092915050565b6000600883026200029a7fffffffffffffffffffffffffffffffffffffffffffffffffffffffffffffffff826200025b565b620002a686836200025b565b95508019841693508086168417925050509392505050565b6000819050919050565b6000819050919050565b6000620002f3620002ed620002e784620002be565b620002c8565b620002be565b9050919050565b6000819050919050565b6200030f83620002d2565b620003276200031e82620002fa565b84845462000268565b825550505050565b600090565b6200033e6200032f565b6200034b81848462000304565b505050565b5b8181101562000373576200036760008262000334565b60018101905062000351565b5050565b601f821115620003c2576200038c8162000236565b62000397846200024b565b81016020851015620003a7578190505b620003bf620003b6856200024b565b83018262000350565b50505b505050565b600082821c905092915050565b6000620003e760001984600802620003c7565b1980831691505092915050565b6000620004028383620003d4565b9150826002028217905092915050565b6200041d8262000198565b67ffffffffffffffff811115620004395762000438620001a3565b5b62000445825462000201565b6200045282828562000377565b600060209050601f8311600181146200048a576000841562000475578287015190505b620004818582620003f4565b865550620004f1565b601f1984166200049a8662000236565b60005b82811015620004c4578489015182556001820191506020850194506020810190506200049d565b86831015620004e45784890151620004e0601f891682620003d4565b8355505b6001600288020188555050505b505050505050565b612d1380620005096000396000f3fe608060405234801561001057600080fd5b50600436106101215760003560e01c806370a08231116100ad578063aa5951be11610071578063aa5951be146102f2578063b88d4fde1461030e578063c87b56dd1461032a578063e985e9c51461035a578063f2fde38b1461038a57610121565b806370a0823114610260578063715018a6146102905780638da5cb5b1461029a57806395d89b41146102b8578063a22cb465146102d657610121565b806323b872dd116100f457806323b872dd146101c057806340d097c3146101dc57806342842e0e146101f85780634bc96248146102145780636352211e1461023057610121565b806301ffc9a71461012657806306fdde0314610156578063081812fc14610174578063095ea7b3146101a4575b600080fd5b610140600480360381019061013b9190611b8e565b6103a6565b60405161014d9190611bd6565b60405180910390f35b61015e610488565b60405161016b9190611c81565b60405180910390f35b61018e60048036038101906101899190611cd9565b61051a565b60405161019b9190611d47565b60405180910390f35b6101be60048036038101906101b99190611d8e565b610560565b005b6101da60048036038101906101d59190611dce565b610677565b005b6101f660048036038101906101f19190611e21565b6106d7565b005b610212600480360381019061020d9190611dce565b610707565b005b61022e60048036038101906102299190611d8e565b610727565b005b61024a60048036038101906102459190611cd9565b6107ba565b6040516102579190611d47565b60405180910390f35b61027a60048036038101906102759190611e21565b610840565b6040516102879190611e5d565b60405180910390f35b6102986108f7565b005b6102a261090b565b6040516102af9190611d47565b60405180910390f35b6102c0610935565b6040516102cd9190611c81565b60405180910390f35b6102f060048036038101906102eb9190611ea4565b6109c7565b005b61030c6004803603810190610307919061202c565b6109dd565b005b6103286004803603810190610323919061213d565b610a25565b005b610344600480360381019061033f9190611cd9565b610a87565b6040516103519190611c81565b60405180910390f35b610374600480360381019061036f91906121c0565b610aef565b6040516103819190611bd6565b60405180910390f35b6103a4600480360381019061039f9190611e21565b610b83565b005b60007f80ac58cd000000000000000000000000000000000000000000000000000000007bffffffffffffffffffffffffffffffffffffffffffffffffffffffff1916827bffffffffffffffffffffffffffffffffffffffffffffffffffffffff1916148061047157507f5b5e139f000000000000000000000000000000000000000000000000000000007bffffffffffffffffffffffffffffffffffffffffffffffffffffffff1916827bffffffffffffffffffffffffffffffffffffffffffffffffffffffff1916145b80610481575061048082610c06565b5b9050919050565b6060600080546104979061222f565b80601f01602080910402602001604051908101604052809291908181526020018280546104c39061222f565b80156105105780601f106104e557610100808354040283529160200191610510565b820191906000526020600020905b8154815290600101906020018083116104f357829003601f168201915b5050505050905090565b600061052582610c70565b6004600083815260200190815260200160002060009054906101000a900473ffffffffffffffffffffffffffffffffffffffff169050919050565b600061056b826107ba565b90508073ffffffffffffffffffffffffffffffffffffffff168373ffffffffffffffffffffffffffffffffffffffff16036105db576040517f08c379a00000000000000000000000000000000000000000000000000000000081526004016105d2906122d2565b60405180910390fd5b8073ffffffffffffffffffffffffffffffffffffffff166105fa610cbb565b73ffffffffffffffffffffffffffffffffffffffff161480610629575061062881610623610cbb565b610aef565b5b610668576040517f08c379a000000000000000000000000000000000000000000000000000000000815260040161065f90612364565b60405180910390fd5b6106728383610cc3565b505050565b610688610682610cbb565b82610d7c565b6106c7576040517f08c379a00000000000000000000000000000000000000000000000000000000081526004016106be906123f6565b60405180910390fd5b6106d2838383610e11565b505050565b6106df61110a565b600060075490506106f08282611188565b6001816106fd9190612445565b6007819055505050565b61072283838360405180602001604052806000815250610a25565b505050565b61072f61110a565b60008111610772576040517f08c379a0000000000000000000000000000000000000000000000000000000008152600401610769906124eb565b60405180910390fd5b60005b818110156107b5576000600754905061078e8482611188565b60018161079b9190612445565b6007819055505080806107ad9061250b565b915050610775565b505050565b6000806107c6836111a6565b9050600073ffffffffffffffffffffffffffffffffffffffff168173ffffffffffffffffffffffffffffffffffffffff1603610837576040517f08c379a000000000000000000000000000000000000000000000000000000000815260040161082e9061259f565b60405180910390fd5b80915050919050565b60008073ffffffffffffffffffffffffffffffffffffffff168273ffffffffffffffffffffffffffffffffffffffff16036108b0576040517f08c379a00000000000000000000000000000000000000000000000000000000081526004016108a790612631565b60405180910390fd5b600360008373ffffffffffffffffffffffffffffffffffffffff1673ffffffffffffffffffffffffffffffffffffffff168152602001908152602001600020549050919050565b6108ff61110a565b61090960006111e3565b565b6000600660009054906101000a900473ffffffffffffffffffffffffffffffffffffffff16905090565b6060600180546109449061222f565b80601f01602080910402602001604051908101604052809291908181526020018280546109709061222f565b80156109bd5780601f10610992576101008083540402835291602001916109bd565b820191906000526020600020905b8154815290600101906020018083116109a057829003601f168201915b5050505050905090565b6109d96109d2610cbb565b83836112a9565b5050565b60005b8151811015610a2057610a0d83838381518110610a00576109ff612651565b5b6020026020010151610560565b8080610a189061250b565b9150506109e0565b505050565b610a36610a30610cbb565b83610d7c565b610a75576040517f08c379a0000000000000000000000000000000000000000000000000000000008152600401610a6c906123f6565b60405180910390fd5b610a8184848484611415565b50505050565b6060610a9282610c70565b6000610a9c611471565b90506000815111610abc5760405180602001604052806000815250610ae7565b80610ac684611492565b604051602001610ad79291906126bc565b6040516020818303038152906040525b915050919050565b6000600560008473ffffffffffffffffffffffffffffffffffffffff1673ffffffffffffffffffffffffffffffffffffffff16815260200190815260200160002060008373ffffffffffffffffffffffffffffffffffffffff1673ffffffffffffffffffffffffffffffffffffffff16815260200190815260200160002060009054906101000a900460ff16905092915050565b610b8b61110a565b600073ffffffffffffffffffffffffffffffffffffffff168173ffffffffffffffffffffffffffffffffffffffff1603610bfa576040517f08c379a0000000000000000000000000000000000000000000000000000000008152600401610bf190612752565b60405180910390fd5b610c03816111e3565b50565b60007f01ffc9a7000000000000000000000000000000000000000000000000000000007bffffffffffffffffffffffffffffffffffffffffffffffffffffffff1916827bffffffffffffffffffffffffffffffffffffffffffffffffffffffff1916149050919050565b610c7981611560565b610cb8576040517f08c379a0000000000000000000000000000000000000000000000000000000008152600401610caf9061259f565b60405180910390fd5b50565b600033905090565b816004600083815260200190815260200160002060006101000a81548173ffffffffffffffffffffffffffffffffffffffff021916908373ffffffffffffffffffffffffffffffffffffffff160217905550808273ffffffffffffffffffffffffffffffffffffffff16610d36836107ba565b73ffffffffffffffffffffffffffffffffffffffff167f8c5be1e5ebec7d5bd14f71427d1e84f3dd0314c0f7b2291e5b200ac8c7c3b92560405160405180910390a45050565b600080610d88836107ba565b90508073ffffffffffffffffffffffffffffffffffffffff168473ffffffffffffffffffffffffffffffffffffffff161480610dca5750610dc98185610aef565b5b80610e0857508373ffffffffffffffffffffffffffffffffffffffff16610df08461051a565b73ffffffffffffffffffffffffffffffffffffffff16145b91505092915050565b8273ffffffffffffffffffffffffffffffffffffffff16610e31826107ba565b73ffffffffffffffffffffffffffffffffffffffff1614610e87576040517f08c379a0000000000000000000000000000000000000000000000000000000008152600401610e7e906127e4565b60405180910390fd5b600073ffffffffffffffffffffffffffffffffffffffff168273ffffffffffffffffffffffffffffffffffffffff1603610ef6576040517f08c379a0000000000000000000000000000000000000000000000000000000008152600401610eed90612876565b60405180910390fd5b610f0383838360016115a1565b8273ffffffffffffffffffffffffffffffffffffffff16610f23826107ba565b73ffffffffffffffffffffffffffffffffffffffff1614610f79576040517f08c379a0000000000000000000000000000000000000000000000000000000008152600401610f70906127e4565b60405180910390fd5b6004600082815260200190815260200160002060006101000a81549073ffffffffffffffffffffffffffffffffffffffff02191690556001600360008573ffffffffffffffffffffffffffffffffffffffff1673ffffffffffffffffffffffffffffffffffffffff168152602001908152602001600020600082825403925050819055506001600360008473ffffffffffffffffffffffffffffffffffffffff1673ffffffffffffffffffffffffffffffffffffffff16815260200190815260200160002060008282540192505081905550816002600083815260200190815260200160002060006101000a81548173ffffffffffffffffffffffffffffffffffffffff021916908373ffffffffffffffffffffffffffffffffffffffff160217905550808273ffffffffffffffffffffffffffffffffffffffff168473ffffffffffffffffffffffffffffffffffffffff167fddf252ad1be2c89b69c2b068fc378daa952ba7f163c4a11628f55a4df523b3ef60405160405180910390a461110583838360016115a7565b505050565b611112610cbb565b73ffffffffffffffffffffffffffffffffffffffff1661113061090b565b73ffffffffffffffffffffffffffffffffffffffff1614611186576040517f08c379a000000000000000000000000000000000000000000000000000000000815260040161117d906128e2565b60405180910390fd5b565b6111a28282604051806020016040528060008152506115ad565b5050565b60006002600083815260200190815260200160002060009054906101000a900473ffffffffffffffffffffffffffffffffffffffff169050919050565b6000600660009054906101000a900473ffffffffffffffffffffffffffffffffffffffff16905081600660006101000a81548173ffffffffffffffffffffffffffffffffffffffff021916908373ffffffffffffffffffffffffffffffffffffffff1602179055508173ffffffffffffffffffffffffffffffffffffffff168173ffffffffffffffffffffffffffffffffffffffff167f8be0079c531659141344cd1fd0a4f28419497f9722a3daafe3b4186f6b6457e060405160405180910390a35050565b8173ffffffffffffffffffffffffffffffffffffffff168373ffffffffffffffffffffffffffffffffffffffff1603611317576040517f08c379a000000000000000000000000000000000000000000000000000000000815260040161130e9061294e565b60405180910390fd5b80600560008573ffffffffffffffffffffffffffffffffffffffff1673ffffffffffffffffffffffffffffffffffffffff16815260200190815260200160002060008473ffffffffffffffffffffffffffffffffffffffff1673ffffffffffffffffffffffffffffffffffffffff16815260200190815260200160002060006101000a81548160ff0219169083151502179055508173ffffffffffffffffffffffffffffffffffffffff168373ffffffffffffffffffffffffffffffffffffffff167f17307eab39ab6107e8899845ad3d59bd9653f200f220920489ca2b5937696c31836040516114089190611bd6565b60405180910390a3505050565b611420848484610e11565b61142c84848484611608565b61146b576040517f08c379a0000000000000000000000000000000000000000000000000000000008152600401611462906129e0565b60405180910390fd5b50505050565b606060405180610120016040528060f38152602001612beb60f39139905090565b6060600060016114a18461178f565b01905060008167ffffffffffffffff8111156114c0576114bf611ee9565b5b6040519080825280601f01601f1916602001820160405280156114f25781602001600182028036833780820191505090505b509050600082602001820190505b600115611555578080600190039150507f3031323334353637383961626364656600000000000000000000000000000000600a86061a8153600a858161154957611548612a00565b5b04945060008503611500575b819350505050919050565b60008073ffffffffffffffffffffffffffffffffffffffff16611582836111a6565b73ffffffffffffffffffffffffffffffffffffffff1614159050919050565b50505050565b50505050565b6115b783836118e2565b6115c46000848484611608565b611603576040517f08c379a00000000000000000000000000000000000000000000000000000000081526004016115fa906129e0565b60405180910390fd5b505050565b60006116298473ffffffffffffffffffffffffffffffffffffffff16611aff565b15611782578373ffffffffffffffffffffffffffffffffffffffff1663150b7a02611652610cbb565b8786866040518563ffffffff1660e01b81526004016116749493929190612a84565b6020604051808303816000875af19250505080156116b057506040513d601f19601f820116820180604052508101906116ad9190612ae5565b60015b611732573d80600081146116e0576040519150601f19603f3d011682016040523d82523d6000602084013e6116e5565b606091505b50600081510361172a576040517f08c379a0000000000000000000000000000000000000000000000000000000008152600401611721906129e0565b60405180910390fd5b805181602001fd5b63150b7a0260e01b7bffffffffffffffffffffffffffffffffffffffffffffffffffffffff1916817bffffffffffffffffffffffffffffffffffffffffffffffffffffffff191614915050611787565b600190505b949350505050565b600080600090507a184f03e93ff9f4daa797ed6e38ed64bf6a1f01000000000000000083106117ed577a184f03e93ff9f4daa797ed6e38ed64bf6a1f01000000000000000083816117e3576117e2612a00565b5b0492506040810190505b6d04ee2d6d415b85acef8100000000831061182a576d04ee2d6d415b85acef810000000083816118205761181f612a00565b5b0492506020810190505b662386f26fc10000831061185957662386f26fc10000838161184f5761184e612a00565b5b0492506010810190505b6305f5e1008310611882576305f5e100838161187857611877612a00565b5b0492506008810190505b61271083106118a757612710838161189d5761189c612a00565b5b0492506004810190505b606483106118ca57606483816118c0576118bf612a00565b5b0492506002810190505b600a83106118d9576001810190505b80915050919050565b600073ffffffffffffffffffffffffffffffffffffffff168273ffffffffffffffffffffffffffffffffffffffff1603611951576040517f08c379a000000000000000000000000000000000000000000000000000000000815260040161194890612b5e565b60405180910390fd5b61195a81611560565b1561199a576040517f08c379a000000000000000000000000000000000000000000000000000000000815260040161199190612bca565b60405180910390fd5b6119a86000838360016115a1565b6119b181611560565b156119f1576040517f08c379a00000000000000000000000000000000000000000000000000000000081526004016119e890612bca565b60405180910390fd5b6001600360008473ffffffffffffffffffffffffffffffffffffffff1673ffffffffffffffffffffffffffffffffffffffff16815260200190815260200160002060008282540192505081905550816002600083815260200190815260200160002060006101000a81548173ffffffffffffffffffffffffffffffffffffffff021916908373ffffffffffffffffffffffffffffffffffffffff160217905550808273ffffffffffffffffffffffffffffffffffffffff16600073ffffffffffffffffffffffffffffffffffffffff167fddf252ad1be2c89b69c2b068fc378daa952ba7f163c4a11628f55a4df523b3ef60405160405180910390a4611afb6000838360016115a7565b5050565b6000808273ffffffffffffffffffffffffffffffffffffffff163b119050919050565b6000604051905090565b600080fd5b600080fd5b60007fffffffff0000000000000000000000000000000000000000000000000000000082169050919050565b611b6b81611b36565b8114611b7657600080fd5b50565b600081359050611b8881611b62565b92915050565b600060208284031215611ba457611ba3611b2c565b5b6000611bb284828501611b79565b91505092915050565b60008115159050919050565b611bd081611bbb565b82525050565b6000602082019050611beb6000830184611bc7565b92915050565b600081519050919050565b600082825260208201905092915050565b60005b83811015611c2b578082015181840152602081019050611c10565b60008484015250505050565b6000601f19601f8301169050919050565b6000611c5382611bf1565b611c5d8185611bfc565b9350611c6d818560208601611c0d565b611c7681611c37565b840191505092915050565b60006020820190508181036000830152611c9b8184611c48565b905092915050565b6000819050919050565b611cb681611ca3565b8114611cc157600080fd5b50565b600081359050611cd381611cad565b92915050565b600060208284031215611cef57611cee611b2c565b5b6000611cfd84828501611cc4565b91505092915050565b600073ffffffffffffffffffffffffffffffffffffffff82169050919050565b6000611d3182611d06565b9050919050565b611d4181611d26565b82525050565b6000602082019050611d5c6000830184611d38565b92915050565b611d6b81611d26565b8114611d7657600080fd5b50565b600081359050611d8881611d62565b92915050565b60008060408385031215611da557611da4611b2c565b5b6000611db385828601611d79565b9250506020611dc485828601611cc4565b9150509250929050565b600080600060608486031215611de757611de6611b2c565b5b6000611df586828701611d79565b9350506020611e0686828701611d79565b9250506040611e1786828701611cc4565b9150509250925092565b600060208284031215611e3757611e36611b2c565b5b6000611e4584828501611d79565b91505092915050565b611e5781611ca3565b82525050565b6000602082019050611e726000830184611e4e565b92915050565b611e8181611bbb565b8114611e8c57600080fd5b50565b600081359050611e9e81611e78565b92915050565b60008060408385031215611ebb57611eba611b2c565b5b6000611ec985828601611d79565b9250506020611eda85828601611e8f565b9150509250929050565b600080fd5b7f4e487b7100000000000000000000000000000000000000000000000000000000600052604160045260246000fd5b611f2182611c37565b810181811067ffffffffffffffff82111715611f4057611f3f611ee9565b5b80604052505050565b6000611f53611b22565b9050611f5f8282611f18565b919050565b600067ffffffffffffffff821115611f7f57611f7e611ee9565b5b602082029050602081019050919050565b600080fd5b6000611fa8611fa384611f64565b611f49565b90508083825260208201905060208402830185811115611fcb57611fca611f90565b5b835b81811015611ff45780611fe08882611cc4565b845260208401935050602081019050611fcd565b5050509392505050565b600082601f83011261201357612012611ee4565b5b8135612023848260208601611f95565b91505092915050565b6000806040838503121561204357612042611b2c565b5b600061205185828601611d79565b925050602083013567ffffffffffffffff81111561207257612071611b31565b5b61207e85828601611ffe565b9150509250929050565b600080fd5b600067ffffffffffffffff8211156120a8576120a7611ee9565b5b6120b182611c37565b9050602081019050919050565b82818337600083830152505050565b60006120e06120db8461208d565b611f49565b9050828152602081018484840111156120fc576120fb612088565b5b6121078482856120be565b509392505050565b600082601f83011261212457612123611ee4565b5b81356121348482602086016120cd565b91505092915050565b6000806000806080858703121561215757612156611b2c565b5b600061216587828801611d79565b945050602061217687828801611d79565b935050604061218787828801611cc4565b925050606085013567ffffffffffffffff8111156121a8576121a7611b31565b5b6121b48782880161210f565b91505092959194509250565b600080604083850312156121d7576121d6611b2c565b5b60006121e585828601611d79565b92505060206121f685828601611d79565b9150509250929050565b7f4e487b7100000000000000000000000000000000000000000000000000000000600052602260045260246000fd5b6000600282049050600182168061224757607f821691505b60208210810361225a57612259612200565b5b50919050565b7f4552433732313a20617070726f76616c20746f2063757272656e74206f776e6560008201527f7200000000000000000000000000000000000000000000000000000000000000602082015250565b60006122bc602183611bfc565b91506122c782612260565b604082019050919050565b600060208201905081810360008301526122eb816122af565b9050919050565b7f4552433732313a20617070726f76652063616c6c6572206973206e6f7420746f60008201527f6b656e206f776e6572206f7220617070726f76656420666f7220616c6c000000602082015250565b600061234e603d83611bfc565b9150612359826122f2565b604082019050919050565b6000602082019050818103600083015261237d81612341565b9050919050565b7f4552433732313a2063616c6c6572206973206e6f7420746f6b656e206f776e6560008201527f72206f7220617070726f76656400000000000000000000000000000000000000602082015250565b60006123e0602d83611bfc565b91506123eb82612384565b604082019050919050565b6000602082019050818103600083015261240f816123d3565b9050919050565b7f4e487b7100000000000000000000000000000000000000000000000000000000600052601160045260246000fd5b600061245082611ca3565b915061245b83611ca3565b925082820190508082111561247357612472612416565b5b92915050565b7f4e756d626572206f6620746f6b656e7320746f206d696e74206d75737420626560008201527f2067726561746572207468616e20300000000000000000000000000000000000602082015250565b60006124d5602f83611bfc565b91506124e082612479565b604082019050919050565b60006020820190508181036000830152612504816124c8565b9050919050565b600061251682611ca3565b91507fffffffffffffffffffffffffffffffffffffffffffffffffffffffffffffffff820361254857612547612416565b5b600182019050919050565b7f4552433732313a20696e76616c696420746f6b656e2049440000000000000000600082015250565b6000612589601883611bfc565b915061259482612553565b602082019050919050565b600060208201905081810360008301526125b88161257c565b9050919050565b7f4552433732313a2061646472657373207a65726f206973206e6f74206120766160008201527f6c6964206f776e65720000000000000000000000000000000000000000000000602082015250565b600061261b602983611bfc565b9150612626826125bf565b604082019050919050565b6000602082019050818103600083015261264a8161260e565b9050919050565b7f4e487b7100000000000000000000000000000000000000000000000000000000600052603260045260246000fd5b600081905092915050565b600061269682611bf1565b6126a08185612680565b93506126b0818560208601611c0d565b80840191505092915050565b60006126c8828561268b565b91506126d4828461268b565b91508190509392505050565b7f4f776e61626c653a206e6577206f776e657220697320746865207a65726f206160008201527f6464726573730000000000000000000000000000000000000000000000000000602082015250565b600061273c602683611bfc565b9150612747826126e0565b604082019050919050565b6000602082019050818103600083015261276b8161272f565b9050919050565b7f4552433732313a207472616e736665722066726f6d20696e636f72726563742060008201527f6f776e6572000000000000000000000000000000000000000000000000000000602082015250565b60006127ce602583611bfc565b91506127d982612772565b604082019050919050565b600060208201905081810360008301526127fd816127c1565b9050919050565b7f4552433732313a207472616e7366657220746f20746865207a65726f2061646460008201527f7265737300000000000000000000000000000000000000000000000000000000602082015250565b6000612860602483611bfc565b915061286b82612804565b604082019050919050565b6000602082019050818103600083015261288f81612853565b9050919050565b7f4f776e61626c653a2063616c6c6572206973206e6f7420746865206f776e6572600082015250565b60006128cc602083611bfc565b91506128d782612896565b602082019050919050565b600060208201905081810360008301526128fb816128bf565b9050919050565b7f4552433732313a20617070726f766520746f2063616c6c657200000000000000600082015250565b6000612938601983611bfc565b915061294382612902565b602082019050919050565b600060208201905081810360008301526129678161292b565b9050919050565b7f4552433732313a207472616e7366657220746f206e6f6e20455243373231526560008201527f63656976657220696d706c656d656e7465720000000000000000000000000000602082015250565b60006129ca603283611bfc565b91506129d58261296e565b604082019050919050565b600060208201905081810360008301526129f9816129bd565b9050919050565b7f4e487b7100000000000000000000000000000000000000000000000000000000600052601260045260246000fd5b600081519050919050565b600082825260208201905092915050565b6000612a5682612a2f565b612a608185612a3a565b9350612a70818560208601611c0d565b612a7981611c37565b840191505092915050565b6000608082019050612a996000830187611d38565b612aa66020830186611d38565b612ab36040830185611e4e565b8181036060830152612ac58184612a4b565b905095945050505050565b600081519050612adf81611b62565b92915050565b600060208284031215612afb57612afa611b2c565b5b6000612b0984828501612ad0565b91505092915050565b7f4552433732313a206d696e7420746f20746865207a65726f2061646472657373600082015250565b6000612b48602083611bfc565b9150612b5382612b12565b602082019050919050565b60006020820190508181036000830152612b7781612b3b565b9050919050565b7f4552433732313a20746f6b656e20616c7265616479206d696e74656400000000600082015250565b6000612bb4601c83611bfc565b9150612bbf82612b7e565b602082019050919050565b60006020820190508181036000830152612be381612ba7565b905091905056fe68747470733a2f2f7777772e676f6f676c652e636f6d2f75726c3f73613d692675726c3d68747470732533412532462532466e6577732e6172746e65742e636f6d2532466e6577732d70726f253246626f7265642d6170652d79616368742d636c75622d6578706c61696e65722d70726f2d3230303530303126707369673d414f765661773136746342446538416a3169646a57646a7066527833267573743d3136383333353434323332313230303026736f757263653d696d616765732663643d766665267665643d30434245516a52787146776f54434e43476f5954473366344346514141414141644141414141424145a2646970667358221220a72718baf4e98eabb7f8d6bfe7b2cadaec98b3a078f0d316fabc749ae9b80c3264736f6c63430008130033",
  "immutableReferences": {},
  "source": "pragma solidity ^0.8.9;\r\n\r\nimport \"@openzeppelin/contracts/token/ERC721/ERC721.sol\";\r\nimport \"@openzeppelin/contracts/access/Ownable.sol\";\r\n\r\ncontract TestMintOrg is ERC721, Ownable {\r\n    uint256 private _tokenIdCounter;\r\n\r\n    constructor() ERC721(\"TestMintNFT\", \"TMN\") {}\r\n\r\n    function _baseURI() internal pure override returns (string memory) {\r\n        return \"https://www.google.com/url?sa=i&url=https%3A%2F%2Fnews.artnet.com%2Fnews-pro%2Fbored-ape-yacht-club-explainer-pro-2005001&psig=AOvVaw16tcBDe8Aj1idjWdjpfRx3&ust=1683354423212000&source=images&cd=vfe&ved=0CBEQjRxqFwoTCNCGoYTG3f4CFQAAAAAdAAAAABAE\";\r\n    }\r\n\r\n    function safeMint(address to) public onlyOwner {\r\n        uint256 tokenId = _tokenIdCounter;\r\n        _safeMint(to, tokenId);\r\n        _tokenIdCounter = tokenId + 1;\r\n    }\r\n\r\n    function safeMintBatch(address to, uint256 amount) public onlyOwner {\r\n        require(amount > 0, \"Number of tokens to mint must be greater than 0\");\r\n        for (uint256 i = 0; i < amount; i++) {\r\n            uint256 tokenId = _tokenIdCounter;\r\n            _safeMint(to, tokenId);\r\n            _tokenIdCounter = tokenId + 1;\r\n        }\r\n    }\r\n\r\n    function approveBatch(address operator, uint256[] memory tokenIds) public {\r\n    for (uint256 i = 0; i < tokenIds.length; i++) {\r\n        approve(operator, tokenIds[i]);\r\n    }\r\n    }\r\n}",
  "sourcePath": "C:\\Users\\user\\Desktop\\GIT_REPOS\\originx\\backend\\contracts\\NFTmint.sol",
  "compiler": {
    "name": "solc",
    "version": "0.8.19+commit.7dd6d404.Emscripten.clang"
  },
  "schemaVersion": "3.4.13",
  "updatedAt": "2023-06-23T05:35:31.416Z",
  "devdoc": {
    "events": {
      "Approval(address,address,uint256)": {
        "details": "Emitted when `owner` enables `approved` to manage the `tokenId` token."
      },
      "ApprovalForAll(address,address,bool)": {
        "details": "Emitted when `owner` enables or disables (`approved`) `operator` to manage all of its assets."
      },
      "Transfer(address,address,uint256)": {
        "details": "Emitted when `tokenId` token is transferred from `from` to `to`."
      }
    },
    "kind": "dev",
    "methods": {
      "approve(address,uint256)": {
        "details": "See {IERC721-approve}."
      },
      "balanceOf(address)": {
        "details": "See {IERC721-balanceOf}."
      },
      "getApproved(uint256)": {
        "details": "See {IERC721-getApproved}."
      },
      "isApprovedForAll(address,address)": {
        "details": "See {IERC721-isApprovedForAll}."
      },
      "name()": {
        "details": "See {IERC721Metadata-name}."
      },
      "owner()": {
        "details": "Returns the address of the current owner."
      },
      "ownerOf(uint256)": {
        "details": "See {IERC721-ownerOf}."
      },
      "renounceOwnership()": {
        "details": "Leaves the contract without owner. It will not be possible to call `onlyOwner` functions anymore. Can only be called by the current owner. NOTE: Renouncing ownership will leave the contract without an owner, thereby removing any functionality that is only available to the owner."
      },
      "safeTransferFrom(address,address,uint256)": {
        "details": "See {IERC721-safeTransferFrom}."
      },
      "safeTransferFrom(address,address,uint256,bytes)": {
        "details": "See {IERC721-safeTransferFrom}."
      },
      "setApprovalForAll(address,bool)": {
        "details": "See {IERC721-setApprovalForAll}."
      },
      "supportsInterface(bytes4)": {
        "details": "See {IERC165-supportsInterface}."
      },
      "symbol()": {
        "details": "See {IERC721Metadata-symbol}."
      },
      "tokenURI(uint256)": {
        "details": "See {IERC721Metadata-tokenURI}."
      },
      "transferFrom(address,address,uint256)": {
        "details": "See {IERC721-transferFrom}."
      },
      "transferOwnership(address)": {
        "details": "Transfers ownership of the contract to a new account (`newOwner`). Can only be called by the current owner."
      }
    },
    "version": 1
  },
  "userdoc": {
    "kind": "user",
    "methods": {},
    "version": 1
  }
}