{
  "contractName": "TestMintOrg",
  "abi": [
    {
      "inputs": [],
      "stateMutability": "nonpayable",
      "type": "constructor"
    },
    {
      "anonymous": false,
      "inputs": [
        {
          "indexed": true,
          "internalType": "address",
          "name": "owner",
          "type": "address"
        },
        {
          "indexed": true,
          "internalType": "address",
          "name": "approved",
          "type": "address"
        },
        {
          "indexed": true,
          "internalType": "uint256",
          "name": "tokenId",
          "type": "uint256"
        }
      ],
      "name": "Approval",
      "type": "event"
    },
    {
      "anonymous": false,
      "inputs": [
        {
          "indexed": true,
          "internalType": "address",
          "name": "owner",
          "type": "address"
        },
        {
          "indexed": true,
          "internalType": "address",
          "name": "operator",
          "type": "address"
        },
        {
          "indexed": false,
          "internalType": "bool",
          "name": "approved",
          "type": "bool"
        }
      ],
      "name": "ApprovalForAll",
      "type": "event"
    },
    {
      "anonymous": false,
      "inputs": [
        {
          "indexed": true,
          "internalType": "address",
          "name": "previousOwner",
          "type": "address"
        },
        {
          "indexed": true,
          "internalType": "address",
          "name": "newOwner",
          "type": "address"
        }
      ],
      "name": "OwnershipTransferred",
      "type": "event"
    },
    {
      "anonymous": false,
      "inputs": [
        {
          "indexed": true,
          "internalType": "address",
          "name": "from",
          "type": "address"
        },
        {
          "indexed": true,
          "internalType": "address",
          "name": "to",
          "type": "address"
        },
        {
          "indexed": true,
          "internalType": "uint256",
          "name": "tokenId",
          "type": "uint256"
        }
      ],
      "name": "Transfer",
      "type": "event"
    },
    {
      "inputs": [
        {
          "internalType": "address",
          "name": "to",
          "type": "address"
        },
        {
          "internalType": "uint256",
          "name": "tokenId",
          "type": "uint256"
        }
      ],
      "name": "approve",
      "outputs": [],
      "stateMutability": "nonpayable",
      "type": "function"
    },
    {
      "inputs": [
        {
          "internalType": "address",
          "name": "owner",
          "type": "address"
        }
      ],
      "name": "balanceOf",
      "outputs": [
        {
          "internalType": "uint256",
          "name": "",
          "type": "uint256"
        }
      ],
      "stateMutability": "view",
      "type": "function"
    },
    {
      "inputs": [
        {
          "internalType": "uint256",
          "name": "tokenId",
          "type": "uint256"
        }
      ],
      "name": "getApproved",
      "outputs": [
        {
          "internalType": "address",
          "name": "",
          "type": "address"
        }
      ],
      "stateMutability": "view",
      "type": "function"
    },
    {
      "inputs": [
        {
          "internalType": "address",
          "name": "owner",
          "type": "address"
        },
        {
          "internalType": "address",
          "name": "operator",
          "type": "address"
        }
      ],
      "name": "isApprovedForAll",
      "outputs": [
        {
          "internalType": "bool",
          "name": "",
          "type": "bool"
        }
      ],
      "stateMutability": "view",
      "type": "function"
    },
    {
      "inputs": [],
      "name": "name",
      "outputs": [
        {
          "internalType": "string",
          "name": "",
          "type": "string"
        }
      ],
      "stateMutability": "view",
      "type": "function"
    },
    {
      "inputs": [],
      "name": "owner",
      "outputs": [
        {
          "internalType": "address",
          "name": "",
          "type": "address"
        }
      ],
      "stateMutability": "view",
      "type": "function"
    },
    {
      "inputs": [
        {
          "internalType": "uint256",
          "name": "tokenId",
          "type": "uint256"
        }
      ],
      "name": "ownerOf",
      "outputs": [
        {
          "internalType": "address",
          "name": "",
          "type": "address"
        }
      ],
      "stateMutability": "view",
      "type": "function"
    },
    {
      "inputs": [],
      "name": "renounceOwnership",
      "outputs": [],
      "stateMutability": "nonpayable",
      "type": "function"
    },
    {
      "inputs": [
        {
          "internalType": "address",
          "name": "from",
          "type": "address"
        },
        {
          "internalType": "address",
          "name": "to",
          "type": "address"
        },
        {
          "internalType": "uint256",
          "name": "tokenId",
          "type": "uint256"
        }
      ],
      "name": "safeTransferFrom",
      "outputs": [],
      "stateMutability": "nonpayable",
      "type": "function"
    },
    {
      "inputs": [
        {
          "internalType": "address",
          "name": "from",
          "type": "address"
        },
        {
          "internalType": "address",
          "name": "to",
          "type": "address"
        },
        {
          "internalType": "uint256",
          "name": "tokenId",
          "type": "uint256"
        },
        {
          "internalType": "bytes",
          "name": "data",
          "type": "bytes"
        }
      ],
      "name": "safeTransferFrom",
      "outputs": [],
      "stateMutability": "nonpayable",
      "type": "function"
    },
    {
      "inputs": [
        {
          "internalType": "address",
          "name": "operator",
          "type": "address"
        },
        {
          "internalType": "bool",
          "name": "approved",
          "type": "bool"
        }
      ],
      "name": "setApprovalForAll",
      "outputs": [],
      "stateMutability": "nonpayable",
      "type": "function"
    },
    {
      "inputs": [
        {
          "internalType": "bytes4",
          "name": "interfaceId",
          "type": "bytes4"
        }
      ],
      "name": "supportsInterface",
      "outputs": [
        {
          "internalType": "bool",
          "name": "",
          "type": "bool"
        }
      ],
      "stateMutability": "view",
      "type": "function"
    },
    {
      "inputs": [],
      "name": "symbol",
      "outputs": [
        {
          "internalType": "string",
          "name": "",
          "type": "string"
        }
      ],
      "stateMutability": "view",
      "type": "function"
    },
    {
      "inputs": [
        {
          "internalType": "uint256",
          "name": "tokenId",
          "type": "uint256"
        }
      ],
      "name": "tokenURI",
      "outputs": [
        {
          "internalType": "string",
          "name": "",
          "type": "string"
        }
      ],
      "stateMutability": "view",
      "type": "function"
    },
    {
      "inputs": [
        {
          "internalType": "address",
          "name": "from",
          "type": "address"
        },
        {
          "internalType": "address",
          "name": "to",
          "type": "address"
        },
        {
          "internalType": "uint256",
          "name": "tokenId",
          "type": "uint256"
        }
      ],
      "name": "transferFrom",
      "outputs": [],
      "stateMutability": "nonpayable",
      "type": "function"
    },
    {
      "inputs": [
        {
          "internalType": "address",
          "name": "newOwner",
          "type": "address"
        }
      ],
      "name": "transferOwnership",
      "outputs": [],
      "stateMutability": "nonpayable",
      "type": "function"
    },
    {
      "inputs": [
        {
          "internalType": "address",
          "name": "to",
          "type": "address"
        }
      ],
      "name": "safeMint",
      "outputs": [],
      "stateMutability": "nonpayable",
      "type": "function"
    },
    {
      "inputs": [
        {
          "internalType": "address",
          "name": "to",
          "type": "address"
        },
        {
          "internalType": "uint256",
          "name": "amount",
          "type": "uint256"
        }
      ],
      "name": "safeMintBatch",
      "outputs": [],
      "stateMutability": "nonpayable",
      "type": "function"
    },
    {
      "inputs": [
        {
          "internalType": "address",
          "name": "operator",
          "type": "address"
        },
        {
          "internalType": "uint256[]",
          "name": "tokenIds",
          "type": "uint256[]"
        }
      ],
      "name": "approveBatch",
      "outputs": [],
      "stateMutability": "nonpayable",
      "type": "function"
    }
  ],
  "bytecode": "0x60806040523480156200001157600080fd5b506040518060400160405280600b81526020017f546573744d696e744e46540000000000000000000000000000000000000000008152506040518060400160405280600381526020017f544d4e0000000000000000000000000000000000000000000000000000000000815250816000908051906020019062000096929190620001a6565b508060019080519060200190620000af929190620001a6565b505050620000d2620000c6620000d860201b60201c565b620000e060201b60201c565b620002ba565b600033905090565b6000600660009054906101000a900473ffffffffffffffffffffffffffffffffffffffff16905081600660006101000a81548173ffffffffffffffffffffffffffffffffffffffff021916908373ffffffffffffffffffffffffffffffffffffffff1602179055508173ffffffffffffffffffffffffffffffffffffffff168173ffffffffffffffffffffffffffffffffffffffff167f8be0079c531659141344cd1fd0a4f28419497f9722a3daafe3b4186f6b6457e060405160405180910390a35050565b828054620001b49062000285565b90600052602060002090601f016020900481019282620001d8576000855562000224565b82601f10620001f357805160ff191683800117855562000224565b8280016001018555821562000224579182015b828111156200022357825182559160200191906001019062000206565b5b50905062000233919062000237565b5090565b5b808211156200025257600081600090555060010162000238565b5090565b7f4e487b7100000000000000000000000000000000000000000000000000000000600052602260045260246000fd5b600060028204905060018216806200029e57607f821691505b602082108103620002b457620002b362000256565b5b50919050565b612d3e80620002ca6000396000f3fe608060405234801561001057600080fd5b50600436106101215760003560e01c806370a08231116100ad578063aa5951be11610071578063aa5951be146102f2578063b88d4fde1461030e578063c87b56dd1461032a578063e985e9c51461035a578063f2fde38b1461038a57610121565b806370a0823114610260578063715018a6146102905780638da5cb5b1461029a57806395d89b41146102b8578063a22cb465146102d657610121565b806323b872dd116100f457806323b872dd146101c057806340d097c3146101dc57806342842e0e146101f85780634bc96248146102145780636352211e1461023057610121565b806301ffc9a71461012657806306fdde0314610156578063081812fc14610174578063095ea7b3146101a4575b600080fd5b610140600480360381019061013b9190611b8e565b6103a6565b60405161014d9190611bd6565b60405180910390f35b61015e610488565b60405161016b9190611c8a565b60405180910390f35b61018e60048036038101906101899190611ce2565b61051a565b60405161019b9190611d50565b60405180910390f35b6101be60048036038101906101b99190611d97565b610560565b005b6101da60048036038101906101d59190611dd7565b610677565b005b6101f660048036038101906101f19190611e2a565b6106d7565b005b610212600480360381019061020d9190611dd7565b610707565b005b61022e60048036038101906102299190611d97565b610727565b005b61024a60048036038101906102459190611ce2565b6107ba565b6040516102579190611d50565b60405180910390f35b61027a60048036038101906102759190611e2a565b610840565b6040516102879190611e66565b60405180910390f35b6102986108f7565b005b6102a261090b565b6040516102af9190611d50565b60405180910390f35b6102c0610935565b6040516102cd9190611c8a565b60405180910390f35b6102f060048036038101906102eb9190611ead565b6109c7565b005b61030c60048036038101906103079190612035565b6109dd565b005b61032860048036038101906103239190612146565b610a25565b005b610344600480360381019061033f9190611ce2565b610a87565b6040516103519190611c8a565b60405180910390f35b610374600480360381019061036f91906121c9565b610aef565b6040516103819190611bd6565b60405180910390f35b6103a4600480360381019061039f9190611e2a565b610b83565b005b60007f80ac58cd000000000000000000000000000000000000000000000000000000007bffffffffffffffffffffffffffffffffffffffffffffffffffffffff1916827bffffffffffffffffffffffffffffffffffffffffffffffffffffffff1916148061047157507f5b5e139f000000000000000000000000000000000000000000000000000000007bffffffffffffffffffffffffffffffffffffffffffffffffffffffff1916827bffffffffffffffffffffffffffffffffffffffffffffffffffffffff1916145b80610481575061048082610c06565b5b9050919050565b60606000805461049790612238565b80601f01602080910402602001604051908101604052809291908181526020018280546104c390612238565b80156105105780601f106104e557610100808354040283529160200191610510565b820191906000526020600020905b8154815290600101906020018083116104f357829003601f168201915b5050505050905090565b600061052582610c70565b6004600083815260200190815260200160002060009054906101000a900473ffffffffffffffffffffffffffffffffffffffff169050919050565b600061056b826107ba565b90508073ffffffffffffffffffffffffffffffffffffffff168373ffffffffffffffffffffffffffffffffffffffff16036105db576040517f08c379a00000000000000000000000000000000000000000000000000000000081526004016105d2906122db565b60405180910390fd5b8073ffffffffffffffffffffffffffffffffffffffff166105fa610cbb565b73ffffffffffffffffffffffffffffffffffffffff161480610629575061062881610623610cbb565b610aef565b5b610668576040517f08c379a000000000000000000000000000000000000000000000000000000000815260040161065f9061236d565b60405180910390fd5b6106728383610cc3565b505050565b610688610682610cbb565b82610d7c565b6106c7576040517f08c379a00000000000000000000000000000000000000000000000000000000081526004016106be906123ff565b60405180910390fd5b6106d2838383610e11565b505050565b6106df61110a565b600060075490506106f08282611188565b6001816106fd919061244e565b6007819055505050565b61072283838360405180602001604052806000815250610a25565b505050565b61072f61110a565b60008111610772576040517f08c379a000000000000000000000000000000000000000000000000000000000815260040161076990612516565b60405180910390fd5b60005b818110156107b5576000600754905061078e8482611188565b60018161079b919061244e565b6007819055505080806107ad90612536565b915050610775565b505050565b6000806107c6836111a6565b9050600073ffffffffffffffffffffffffffffffffffffffff168173ffffffffffffffffffffffffffffffffffffffff1603610837576040517f08c379a000000000000000000000000000000000000000000000000000000000815260040161082e906125ca565b60405180910390fd5b80915050919050565b60008073ffffffffffffffffffffffffffffffffffffffff168273ffffffffffffffffffffffffffffffffffffffff16036108b0576040517f08c379a00000000000000000000000000000000000000000000000000000000081526004016108a79061265c565b60405180910390fd5b600360008373ffffffffffffffffffffffffffffffffffffffff1673ffffffffffffffffffffffffffffffffffffffff168152602001908152602001600020549050919050565b6108ff61110a565b61090960006111e3565b565b6000600660009054906101000a900473ffffffffffffffffffffffffffffffffffffffff16905090565b60606001805461094490612238565b80601f016020809104026020016040519081016040528092919081815260200182805461097090612238565b80156109bd5780601f10610992576101008083540402835291602001916109bd565b820191906000526020600020905b8154815290600101906020018083116109a057829003601f168201915b5050505050905090565b6109d96109d2610cbb565b83836112a9565b5050565b60005b8151811015610a2057610a0d83838381518110610a00576109ff61267c565b5b6020026020010151610560565b8080610a1890612536565b9150506109e0565b505050565b610a36610a30610cbb565b83610d7c565b610a75576040517f08c379a0000000000000000000000000000000000000000000000000000000008152600401610a6c906123ff565b60405180910390fd5b610a8184848484611415565b50505050565b6060610a9282610c70565b6000610a9c611471565b90506000815111610abc5760405180602001604052806000815250610ae7565b80610ac684611492565b604051602001610ad79291906126e7565b6040516020818303038152906040525b915050919050565b6000600560008473ffffffffffffffffffffffffffffffffffffffff1673ffffffffffffffffffffffffffffffffffffffff16815260200190815260200160002060008373ffffffffffffffffffffffffffffffffffffffff1673ffffffffffffffffffffffffffffffffffffffff16815260200190815260200160002060009054906101000a900460ff16905092915050565b610b8b61110a565b600073ffffffffffffffffffffffffffffffffffffffff168173ffffffffffffffffffffffffffffffffffffffff1603610bfa576040517f08c379a0000000000000000000000000000000000000000000000000000000008152600401610bf19061277d565b60405180910390fd5b610c03816111e3565b50565b60007f01ffc9a7000000000000000000000000000000000000000000000000000000007bffffffffffffffffffffffffffffffffffffffffffffffffffffffff1916827bffffffffffffffffffffffffffffffffffffffffffffffffffffffff1916149050919050565b610c7981611560565b610cb8576040517f08c379a0000000000000000000000000000000000000000000000000000000008152600401610caf906125ca565b60405180910390fd5b50565b600033905090565b816004600083815260200190815260200160002060006101000a81548173ffffffffffffffffffffffffffffffffffffffff021916908373ffffffffffffffffffffffffffffffffffffffff160217905550808273ffffffffffffffffffffffffffffffffffffffff16610d36836107ba565b73ffffffffffffffffffffffffffffffffffffffff167f8c5be1e5ebec7d5bd14f71427d1e84f3dd0314c0f7b2291e5b200ac8c7c3b92560405160405180910390a45050565b600080610d88836107ba565b90508073ffffffffffffffffffffffffffffffffffffffff168473ffffffffffffffffffffffffffffffffffffffff161480610dca5750610dc98185610aef565b5b80610e0857508373ffffffffffffffffffffffffffffffffffffffff16610df08461051a565b73ffffffffffffffffffffffffffffffffffffffff16145b91505092915050565b8273ffffffffffffffffffffffffffffffffffffffff16610e31826107ba565b73ffffffffffffffffffffffffffffffffffffffff1614610e87576040517f08c379a0000000000000000000000000000000000000000000000000000000008152600401610e7e9061280f565b60405180910390fd5b600073ffffffffffffffffffffffffffffffffffffffff168273ffffffffffffffffffffffffffffffffffffffff1603610ef6576040517f08c379a0000000000000000000000000000000000000000000000000000000008152600401610eed906128a1565b60405180910390fd5b610f0383838360016115a1565b8273ffffffffffffffffffffffffffffffffffffffff16610f23826107ba565b73ffffffffffffffffffffffffffffffffffffffff1614610f79576040517f08c379a0000000000000000000000000000000000000000000000000000000008152600401610f709061280f565b60405180910390fd5b6004600082815260200190815260200160002060006101000a81549073ffffffffffffffffffffffffffffffffffffffff02191690556001600360008573ffffffffffffffffffffffffffffffffffffffff1673ffffffffffffffffffffffffffffffffffffffff168152602001908152602001600020600082825403925050819055506001600360008473ffffffffffffffffffffffffffffffffffffffff1673ffffffffffffffffffffffffffffffffffffffff16815260200190815260200160002060008282540192505081905550816002600083815260200190815260200160002060006101000a81548173ffffffffffffffffffffffffffffffffffffffff021916908373ffffffffffffffffffffffffffffffffffffffff160217905550808273ffffffffffffffffffffffffffffffffffffffff168473ffffffffffffffffffffffffffffffffffffffff167fddf252ad1be2c89b69c2b068fc378daa952ba7f163c4a11628f55a4df523b3ef60405160405180910390a461110583838360016115a7565b505050565b611112610cbb565b73ffffffffffffffffffffffffffffffffffffffff1661113061090b565b73ffffffffffffffffffffffffffffffffffffffff1614611186576040517f08c379a000000000000000000000000000000000000000000000000000000000815260040161117d9061290d565b60405180910390fd5b565b6111a28282604051806020016040528060008152506115ad565b5050565b60006002600083815260200190815260200160002060009054906101000a900473ffffffffffffffffffffffffffffffffffffffff169050919050565b6000600660009054906101000a900473ffffffffffffffffffffffffffffffffffffffff16905081600660006101000a81548173ffffffffffffffffffffffffffffffffffffffff021916908373ffffffffffffffffffffffffffffffffffffffff1602179055508173ffffffffffffffffffffffffffffffffffffffff168173ffffffffffffffffffffffffffffffffffffffff167f8be0079c531659141344cd1fd0a4f28419497f9722a3daafe3b4186f6b6457e060405160405180910390a35050565b8173ffffffffffffffffffffffffffffffffffffffff168373ffffffffffffffffffffffffffffffffffffffff1603611317576040517f08c379a000000000000000000000000000000000000000000000000000000000815260040161130e90612979565b60405180910390fd5b80600560008573ffffffffffffffffffffffffffffffffffffffff1673ffffffffffffffffffffffffffffffffffffffff16815260200190815260200160002060008473ffffffffffffffffffffffffffffffffffffffff1673ffffffffffffffffffffffffffffffffffffffff16815260200190815260200160002060006101000a81548160ff0219169083151502179055508173ffffffffffffffffffffffffffffffffffffffff168373ffffffffffffffffffffffffffffffffffffffff167f17307eab39ab6107e8899845ad3d59bd9653f200f220920489ca2b5937696c31836040516114089190611bd6565b60405180910390a3505050565b611420848484610e11565b61142c84848484611608565b61146b576040517f08c379a000000000000000000000000000000000000000000000000000000000815260040161146290612a0b565b60405180910390fd5b50505050565b606060405180610120016040528060f38152602001612c1660f39139905090565b6060600060016114a18461178f565b01905060008167ffffffffffffffff8111156114c0576114bf611ef2565b5b6040519080825280601f01601f1916602001820160405280156114f25781602001600182028036833780820191505090505b509050600082602001820190505b600115611555578080600190039150507f3031323334353637383961626364656600000000000000000000000000000000600a86061a8153600a858161154957611548612a2b565b5b04945060008503611500575b819350505050919050565b60008073ffffffffffffffffffffffffffffffffffffffff16611582836111a6565b73ffffffffffffffffffffffffffffffffffffffff1614159050919050565b50505050565b50505050565b6115b783836118e2565b6115c46000848484611608565b611603576040517f08c379a00000000000000000000000000000000000000000000000000000000081526004016115fa90612a0b565b60405180910390fd5b505050565b60006116298473ffffffffffffffffffffffffffffffffffffffff16611aff565b15611782578373ffffffffffffffffffffffffffffffffffffffff1663150b7a02611652610cbb565b8786866040518563ffffffff1660e01b81526004016116749493929190612aaf565b6020604051808303816000875af19250505080156116b057506040513d601f19601f820116820180604052508101906116ad9190612b10565b60015b611732573d80600081146116e0576040519150601f19603f3d011682016040523d82523d6000602084013e6116e5565b606091505b50600081510361172a576040517f08c379a000000000000000000000000000000000000000000000000000000000815260040161172190612a0b565b60405180910390fd5b805181602001fd5b63150b7a0260e01b7bffffffffffffffffffffffffffffffffffffffffffffffffffffffff1916817bffffffffffffffffffffffffffffffffffffffffffffffffffffffff191614915050611787565b600190505b949350505050565b600080600090507a184f03e93ff9f4daa797ed6e38ed64bf6a1f01000000000000000083106117ed577a184f03e93ff9f4daa797ed6e38ed64bf6a1f01000000000000000083816117e3576117e2612a2b565b5b0492506040810190505b6d04ee2d6d415b85acef8100000000831061182a576d04ee2d6d415b85acef810000000083816118205761181f612a2b565b5b0492506020810190505b662386f26fc10000831061185957662386f26fc10000838161184f5761184e612a2b565b5b0492506010810190505b6305f5e1008310611882576305f5e100838161187857611877612a2b565b5b0492506008810190505b61271083106118a757612710838161189d5761189c612a2b565b5b0492506004810190505b606483106118ca57606483816118c0576118bf612a2b565b5b0492506002810190505b600a83106118d9576001810190505b80915050919050565b600073ffffffffffffffffffffffffffffffffffffffff168273ffffffffffffffffffffffffffffffffffffffff1603611951576040517f08c379a000000000000000000000000000000000000000000000000000000000815260040161194890612b89565b60405180910390fd5b61195a81611560565b1561199a576040517f08c379a000000000000000000000000000000000000000000000000000000000815260040161199190612bf5565b60405180910390fd5b6119a86000838360016115a1565b6119b181611560565b156119f1576040517f08c379a00000000000000000000000000000000000000000000000000000000081526004016119e890612bf5565b60405180910390fd5b6001600360008473ffffffffffffffffffffffffffffffffffffffff1673ffffffffffffffffffffffffffffffffffffffff16815260200190815260200160002060008282540192505081905550816002600083815260200190815260200160002060006101000a81548173ffffffffffffffffffffffffffffffffffffffff021916908373ffffffffffffffffffffffffffffffffffffffff160217905550808273ffffffffffffffffffffffffffffffffffffffff16600073ffffffffffffffffffffffffffffffffffffffff167fddf252ad1be2c89b69c2b068fc378daa952ba7f163c4a11628f55a4df523b3ef60405160405180910390a4611afb6000838360016115a7565b5050565b6000808273ffffffffffffffffffffffffffffffffffffffff163b119050919050565b6000604051905090565b600080fd5b600080fd5b60007fffffffff0000000000000000000000000000000000000000000000000000000082169050919050565b611b6b81611b36565b8114611b7657600080fd5b50565b600081359050611b8881611b62565b92915050565b600060208284031215611ba457611ba3611b2c565b5b6000611bb284828501611b79565b91505092915050565b60008115159050919050565b611bd081611bbb565b82525050565b6000602082019050611beb6000830184611bc7565b92915050565b600081519050919050565b600082825260208201905092915050565b60005b83811015611c2b578082015181840152602081019050611c10565b83811115611c3a576000848401525b50505050565b6000601f19601f8301169050919050565b6000611c5c82611bf1565b611c668185611bfc565b9350611c76818560208601611c0d565b611c7f81611c40565b840191505092915050565b60006020820190508181036000830152611ca48184611c51565b905092915050565b6000819050919050565b611cbf81611cac565b8114611cca57600080fd5b50565b600081359050611cdc81611cb6565b92915050565b600060208284031215611cf857611cf7611b2c565b5b6000611d0684828501611ccd565b91505092915050565b600073ffffffffffffffffffffffffffffffffffffffff82169050919050565b6000611d3a82611d0f565b9050919050565b611d4a81611d2f565b82525050565b6000602082019050611d656000830184611d41565b92915050565b611d7481611d2f565b8114611d7f57600080fd5b50565b600081359050611d9181611d6b565b92915050565b60008060408385031215611dae57611dad611b2c565b5b6000611dbc85828601611d82565b9250506020611dcd85828601611ccd565b9150509250929050565b600080600060608486031215611df057611def611b2c565b5b6000611dfe86828701611d82565b9350506020611e0f86828701611d82565b9250506040611e2086828701611ccd565b9150509250925092565b600060208284031215611e4057611e3f611b2c565b5b6000611e4e84828501611d82565b91505092915050565b611e6081611cac565b82525050565b6000602082019050611e7b6000830184611e57565b92915050565b611e8a81611bbb565b8114611e9557600080fd5b50565b600081359050611ea781611e81565b92915050565b60008060408385031215611ec457611ec3611b2c565b5b6000611ed285828601611d82565b9250506020611ee385828601611e98565b9150509250929050565b600080fd5b7f4e487b7100000000000000000000000000000000000000000000000000000000600052604160045260246000fd5b611f2a82611c40565b810181811067ffffffffffffffff82111715611f4957611f48611ef2565b5b80604052505050565b6000611f5c611b22565b9050611f688282611f21565b919050565b600067ffffffffffffffff821115611f8857611f87611ef2565b5b602082029050602081019050919050565b600080fd5b6000611fb1611fac84611f6d565b611f52565b90508083825260208201905060208402830185811115611fd457611fd3611f99565b5b835b81811015611ffd5780611fe98882611ccd565b845260208401935050602081019050611fd6565b5050509392505050565b600082601f83011261201c5761201b611eed565b5b813561202c848260208601611f9e565b91505092915050565b6000806040838503121561204c5761204b611b2c565b5b600061205a85828601611d82565b925050602083013567ffffffffffffffff81111561207b5761207a611b31565b5b61208785828601612007565b9150509250929050565b600080fd5b600067ffffffffffffffff8211156120b1576120b0611ef2565b5b6120ba82611c40565b9050602081019050919050565b82818337600083830152505050565b60006120e96120e484612096565b611f52565b90508281526020810184848401111561210557612104612091565b5b6121108482856120c7565b509392505050565b600082601f83011261212d5761212c611eed565b5b813561213d8482602086016120d6565b91505092915050565b600080600080608085870312156121605761215f611b2c565b5b600061216e87828801611d82565b945050602061217f87828801611d82565b935050604061219087828801611ccd565b925050606085013567ffffffffffffffff8111156121b1576121b0611b31565b5b6121bd87828801612118565b91505092959194509250565b600080604083850312156121e0576121df611b2c565b5b60006121ee85828601611d82565b92505060206121ff85828601611d82565b9150509250929050565b7f4e487b7100000000000000000000000000000000000000000000000000000000600052602260045260246000fd5b6000600282049050600182168061225057607f821691505b60208210810361226357612262612209565b5b50919050565b7f4552433732313a20617070726f76616c20746f2063757272656e74206f776e6560008201527f7200000000000000000000000000000000000000000000000000000000000000602082015250565b60006122c5602183611bfc565b91506122d082612269565b604082019050919050565b600060208201905081810360008301526122f4816122b8565b9050919050565b7f4552433732313a20617070726f76652063616c6c6572206973206e6f7420746f60008201527f6b656e206f776e6572206f7220617070726f76656420666f7220616c6c000000602082015250565b6000612357603d83611bfc565b9150612362826122fb565b604082019050919050565b600060208201905081810360008301526123868161234a565b9050919050565b7f4552433732313a2063616c6c6572206973206e6f7420746f6b656e206f776e6560008201527f72206f7220617070726f76656400000000000000000000000000000000000000602082015250565b60006123e9602d83611bfc565b91506123f48261238d565b604082019050919050565b60006020820190508181036000830152612418816123dc565b9050919050565b7f4e487b7100000000000000000000000000000000000000000000000000000000600052601160045260246000fd5b600061245982611cac565b915061246483611cac565b9250827fffffffffffffffffffffffffffffffffffffffffffffffffffffffffffffffff038211156124995761249861241f565b5b828201905092915050565b7f4e756d626572206f6620746f6b656e7320746f206d696e74206d75737420626560008201527f2067726561746572207468616e20300000000000000000000000000000000000602082015250565b6000612500602f83611bfc565b915061250b826124a4565b604082019050919050565b6000602082019050818103600083015261252f816124f3565b9050919050565b600061254182611cac565b91507fffffffffffffffffffffffffffffffffffffffffffffffffffffffffffffffff82036125735761257261241f565b5b600182019050919050565b7f4552433732313a20696e76616c696420746f6b656e2049440000000000000000600082015250565b60006125b4601883611bfc565b91506125bf8261257e565b602082019050919050565b600060208201905081810360008301526125e3816125a7565b9050919050565b7f4552433732313a2061646472657373207a65726f206973206e6f74206120766160008201527f6c6964206f776e65720000000000000000000000000000000000000000000000602082015250565b6000612646602983611bfc565b9150612651826125ea565b604082019050919050565b6000602082019050818103600083015261267581612639565b9050919050565b7f4e487b7100000000000000000000000000000000000000000000000000000000600052603260045260246000fd5b600081905092915050565b60006126c182611bf1565b6126cb81856126ab565b93506126db818560208601611c0d565b80840191505092915050565b60006126f382856126b6565b91506126ff82846126b6565b91508190509392505050565b7f4f776e61626c653a206e6577206f776e657220697320746865207a65726f206160008201527f6464726573730000000000000000000000000000000000000000000000000000602082015250565b6000612767602683611bfc565b91506127728261270b565b604082019050919050565b600060208201905081810360008301526127968161275a565b9050919050565b7f4552433732313a207472616e736665722066726f6d20696e636f72726563742060008201527f6f776e6572000000000000000000000000000000000000000000000000000000602082015250565b60006127f9602583611bfc565b91506128048261279d565b604082019050919050565b60006020820190508181036000830152612828816127ec565b9050919050565b7f4552433732313a207472616e7366657220746f20746865207a65726f2061646460008201527f7265737300000000000000000000000000000000000000000000000000000000602082015250565b600061288b602483611bfc565b91506128968261282f565b604082019050919050565b600060208201905081810360008301526128ba8161287e565b9050919050565b7f4f776e61626c653a2063616c6c6572206973206e6f7420746865206f776e6572600082015250565b60006128f7602083611bfc565b9150612902826128c1565b602082019050919050565b60006020820190508181036000830152612926816128ea565b9050919050565b7f4552433732313a20617070726f766520746f2063616c6c657200000000000000600082015250565b6000612963601983611bfc565b915061296e8261292d565b602082019050919050565b6000602082019050818103600083015261299281612956565b9050919050565b7f4552433732313a207472616e7366657220746f206e6f6e20455243373231526560008201527f63656976657220696d706c656d656e7465720000000000000000000000000000602082015250565b60006129f5603283611bfc565b9150612a0082612999565b604082019050919050565b60006020820190508181036000830152612a24816129e8565b9050919050565b7f4e487b7100000000000000000000000000000000000000000000000000000000600052601260045260246000fd5b600081519050919050565b600082825260208201905092915050565b6000612a8182612a5a565b612a8b8185612a65565b9350612a9b818560208601611c0d565b612aa481611c40565b840191505092915050565b6000608082019050612ac46000830187611d41565b612ad16020830186611d41565b612ade6040830185611e57565b8181036060830152612af08184612a76565b905095945050505050565b600081519050612b0a81611b62565b92915050565b600060208284031215612b2657612b25611b2c565b5b6000612b3484828501612afb565b91505092915050565b7f4552433732313a206d696e7420746f20746865207a65726f2061646472657373600082015250565b6000612b73602083611bfc565b9150612b7e82612b3d565b602082019050919050565b60006020820190508181036000830152612ba281612b66565b9050919050565b7f4552433732313a20746f6b656e20616c7265616479206d696e74656400000000600082015250565b6000612bdf601c83611bfc565b9150612bea82612ba9565b602082019050919050565b60006020820190508181036000830152612c0e81612bd2565b905091905056fe68747470733a2f2f7777772e676f6f676c652e636f6d2f75726c3f73613d692675726c3d68747470732533412532462532466e6577732e6172746e65742e636f6d2532466e6577732d70726f253246626f7265642d6170652d79616368742d636c75622d6578706c61696e65722d70726f2d3230303530303126707369673d414f765661773136746342446538416a3169646a57646a7066527833267573743d3136383333353434323332313230303026736f757263653d696d616765732663643d766665267665643d30434245516a52787146776f54434e43476f5954473366344346514141414141644141414141424145a2646970667358221220c99b9c2449cf98d33696b2f6757c7c68478de2acdc306cd56f4b7c4c9a92a20964736f6c634300080e0033",
  "immutableReferences": {},
  "source": "pragma solidity ^0.8.9;\r\n\r\nimport \"@openzeppelin/contracts/token/ERC721/ERC721.sol\";\r\nimport \"@openzeppelin/contracts/access/Ownable.sol\";\r\n\r\ncontract TestMintOrg is ERC721, Ownable {\r\n    uint256 private _tokenIdCounter;\r\n\r\n    constructor() ERC721(\"TestMintNFT\", \"TMN\") {}\r\n\r\n    function _baseURI() internal pure override returns (string memory) {\r\n        return \"https://www.google.com/url?sa=i&url=https%3A%2F%2Fnews.artnet.com%2Fnews-pro%2Fbored-ape-yacht-club-explainer-pro-2005001&psig=AOvVaw16tcBDe8Aj1idjWdjpfRx3&ust=1683354423212000&source=images&cd=vfe&ved=0CBEQjRxqFwoTCNCGoYTG3f4CFQAAAAAdAAAAABAE\";\r\n    }\r\n\r\n    function safeMint(address to) public onlyOwner {\r\n        uint256 tokenId = _tokenIdCounter;\r\n        _safeMint(to, tokenId);\r\n        _tokenIdCounter = tokenId + 1;\r\n    }\r\n\r\n    function safeMintBatch(address to, uint256 amount) public onlyOwner {\r\n        require(amount > 0, \"Number of tokens to mint must be greater than 0\");\r\n        for (uint256 i = 0; i < amount; i++) {\r\n            uint256 tokenId = _tokenIdCounter;\r\n            _safeMint(to, tokenId);\r\n            _tokenIdCounter = tokenId + 1;\r\n        }\r\n    }\r\n\r\n    function approveBatch(address operator, uint256[] memory tokenIds) public {\r\n    for (uint256 i = 0; i < tokenIds.length; i++) {\r\n        approve(operator, tokenIds[i]);\r\n    }\r\n    }\r\n}",
  "sourcePath": "C:\\Users\\user\\Desktop\\GIT_REPOS\\originx-raffle-dapp\\backend\\contracts\\NFTmint.sol",
  "compiler": {
    "name": "solc",
    "version": "0.8.14+commit.80d49f37.Emscripten.clang"
  },
  "schemaVersion": "3.4.13",
  "updatedAt": "2023-06-24T11:19:38.058Z",
  "devdoc": {
    "kind": "dev",
    "methods": {
      "approve(address,uint256)": {
        "details": "See {IERC721-approve}."
      },
      "balanceOf(address)": {
        "details": "See {IERC721-balanceOf}."
      },
      "getApproved(uint256)": {
        "details": "See {IERC721-getApproved}."
      },
      "isApprovedForAll(address,address)": {
        "details": "See {IERC721-isApprovedForAll}."
      },
      "name()": {
        "details": "See {IERC721Metadata-name}."
      },
      "owner()": {
        "details": "Returns the address of the current owner."
      },
      "ownerOf(uint256)": {
        "details": "See {IERC721-ownerOf}."
      },
      "renounceOwnership()": {
        "details": "Leaves the contract without owner. It will not be possible to call `onlyOwner` functions anymore. Can only be called by the current owner. NOTE: Renouncing ownership will leave the contract without an owner, thereby removing any functionality that is only available to the owner."
      },
      "safeTransferFrom(address,address,uint256)": {
        "details": "See {IERC721-safeTransferFrom}."
      },
      "safeTransferFrom(address,address,uint256,bytes)": {
        "details": "See {IERC721-safeTransferFrom}."
      },
      "setApprovalForAll(address,bool)": {
        "details": "See {IERC721-setApprovalForAll}."
      },
      "supportsInterface(bytes4)": {
        "details": "See {IERC165-supportsInterface}."
      },
      "symbol()": {
        "details": "See {IERC721Metadata-symbol}."
      },
      "tokenURI(uint256)": {
        "details": "See {IERC721Metadata-tokenURI}."
      },
      "transferFrom(address,address,uint256)": {
        "details": "See {IERC721-transferFrom}."
      },
      "transferOwnership(address)": {
        "details": "Transfers ownership of the contract to a new account (`newOwner`). Can only be called by the current owner."
      }
    },
    "version": 1
  },
  "userdoc": {
    "kind": "user",
    "methods": {},
    "version": 1
  }
}