{
  "contractName": "mainNftRaffle",
  "abi": [
    {
      "anonymous": false,
      "inputs": [
        {
          "indexed": true,
          "internalType": "uint256",
          "name": "raffleId",
          "type": "uint256"
        },
        {
          "indexed": false,
          "internalType": "uint256",
          "name": "winningTicketNumber",
          "type": "uint256"
        },
        {
          "indexed": false,
          "internalType": "address",
          "name": "winningTicketOwner",
          "type": "address"
        }
      ],
      "name": "WinnerSelected",
      "type": "event"
    },
    {
      "inputs": [
        {
          "internalType": "uint256",
          "name": "",
          "type": "uint256"
        },
        {
          "internalType": "uint256",
          "name": "",
          "type": "uint256"
        }
      ],
      "name": "ticketToOwner",
      "outputs": [
        {
          "internalType": "address",
          "name": "",
          "type": "address"
        }
      ],
      "stateMutability": "view",
      "type": "function",
      "constant": true
    },
    {
      "inputs": [
        {
          "internalType": "string",
          "name": "_raffleName",
          "type": "string"
        },
        {
          "internalType": "uint256",
          "name": "_nftPrice",
          "type": "uint256"
        },
        {
          "internalType": "uint256",
          "name": "_totalVolumeofTickets",
          "type": "uint256"
        },
        {
          "internalType": "uint256",
          "name": "_endTime",
          "type": "uint256"
        },
        {
          "internalType": "uint256",
          "name": "_nftId",
          "type": "uint256"
        },
        {
          "internalType": "address",
          "name": "_nftContractAddress",
          "type": "address"
        },
        {
          "internalType": "string",
          "name": "_nftSourceLink",
          "type": "string"
        },
        {
          "internalType": "address",
          "name": "_charityAddress",
          "type": "address"
        }
      ],
      "name": "createRaffle",
      "outputs": [
        {
          "internalType": "uint256",
          "name": "",
          "type": "uint256"
        }
      ],
      "stateMutability": "nonpayable",
      "type": "function"
    },
    {
      "inputs": [
        {
          "internalType": "uint256",
          "name": "_raffleId",
          "type": "uint256"
        }
      ],
      "name": "getTicketPrice",
      "outputs": [
        {
          "internalType": "uint256",
          "name": "",
          "type": "uint256"
        }
      ],
      "stateMutability": "view",
      "type": "function",
      "constant": true
    },
    {
      "inputs": [
        {
          "internalType": "address",
          "name": "_address",
          "type": "address"
        },
        {
          "internalType": "uint256",
          "name": "raffleId",
          "type": "uint256"
        }
      ],
      "name": "getTicketsOwned",
      "outputs": [
        {
          "internalType": "uint256",
          "name": "",
          "type": "uint256"
        }
      ],
      "stateMutability": "view",
      "type": "function",
      "constant": true
    },
    {
      "inputs": [
        {
          "internalType": "uint256",
          "name": "_raffleID",
          "type": "uint256"
        }
      ],
      "name": "getAvailableTickets",
      "outputs": [
        {
          "internalType": "uint256",
          "name": "",
          "type": "uint256"
        }
      ],
      "stateMutability": "view",
      "type": "function",
      "constant": true
    },
    {
      "inputs": [
        {
          "internalType": "uint256",
          "name": "_raffleId",
          "type": "uint256"
        },
        {
          "internalType": "uint256",
          "name": "_totalTicketsWanted",
          "type": "uint256"
        }
      ],
      "name": "buyTicket",
      "outputs": [],
      "stateMutability": "payable",
      "type": "function",
      "payable": true
    },
    {
      "inputs": [
        {
          "internalType": "uint256",
          "name": "_raffleId",
          "type": "uint256"
        },
        {
          "internalType": "uint256",
          "name": "_totalTicketsWanted",
          "type": "uint256"
        }
      ],
      "name": "getTotalTicketPrice",
      "outputs": [
        {
          "internalType": "uint256",
          "name": "",
          "type": "uint256"
        }
      ],
      "stateMutability": "view",
      "type": "function",
      "constant": true
    },
    {
      "inputs": [
        {
          "internalType": "uint256",
          "name": "raffleId",
          "type": "uint256"
        }
      ],
      "name": "pickWinner",
      "outputs": [],
      "stateMutability": "nonpayable",
      "type": "function"
    },
    {
      "inputs": [
        {
          "internalType": "uint256",
          "name": "_raffleId",
          "type": "uint256"
        }
      ],
      "name": "getPrizePool",
      "outputs": [
        {
          "internalType": "uint256",
          "name": "",
          "type": "uint256"
        },
        {
          "internalType": "uint256",
          "name": "",
          "type": "uint256"
        },
        {
          "internalType": "uint256",
          "name": "",
          "type": "uint256"
        },
        {
          "internalType": "uint256",
          "name": "",
          "type": "uint256"
        }
      ],
      "stateMutability": "view",
      "type": "function",
      "constant": true
    },
    {
      "inputs": [
        {
          "internalType": "uint256",
          "name": "_raffleId",
          "type": "uint256"
        }
      ],
      "name": "sendPrizePool",
      "outputs": [],
      "stateMutability": "nonpayable",
      "type": "function"
    },
    {
      "inputs": [
        {
          "internalType": "uint256",
          "name": "_raffleID",
          "type": "uint256"
        }
      ],
      "name": "raffleInfo",
      "outputs": [
        {
          "components": [
            {
              "internalType": "string",
              "name": "raffleName",
              "type": "string"
            },
            {
              "internalType": "uint256",
              "name": "nftPrice",
              "type": "uint256"
            },
            {
              "internalType": "uint256",
              "name": "totalVolumeofTickets",
              "type": "uint256"
            },
            {
              "internalType": "uint256",
              "name": "endTime",
              "type": "uint256"
            },
            {
              "internalType": "uint256",
              "name": "nftId",
              "type": "uint256"
            },
            {
              "internalType": "address",
              "name": "nftContractAddress",
              "type": "address"
            },
            {
              "internalType": "string",
              "name": "nftSourceLink",
              "type": "string"
            },
            {
              "internalType": "address",
              "name": "charityAddress",
              "type": "address"
            },
            {
              "internalType": "address",
              "name": "raffleCreator",
              "type": "address"
            },
            {
              "internalType": "uint256",
              "name": "rafflePool",
              "type": "uint256"
            },
            {
              "internalType": "uint256",
              "name": "ticketPrice",
              "type": "uint256"
            },
            {
              "internalType": "uint256",
              "name": "totalSoldTickets",
              "type": "uint256"
            },
            {
              "internalType": "bool",
              "name": "raffleCancelled",
              "type": "bool"
            },
            {
              "internalType": "bool",
              "name": "raffleEnded",
              "type": "bool"
            }
          ],
          "internalType": "struct mainNftRaffle.RaffleInfo",
          "name": "",
          "type": "tuple"
        }
      ],
      "stateMutability": "view",
      "type": "function",
      "constant": true
    },
    {
      "inputs": [
        {
          "internalType": "address",
          "name": "operator",
          "type": "address"
        },
        {
          "internalType": "address",
          "name": "from",
          "type": "address"
        },
        {
          "internalType": "uint256",
          "name": "tokenId",
          "type": "uint256"
        },
        {
          "internalType": "bytes",
          "name": "data",
          "type": "bytes"
        }
      ],
      "name": "onERC721Received",
      "outputs": [
        {
          "internalType": "bytes4",
          "name": "",
          "type": "bytes4"
        }
      ],
      "stateMutability": "nonpayable",
      "type": "function"
    },
    {
      "inputs": [],
      "name": "getTotalRaffles",
      "outputs": [
        {
          "internalType": "uint256",
          "name": "",
          "type": "uint256"
        }
      ],
      "stateMutability": "view",
      "type": "function",
      "constant": true
    },
    {
      "inputs": [
        {
          "internalType": "uint256",
          "name": "_raffleId",
          "type": "uint256"
        }
      ],
      "name": "getEntityAddresses",
      "outputs": [
        {
          "internalType": "address",
          "name": "",
          "type": "address"
        },
        {
          "internalType": "address",
          "name": "",
          "type": "address"
        },
        {
          "internalType": "address",
          "name": "",
          "type": "address"
        }
      ],
      "stateMutability": "view",
      "type": "function",
      "constant": true
    },
    {
      "inputs": [],
      "name": "getContractBalance",
      "outputs": [
        {
          "internalType": "uint256",
          "name": "",
          "type": "uint256"
        }
      ],
      "stateMutability": "view",
      "type": "function",
      "constant": true
    }
  ],
  "bytecode": "0x6080604052600060025534801561001557600080fd5b50612d78806100256000396000f3fe6080604052600436106100e85760003560e01c80636f9fb98a1161008a578063bf30d79011610059578063bf30d79014610338578063f06fc96114610375578063f737d21d146103b2578063f9ea2382146103db576100e8565b80636f9fb98a146102675780637822be4a146102925780638a56e3b9146102d25780639a290b871461030f576100e8565b80631e8c48e4116100c65780631e8c48e4146101925780632973c9b1146101cf578063298ec2081461020e57806338a2efbe1461022a576100e8565b80630cc7b2a9146100ed5780630ded5c361461012a578063150b7a0214610155575b600080fd5b3480156100f957600080fd5b50610114600480360381019061010f9190611b17565b610418565b6040516101219190611b53565b60405180910390f35b34801561013657600080fd5b5061013f6104cd565b60405161014c9190611b53565b60405180910390f35b34801561016157600080fd5b5061017c60048036038101906101779190611c31565b6104d7565b6040516101899190611cf4565b60405180910390f35b34801561019e57600080fd5b506101b960048036038101906101b49190611e50565b6104ec565b6040516101c69190611b53565b60405180910390f35b3480156101db57600080fd5b506101f660048036038101906101f19190611b17565b610b5b565b60405161020593929190611f4d565b60405180910390f35b61022860048036038101906102239190611f84565b610c0f565b005b34801561023657600080fd5b50610251600480360381019061024c9190611fc4565b610ec3565b60405161025e9190611b53565b60405180910390f35b34801561027357600080fd5b5061027c610fca565b6040516102899190611b53565b60405180910390f35b34801561029e57600080fd5b506102b960048036038101906102b49190611b17565b610fd2565b6040516102c99493929190612004565b60405180910390f35b3480156102de57600080fd5b506102f960048036038101906102f49190611f84565b61109a565b6040516103069190612049565b60405180910390f35b34801561031b57600080fd5b5061033660048036038101906103319190611b17565b6110dc565b005b34801561034457600080fd5b5061035f600480360381019061035a9190611b17565b6114bd565b60405161036c9190612251565b60405180910390f35b34801561038157600080fd5b5061039c60048036038101906103979190611b17565b61174f565b6040516103a99190611b53565b60405180910390f35b3480156103be57600080fd5b506103d960048036038101906103d49190611b17565b61176e565b005b3480156103e757600080fd5b5061040260048036038101906103fd9190611f84565b6118dc565b60405161040f9190611b53565b60405180910390f35b60008060008084815260200190815260200160002090506000816000015403610476576040517f08c379a000000000000000000000000000000000000000000000000000000000815260040161046d906122d0565b60405180910390fd5b80600d0160019054906101000a900460ff16806104a1575080600d0160009054906101000a900460ff165b156104b05760009150506104c8565b80600c015481600301546104c4919061231f565b9150505b919050565b6000600254905090565b600063150b7a0260e01b905095945050505050565b60008073ffffffffffffffffffffffffffffffffffffffff168473ffffffffffffffffffffffffffffffffffffffff160361055c576040517f08c379a00000000000000000000000000000000000000000000000000000000081526004016105539061239f565b60405180910390fd5b42861161059e576040517f08c379a00000000000000000000000000000000000000000000000000000000081526004016105959061240b565b60405180910390fd5b60008490508073ffffffffffffffffffffffffffffffffffffffff16636352211e876040518263ffffffff1660e01b81526004016105dc9190611b53565b602060405180830381865afa1580156105f9573d6000803e3d6000fd5b505050506040513d601f19601f8201168201806040525081019061061d9190612440565b73ffffffffffffffffffffffffffffffffffffffff163373ffffffffffffffffffffffffffffffffffffffff161461068a576040517f08c379a0000000000000000000000000000000000000000000000000000000008152600401610681906124b9565b60405180910390fd5b8073ffffffffffffffffffffffffffffffffffffffff166342842e0e3330896040518463ffffffff1660e01b81526004016106c7939291906124d9565b600060405180830381600087803b1580156106e157600080fd5b505af11580156106f5573d6000803e3d6000fd5b505050506002600081548092919061070c90612510565b919050555060405180610280016040528060025481526020018b81526020018a81526020018981526020018881526020018781526020018673ffffffffffffffffffffffffffffffffffffffff1681526020018581526020018473ffffffffffffffffffffffffffffffffffffffff1681526020013373ffffffffffffffffffffffffffffffffffffffff1681526020016107c460646107b660968e61191290919063ffffffff16565b61192890919063ffffffff16565b8152602001600081526020016000815260200160001515815260200160001515815260200160008152602001600067ffffffffffffffff81111561080b5761080a611d25565b5b6040519080825280602002602001820160405280156108395781602001602082028036833780820191505090505b50815260200160008152602001600073ffffffffffffffffffffffffffffffffffffffff16815260200173e46cb9ca18520d3f0394f570c35259c188b33b9873ffffffffffffffffffffffffffffffffffffffff1681525060008060025481526020019081526020016000206000820151816000015560208201518160010190816108c49190612764565b5060408201518160020155606082015181600301556080820151816004015560a0820151816005015560c08201518160060160006101000a81548173ffffffffffffffffffffffffffffffffffffffff021916908373ffffffffffffffffffffffffffffffffffffffff16021790555060e08201518160070190816109499190612764565b506101008201518160080160006101000a81548173ffffffffffffffffffffffffffffffffffffffff021916908373ffffffffffffffffffffffffffffffffffffffff1602179055506101208201518160090160006101000a81548173ffffffffffffffffffffffffffffffffffffffff021916908373ffffffffffffffffffffffffffffffffffffffff16021790555061014082015181600a015561016082015181600b015561018082015181600c01556101a082015181600d0160006101000a81548160ff0219169083151502179055506101c082015181600d0160016101000a81548160ff0219169083151502179055506101e082015181600e015561020082015181600f019080519060200190610a659291906119ae565b5061022082015181601001556102408201518160110160006101000a81548173ffffffffffffffffffffffffffffffffffffffff021916908373ffffffffffffffffffffffffffffffffffffffff1602179055506102608201518160120160006101000a81548173ffffffffffffffffffffffffffffffffffffffff021916908373ffffffffffffffffffffffffffffffffffffffff160217905550905050610b2e886000806002548152602001908152602001600020600a015461192890919063ffffffff16565b6000806002548152602001908152602001600020600b018190555060025491505098975050505050505050565b600080600080600085815260200190815260200160002060090160009054906101000a900473ffffffffffffffffffffffffffffffffffffffff1660008086815260200190815260200160002060120160009054906101000a900473ffffffffffffffffffffffffffffffffffffffff1660008087815260200190815260200160002060080160009054906101000a900473ffffffffffffffffffffffffffffffffffffffff169250925092509193909250565b6000806000848152602001908152602001600020905080600d0160009054906101000a900460ff1615610c77576040517f08c379a0000000000000000000000000000000000000000000000000000000008152600401610c6e90612882565b60405180910390fd5b80600d0160019054906101000a900460ff1615610cc9576040517f08c379a0000000000000000000000000000000000000000000000000000000008152600401610cc0906128ee565b60405180910390fd5b60008211610d0c576040517f08c379a0000000000000000000000000000000000000000000000000000000008152600401610d039061295a565b60405180910390fd5b80600c01548160030154610d20919061231f565b821115610d62576040517f08c379a0000000000000000000000000000000000000000000000000000000008152600401610d59906129c6565b60405180910390fd5b600081600b015483610d7491906129e6565b905080341015610db9576040517f08c379a0000000000000000000000000000000000000000000000000000000008152600401610db090612a74565b60405180910390fd5b60005b83811015610e8657600081600185600c0154610dd89190612a94565b610de29190612a94565b905083600f018190806001815401808255809150506001900390600052602060002001600090919091909150553360016000888152602001908152602001600020600083815260200190815260200160002060006101000a81548173ffffffffffffffffffffffffffffffffffffffff021916908373ffffffffffffffffffffffffffffffffffffffff160217905550508080610e7e90612510565b915050610dbc565b508282600c016000828254610e9b9190612a94565b925050819055503482600e016000828254610eb69190612a94565b9250508190555050505050565b6000806000905060005b600080858152602001908152602001600020600f0180549050811015610fbf578473ffffffffffffffffffffffffffffffffffffffff16600160008681526020019081526020016000206000806000888152602001908152602001600020600f018481548110610f4057610f3f612ac8565b5b9060005260206000200154815260200190815260200160002060009054906101000a900473ffffffffffffffffffffffffffffffffffffffff1673ffffffffffffffffffffffffffffffffffffffff1603610fac57610fa960018361193e90919063ffffffff16565b91505b8080610fb790612510565b915050610ecd565b508091505092915050565b600047905090565b6000806000806000806000878152602001908152602001600020600a01549050600061101b606461100d60058561191290919063ffffffff16565b61192890919063ffffffff16565b6000808981526020019081526020016000206002015461103b9190612a94565b90506000611066606461105860058661191290919063ffffffff16565b61192890919063ffffffff16565b90506000818385611077919061231f565b611081919061231f565b9050838383839750975097509750505050509193509193565b60016020528160005260406000206020528060005260406000206000915091509054906101000a900473ffffffffffffffffffffffffffffffffffffffff1681565b600080828152602001908152602001600020600a0154471015611134576040517f08c379a000000000000000000000000000000000000000000000000000000000815260040161112b90612b43565b60405180910390fd5b600080600083815260200190815260200160002060110160009054906101000a900473ffffffffffffffffffffffffffffffffffffffff1690506000806000848152602001908152602001600020600a0154905060006111b160646111a360058561191290919063ffffffff16565b61192890919063ffffffff16565b600080868152602001908152602001600020600201546111d19190612a94565b905060006111fc60646111ee60058661191290919063ffffffff16565b61192890919063ffffffff16565b9050600081838561120d919061231f565b611217919061231f565b9050600073ffffffffffffffffffffffffffffffffffffffff168573ffffffffffffffffffffffffffffffffffffffff1603611288576040517f08c379a000000000000000000000000000000000000000000000000000000000815260040161127f90612baf565b60405180910390fd5b60008087815260200190815260200160002060090160009054906101000a900473ffffffffffffffffffffffffffffffffffffffff1673ffffffffffffffffffffffffffffffffffffffff166108fc849081150290604051600060405180830381858888f19350505050158015611303573d6000803e3d6000fd5b5060008087815260200190815260200160002060120160009054906101000a900473ffffffffffffffffffffffffffffffffffffffff1673ffffffffffffffffffffffffffffffffffffffff166108fc839081150290604051600060405180830381858888f1935050505015801561137f573d6000803e3d6000fd5b5060008087815260200190815260200160002060080160009054906101000a900473ffffffffffffffffffffffffffffffffffffffff1673ffffffffffffffffffffffffffffffffffffffff166108fc829081150290604051600060405180830381858888f193505050501580156113fb573d6000803e3d6000fd5b5060008087815260200190815260200160002060060160009054906101000a900473ffffffffffffffffffffffffffffffffffffffff1673ffffffffffffffffffffffffffffffffffffffff166342842e0e30876000808b8152602001908152602001600020600501546040518463ffffffff1660e01b8152600401611483939291906124d9565b600060405180830381600087803b15801561149d57600080fd5b505af11580156114b1573d6000803e3d6000fd5b50505050505050505050565b6114c56119fb565b600080600084815260200190815260200160002090506000604051806101c001604052808360010180546114f890612587565b80601f016020809104026020016040519081016040528092919081815260200182805461152490612587565b80156115715780601f1061154657610100808354040283529160200191611571565b820191906000526020600020905b81548152906001019060200180831161155457829003601f168201915b50505050508152602001836002015481526020018360030154815260200183600401548152602001836005015481526020018360060160009054906101000a900473ffffffffffffffffffffffffffffffffffffffff1673ffffffffffffffffffffffffffffffffffffffff1681526020018360070180546115f290612587565b80601f016020809104026020016040519081016040528092919081815260200182805461161e90612587565b801561166b5780601f106116405761010080835404028352916020019161166b565b820191906000526020600020905b81548152906001019060200180831161164e57829003601f168201915b505050505081526020018360080160009054906101000a900473ffffffffffffffffffffffffffffffffffffffff1673ffffffffffffffffffffffffffffffffffffffff1681526020018360090160009054906101000a900473ffffffffffffffffffffffffffffffffffffffff1673ffffffffffffffffffffffffffffffffffffffff16815260200183600a0154815260200183600b0154815260200183600c0154815260200183600d0160009054906101000a900460ff161515815260200183600d0160019054906101000a900460ff16151581525090508092505050919050565b6000806000838152602001908152602001600020600b01549050919050565b606460506000808481526020019081526020016000206003015461179291906129e6565b61179c9190612bfe565b600080838152602001908152602001600020600c015410156117f3576040517f08c379a00000000000000000000000000000000000000000000000000000000081526004016117ea90612c7b565b60405180910390fd5b60006117fe82611954565b9050600060016000848152602001908152602001600020600083815260200190815260200160002060009054906101000a900473ffffffffffffffffffffffffffffffffffffffff1690508060008085815260200190815260200160002060110160006101000a81548173ffffffffffffffffffffffffffffffffffffffff021916908373ffffffffffffffffffffffffffffffffffffffff160217905550827f37a30a31c187f323329351db43159a5b3c2dde95e0f21f061360aa03aa5415b783836040516118cf929190612c9b565b60405180910390a2505050565b6000806000808581526020019081526020016000209050600081600b01548461190591906129e6565b9050809250505092915050565b6000818361192091906129e6565b905092915050565b600081836119369190612bfe565b905092915050565b6000818361194c9190612a94565b905092915050565b600080600080848152602001908152602001600020600c01544244604051602001611980929190612ce5565b6040516020818303038152906040528051906020012060001c6119a39190612d11565b905080915050919050565b8280548282559060005260206000209081019282156119ea579160200282015b828111156119e95782518255916020019190600101906119ce565b5b5090506119f79190611ab0565b5090565b604051806101c001604052806060815260200160008152602001600081526020016000815260200160008152602001600073ffffffffffffffffffffffffffffffffffffffff16815260200160608152602001600073ffffffffffffffffffffffffffffffffffffffff168152602001600073ffffffffffffffffffffffffffffffffffffffff1681526020016000815260200160008152602001600081526020016000151581526020016000151581525090565b5b80821115611ac9576000816000905550600101611ab1565b5090565b6000604051905090565b600080fd5b600080fd5b6000819050919050565b611af481611ae1565b8114611aff57600080fd5b50565b600081359050611b1181611aeb565b92915050565b600060208284031215611b2d57611b2c611ad7565b5b6000611b3b84828501611b02565b91505092915050565b611b4d81611ae1565b82525050565b6000602082019050611b686000830184611b44565b92915050565b600073ffffffffffffffffffffffffffffffffffffffff82169050919050565b6000611b9982611b6e565b9050919050565b611ba981611b8e565b8114611bb457600080fd5b50565b600081359050611bc681611ba0565b92915050565b600080fd5b600080fd5b600080fd5b60008083601f840112611bf157611bf0611bcc565b5b8235905067ffffffffffffffff811115611c0e57611c0d611bd1565b5b602083019150836001820283011115611c2a57611c29611bd6565b5b9250929050565b600080600080600060808688031215611c4d57611c4c611ad7565b5b6000611c5b88828901611bb7565b9550506020611c6c88828901611bb7565b9450506040611c7d88828901611b02565b935050606086013567ffffffffffffffff811115611c9e57611c9d611adc565b5b611caa88828901611bdb565b92509250509295509295909350565b60007fffffffff0000000000000000000000000000000000000000000000000000000082169050919050565b611cee81611cb9565b82525050565b6000602082019050611d096000830184611ce5565b92915050565b600080fd5b6000601f19601f8301169050919050565b7f4e487b7100000000000000000000000000000000000000000000000000000000600052604160045260246000fd5b611d5d82611d14565b810181811067ffffffffffffffff82111715611d7c57611d7b611d25565b5b80604052505050565b6000611d8f611acd565b9050611d9b8282611d54565b919050565b600067ffffffffffffffff821115611dbb57611dba611d25565b5b611dc482611d14565b9050602081019050919050565b82818337600083830152505050565b6000611df3611dee84611da0565b611d85565b905082815260208101848484011115611e0f57611e0e611d0f565b5b611e1a848285611dd1565b509392505050565b600082601f830112611e3757611e36611bcc565b5b8135611e47848260208601611de0565b91505092915050565b600080600080600080600080610100898b031215611e7157611e70611ad7565b5b600089013567ffffffffffffffff811115611e8f57611e8e611adc565b5b611e9b8b828c01611e22565b9850506020611eac8b828c01611b02565b9750506040611ebd8b828c01611b02565b9650506060611ece8b828c01611b02565b9550506080611edf8b828c01611b02565b94505060a0611ef08b828c01611bb7565b93505060c089013567ffffffffffffffff811115611f1157611f10611adc565b5b611f1d8b828c01611e22565b92505060e0611f2e8b828c01611bb7565b9150509295985092959890939650565b611f4781611b8e565b82525050565b6000606082019050611f626000830186611f3e565b611f6f6020830185611f3e565b611f7c6040830184611f3e565b949350505050565b60008060408385031215611f9b57611f9a611ad7565b5b6000611fa985828601611b02565b9250506020611fba85828601611b02565b9150509250929050565b60008060408385031215611fdb57611fda611ad7565b5b6000611fe985828601611bb7565b9250506020611ffa85828601611b02565b9150509250929050565b60006080820190506120196000830187611b44565b6120266020830186611b44565b6120336040830185611b44565b6120406060830184611b44565b95945050505050565b600060208201905061205e6000830184611f3e565b92915050565b600081519050919050565b600082825260208201905092915050565b60005b8381101561209e578082015181840152602081019050612083565b60008484015250505050565b60006120b582612064565b6120bf818561206f565b93506120cf818560208601612080565b6120d881611d14565b840191505092915050565b6120ec81611ae1565b82525050565b6120fb81611b8e565b82525050565b60008115159050919050565b61211681612101565b82525050565b60006101c083016000830151848203600086015261213a82826120aa565b915050602083015161214f60208601826120e3565b50604083015161216260408601826120e3565b50606083015161217560608601826120e3565b50608083015161218860808601826120e3565b5060a083015161219b60a08601826120f2565b5060c083015184820360c08601526121b382826120aa565b91505060e08301516121c860e08601826120f2565b506101008301516121dd6101008601826120f2565b506101208301516121f26101208601826120e3565b506101408301516122076101408601826120e3565b5061016083015161221c6101608601826120e3565b5061018083015161223161018086018261210d565b506101a08301516122466101a086018261210d565b508091505092915050565b6000602082019050818103600083015261226b818461211c565b905092915050565b600082825260208201905092915050565b7f526166666c65206e6f7420666f756e6400000000000000000000000000000000600082015250565b60006122ba601083612273565b91506122c582612284565b602082019050919050565b600060208201905081810360008301526122e9816122ad565b9050919050565b7f4e487b7100000000000000000000000000000000000000000000000000000000600052601160045260246000fd5b600061232a82611ae1565b915061233583611ae1565b925082820390508181111561234d5761234c6122f0565b5b92915050565b7f496e76616c6964204e465420636f6e7472616374206164647265737300000000600082015250565b6000612389601c83612273565b915061239482612353565b602082019050919050565b600060208201905081810360008301526123b88161237c565b9050919050565b7f456e642074696d65206d75737420626520696e20667574757265000000000000600082015250565b60006123f5601a83612273565b9150612400826123bf565b602082019050919050565b60006020820190508181036000830152612424816123e8565b9050919050565b60008151905061243a81611ba0565b92915050565b60006020828403121561245657612455611ad7565b5b60006124648482850161242b565b91505092915050565b7f4f6e6c79204e4654206f776e65722063616e2063726561746520726166666c65600082015250565b60006124a3602083612273565b91506124ae8261246d565b602082019050919050565b600060208201905081810360008301526124d281612496565b9050919050565b60006060820190506124ee6000830186611f3e565b6124fb6020830185611f3e565b6125086040830184611b44565b949350505050565b600061251b82611ae1565b91507fffffffffffffffffffffffffffffffffffffffffffffffffffffffffffffffff820361254d5761254c6122f0565b5b600182019050919050565b7f4e487b7100000000000000000000000000000000000000000000000000000000600052602260045260246000fd5b6000600282049050600182168061259f57607f821691505b6020821081036125b2576125b1612558565b5b50919050565b60008190508160005260206000209050919050565b60006020601f8301049050919050565b600082821b905092915050565b60006008830261261a7fffffffffffffffffffffffffffffffffffffffffffffffffffffffffffffffff826125dd565b61262486836125dd565b95508019841693508086168417925050509392505050565b6000819050919050565b600061266161265c61265784611ae1565b61263c565b611ae1565b9050919050565b6000819050919050565b61267b83612646565b61268f61268782612668565b8484546125ea565b825550505050565b600090565b6126a4612697565b6126af818484612672565b505050565b5b818110156126d3576126c860008261269c565b6001810190506126b5565b5050565b601f821115612718576126e9816125b8565b6126f2846125cd565b81016020851015612701578190505b61271561270d856125cd565b8301826126b4565b50505b505050565b600082821c905092915050565b600061273b6000198460080261271d565b1980831691505092915050565b6000612754838361272a565b9150826002028217905092915050565b61276d82612064565b67ffffffffffffffff81111561278657612785611d25565b5b6127908254612587565b61279b8282856126d7565b600060209050601f8311600181146127ce57600084156127bc578287015190505b6127c68582612748565b86555061282e565b601f1984166127dc866125b8565b60005b82811015612804578489015182556001820191506020850194506020810190506127df565b86831015612821578489015161281d601f89168261272a565b8355505b6001600288020188555050505b505050505050565b7f526166666c652069732063616e63656c6c656400000000000000000000000000600082015250565b600061286c601383612273565b915061287782612836565b602082019050919050565b6000602082019050818103600083015261289b8161285f565b9050919050565b7f526166666c6520697320656e6465640000000000000000000000000000000000600082015250565b60006128d8600f83612273565b91506128e3826128a2565b602082019050919050565b60006020820190508181036000830152612907816128cb565b9050919050565b7f496e76616c6964206e756d626572206f66207469636b65747300000000000000600082015250565b6000612944601983612273565b915061294f8261290e565b602082019050919050565b6000602082019050818103600083015261297381612937565b9050919050565b7f4e6f7420656e6f756768207469636b65747320617661696c61626c6500000000600082015250565b60006129b0601c83612273565b91506129bb8261297a565b602082019050919050565b600060208201905081810360008301526129df816129a3565b9050919050565b60006129f182611ae1565b91506129fc83611ae1565b9250828202612a0a81611ae1565b91508282048414831517612a2157612a206122f0565b5b5092915050565b7f496e636f7272656374207061796d656e7420616d6f756e740000000000000000600082015250565b6000612a5e601883612273565b9150612a6982612a28565b602082019050919050565b60006020820190508181036000830152612a8d81612a51565b9050919050565b6000612a9f82611ae1565b9150612aaa83611ae1565b9250828201905080821115612ac257612ac16122f0565b5b92915050565b7f4e487b7100000000000000000000000000000000000000000000000000000000600052603260045260246000fd5b7f496e73756666696369656e7420636f6e74726163742062616c616e6365000000600082015250565b6000612b2d601d83612273565b9150612b3882612af7565b602082019050919050565b60006020820190508181036000830152612b5c81612b20565b9050919050565b7f57696e6e657220686173206e6f74206265656e2073656c656374656420796574600082015250565b6000612b99602083612273565b9150612ba482612b63565b602082019050919050565b60006020820190508181036000830152612bc881612b8c565b9050919050565b7f4e487b7100000000000000000000000000000000000000000000000000000000600052601260045260246000fd5b6000612c0982611ae1565b9150612c1483611ae1565b925082612c2457612c23612bcf565b5b828204905092915050565b7f526166666c652063616e277420626520636f6d706c6574656420796574000000600082015250565b6000612c65601d83612273565b9150612c7082612c2f565b602082019050919050565b60006020820190508181036000830152612c9481612c58565b9050919050565b6000604082019050612cb06000830185611b44565b612cbd6020830184611f3e565b9392505050565b6000819050919050565b612cdf612cda82611ae1565b612cc4565b82525050565b6000612cf18285612cce565b602082019150612d018284612cce565b6020820191508190509392505050565b6000612d1c82611ae1565b9150612d2783611ae1565b925082612d3757612d36612bcf565b5b82820690509291505056fea26469706673582212202f7a308abdbd42d5e37c38186dfd6b9e4dd70e9b03041cf59ade2d036864894364736f6c63430008130033",
  "immutableReferences": {},
  "source": "// SPDX-License-Identifier: MIT\r\npragma solidity ^0.8.0;\r\n\r\nimport \"@openzeppelin/contracts/token/ERC721/IERC721.sol\";\r\nimport \"@openzeppelin/contracts/utils/math/SafeMath.sol\";\r\nimport \"@openzeppelin/contracts/token/ERC721/IERC721Receiver.sol\";\r\n\r\ncontract mainNftRaffle is IERC721Receiver {\r\n    using SafeMath for uint256;\r\n\r\n    struct Raffle {\r\n        uint raffleId;\r\n        string raffleName;\r\n        uint256 nftPrice;\r\n        uint256 totalVolumeofTickets;\r\n        uint256 endTime;\r\n        uint256 nftId;\r\n        address nftContractAddress;\r\n        string nftSourceLink;\r\n        address charityAddress;\r\n        address raffleCreator;\r\n        uint256 rafflePool;\r\n        uint256 ticketPrice;\r\n        uint256 totalSoldTickets;\r\n        bool raffleCancelled;\r\n        bool raffleEnded;\r\n        uint256 fundsInContract;\r\n        uint256[] tickets;\r\n        uint winningTicket;\r\n        address raffleWinner;\r\n        address payable developmentTeam;\r\n    }\r\n\r\n    struct RaffleInfo {\r\n        string raffleName;\r\n        uint256 nftPrice;\r\n        uint256 totalVolumeofTickets;\r\n        uint256 endTime;\r\n        uint256 nftId;\r\n        address nftContractAddress;\r\n        string nftSourceLink;\r\n        address charityAddress;\r\n        address raffleCreator;\r\n        uint256 rafflePool;\r\n        uint256 ticketPrice;\r\n        uint256 totalSoldTickets;\r\n        bool raffleCancelled;\r\n        bool raffleEnded;\r\n    }\r\n\r\n    mapping(uint256 => Raffle) private raffles;\r\n    mapping(uint256 => mapping(uint256 => address)) public ticketToOwner;\r\n    uint256 private raffleCount = 0;\r\n\r\n    event WinnerSelected(\r\n        uint256 indexed raffleId,\r\n        uint256 winningTicketNumber,\r\n        address winningTicketOwner\r\n    );\r\n\r\n    function createRaffle(\r\n        string memory _raffleName,\r\n        uint256 _nftPrice,\r\n        uint256 _totalVolumeofTickets,\r\n        uint256 _endTime,\r\n        uint256 _nftId,\r\n        address _nftContractAddress,\r\n        string memory _nftSourceLink,\r\n        address _charityAddress\r\n    ) public returns (uint256) {\r\n        require(\r\n            _nftContractAddress != address(0),\r\n            \"Invalid NFT contract address\"\r\n        );\r\n        require(_endTime > block.timestamp, \"End time must be in future\");\r\n        IERC721 nftContract = IERC721(_nftContractAddress);\r\n        require(\r\n            msg.sender == nftContract.ownerOf(_nftId),\r\n            \"Only NFT owner can create raffle\"\r\n        );\r\n\r\n        nftContract.safeTransferFrom(msg.sender, address(this), _nftId);\r\n        raffleCount++;\r\n\r\n        raffles[raffleCount] = Raffle({\r\n            raffleId: raffleCount,\r\n            raffleName: _raffleName,\r\n            nftPrice: _nftPrice,\r\n            totalVolumeofTickets: _totalVolumeofTickets,\r\n            endTime: _endTime,\r\n            nftId: _nftId,\r\n            nftContractAddress: _nftContractAddress,\r\n            nftSourceLink: _nftSourceLink,\r\n            raffleCreator: msg.sender,\r\n            rafflePool: (_nftPrice.mul(150)).div(100),\r\n            ticketPrice: 0,\r\n            charityAddress: _charityAddress,\r\n            totalSoldTickets: 0,\r\n            raffleCancelled: false,\r\n            raffleEnded: false,\r\n            fundsInContract: 0,\r\n            tickets: new uint256[](0),\r\n            winningTicket: 0,\r\n            raffleWinner: address(0),\r\n            developmentTeam: payable(\r\n                address(0xE46Cb9CA18520D3F0394F570C35259c188B33B98)\r\n            )\r\n        });\r\n\r\n        raffles[raffleCount].ticketPrice = raffles[raffleCount].rafflePool.div(\r\n            _totalVolumeofTickets\r\n        );\r\n\r\n        return raffleCount;\r\n    }\r\n\r\n    function getTicketPrice(uint256 _raffleId) public view returns (uint256) {\r\n        return raffles[_raffleId].ticketPrice;\r\n    }\r\n\r\n    function getTicketsOwned(\r\n        address _address,\r\n        uint256 raffleId\r\n    ) public view returns (uint256) {\r\n        uint256 totalTicketsOwned = 0;\r\n        for (uint256 i = 0; i < raffles[raffleId].tickets.length; i++) {\r\n            if (\r\n                ticketToOwner[raffleId][raffles[raffleId].tickets[i]] ==\r\n                _address\r\n            ) {\r\n                totalTicketsOwned = totalTicketsOwned.add(1);\r\n            }\r\n        }\r\n        return totalTicketsOwned;\r\n    }\r\n\r\n    function getAvailableTickets(\r\n        uint256 _raffleID\r\n    ) public view returns (uint256) {\r\n        Raffle storage raffle = raffles[_raffleID];\r\n        require(raffle.raffleId != 0, \"Raffle not found\");\r\n\r\n        if (raffle.raffleEnded || raffle.raffleCancelled) {\r\n            return 0;\r\n        } else {\r\n            return raffle.totalVolumeofTickets - raffle.totalSoldTickets;\r\n        }\r\n    }\r\n\r\n    function buyTicket(\r\n        uint256 _raffleId,\r\n        uint256 _totalTicketsWanted\r\n    ) public payable {\r\n        Raffle storage raffle = raffles[_raffleId];\r\n\r\n        require(!raffle.raffleCancelled, \"Raffle is cancelled\");\r\n        require(!raffle.raffleEnded, \"Raffle is ended\");\r\n        require(_totalTicketsWanted > 0, \"Invalid number of tickets\");\r\n        require(\r\n            _totalTicketsWanted <=\r\n                raffle.totalVolumeofTickets - raffle.totalSoldTickets,\r\n            \"Not enough tickets available\"\r\n        );\r\n        uint256 totalTicketPrice = _totalTicketsWanted * raffle.ticketPrice;\r\n        require(msg.value >= totalTicketPrice, \"Incorrect payment amount\");\r\n\r\n        // Update ticket ownership\r\n        for (uint256 i = 0; i < _totalTicketsWanted; i++) {\r\n            uint256 ticket = raffle.totalSoldTickets + 1 + i;\r\n            raffle.tickets.push(ticket);\r\n            ticketToOwner[_raffleId][ticket] = msg.sender;\r\n        }\r\n\r\n        // Update raffle info\r\n        raffle.totalSoldTickets += _totalTicketsWanted;\r\n        raffle.fundsInContract += msg.value;\r\n    }\r\n\r\n    function getTotalTicketPrice(\r\n        uint _raffleId,\r\n        uint256 _totalTicketsWanted\r\n    ) public view returns (uint256) {\r\n        Raffle storage raffle = raffles[_raffleId];\r\n\r\n        uint256 totalTicketPrice = _totalTicketsWanted * raffle.ticketPrice;\r\n        return totalTicketPrice;\r\n    }\r\n\r\n    // This function picks a random ticket from totalSoldTickets for a raffleId.\r\n    function pickRandomTicket(uint256 raffleId) private view returns (uint256) {\r\n        uint256 randomNumber = uint256(\r\n            keccak256(abi.encodePacked(block.timestamp, block.difficulty))\r\n        ) % raffles[raffleId].totalSoldTickets;\r\n        return randomNumber;\r\n    }\r\n\r\n    function pickWinner(uint256 raffleId) public {\r\n        require(\r\n            raffles[raffleId].totalSoldTickets >=\r\n                (raffles[raffleId].totalVolumeofTickets * 80) / 100,\r\n            \"Raffle can't be completed yet\"\r\n        );\r\n\r\n        // Pick a random ticket as the winning ticket.\r\n        uint256 winningTicketNumber = pickRandomTicket(raffleId);\r\n        address winningTicketOwner = ticketToOwner[raffleId][\r\n            winningTicketNumber\r\n        ];\r\n        raffles[raffleId].raffleWinner = winningTicketOwner;\r\n\r\n        // Emit an event to indicate that a winner has been selected.\r\n        emit WinnerSelected(raffleId, winningTicketNumber, winningTicketOwner);\r\n    }\r\n\r\n    function getPrizePool(\r\n        uint256 _raffleId\r\n    ) public view returns (uint256, uint256, uint256, uint256) {\r\n        uint256 rafflePrizePool = raffles[_raffleId].rafflePool;\r\n        uint256 raffleCreatorPrize = raffles[_raffleId].nftPrice +\r\n            (rafflePrizePool.mul(5)).div(100);\r\n        uint256 developmentTeamPrize = (rafflePrizePool.mul(5)).div(100);\r\n        uint256 charityPrize = rafflePrizePool -\r\n            raffleCreatorPrize -\r\n            developmentTeamPrize;\r\n\r\n        return (\r\n            rafflePrizePool,\r\n            raffleCreatorPrize,\r\n            developmentTeamPrize,\r\n            charityPrize\r\n        );\r\n    }\r\n\r\n    function sendPrizePool(uint256 _raffleId) public {\r\n        require(\r\n            address(this).balance >= raffles[_raffleId].rafflePool,\r\n            \"Insufficient contract balance\"\r\n        );\r\n\r\n        // Retrieve the winner information from the raffle struct\r\n        address winningTicketOwner = raffles[_raffleId].raffleWinner;\r\n\r\n        uint256 rafflePrizePool = raffles[_raffleId].rafflePool;\r\n        uint256 raffleCreatorPrize = raffles[_raffleId].nftPrice +\r\n            (rafflePrizePool.mul(5)).div(100);\r\n        uint256 developmentTeamPrize = (rafflePrizePool.mul(5)).div(100);\r\n        uint256 charityPrize = rafflePrizePool -\r\n            raffleCreatorPrize -\r\n            developmentTeamPrize;\r\n\r\n        require(\r\n            winningTicketOwner != address(0),\r\n            \"Winner has not been selected yet\"\r\n        );\r\n\r\n        // Transfer the prize amounts to each entity.\r\n        payable(raffles[_raffleId].raffleCreator).transfer(raffleCreatorPrize);\r\n\r\n        payable(raffles[_raffleId].developmentTeam).transfer(\r\n            developmentTeamPrize\r\n        );\r\n        payable(raffles[_raffleId].charityAddress).transfer(charityPrize);\r\n\r\n        // Call safeTransferFrom function on ERC721 token contract to transfer the NFT to the winner.\r\n        IERC721(raffles[_raffleId].nftContractAddress).safeTransferFrom(\r\n            address(this),\r\n            winningTicketOwner,\r\n            raffles[_raffleId].nftId\r\n        );\r\n    }\r\n\r\n    function raffleInfo(\r\n        uint256 _raffleID\r\n    ) public view returns (RaffleInfo memory) {\r\n        Raffle storage raffle = raffles[_raffleID];\r\n\r\n        RaffleInfo memory raffleInfo = RaffleInfo({\r\n            raffleName: raffle.raffleName,\r\n            nftPrice: raffle.nftPrice,\r\n            totalVolumeofTickets: raffle.totalVolumeofTickets,\r\n            endTime: raffle.endTime,\r\n            nftId: raffle.nftId,\r\n            nftContractAddress: raffle.nftContractAddress,\r\n            nftSourceLink: raffle.nftSourceLink,\r\n            charityAddress: raffle.charityAddress,\r\n            raffleCreator: raffle.raffleCreator,\r\n            rafflePool: raffle.rafflePool,\r\n            ticketPrice: raffle.ticketPrice,\r\n            totalSoldTickets: raffle.totalSoldTickets,\r\n            raffleCancelled: raffle.raffleCancelled,\r\n            raffleEnded: raffle.raffleEnded\r\n        });\r\n\r\n        return raffleInfo;\r\n    }\r\n\r\n    function onERC721Received(\r\n        address operator,\r\n        address from,\r\n        uint256 tokenId,\r\n        bytes calldata data\r\n    ) external returns (bytes4) {\r\n        return this.onERC721Received.selector;\r\n    }\r\n\r\n    function getTotalRaffles() public view returns (uint256) {\r\n        return raffleCount;\r\n    }\r\n\r\n    function getEntityAddresses(\r\n        uint256 _raffleId\r\n    ) public view returns (address, address, address) {\r\n        return (\r\n            raffles[_raffleId].raffleCreator,\r\n            raffles[_raffleId].developmentTeam,\r\n            raffles[_raffleId].charityAddress\r\n        );\r\n    }\r\n\r\n    function getContractBalance() public view returns (uint256) {\r\n        return address(this).balance;\r\n    }\r\n}\r\n",
  "sourcePath": "C:\\Users\\user\\Desktop\\GIT_REPOS\\nft-raffle-dapp\\backend\\contracts\\mainNftRaffle.sol",
  "compiler": {
    "name": "solc",
    "version": "0.8.19+commit.7dd6d404.Emscripten.clang"
  },
  "schemaVersion": "3.4.13",
  "updatedAt": "2023-06-01T11:43:09.572Z",
  "networkType": "ethereum",
  "devdoc": {
    "kind": "dev",
    "methods": {
      "onERC721Received(address,address,uint256,bytes)": {
        "details": "Whenever an {IERC721} `tokenId` token is transferred to this contract via {IERC721-safeTransferFrom} by `operator` from `from`, this function is called. It must return its Solidity selector to confirm the token transfer. If any other value is returned or the interface is not implemented by the recipient, the transfer will be reverted. The selector can be obtained in Solidity with `IERC721Receiver.onERC721Received.selector`."
      }
    },
    "version": 1
  },
  "userdoc": {
    "kind": "user",
    "methods": {},
    "version": 1
  }
}