{
  "contractName": "nftRafflerOriginx1",
  "abi": [
    {
      "inputs": [
        {
          "internalType": "string",
          "name": "_raffleName",
          "type": "string"
        },
        {
          "internalType": "uint256",
          "name": "_nftPrice",
          "type": "uint256"
        },
        {
          "internalType": "uint256",
          "name": "_totalVolumeofTickets",
          "type": "uint256"
        },
        {
          "internalType": "uint256",
          "name": "_endTime",
          "type": "uint256"
        },
        {
          "internalType": "uint256",
          "name": "_nftId",
          "type": "uint256"
        },
        {
          "internalType": "address",
          "name": "_nftContractAddress",
          "type": "address"
        },
        {
          "internalType": "string",
          "name": "_nftSourceLink",
          "type": "string"
        },
        {
          "internalType": "address",
          "name": "_charityAddres",
          "type": "address"
        }
      ],
      "name": "createRaffle",
      "outputs": [
        {
          "internalType": "uint256",
          "name": "",
          "type": "uint256"
        }
      ],
      "stateMutability": "nonpayable",
      "type": "function"
    },
    {
      "inputs": [
        {
          "internalType": "uint256",
          "name": "_raffleID",
          "type": "uint256"
        }
      ],
      "name": "getAvailableTickets",
      "outputs": [
        {
          "internalType": "uint256",
          "name": "",
          "type": "uint256"
        }
      ],
      "stateMutability": "view",
      "type": "function"
    },
    {
      "inputs": [
        {
          "internalType": "uint256",
          "name": "_raffleID",
          "type": "uint256"
        },
        {
          "internalType": "uint256",
          "name": "_totalTicketsWanted",
          "type": "uint256"
        }
      ],
      "name": "buyTicket",
      "outputs": [],
      "stateMutability": "payable",
      "type": "function"
    },
    {
      "inputs": [
        {
          "internalType": "uint256",
          "name": "_raffleID",
          "type": "uint256"
        }
      ],
      "name": "raffleInfo",
      "outputs": [
        {
          "components": [
            {
              "internalType": "string",
              "name": "raffleName",
              "type": "string"
            },
            {
              "internalType": "uint256",
              "name": "nftPrice",
              "type": "uint256"
            },
            {
              "internalType": "uint256",
              "name": "totalVolumeofTickets",
              "type": "uint256"
            },
            {
              "internalType": "uint256",
              "name": "endTime",
              "type": "uint256"
            },
            {
              "internalType": "uint256",
              "name": "nftId",
              "type": "uint256"
            },
            {
              "internalType": "address",
              "name": "nftContractAddress",
              "type": "address"
            },
            {
              "internalType": "string",
              "name": "nftSourceLink",
              "type": "string"
            },
            {
              "internalType": "address",
              "name": "charityAddress",
              "type": "address"
            },
            {
              "internalType": "address",
              "name": "raffleCreator",
              "type": "address"
            },
            {
              "internalType": "uint256",
              "name": "rafflePool",
              "type": "uint256"
            },
            {
              "internalType": "uint256",
              "name": "ticketPrice",
              "type": "uint256"
            },
            {
              "internalType": "uint256",
              "name": "totalSoldTickets",
              "type": "uint256"
            },
            {
              "internalType": "bool",
              "name": "raffleCancelled",
              "type": "bool"
            },
            {
              "internalType": "bool",
              "name": "raffleEnded",
              "type": "bool"
            }
          ],
          "internalType": "struct nftRafflerOriginx1.RaffleInfo",
          "name": "",
          "type": "tuple"
        }
      ],
      "stateMutability": "view",
      "type": "function"
    },
    {
      "inputs": [
        {
          "internalType": "address",
          "name": "operator",
          "type": "address"
        },
        {
          "internalType": "address",
          "name": "from",
          "type": "address"
        },
        {
          "internalType": "uint256",
          "name": "tokenId",
          "type": "uint256"
        },
        {
          "internalType": "bytes",
          "name": "data",
          "type": "bytes"
        }
      ],
      "name": "onERC721Received",
      "outputs": [
        {
          "internalType": "bytes4",
          "name": "",
          "type": "bytes4"
        }
      ],
      "stateMutability": "nonpayable",
      "type": "function"
    }
  ],
  "bytecode": "0x60806040526000600255600060035534801561001a57600080fd5b50611da58061002a6000396000f3fe60806040526004361061004a5760003560e01c80630cc7b2a91461004f578063150b7a021461008c5780631e8c48e4146100c9578063298ec20814610106578063bf30d79014610122575b600080fd5b34801561005b57600080fd5b5061007660048036038101906100719190610ea1565b61015f565b6040516100839190610edd565b60405180910390f35b34801561009857600080fd5b506100b360048036038101906100ae9190610fbb565b610214565b6040516100c0919061107e565b60405180910390f35b3480156100d557600080fd5b506100f060048036038101906100eb91906111da565b610229565b6040516100fd9190610edd565b60405180910390f35b610120600480360381019061011b91906112c8565b6107a9565b005b34801561012e57600080fd5b5061014960048036038101906101449190610ea1565b610a64565b60405161015691906114f5565b60405180910390f35b600080600080848152602001908152602001600020905060008160000154036101bd576040517f08c379a00000000000000000000000000000000000000000000000000000000081526004016101b490611574565b60405180910390fd5b80600d0160019054906101000a900460ff16806101e8575080600d0160009054906101000a900460ff165b156101f757600091505061020f565b80600c0154816003015461020b91906115c3565b9150505b919050565b600063150b7a0260e01b905095945050505050565b60008073ffffffffffffffffffffffffffffffffffffffff168473ffffffffffffffffffffffffffffffffffffffff1603610299576040517f08c379a000000000000000000000000000000000000000000000000000000000815260040161029090611643565b60405180910390fd5b4286116102db576040517f08c379a00000000000000000000000000000000000000000000000000000000081526004016102d2906116af565b60405180910390fd5b60008490508073ffffffffffffffffffffffffffffffffffffffff16636352211e876040518263ffffffff1660e01b81526004016103199190610edd565b602060405180830381865afa158015610336573d6000803e3d6000fd5b505050506040513d601f19601f8201168201806040525081019061035a91906116e4565b73ffffffffffffffffffffffffffffffffffffffff163373ffffffffffffffffffffffffffffffffffffffff16146103c7576040517f08c379a00000000000000000000000000000000000000000000000000000000081526004016103be9061175d565b60405180910390fd5b8073ffffffffffffffffffffffffffffffffffffffff166342842e0e3330896040518463ffffffff1660e01b81526004016104049392919061178c565b600060405180830381600087803b15801561041e57600080fd5b505af1158015610432573d6000803e3d6000fd5b5050505060036000815480929190610449906117c3565b919050555060405180610220016040528060035481526020018b81526020018a81526020018981526020018881526020018781526020018673ffffffffffffffffffffffffffffffffffffffff1681526020018581526020018473ffffffffffffffffffffffffffffffffffffffff1681526020013373ffffffffffffffffffffffffffffffffffffffff16815260200161050160646104f360968e610cf690919063ffffffff16565b610d0c90919063ffffffff16565b8152602001600081526020016000815260200160001515815260200160001515815260200160008152602001600067ffffffffffffffff811115610548576105476110af565b5b6040519080825280602002602001820160405280156105765781602001602082028036833780820191505090505b5081525060008060035481526020019081526020016000206000820151816000015560208201518160010190816105ad9190611a17565b5060408201518160020155606082015181600301556080820151816004015560a0820151816005015560c08201518160060160006101000a81548173ffffffffffffffffffffffffffffffffffffffff021916908373ffffffffffffffffffffffffffffffffffffffff16021790555060e08201518160070190816106329190611a17565b506101008201518160080160006101000a81548173ffffffffffffffffffffffffffffffffffffffff021916908373ffffffffffffffffffffffffffffffffffffffff1602179055506101208201518160090160006101000a81548173ffffffffffffffffffffffffffffffffffffffff021916908373ffffffffffffffffffffffffffffffffffffffff16021790555061014082015181600a015561016082015181600b015561018082015181600c01556101a082015181600d0160006101000a81548160ff0219169083151502179055506101c082015181600d0160016101000a81548160ff0219169083151502179055506101e082015181600e015561020082015181600f01908051906020019061074e929190610d38565b5090505061077c886000806003548152602001908152602001600020600a0154610d0c90919063ffffffff16565b6000806003548152602001908152602001600020600b018190555060035491505098975050505050505050565b600080600084815260200190815260200160002090506000816000015403610806576040517f08c379a00000000000000000000000000000000000000000000000000000000081526004016107fd90611574565b60405180910390fd5b80600d0160009054906101000a900460ff1615610858576040517f08c379a000000000000000000000000000000000000000000000000000000000815260040161084f90611b35565b60405180910390fd5b80600d0160019054906101000a900460ff16156108aa576040517f08c379a00000000000000000000000000000000000000000000000000000000081526004016108a190611ba1565b60405180910390fd5b80600301546108c68383600c0154610d2290919063ffffffff16565b1115610907576040517f08c379a00000000000000000000000000000000000000000000000000000000081526004016108fe90611c0d565b60405180910390fd5b60006109208383600b0154610cf690919063ffffffff16565b905080341015610965576040517f08c379a000000000000000000000000000000000000000000000000000000000815260040161095c90611c79565b60405180910390fd5b60005b83811015610a1f576000600184600f01805490506109869190611c99565b905083600f01819080600181540180825580915050600190039060005260206000200160009091909190915055806001600088815260200190815260200160002060000160003373ffffffffffffffffffffffffffffffffffffffff1673ffffffffffffffffffffffffffffffffffffffff16815260200190815260200160002081905550508080610a17906117c3565b915050610968565b50610a378383600c0154610d2290919063ffffffff16565b82600c0181905550610a563483600e0154610d2290919063ffffffff16565b82600e018190555050505050565b610a6c610d85565b600080600084815260200190815260200160002090506000604051806101c00160405280836001018054610a9f9061183a565b80601f0160208091040260200160405190810160405280929190818152602001828054610acb9061183a565b8015610b185780601f10610aed57610100808354040283529160200191610b18565b820191906000526020600020905b815481529060010190602001808311610afb57829003601f168201915b50505050508152602001836002015481526020018360030154815260200183600401548152602001836005015481526020018360060160009054906101000a900473ffffffffffffffffffffffffffffffffffffffff1673ffffffffffffffffffffffffffffffffffffffff168152602001836007018054610b999061183a565b80601f0160208091040260200160405190810160405280929190818152602001828054610bc59061183a565b8015610c125780601f10610be757610100808354040283529160200191610c12565b820191906000526020600020905b815481529060010190602001808311610bf557829003601f168201915b505050505081526020018360080160009054906101000a900473ffffffffffffffffffffffffffffffffffffffff1673ffffffffffffffffffffffffffffffffffffffff1681526020018360090160009054906101000a900473ffffffffffffffffffffffffffffffffffffffff1673ffffffffffffffffffffffffffffffffffffffff16815260200183600a0154815260200183600b0154815260200183600c0154815260200183600d0160009054906101000a900460ff161515815260200183600d0160019054906101000a900460ff16151581525090508092505050919050565b60008183610d049190611ccd565b905092915050565b60008183610d1a9190611d3e565b905092915050565b60008183610d309190611c99565b905092915050565b828054828255906000526020600020908101928215610d74579160200282015b82811115610d73578251825591602001919060010190610d58565b5b509050610d819190610e3a565b5090565b604051806101c001604052806060815260200160008152602001600081526020016000815260200160008152602001600073ffffffffffffffffffffffffffffffffffffffff16815260200160608152602001600073ffffffffffffffffffffffffffffffffffffffff168152602001600073ffffffffffffffffffffffffffffffffffffffff1681526020016000815260200160008152602001600081526020016000151581526020016000151581525090565b5b80821115610e53576000816000905550600101610e3b565b5090565b6000604051905090565b600080fd5b600080fd5b6000819050919050565b610e7e81610e6b565b8114610e8957600080fd5b50565b600081359050610e9b81610e75565b92915050565b600060208284031215610eb757610eb6610e61565b5b6000610ec584828501610e8c565b91505092915050565b610ed781610e6b565b82525050565b6000602082019050610ef26000830184610ece565b92915050565b600073ffffffffffffffffffffffffffffffffffffffff82169050919050565b6000610f2382610ef8565b9050919050565b610f3381610f18565b8114610f3e57600080fd5b50565b600081359050610f5081610f2a565b92915050565b600080fd5b600080fd5b600080fd5b60008083601f840112610f7b57610f7a610f56565b5b8235905067ffffffffffffffff811115610f9857610f97610f5b565b5b602083019150836001820283011115610fb457610fb3610f60565b5b9250929050565b600080600080600060808688031215610fd757610fd6610e61565b5b6000610fe588828901610f41565b9550506020610ff688828901610f41565b945050604061100788828901610e8c565b935050606086013567ffffffffffffffff81111561102857611027610e66565b5b61103488828901610f65565b92509250509295509295909350565b60007fffffffff0000000000000000000000000000000000000000000000000000000082169050919050565b61107881611043565b82525050565b6000602082019050611093600083018461106f565b92915050565b600080fd5b6000601f19601f8301169050919050565b7f4e487b7100000000000000000000000000000000000000000000000000000000600052604160045260246000fd5b6110e78261109e565b810181811067ffffffffffffffff82111715611106576111056110af565b5b80604052505050565b6000611119610e57565b905061112582826110de565b919050565b600067ffffffffffffffff821115611145576111446110af565b5b61114e8261109e565b9050602081019050919050565b82818337600083830152505050565b600061117d6111788461112a565b61110f565b90508281526020810184848401111561119957611198611099565b5b6111a484828561115b565b509392505050565b600082601f8301126111c1576111c0610f56565b5b81356111d184826020860161116a565b91505092915050565b600080600080600080600080610100898b0312156111fb576111fa610e61565b5b600089013567ffffffffffffffff81111561121957611218610e66565b5b6112258b828c016111ac565b98505060206112368b828c01610e8c565b97505060406112478b828c01610e8c565b96505060606112588b828c01610e8c565b95505060806112698b828c01610e8c565b94505060a061127a8b828c01610f41565b93505060c089013567ffffffffffffffff81111561129b5761129a610e66565b5b6112a78b828c016111ac565b92505060e06112b88b828c01610f41565b9150509295985092959890939650565b600080604083850312156112df576112de610e61565b5b60006112ed85828601610e8c565b92505060206112fe85828601610e8c565b9150509250929050565b600081519050919050565b600082825260208201905092915050565b60005b83811015611342578082015181840152602081019050611327565b60008484015250505050565b600061135982611308565b6113638185611313565b9350611373818560208601611324565b61137c8161109e565b840191505092915050565b61139081610e6b565b82525050565b61139f81610f18565b82525050565b60008115159050919050565b6113ba816113a5565b82525050565b60006101c08301600083015184820360008601526113de828261134e565b91505060208301516113f36020860182611387565b5060408301516114066040860182611387565b5060608301516114196060860182611387565b50608083015161142c6080860182611387565b5060a083015161143f60a0860182611396565b5060c083015184820360c0860152611457828261134e565b91505060e083015161146c60e0860182611396565b50610100830151611481610100860182611396565b50610120830151611496610120860182611387565b506101408301516114ab610140860182611387565b506101608301516114c0610160860182611387565b506101808301516114d56101808601826113b1565b506101a08301516114ea6101a08601826113b1565b508091505092915050565b6000602082019050818103600083015261150f81846113c0565b905092915050565b600082825260208201905092915050565b7f526166666c65206e6f7420666f756e6400000000000000000000000000000000600082015250565b600061155e601083611517565b915061156982611528565b602082019050919050565b6000602082019050818103600083015261158d81611551565b9050919050565b7f4e487b7100000000000000000000000000000000000000000000000000000000600052601160045260246000fd5b60006115ce82610e6b565b91506115d983610e6b565b92508282039050818111156115f1576115f0611594565b5b92915050565b7f496e76616c6964204e465420636f6e7472616374206164647265737300000000600082015250565b600061162d601c83611517565b9150611638826115f7565b602082019050919050565b6000602082019050818103600083015261165c81611620565b9050919050565b7f456e642074696d65206d75737420626520696e20667574757265000000000000600082015250565b6000611699601a83611517565b91506116a482611663565b602082019050919050565b600060208201905081810360008301526116c88161168c565b9050919050565b6000815190506116de81610f2a565b92915050565b6000602082840312156116fa576116f9610e61565b5b6000611708848285016116cf565b91505092915050565b7f4f6e6c79204e4654206f776e65722063616e2063726561746520726166666c65600082015250565b6000611747602083611517565b915061175282611711565b602082019050919050565b600060208201905081810360008301526117768161173a565b9050919050565b61178681610f18565b82525050565b60006060820190506117a1600083018661177d565b6117ae602083018561177d565b6117bb6040830184610ece565b949350505050565b60006117ce82610e6b565b91507fffffffffffffffffffffffffffffffffffffffffffffffffffffffffffffffff8203611800576117ff611594565b5b600182019050919050565b7f4e487b7100000000000000000000000000000000000000000000000000000000600052602260045260246000fd5b6000600282049050600182168061185257607f821691505b6020821081036118655761186461180b565b5b50919050565b60008190508160005260206000209050919050565b60006020601f8301049050919050565b600082821b905092915050565b6000600883026118cd7fffffffffffffffffffffffffffffffffffffffffffffffffffffffffffffffff82611890565b6118d78683611890565b95508019841693508086168417925050509392505050565b6000819050919050565b600061191461190f61190a84610e6b565b6118ef565b610e6b565b9050919050565b6000819050919050565b61192e836118f9565b61194261193a8261191b565b84845461189d565b825550505050565b600090565b61195761194a565b611962818484611925565b505050565b5b818110156119865761197b60008261194f565b600181019050611968565b5050565b601f8211156119cb5761199c8161186b565b6119a584611880565b810160208510156119b4578190505b6119c86119c085611880565b830182611967565b50505b505050565b600082821c905092915050565b60006119ee600019846008026119d0565b1980831691505092915050565b6000611a0783836119dd565b9150826002028217905092915050565b611a2082611308565b67ffffffffffffffff811115611a3957611a386110af565b5b611a43825461183a565b611a4e82828561198a565b600060209050601f831160018114611a815760008415611a6f578287015190505b611a7985826119fb565b865550611ae1565b601f198416611a8f8661186b565b60005b82811015611ab757848901518255600182019150602085019450602081019050611a92565b86831015611ad45784890151611ad0601f8916826119dd565b8355505b6001600288020188555050505b505050505050565b7f526166666c652063616e63656c6c656400000000000000000000000000000000600082015250565b6000611b1f601083611517565b9150611b2a82611ae9565b602082019050919050565b60006020820190508181036000830152611b4e81611b12565b9050919050565b7f526166666c6520656e6465640000000000000000000000000000000000000000600082015250565b6000611b8b600c83611517565b9150611b9682611b55565b602082019050919050565b60006020820190508181036000830152611bba81611b7e565b9050919050565b7f4e6f7420656e6f756768207469636b65747320617661696c61626c6500000000600082015250565b6000611bf7601c83611517565b9150611c0282611bc1565b602082019050919050565b60006020820190508181036000830152611c2681611bea565b9050919050565b7f496e73756666696369656e742066756e64730000000000000000000000000000600082015250565b6000611c63601283611517565b9150611c6e82611c2d565b602082019050919050565b60006020820190508181036000830152611c9281611c56565b9050919050565b6000611ca482610e6b565b9150611caf83610e6b565b9250828201905080821115611cc757611cc6611594565b5b92915050565b6000611cd882610e6b565b9150611ce383610e6b565b9250828202611cf181610e6b565b91508282048414831517611d0857611d07611594565b5b5092915050565b7f4e487b7100000000000000000000000000000000000000000000000000000000600052601260045260246000fd5b6000611d4982610e6b565b9150611d5483610e6b565b925082611d6457611d63611d0f565b5b82820490509291505056fea264697066735822122025c08e9a760e7a2ab12d755def834cc926837f598bb5665d615ee17c673b293e64736f6c63430008130033",
  "immutableReferences": {},
  "source": "// SPDX-License-Identifier: MIT\r\npragma solidity ^0.8.0;\r\n\r\nimport \"@openzeppelin/contracts/token/ERC721/IERC721.sol\";\r\nimport \"@openzeppelin/contracts/utils/math/SafeMath.sol\";\r\nimport \"@openzeppelin/contracts/token/ERC721/IERC721Receiver.sol\";\r\n\r\ncontract nftRafflerOriginx1 is IERC721Receiver {\r\n    using SafeMath for uint256;\r\n\r\n    struct Raffle {\r\n    uint raffleId;\r\n    string raffleName;\r\n    uint256 nftPrice;\r\n    uint256 totalVolumeofTickets;\r\n    uint256 endTime;\r\n    uint256 nftId;\r\n    address nftContractAddress;\r\n    string nftSourceLink;\r\n    address charityAddress;\r\n    address raffleCreator;\r\n    uint256 rafflePool;\r\n    uint256 ticketPrice;\r\n    uint256 totalSoldTickets;\r\n    bool raffleCancelled;\r\n    bool raffleEnded;\r\n    uint256 fundsInContract;\r\n    uint256[] tickets;\r\n    }\r\n\r\n    struct RaffleInfo {\r\n        string raffleName;\r\n        uint256 nftPrice;\r\n        uint256 totalVolumeofTickets;\r\n        uint256 endTime;\r\n        uint256 nftId;\r\n        address nftContractAddress;\r\n        string nftSourceLink;\r\n        address charityAddress;\r\n        address raffleCreator;\r\n        uint256 rafflePool;\r\n        uint256 ticketPrice;\r\n        uint256 totalSoldTickets;\r\n        bool raffleCancelled;\r\n        bool raffleEnded;\r\n        }\r\n\r\n    struct TicketOwnership {\r\n       mapping(address => uint256) ticketsOwned;\r\n    }\r\n\r\n    mapping(uint256 => Raffle) private raffles;\r\n    mapping(uint256 => TicketOwnership) private ticketOwnerships;\r\n    uint256 private randomNonce = 0;\r\n    uint256 private raffleCount = 0;\r\n\r\n    function createRaffle(string memory _raffleName, uint256 _nftPrice, uint256 _totalVolumeofTickets, uint256 _endTime, uint256 _nftId, address _nftContractAddress, string memory _nftSourceLink, address _charityAddres) public returns (uint256) {\r\n    require(_nftContractAddress != address(0), \"Invalid NFT contract address\");\r\n    require(_endTime > block.timestamp, \"End time must be in future\");\r\n    IERC721 nftContract = IERC721(_nftContractAddress);\r\n    require(msg.sender == nftContract.ownerOf(_nftId), \"Only NFT owner can create raffle\");\r\n\r\n    nftContract.safeTransferFrom(msg.sender, address(this), _nftId);\r\n    raffleCount++;\r\n\r\n    raffles[raffleCount] = Raffle({\r\n    raffleId: raffleCount,\r\n    raffleName: _raffleName,\r\n    nftPrice: _nftPrice,\r\n    totalVolumeofTickets: _totalVolumeofTickets,\r\n    endTime: _endTime,\r\n    nftId: _nftId,\r\n    nftContractAddress: _nftContractAddress,\r\n    nftSourceLink: _nftSourceLink,\r\n    raffleCreator: msg.sender,\r\n    rafflePool: (_nftPrice.mul(150)).div(100),\r\n    ticketPrice: 0,\r\n    charityAddress: _charityAddres,\r\n    totalSoldTickets: 0,\r\n    raffleCancelled: false,\r\n    raffleEnded: false,\r\n    fundsInContract: 0,\r\n    tickets: new uint256[](0)\r\n    });\r\n\r\n    raffles[raffleCount].ticketPrice = raffles[raffleCount].rafflePool.div(_totalVolumeofTickets);\r\n\r\n    return raffleCount;\r\n    }\r\n\r\n    function getAvailableTickets(uint256 _raffleID) public view returns (uint256) {\r\n    Raffle storage raffle = raffles[_raffleID];\r\n    require(raffle.raffleId != 0, \"Raffle not found\");\r\n\r\n    if (raffle.raffleEnded || raffle.raffleCancelled) {\r\n        return 0;\r\n    } else {\r\n        return raffle.totalVolumeofTickets - raffle.totalSoldTickets;\r\n    }\r\n    }\r\n\r\n    function buyTicket(uint256 _raffleID, uint256 _totalTicketsWanted) public payable {\r\n    Raffle storage raffle = raffles[_raffleID];\r\n    require(raffle.raffleId != 0, \"Raffle not found\");\r\n    require(!raffle.raffleCancelled, \"Raffle cancelled\");\r\n    require(!raffle.raffleEnded, \"Raffle ended\");\r\n    require(raffle.totalSoldTickets.add(_totalTicketsWanted) <= raffle.totalVolumeofTickets, \"Not enough tickets available\");\r\n\r\n    // Calculate the price for the requested number of tickets\r\n    uint256 ticketPrice = raffle.ticketPrice.mul(_totalTicketsWanted);\r\n    require(msg.value >= ticketPrice, \"Insufficient funds\");\r\n\r\n    // Add the tickets to the ticket array\r\n    for (uint256 i = 0; i < _totalTicketsWanted; i++) {\r\n        uint256 ticketNumber = raffle.tickets.length + 1;\r\n        raffle.tickets.push(ticketNumber);\r\n        ticketOwnerships[_raffleID].ticketsOwned[msg.sender] = ticketNumber;\r\n    }\r\n\r\n    // Increment the number of sold tickets\r\n    raffle.totalSoldTickets = raffle.totalSoldTickets.add(_totalTicketsWanted);\r\n\r\n    // Update the funds in the contract\r\n    raffle.fundsInContract = raffle.fundsInContract.add(msg.value);\r\n    }\r\n\r\n    function raffleInfo(uint256 _raffleID) public view returns (RaffleInfo memory) {\r\n    Raffle storage raffle = raffles[_raffleID];\r\n\r\n    RaffleInfo memory raffleInfo = RaffleInfo({\r\n        raffleName: raffle.raffleName,\r\n        nftPrice: raffle.nftPrice,\r\n        totalVolumeofTickets: raffle.totalVolumeofTickets,\r\n        endTime: raffle.endTime,\r\n        nftId: raffle.nftId,\r\n        nftContractAddress: raffle.nftContractAddress,\r\n        nftSourceLink: raffle.nftSourceLink,\r\n        charityAddress: raffle.charityAddress,\r\n        raffleCreator: raffle.raffleCreator,\r\n        rafflePool: raffle.rafflePool,\r\n        ticketPrice: raffle.ticketPrice,\r\n        totalSoldTickets: raffle.totalSoldTickets,\r\n        raffleCancelled: raffle.raffleCancelled,\r\n        raffleEnded: raffle.raffleEnded\r\n    });\r\n\r\n    return raffleInfo;\r\n    }\r\n\r\n    function onERC721Received(address operator, address from, uint256 tokenId, bytes calldata data) external returns (bytes4) {\r\n    return this.onERC721Received.selector;\r\n    }\r\n    }",
  "sourcePath": "C:\\Users\\user\\Desktop\\GIT_REPOS\\dappathon\\backend\\contracts\\mainNftRaffle.sol",
  "compiler": {
    "name": "solc",
    "version": "0.8.19+commit.7dd6d404.Emscripten.clang"
  },
  "schemaVersion": "3.4.13",
  "updatedAt": "2023-05-07T13:18:35.927Z",
  "devdoc": {
    "kind": "dev",
    "methods": {
      "onERC721Received(address,address,uint256,bytes)": {
        "details": "Whenever an {IERC721} `tokenId` token is transferred to this contract via {IERC721-safeTransferFrom} by `operator` from `from`, this function is called. It must return its Solidity selector to confirm the token transfer. If any other value is returned or the interface is not implemented by the recipient, the transfer will be reverted. The selector can be obtained in Solidity with `IERC721Receiver.onERC721Received.selector`."
      }
    },
    "version": 1
  },
  "userdoc": {
    "kind": "user",
    "methods": {},
    "version": 1
  }
}